{
	"contracts/whitelist.sol": {
		"Whitelist": {
			"abi": [
				{
					"anonymous": false,
					"inputs": [
						{
							"indexed": false,
							"internalType": "address",
							"name": "",
							"type": "address"
						},
						{
							"indexed": false,
							"internalType": "string",
							"name": "",
							"type": "string"
						}
					],
					"name": "whitelistLog",
					"type": "event"
				},
				{
					"inputs": [],
					"name": "addToWhitelist",
					"outputs": [],
					"stateMutability": "nonpayable",
					"type": "function"
				}
			],
			"devdoc": {
				"kind": "dev",
				"methods": {},
				"version": 1
			},
			"evm": {
				"assembly": "    /* \"contracts/whitelist.sol\":60:486  contract Whitelist {\r... */\n  mstore(0x40, 0x80)\n    /* \"contracts/whitelist.sol\":155:157  10 */\n  0x0a\n    /* \"contracts/whitelist.sol\":128:157  uint maxWhitelistAddress = 10 */\n  0x00\n  sstore\n    /* \"contracts/whitelist.sol\":60:486  contract Whitelist {\r... */\n  callvalue\n  dup1\n  iszero\n  tag_1\n  jumpi\n  0x00\n  dup1\n  revert\ntag_1:\n  pop\n  dataSize(sub_0)\n  dup1\n  dataOffset(sub_0)\n  0x00\n  codecopy\n  0x00\n  return\nstop\n\nsub_0: assembly {\n        /* \"contracts/whitelist.sol\":60:486  contract Whitelist {\r... */\n      mstore(0x40, 0x80)\n      callvalue\n      dup1\n      iszero\n      tag_1\n      jumpi\n      0x00\n      dup1\n      revert\n    tag_1:\n      pop\n      jumpi(tag_2, lt(calldatasize, 0x04))\n      shr(0xe0, calldataload(0x00))\n      dup1\n      0x59896366\n      eq\n      tag_3\n      jumpi\n    tag_2:\n      0x00\n      dup1\n      revert\n        /* \"contracts/whitelist.sol\":246:475  function addToWhitelist() public {\r... */\n    tag_3:\n      tag_4\n      tag_5\n      jump\t// in\n    tag_4:\n      stop\n    tag_5:\n        /* \"contracts/whitelist.sol\":316:335  maxWhitelistAddress */\n      sload(0x00)\n        /* \"contracts/whitelist.sol\":293:313  currentlyWhitelisted */\n      sload(0x01)\n        /* \"contracts/whitelist.sol\":293:335  currentlyWhitelisted < maxWhitelistAddress */\n      lt\n        /* \"contracts/whitelist.sol\":285:354  require(currentlyWhitelisted < maxWhitelistAddress, \"Whitelist full\") */\n      tag_7\n      jumpi\n      mload(0x40)\n      0x08c379a000000000000000000000000000000000000000000000000000000000\n      dup2\n      mstore\n      0x04\n      add\n      tag_8\n      swap1\n      tag_9\n      jump\t// in\n    tag_8:\n      mload(0x40)\n      dup1\n      swap2\n      sub\n      swap1\n      revert\n    tag_7:\n        /* \"contracts/whitelist.sol\":369:385  whitelistAddress */\n      0x02\n        /* \"contracts/whitelist.sol\":369:397  whitelistAddress[msg.sender] */\n      0x00\n        /* \"contracts/whitelist.sol\":386:396  msg.sender */\n      caller\n        /* \"contracts/whitelist.sol\":369:397  whitelistAddress[msg.sender] */\n      0xffffffffffffffffffffffffffffffffffffffff\n      and\n      0xffffffffffffffffffffffffffffffffffffffff\n      and\n      dup2\n      mstore\n      0x20\n      add\n      swap1\n      dup2\n      mstore\n      0x20\n      add\n      0x00\n      keccak256\n      0x00\n      swap1\n      sload\n      swap1\n      0x0100\n      exp\n      swap1\n      div\n      0xff\n      and\n        /* \"contracts/whitelist.sol\":368:397  !whitelistAddress[msg.sender] */\n      iszero\n        /* \"contracts/whitelist.sol\":360:429  require(!whitelistAddress[msg.sender], \"Address already whitelisted\") */\n      tag_10\n      jumpi\n      mload(0x40)\n      0x08c379a000000000000000000000000000000000000000000000000000000000\n      dup2\n      mstore\n      0x04\n      add\n      tag_11\n      swap1\n      tag_12\n      jump\t// in\n    tag_11:\n      mload(0x40)\n      dup1\n      swap2\n      sub\n      swap1\n      revert\n    tag_10:\n        /* \"contracts/whitelist.sol\":466:470  true */\n      0x01\n        /* \"contracts/whitelist.sol\":435:451  whitelistAddress */\n      0x02\n        /* \"contracts/whitelist.sol\":435:463  whitelistAddress[msg.sender] */\n      0x00\n        /* \"contracts/whitelist.sol\":452:462  msg.sender */\n      caller\n        /* \"contracts/whitelist.sol\":435:463  whitelistAddress[msg.sender] */\n      0xffffffffffffffffffffffffffffffffffffffff\n      and\n      0xffffffffffffffffffffffffffffffffffffffff\n      and\n      dup2\n      mstore\n      0x20\n      add\n      swap1\n      dup2\n      mstore\n      0x20\n      add\n      0x00\n      keccak256\n      0x00\n        /* \"contracts/whitelist.sol\":435:470  whitelistAddress[msg.sender] = true */\n      0x0100\n      exp\n      dup2\n      sload\n      dup2\n      0xff\n      mul\n      not\n      and\n      swap1\n      dup4\n      iszero\n      iszero\n      mul\n      or\n      swap1\n      sstore\n      pop\n        /* \"contracts/whitelist.sol\":246:475  function addToWhitelist() public {\r... */\n      jump\t// out\n        /* \"#utility.yul\":7:373   */\n    tag_14:\n        /* \"#utility.yul\":149:152   */\n      0x00\n        /* \"#utility.yul\":170:237   */\n      tag_16\n        /* \"#utility.yul\":234:236   */\n      0x0e\n        /* \"#utility.yul\":229:232   */\n      dup4\n        /* \"#utility.yul\":170:237   */\n      tag_17\n      jump\t// in\n    tag_16:\n        /* \"#utility.yul\":163:237   */\n      swap2\n      pop\n        /* \"#utility.yul\":246:339   */\n      tag_18\n        /* \"#utility.yul\":335:338   */\n      dup3\n        /* \"#utility.yul\":246:339   */\n      tag_19\n      jump\t// in\n    tag_18:\n        /* \"#utility.yul\":364:366   */\n      0x20\n        /* \"#utility.yul\":359:362   */\n      dup3\n        /* \"#utility.yul\":355:367   */\n      add\n        /* \"#utility.yul\":348:367   */\n      swap1\n      pop\n        /* \"#utility.yul\":7:373   */\n      swap2\n      swap1\n      pop\n      jump\t// out\n        /* \"#utility.yul\":379:745   */\n    tag_20:\n        /* \"#utility.yul\":521:524   */\n      0x00\n        /* \"#utility.yul\":542:609   */\n      tag_22\n        /* \"#utility.yul\":606:608   */\n      0x1b\n        /* \"#utility.yul\":601:604   */\n      dup4\n        /* \"#utility.yul\":542:609   */\n      tag_17\n      jump\t// in\n    tag_22:\n        /* \"#utility.yul\":535:609   */\n      swap2\n      pop\n        /* \"#utility.yul\":618:711   */\n      tag_23\n        /* \"#utility.yul\":707:710   */\n      dup3\n        /* \"#utility.yul\":618:711   */\n      tag_24\n      jump\t// in\n    tag_23:\n        /* \"#utility.yul\":736:738   */\n      0x20\n        /* \"#utility.yul\":731:734   */\n      dup3\n        /* \"#utility.yul\":727:739   */\n      add\n        /* \"#utility.yul\":720:739   */\n      swap1\n      pop\n        /* \"#utility.yul\":379:745   */\n      swap2\n      swap1\n      pop\n      jump\t// out\n        /* \"#utility.yul\":751:1170   */\n    tag_9:\n        /* \"#utility.yul\":917:921   */\n      0x00\n        /* \"#utility.yul\":955:957   */\n      0x20\n        /* \"#utility.yul\":944:953   */\n      dup3\n        /* \"#utility.yul\":940:958   */\n      add\n        /* \"#utility.yul\":932:958   */\n      swap1\n      pop\n        /* \"#utility.yul\":1004:1013   */\n      dup2\n        /* \"#utility.yul\":998:1002   */\n      dup2\n        /* \"#utility.yul\":994:1014   */\n      sub\n        /* \"#utility.yul\":990:991   */\n      0x00\n        /* \"#utility.yul\":979:988   */\n      dup4\n        /* \"#utility.yul\":975:992   */\n      add\n        /* \"#utility.yul\":968:1015   */\n      mstore\n        /* \"#utility.yul\":1032:1163   */\n      tag_26\n        /* \"#utility.yul\":1158:1162   */\n      dup2\n        /* \"#utility.yul\":1032:1163   */\n      tag_14\n      jump\t// in\n    tag_26:\n        /* \"#utility.yul\":1024:1163   */\n      swap1\n      pop\n        /* \"#utility.yul\":751:1170   */\n      swap2\n      swap1\n      pop\n      jump\t// out\n        /* \"#utility.yul\":1176:1595   */\n    tag_12:\n        /* \"#utility.yul\":1342:1346   */\n      0x00\n        /* \"#utility.yul\":1380:1382   */\n      0x20\n        /* \"#utility.yul\":1369:1378   */\n      dup3\n        /* \"#utility.yul\":1365:1383   */\n      add\n        /* \"#utility.yul\":1357:1383   */\n      swap1\n      pop\n        /* \"#utility.yul\":1429:1438   */\n      dup2\n        /* \"#utility.yul\":1423:1427   */\n      dup2\n        /* \"#utility.yul\":1419:1439   */\n      sub\n        /* \"#utility.yul\":1415:1416   */\n      0x00\n        /* \"#utility.yul\":1404:1413   */\n      dup4\n        /* \"#utility.yul\":1400:1417   */\n      add\n        /* \"#utility.yul\":1393:1440   */\n      mstore\n        /* \"#utility.yul\":1457:1588   */\n      tag_28\n        /* \"#utility.yul\":1583:1587   */\n      dup2\n        /* \"#utility.yul\":1457:1588   */\n      tag_20\n      jump\t// in\n    tag_28:\n        /* \"#utility.yul\":1449:1588   */\n      swap1\n      pop\n        /* \"#utility.yul\":1176:1595   */\n      swap2\n      swap1\n      pop\n      jump\t// out\n        /* \"#utility.yul\":1601:1770   */\n    tag_17:\n        /* \"#utility.yul\":1685:1696   */\n      0x00\n        /* \"#utility.yul\":1719:1725   */\n      dup3\n        /* \"#utility.yul\":1714:1717   */\n      dup3\n        /* \"#utility.yul\":1707:1726   */\n      mstore\n        /* \"#utility.yul\":1759:1763   */\n      0x20\n        /* \"#utility.yul\":1754:1757   */\n      dup3\n        /* \"#utility.yul\":1750:1764   */\n      add\n        /* \"#utility.yul\":1735:1764   */\n      swap1\n      pop\n        /* \"#utility.yul\":1601:1770   */\n      swap3\n      swap2\n      pop\n      pop\n      jump\t// out\n        /* \"#utility.yul\":1776:1940   */\n    tag_19:\n        /* \"#utility.yul\":1916:1932   */\n      0x57686974656c6973742066756c6c000000000000000000000000000000000000\n        /* \"#utility.yul\":1912:1913   */\n      0x00\n        /* \"#utility.yul\":1904:1910   */\n      dup3\n        /* \"#utility.yul\":1900:1914   */\n      add\n        /* \"#utility.yul\":1893:1933   */\n      mstore\n        /* \"#utility.yul\":1776:1940   */\n      pop\n      jump\t// out\n        /* \"#utility.yul\":1946:2123   */\n    tag_24:\n        /* \"#utility.yul\":2086:2115   */\n      0x4164647265737320616c72656164792077686974656c69737465640000000000\n        /* \"#utility.yul\":2082:2083   */\n      0x00\n        /* \"#utility.yul\":2074:2080   */\n      dup3\n        /* \"#utility.yul\":2070:2084   */\n      add\n        /* \"#utility.yul\":2063:2116   */\n      mstore\n        /* \"#utility.yul\":1946:2123   */\n      pop\n      jump\t// out\n\n    auxdata: 0xa2646970667358221220203d4ef1820e4db943079e2a1a47d35c96d88f520707736a468875bef335728464736f6c63430008070033\n}\n",
				"bytecode": {
					"linkReferences": {},
					"object": "6080604052600a60005534801561001557600080fd5b50610286806100256000396000f3fe608060405234801561001057600080fd5b506004361061002b5760003560e01c80635989636614610030575b600080fd5b61003861003a565b005b60005460015410610080576040517f08c379a0000000000000000000000000000000000000000000000000000000008152600401610077906101ad565b60405180910390fd5b600260003373ffffffffffffffffffffffffffffffffffffffff1673ffffffffffffffffffffffffffffffffffffffff16815260200190815260200160002060009054906101000a900460ff161561010d576040517f08c379a0000000000000000000000000000000000000000000000000000000008152600401610104906101cd565b60405180910390fd5b6001600260003373ffffffffffffffffffffffffffffffffffffffff1673ffffffffffffffffffffffffffffffffffffffff16815260200190815260200160002060006101000a81548160ff021916908315150217905550565b6000610174600e836101ed565b915061017f826101fe565b602082019050919050565b6000610197601b836101ed565b91506101a282610227565b602082019050919050565b600060208201905081810360008301526101c681610167565b9050919050565b600060208201905081810360008301526101e68161018a565b9050919050565b600082825260208201905092915050565b7f57686974656c6973742066756c6c000000000000000000000000000000000000600082015250565b7f4164647265737320616c72656164792077686974656c6973746564000000000060008201525056fea2646970667358221220203d4ef1820e4db943079e2a1a47d35c96d88f520707736a468875bef335728464736f6c63430008070033",
					"opcodes": "PUSH1 0x80 PUSH1 0x40 MSTORE PUSH1 0xA PUSH1 0x0 SSTORE CALLVALUE DUP1 ISZERO PUSH2 0x15 JUMPI PUSH1 0x0 DUP1 REVERT JUMPDEST POP PUSH2 0x286 DUP1 PUSH2 0x25 PUSH1 0x0 CODECOPY PUSH1 0x0 RETURN INVALID PUSH1 0x80 PUSH1 0x40 MSTORE CALLVALUE DUP1 ISZERO PUSH2 0x10 JUMPI PUSH1 0x0 DUP1 REVERT JUMPDEST POP PUSH1 0x4 CALLDATASIZE LT PUSH2 0x2B JUMPI PUSH1 0x0 CALLDATALOAD PUSH1 0xE0 SHR DUP1 PUSH4 0x59896366 EQ PUSH2 0x30 JUMPI JUMPDEST PUSH1 0x0 DUP1 REVERT JUMPDEST PUSH2 0x38 PUSH2 0x3A JUMP JUMPDEST STOP JUMPDEST PUSH1 0x0 SLOAD PUSH1 0x1 SLOAD LT PUSH2 0x80 JUMPI PUSH1 0x40 MLOAD PUSH32 0x8C379A000000000000000000000000000000000000000000000000000000000 DUP2 MSTORE PUSH1 0x4 ADD PUSH2 0x77 SWAP1 PUSH2 0x1AD JUMP JUMPDEST PUSH1 0x40 MLOAD DUP1 SWAP2 SUB SWAP1 REVERT JUMPDEST PUSH1 0x2 PUSH1 0x0 CALLER PUSH20 0xFFFFFFFFFFFFFFFFFFFFFFFFFFFFFFFFFFFFFFFF AND PUSH20 0xFFFFFFFFFFFFFFFFFFFFFFFFFFFFFFFFFFFFFFFF AND DUP2 MSTORE PUSH1 0x20 ADD SWAP1 DUP2 MSTORE PUSH1 0x20 ADD PUSH1 0x0 KECCAK256 PUSH1 0x0 SWAP1 SLOAD SWAP1 PUSH2 0x100 EXP SWAP1 DIV PUSH1 0xFF AND ISZERO PUSH2 0x10D JUMPI PUSH1 0x40 MLOAD PUSH32 0x8C379A000000000000000000000000000000000000000000000000000000000 DUP2 MSTORE PUSH1 0x4 ADD PUSH2 0x104 SWAP1 PUSH2 0x1CD JUMP JUMPDEST PUSH1 0x40 MLOAD DUP1 SWAP2 SUB SWAP1 REVERT JUMPDEST PUSH1 0x1 PUSH1 0x2 PUSH1 0x0 CALLER PUSH20 0xFFFFFFFFFFFFFFFFFFFFFFFFFFFFFFFFFFFFFFFF AND PUSH20 0xFFFFFFFFFFFFFFFFFFFFFFFFFFFFFFFFFFFFFFFF AND DUP2 MSTORE PUSH1 0x20 ADD SWAP1 DUP2 MSTORE PUSH1 0x20 ADD PUSH1 0x0 KECCAK256 PUSH1 0x0 PUSH2 0x100 EXP DUP2 SLOAD DUP2 PUSH1 0xFF MUL NOT AND SWAP1 DUP4 ISZERO ISZERO MUL OR SWAP1 SSTORE POP JUMP JUMPDEST PUSH1 0x0 PUSH2 0x174 PUSH1 0xE DUP4 PUSH2 0x1ED JUMP JUMPDEST SWAP2 POP PUSH2 0x17F DUP3 PUSH2 0x1FE JUMP JUMPDEST PUSH1 0x20 DUP3 ADD SWAP1 POP SWAP2 SWAP1 POP JUMP JUMPDEST PUSH1 0x0 PUSH2 0x197 PUSH1 0x1B DUP4 PUSH2 0x1ED JUMP JUMPDEST SWAP2 POP PUSH2 0x1A2 DUP3 PUSH2 0x227 JUMP JUMPDEST PUSH1 0x20 DUP3 ADD SWAP1 POP SWAP2 SWAP1 POP JUMP JUMPDEST PUSH1 0x0 PUSH1 0x20 DUP3 ADD SWAP1 POP DUP2 DUP2 SUB PUSH1 0x0 DUP4 ADD MSTORE PUSH2 0x1C6 DUP2 PUSH2 0x167 JUMP JUMPDEST SWAP1 POP SWAP2 SWAP1 POP JUMP JUMPDEST PUSH1 0x0 PUSH1 0x20 DUP3 ADD SWAP1 POP DUP2 DUP2 SUB PUSH1 0x0 DUP4 ADD MSTORE PUSH2 0x1E6 DUP2 PUSH2 0x18A JUMP JUMPDEST SWAP1 POP SWAP2 SWAP1 POP JUMP JUMPDEST PUSH1 0x0 DUP3 DUP3 MSTORE PUSH1 0x20 DUP3 ADD SWAP1 POP SWAP3 SWAP2 POP POP JUMP JUMPDEST PUSH32 0x57686974656C6973742066756C6C000000000000000000000000000000000000 PUSH1 0x0 DUP3 ADD MSTORE POP JUMP JUMPDEST PUSH32 0x4164647265737320616C72656164792077686974656C69737465640000000000 PUSH1 0x0 DUP3 ADD MSTORE POP JUMP INVALID LOG2 PUSH5 0x6970667358 0x22 SLT KECCAK256 KECCAK256 RETURNDATASIZE 0x4E CALL DUP3 0xE 0x4D 0xB9 NUMBER SMOD SWAP15 0x2A BYTE SELFBALANCE 0xD3 0x5C SWAP7 0xD8 DUP16 MSTORE SMOD SMOD PUSH20 0x6A468875BEF335728464736F6C63430008070033 "
				},
				"gasEstimates": {
					"creation": {
						"codeDepositCost": "129200",
						"executionCost": "22283",
						"totalCost": "151483"
					},
					"external": {
						"addToWhitelist()": "30946"
					}
				},
				"methodIdentifiers": {
					"addToWhitelist()": "59896366"
				}
			},
			"userdoc": {
				"kind": "user",
				"methods": {},
				"version": 1
			}
		}
	}
}