{
	"contracts/whitelist.sol": {
		"Whitelist": {
			"abi": [
				{
					"anonymous": false,
					"inputs": [
						{
							"indexed": false,
							"internalType": "address",
							"name": "",
							"type": "address"
						},
						{
							"indexed": false,
							"internalType": "string",
							"name": "",
							"type": "string"
						}
					],
					"name": "whitelistLog",
					"type": "event"
				},
				{
					"inputs": [],
					"name": "addToWhitelist",
					"outputs": [],
					"stateMutability": "nonpayable",
					"type": "function"
				},
				{
					"inputs": [],
					"name": "currentlyWhitelisted",
					"outputs": [
						{
							"internalType": "uint256",
							"name": "",
							"type": "uint256"
						}
					],
					"stateMutability": "view",
					"type": "function"
				},
				{
					"inputs": [],
					"name": "getAddressStatus",
					"outputs": [
						{
							"internalType": "bool",
							"name": "",
							"type": "bool"
						}
					],
					"stateMutability": "view",
					"type": "function"
				}
			],
			"devdoc": {
				"kind": "dev",
				"methods": {},
				"version": 1
			},
			"evm": {
				"assembly": "    /* \"contracts/whitelist.sol\":60:673  contract Whitelist {\r... */\n  mstore(0x40, 0x80)\n    /* \"contracts/whitelist.sol\":155:156  3 */\n  0x03\n    /* \"contracts/whitelist.sol\":128:156  uint maxWhitelistAddress = 3 */\n  0x00\n  sstore\n    /* \"contracts/whitelist.sol\":60:673  contract Whitelist {\r... */\n  callvalue\n  dup1\n  iszero\n  tag_1\n  jumpi\n  0x00\n  dup1\n  revert\ntag_1:\n  pop\n  dataSize(sub_0)\n  dup1\n  dataOffset(sub_0)\n  0x00\n  codecopy\n  0x00\n  return\nstop\n\nsub_0: assembly {\n        /* \"contracts/whitelist.sol\":60:673  contract Whitelist {\r... */\n      mstore(0x40, 0x80)\n      callvalue\n      dup1\n      iszero\n      tag_1\n      jumpi\n      0x00\n      dup1\n      revert\n    tag_1:\n      pop\n      jumpi(tag_2, lt(calldatasize, 0x04))\n      shr(0xe0, calldataload(0x00))\n      dup1\n      0x59896366\n      eq\n      tag_3\n      jumpi\n      dup1\n      0x95076334\n      eq\n      tag_4\n      jumpi\n      dup1\n      0xd6730f35\n      eq\n      tag_5\n      jumpi\n    tag_2:\n      0x00\n      dup1\n      revert\n        /* \"contracts/whitelist.sol\":252:566  function addToWhitelist() public {\r... */\n    tag_3:\n      tag_6\n      tag_7\n      jump\t// in\n    tag_6:\n      stop\n        /* \"contracts/whitelist.sol\":571:670  function getAddressStatus() public view returns(bool){\r... */\n    tag_4:\n      tag_8\n      tag_9\n      jump\t// in\n    tag_8:\n      mload(0x40)\n      tag_10\n      swap2\n      swap1\n      tag_11\n      jump\t// in\n    tag_10:\n      mload(0x40)\n      dup1\n      swap2\n      sub\n      swap1\n      return\n        /* \"contracts/whitelist.sol\":163:195  uint public currentlyWhitelisted */\n    tag_5:\n      tag_12\n      tag_13\n      jump\t// in\n    tag_12:\n      mload(0x40)\n      tag_14\n      swap2\n      swap1\n      tag_15\n      jump\t// in\n    tag_14:\n      mload(0x40)\n      dup1\n      swap2\n      sub\n      swap1\n      return\n        /* \"contracts/whitelist.sol\":252:566  function addToWhitelist() public {\r... */\n    tag_7:\n        /* \"contracts/whitelist.sol\":300:316  whitelistAddress */\n      0x02\n        /* \"contracts/whitelist.sol\":300:328  whitelistAddress[msg.sender] */\n      0x00\n        /* \"contracts/whitelist.sol\":317:327  msg.sender */\n      caller\n        /* \"contracts/whitelist.sol\":300:328  whitelistAddress[msg.sender] */\n      0xffffffffffffffffffffffffffffffffffffffff\n      and\n      0xffffffffffffffffffffffffffffffffffffffff\n      and\n      dup2\n      mstore\n      0x20\n      add\n      swap1\n      dup2\n      mstore\n      0x20\n      add\n      0x00\n      keccak256\n      0x00\n      swap1\n      sload\n      swap1\n      0x0100\n      exp\n      swap1\n      div\n      0xff\n      and\n        /* \"contracts/whitelist.sol\":299:328  !whitelistAddress[msg.sender] */\n      iszero\n        /* \"contracts/whitelist.sol\":291:360  require(!whitelistAddress[msg.sender], \"Address already whitelisted\") */\n      tag_17\n      jumpi\n      mload(0x40)\n      0x08c379a000000000000000000000000000000000000000000000000000000000\n      dup2\n      mstore\n      0x04\n      add\n      tag_18\n      swap1\n      tag_19\n      jump\t// in\n    tag_18:\n      mload(0x40)\n      dup1\n      swap2\n      sub\n      swap1\n      revert\n    tag_17:\n        /* \"contracts/whitelist.sol\":397:416  maxWhitelistAddress */\n      sload(0x00)\n        /* \"contracts/whitelist.sol\":374:394  currentlyWhitelisted */\n      sload(0x01)\n        /* \"contracts/whitelist.sol\":374:416  currentlyWhitelisted < maxWhitelistAddress */\n      lt\n        /* \"contracts/whitelist.sol\":366:435  require(currentlyWhitelisted < maxWhitelistAddress, \"Whitelist full\") */\n      tag_20\n      jumpi\n      mload(0x40)\n      0x08c379a000000000000000000000000000000000000000000000000000000000\n      dup2\n      mstore\n      0x04\n      add\n      tag_21\n      swap1\n      tag_22\n      jump\t// in\n    tag_21:\n      mload(0x40)\n      dup1\n      swap2\n      sub\n      swap1\n      revert\n    tag_20:\n        /* \"contracts/whitelist.sol\":472:476  true */\n      0x01\n        /* \"contracts/whitelist.sol\":441:457  whitelistAddress */\n      0x02\n        /* \"contracts/whitelist.sol\":441:469  whitelistAddress[msg.sender] */\n      0x00\n        /* \"contracts/whitelist.sol\":458:468  msg.sender */\n      caller\n        /* \"contracts/whitelist.sol\":441:469  whitelistAddress[msg.sender] */\n      0xffffffffffffffffffffffffffffffffffffffff\n      and\n      0xffffffffffffffffffffffffffffffffffffffff\n      and\n      dup2\n      mstore\n      0x20\n      add\n      swap1\n      dup2\n      mstore\n      0x20\n      add\n      0x00\n      keccak256\n      0x00\n        /* \"contracts/whitelist.sol\":441:476  whitelistAddress[msg.sender] = true */\n      0x0100\n      exp\n      dup2\n      sload\n      dup2\n      0xff\n      mul\n      not\n      and\n      swap1\n      dup4\n      iszero\n      iszero\n      mul\n      or\n      swap1\n      sstore\n      pop\n        /* \"contracts/whitelist.sol\":482:502  currentlyWhitelisted */\n      0x01\n      0x00\n        /* \"contracts/whitelist.sol\":482:504  currentlyWhitelisted++ */\n      dup2\n      sload\n      dup1\n      swap3\n      swap2\n      swap1\n      tag_23\n      swap1\n      tag_24\n      jump\t// in\n    tag_23:\n      swap2\n      swap1\n      pop\n      sstore\n      pop\n        /* \"contracts/whitelist.sol\":515:561  whitelistLog(msg.sender, \"Added to whitelist\") */\n      0x067988fa01e6014de6062ac5892f64cc8ac86c38cc1052e9328b5419f068fa1c\n        /* \"contracts/whitelist.sol\":528:538  msg.sender */\n      caller\n        /* \"contracts/whitelist.sol\":515:561  whitelistLog(msg.sender, \"Added to whitelist\") */\n      mload(0x40)\n      tag_25\n      swap2\n      swap1\n      tag_26\n      jump\t// in\n    tag_25:\n      mload(0x40)\n      dup1\n      swap2\n      sub\n      swap1\n      log1\n        /* \"contracts/whitelist.sol\":252:566  function addToWhitelist() public {\r... */\n      jump\t// out\n        /* \"contracts/whitelist.sol\":571:670  function getAddressStatus() public view returns(bool){\r... */\n    tag_9:\n        /* \"contracts/whitelist.sol\":619:623  bool */\n      0x00\n        /* \"contracts/whitelist.sol\":637:653  whitelistAddress */\n      0x02\n        /* \"contracts/whitelist.sol\":637:665  whitelistAddress[msg.sender] */\n      0x00\n        /* \"contracts/whitelist.sol\":654:664  msg.sender */\n      caller\n        /* \"contracts/whitelist.sol\":637:665  whitelistAddress[msg.sender] */\n      0xffffffffffffffffffffffffffffffffffffffff\n      and\n      0xffffffffffffffffffffffffffffffffffffffff\n      and\n      dup2\n      mstore\n      0x20\n      add\n      swap1\n      dup2\n      mstore\n      0x20\n      add\n      0x00\n      keccak256\n      0x00\n      swap1\n      sload\n      swap1\n      0x0100\n      exp\n      swap1\n      div\n      0xff\n      and\n        /* \"contracts/whitelist.sol\":630:665  return whitelistAddress[msg.sender] */\n      swap1\n      pop\n        /* \"contracts/whitelist.sol\":571:670  function getAddressStatus() public view returns(bool){\r... */\n      swap1\n      jump\t// out\n        /* \"contracts/whitelist.sol\":163:195  uint public currentlyWhitelisted */\n    tag_13:\n      sload(0x01)\n      dup2\n      jump\t// out\n        /* \"#utility.yul\":7:125   */\n    tag_29:\n        /* \"#utility.yul\":94:118   */\n      tag_31\n        /* \"#utility.yul\":112:117   */\n      dup2\n        /* \"#utility.yul\":94:118   */\n      tag_32\n      jump\t// in\n    tag_31:\n        /* \"#utility.yul\":89:92   */\n      dup3\n        /* \"#utility.yul\":82:119   */\n      mstore\n        /* \"#utility.yul\":7:125   */\n      pop\n      pop\n      jump\t// out\n        /* \"#utility.yul\":131:240   */\n    tag_33:\n        /* \"#utility.yul\":212:233   */\n      tag_35\n        /* \"#utility.yul\":227:232   */\n      dup2\n        /* \"#utility.yul\":212:233   */\n      tag_36\n      jump\t// in\n    tag_35:\n        /* \"#utility.yul\":207:210   */\n      dup3\n        /* \"#utility.yul\":200:234   */\n      mstore\n        /* \"#utility.yul\":131:240   */\n      pop\n      pop\n      jump\t// out\n        /* \"#utility.yul\":246:612   */\n    tag_37:\n        /* \"#utility.yul\":388:391   */\n      0x00\n        /* \"#utility.yul\":409:476   */\n      tag_39\n        /* \"#utility.yul\":473:475   */\n      0x12\n        /* \"#utility.yul\":468:471   */\n      dup4\n        /* \"#utility.yul\":409:476   */\n      tag_40\n      jump\t// in\n    tag_39:\n        /* \"#utility.yul\":402:476   */\n      swap2\n      pop\n        /* \"#utility.yul\":485:578   */\n      tag_41\n        /* \"#utility.yul\":574:577   */\n      dup3\n        /* \"#utility.yul\":485:578   */\n      tag_42\n      jump\t// in\n    tag_41:\n        /* \"#utility.yul\":603:605   */\n      0x20\n        /* \"#utility.yul\":598:601   */\n      dup3\n        /* \"#utility.yul\":594:606   */\n      add\n        /* \"#utility.yul\":587:606   */\n      swap1\n      pop\n        /* \"#utility.yul\":246:612   */\n      swap2\n      swap1\n      pop\n      jump\t// out\n        /* \"#utility.yul\":618:984   */\n    tag_43:\n        /* \"#utility.yul\":760:763   */\n      0x00\n        /* \"#utility.yul\":781:848   */\n      tag_45\n        /* \"#utility.yul\":845:847   */\n      0x0e\n        /* \"#utility.yul\":840:843   */\n      dup4\n        /* \"#utility.yul\":781:848   */\n      tag_40\n      jump\t// in\n    tag_45:\n        /* \"#utility.yul\":774:848   */\n      swap2\n      pop\n        /* \"#utility.yul\":857:950   */\n      tag_46\n        /* \"#utility.yul\":946:949   */\n      dup3\n        /* \"#utility.yul\":857:950   */\n      tag_47\n      jump\t// in\n    tag_46:\n        /* \"#utility.yul\":975:977   */\n      0x20\n        /* \"#utility.yul\":970:973   */\n      dup3\n        /* \"#utility.yul\":966:978   */\n      add\n        /* \"#utility.yul\":959:978   */\n      swap1\n      pop\n        /* \"#utility.yul\":618:984   */\n      swap2\n      swap1\n      pop\n      jump\t// out\n        /* \"#utility.yul\":990:1356   */\n    tag_48:\n        /* \"#utility.yul\":1132:1135   */\n      0x00\n        /* \"#utility.yul\":1153:1220   */\n      tag_50\n        /* \"#utility.yul\":1217:1219   */\n      0x1b\n        /* \"#utility.yul\":1212:1215   */\n      dup4\n        /* \"#utility.yul\":1153:1220   */\n      tag_40\n      jump\t// in\n    tag_50:\n        /* \"#utility.yul\":1146:1220   */\n      swap2\n      pop\n        /* \"#utility.yul\":1229:1322   */\n      tag_51\n        /* \"#utility.yul\":1318:1321   */\n      dup3\n        /* \"#utility.yul\":1229:1322   */\n      tag_52\n      jump\t// in\n    tag_51:\n        /* \"#utility.yul\":1347:1349   */\n      0x20\n        /* \"#utility.yul\":1342:1345   */\n      dup3\n        /* \"#utility.yul\":1338:1350   */\n      add\n        /* \"#utility.yul\":1331:1350   */\n      swap1\n      pop\n        /* \"#utility.yul\":990:1356   */\n      swap2\n      swap1\n      pop\n      jump\t// out\n        /* \"#utility.yul\":1362:1480   */\n    tag_53:\n        /* \"#utility.yul\":1449:1473   */\n      tag_55\n        /* \"#utility.yul\":1467:1472   */\n      dup2\n        /* \"#utility.yul\":1449:1473   */\n      tag_56\n      jump\t// in\n    tag_55:\n        /* \"#utility.yul\":1444:1447   */\n      dup3\n        /* \"#utility.yul\":1437:1474   */\n      mstore\n        /* \"#utility.yul\":1362:1480   */\n      pop\n      pop\n      jump\t// out\n        /* \"#utility.yul\":1486:2015   */\n    tag_26:\n        /* \"#utility.yul\":1680:1684   */\n      0x00\n        /* \"#utility.yul\":1718:1720   */\n      0x40\n        /* \"#utility.yul\":1707:1716   */\n      dup3\n        /* \"#utility.yul\":1703:1721   */\n      add\n        /* \"#utility.yul\":1695:1721   */\n      swap1\n      pop\n        /* \"#utility.yul\":1731:1802   */\n      tag_58\n        /* \"#utility.yul\":1799:1800   */\n      0x00\n        /* \"#utility.yul\":1788:1797   */\n      dup4\n        /* \"#utility.yul\":1784:1801   */\n      add\n        /* \"#utility.yul\":1775:1781   */\n      dup5\n        /* \"#utility.yul\":1731:1802   */\n      tag_29\n      jump\t// in\n    tag_58:\n        /* \"#utility.yul\":1849:1858   */\n      dup2\n        /* \"#utility.yul\":1843:1847   */\n      dup2\n        /* \"#utility.yul\":1839:1859   */\n      sub\n        /* \"#utility.yul\":1834:1836   */\n      0x20\n        /* \"#utility.yul\":1823:1832   */\n      dup4\n        /* \"#utility.yul\":1819:1837   */\n      add\n        /* \"#utility.yul\":1812:1860   */\n      mstore\n        /* \"#utility.yul\":1877:2008   */\n      tag_59\n        /* \"#utility.yul\":2003:2007   */\n      dup2\n        /* \"#utility.yul\":1877:2008   */\n      tag_37\n      jump\t// in\n    tag_59:\n        /* \"#utility.yul\":1869:2008   */\n      swap1\n      pop\n        /* \"#utility.yul\":1486:2015   */\n      swap3\n      swap2\n      pop\n      pop\n      jump\t// out\n        /* \"#utility.yul\":2021:2231   */\n    tag_11:\n        /* \"#utility.yul\":2108:2112   */\n      0x00\n        /* \"#utility.yul\":2146:2148   */\n      0x20\n        /* \"#utility.yul\":2135:2144   */\n      dup3\n        /* \"#utility.yul\":2131:2149   */\n      add\n        /* \"#utility.yul\":2123:2149   */\n      swap1\n      pop\n        /* \"#utility.yul\":2159:2224   */\n      tag_61\n        /* \"#utility.yul\":2221:2222   */\n      0x00\n        /* \"#utility.yul\":2210:2219   */\n      dup4\n        /* \"#utility.yul\":2206:2223   */\n      add\n        /* \"#utility.yul\":2197:2203   */\n      dup5\n        /* \"#utility.yul\":2159:2224   */\n      tag_33\n      jump\t// in\n    tag_61:\n        /* \"#utility.yul\":2021:2231   */\n      swap3\n      swap2\n      pop\n      pop\n      jump\t// out\n        /* \"#utility.yul\":2237:2656   */\n    tag_22:\n        /* \"#utility.yul\":2403:2407   */\n      0x00\n        /* \"#utility.yul\":2441:2443   */\n      0x20\n        /* \"#utility.yul\":2430:2439   */\n      dup3\n        /* \"#utility.yul\":2426:2444   */\n      add\n        /* \"#utility.yul\":2418:2444   */\n      swap1\n      pop\n        /* \"#utility.yul\":2490:2499   */\n      dup2\n        /* \"#utility.yul\":2484:2488   */\n      dup2\n        /* \"#utility.yul\":2480:2500   */\n      sub\n        /* \"#utility.yul\":2476:2477   */\n      0x00\n        /* \"#utility.yul\":2465:2474   */\n      dup4\n        /* \"#utility.yul\":2461:2478   */\n      add\n        /* \"#utility.yul\":2454:2501   */\n      mstore\n        /* \"#utility.yul\":2518:2649   */\n      tag_63\n        /* \"#utility.yul\":2644:2648   */\n      dup2\n        /* \"#utility.yul\":2518:2649   */\n      tag_43\n      jump\t// in\n    tag_63:\n        /* \"#utility.yul\":2510:2649   */\n      swap1\n      pop\n        /* \"#utility.yul\":2237:2656   */\n      swap2\n      swap1\n      pop\n      jump\t// out\n        /* \"#utility.yul\":2662:3081   */\n    tag_19:\n        /* \"#utility.yul\":2828:2832   */\n      0x00\n        /* \"#utility.yul\":2866:2868   */\n      0x20\n        /* \"#utility.yul\":2855:2864   */\n      dup3\n        /* \"#utility.yul\":2851:2869   */\n      add\n        /* \"#utility.yul\":2843:2869   */\n      swap1\n      pop\n        /* \"#utility.yul\":2915:2924   */\n      dup2\n        /* \"#utility.yul\":2909:2913   */\n      dup2\n        /* \"#utility.yul\":2905:2925   */\n      sub\n        /* \"#utility.yul\":2901:2902   */\n      0x00\n        /* \"#utility.yul\":2890:2899   */\n      dup4\n        /* \"#utility.yul\":2886:2903   */\n      add\n        /* \"#utility.yul\":2879:2926   */\n      mstore\n        /* \"#utility.yul\":2943:3074   */\n      tag_65\n        /* \"#utility.yul\":3069:3073   */\n      dup2\n        /* \"#utility.yul\":2943:3074   */\n      tag_48\n      jump\t// in\n    tag_65:\n        /* \"#utility.yul\":2935:3074   */\n      swap1\n      pop\n        /* \"#utility.yul\":2662:3081   */\n      swap2\n      swap1\n      pop\n      jump\t// out\n        /* \"#utility.yul\":3087:3309   */\n    tag_15:\n        /* \"#utility.yul\":3180:3184   */\n      0x00\n        /* \"#utility.yul\":3218:3220   */\n      0x20\n        /* \"#utility.yul\":3207:3216   */\n      dup3\n        /* \"#utility.yul\":3203:3221   */\n      add\n        /* \"#utility.yul\":3195:3221   */\n      swap1\n      pop\n        /* \"#utility.yul\":3231:3302   */\n      tag_67\n        /* \"#utility.yul\":3299:3300   */\n      0x00\n        /* \"#utility.yul\":3288:3297   */\n      dup4\n        /* \"#utility.yul\":3284:3301   */\n      add\n        /* \"#utility.yul\":3275:3281   */\n      dup5\n        /* \"#utility.yul\":3231:3302   */\n      tag_53\n      jump\t// in\n    tag_67:\n        /* \"#utility.yul\":3087:3309   */\n      swap3\n      swap2\n      pop\n      pop\n      jump\t// out\n        /* \"#utility.yul\":3315:3484   */\n    tag_40:\n        /* \"#utility.yul\":3399:3410   */\n      0x00\n        /* \"#utility.yul\":3433:3439   */\n      dup3\n        /* \"#utility.yul\":3428:3431   */\n      dup3\n        /* \"#utility.yul\":3421:3440   */\n      mstore\n        /* \"#utility.yul\":3473:3477   */\n      0x20\n        /* \"#utility.yul\":3468:3471   */\n      dup3\n        /* \"#utility.yul\":3464:3478   */\n      add\n        /* \"#utility.yul\":3449:3478   */\n      swap1\n      pop\n        /* \"#utility.yul\":3315:3484   */\n      swap3\n      swap2\n      pop\n      pop\n      jump\t// out\n        /* \"#utility.yul\":3490:3586   */\n    tag_32:\n        /* \"#utility.yul\":3527:3534   */\n      0x00\n        /* \"#utility.yul\":3556:3580   */\n      tag_70\n        /* \"#utility.yul\":3574:3579   */\n      dup3\n        /* \"#utility.yul\":3556:3580   */\n      tag_71\n      jump\t// in\n    tag_70:\n        /* \"#utility.yul\":3545:3580   */\n      swap1\n      pop\n        /* \"#utility.yul\":3490:3586   */\n      swap2\n      swap1\n      pop\n      jump\t// out\n        /* \"#utility.yul\":3592:3682   */\n    tag_36:\n        /* \"#utility.yul\":3626:3633   */\n      0x00\n        /* \"#utility.yul\":3669:3674   */\n      dup2\n        /* \"#utility.yul\":3662:3675   */\n      iszero\n        /* \"#utility.yul\":3655:3676   */\n      iszero\n        /* \"#utility.yul\":3644:3676   */\n      swap1\n      pop\n        /* \"#utility.yul\":3592:3682   */\n      swap2\n      swap1\n      pop\n      jump\t// out\n        /* \"#utility.yul\":3688:3814   */\n    tag_71:\n        /* \"#utility.yul\":3725:3732   */\n      0x00\n        /* \"#utility.yul\":3765:3807   */\n      0xffffffffffffffffffffffffffffffffffffffff\n        /* \"#utility.yul\":3758:3763   */\n      dup3\n        /* \"#utility.yul\":3754:3808   */\n      and\n        /* \"#utility.yul\":3743:3808   */\n      swap1\n      pop\n        /* \"#utility.yul\":3688:3814   */\n      swap2\n      swap1\n      pop\n      jump\t// out\n        /* \"#utility.yul\":3820:3897   */\n    tag_56:\n        /* \"#utility.yul\":3857:3864   */\n      0x00\n        /* \"#utility.yul\":3886:3891   */\n      dup2\n        /* \"#utility.yul\":3875:3891   */\n      swap1\n      pop\n        /* \"#utility.yul\":3820:3897   */\n      swap2\n      swap1\n      pop\n      jump\t// out\n        /* \"#utility.yul\":3903:4136   */\n    tag_24:\n        /* \"#utility.yul\":3942:3945   */\n      0x00\n        /* \"#utility.yul\":3965:3989   */\n      tag_76\n        /* \"#utility.yul\":3983:3988   */\n      dup3\n        /* \"#utility.yul\":3965:3989   */\n      tag_56\n      jump\t// in\n    tag_76:\n        /* \"#utility.yul\":3956:3989   */\n      swap2\n      pop\n        /* \"#utility.yul\":4011:4077   */\n      0xffffffffffffffffffffffffffffffffffffffffffffffffffffffffffffffff\n        /* \"#utility.yul\":4004:4009   */\n      dup3\n        /* \"#utility.yul\":4001:4078   */\n      eq\n        /* \"#utility.yul\":3998:4101   */\n      iszero\n      tag_77\n      jumpi\n        /* \"#utility.yul\":4081:4099   */\n      tag_78\n      tag_79\n      jump\t// in\n    tag_78:\n        /* \"#utility.yul\":3998:4101   */\n    tag_77:\n        /* \"#utility.yul\":4128:4129   */\n      0x01\n        /* \"#utility.yul\":4121:4126   */\n      dup3\n        /* \"#utility.yul\":4117:4130   */\n      add\n        /* \"#utility.yul\":4110:4130   */\n      swap1\n      pop\n        /* \"#utility.yul\":3903:4136   */\n      swap2\n      swap1\n      pop\n      jump\t// out\n        /* \"#utility.yul\":4142:4322   */\n    tag_79:\n        /* \"#utility.yul\":4190:4267   */\n      0x4e487b7100000000000000000000000000000000000000000000000000000000\n        /* \"#utility.yul\":4187:4188   */\n      0x00\n        /* \"#utility.yul\":4180:4268   */\n      mstore\n        /* \"#utility.yul\":4287:4291   */\n      0x11\n        /* \"#utility.yul\":4284:4285   */\n      0x04\n        /* \"#utility.yul\":4277:4292   */\n      mstore\n        /* \"#utility.yul\":4311:4315   */\n      0x24\n        /* \"#utility.yul\":4308:4309   */\n      0x00\n        /* \"#utility.yul\":4301:4316   */\n      revert\n        /* \"#utility.yul\":4328:4496   */\n    tag_42:\n        /* \"#utility.yul\":4468:4488   */\n      0x416464656420746f2077686974656c6973740000000000000000000000000000\n        /* \"#utility.yul\":4464:4465   */\n      0x00\n        /* \"#utility.yul\":4456:4462   */\n      dup3\n        /* \"#utility.yul\":4452:4466   */\n      add\n        /* \"#utility.yul\":4445:4489   */\n      mstore\n        /* \"#utility.yul\":4328:4496   */\n      pop\n      jump\t// out\n        /* \"#utility.yul\":4502:4666   */\n    tag_47:\n        /* \"#utility.yul\":4642:4658   */\n      0x57686974656c6973742066756c6c000000000000000000000000000000000000\n        /* \"#utility.yul\":4638:4639   */\n      0x00\n        /* \"#utility.yul\":4630:4636   */\n      dup3\n        /* \"#utility.yul\":4626:4640   */\n      add\n        /* \"#utility.yul\":4619:4659   */\n      mstore\n        /* \"#utility.yul\":4502:4666   */\n      pop\n      jump\t// out\n        /* \"#utility.yul\":4672:4849   */\n    tag_52:\n        /* \"#utility.yul\":4812:4841   */\n      0x4164647265737320616c72656164792077686974656c69737465640000000000\n        /* \"#utility.yul\":4808:4809   */\n      0x00\n        /* \"#utility.yul\":4800:4806   */\n      dup3\n        /* \"#utility.yul\":4796:4810   */\n      add\n        /* \"#utility.yul\":4789:4842   */\n      mstore\n        /* \"#utility.yul\":4672:4849   */\n      pop\n      jump\t// out\n\n    auxdata: 0xa26469706673582212202833b55b6fba68d23276a92ecb3ff4cfef72f41ebcdbdca8ec7ef89e09f0d45f64736f6c63430008070033\n}\n",
				"bytecode": {
					"linkReferences": {},
					"object": "6080604052600360005534801561001557600080fd5b5061051e806100256000396000f3fe608060405234801561001057600080fd5b50600436106100415760003560e01c806359896366146100465780639507633414610050578063d6730f351461006e575b600080fd5b61004e61008c565b005b610058610208565b6040516100659190610326565b60405180910390f35b61007661025c565b6040516100839190610381565b60405180910390f35b600260003373ffffffffffffffffffffffffffffffffffffffff1673ffffffffffffffffffffffffffffffffffffffff16815260200190815260200160002060009054906101000a900460ff1615610119576040517f08c379a000000000000000000000000000000000000000000000000000000000815260040161011090610361565b60405180910390fd5b6000546001541061015f576040517f08c379a000000000000000000000000000000000000000000000000000000000815260040161015690610341565b60405180910390fd5b6001600260003373ffffffffffffffffffffffffffffffffffffffff1673ffffffffffffffffffffffffffffffffffffffff16815260200190815260200160002060006101000a81548160ff021916908315150217905550600160008154809291906101ca906103f5565b91905055507f067988fa01e6014de6062ac5892f64cc8ac86c38cc1052e9328b5419f068fa1c336040516101fe91906102f8565b60405180910390a1565b6000600260003373ffffffffffffffffffffffffffffffffffffffff1673ffffffffffffffffffffffffffffffffffffffff16815260200190815260200160002060009054906101000a900460ff16905090565b60015481565b61026b816103ad565b82525050565b61027a816103bf565b82525050565b600061028d60128361039c565b91506102988261046d565b602082019050919050565b60006102b0600e8361039c565b91506102bb82610496565b602082019050919050565b60006102d3601b8361039c565b91506102de826104bf565b602082019050919050565b6102f2816103eb565b82525050565b600060408201905061030d6000830184610262565b818103602083015261031e81610280565b905092915050565b600060208201905061033b6000830184610271565b92915050565b6000602082019050818103600083015261035a816102a3565b9050919050565b6000602082019050818103600083015261037a816102c6565b9050919050565b600060208201905061039660008301846102e9565b92915050565b600082825260208201905092915050565b60006103b8826103cb565b9050919050565b60008115159050919050565b600073ffffffffffffffffffffffffffffffffffffffff82169050919050565b6000819050919050565b6000610400826103eb565b91507fffffffffffffffffffffffffffffffffffffffffffffffffffffffffffffffff8214156104335761043261043e565b5b600182019050919050565b7f4e487b7100000000000000000000000000000000000000000000000000000000600052601160045260246000fd5b7f416464656420746f2077686974656c6973740000000000000000000000000000600082015250565b7f57686974656c6973742066756c6c000000000000000000000000000000000000600082015250565b7f4164647265737320616c72656164792077686974656c6973746564000000000060008201525056fea26469706673582212202833b55b6fba68d23276a92ecb3ff4cfef72f41ebcdbdca8ec7ef89e09f0d45f64736f6c63430008070033",
					"opcodes": "PUSH1 0x80 PUSH1 0x40 MSTORE PUSH1 0x3 PUSH1 0x0 SSTORE CALLVALUE DUP1 ISZERO PUSH2 0x15 JUMPI PUSH1 0x0 DUP1 REVERT JUMPDEST POP PUSH2 0x51E DUP1 PUSH2 0x25 PUSH1 0x0 CODECOPY PUSH1 0x0 RETURN INVALID PUSH1 0x80 PUSH1 0x40 MSTORE CALLVALUE DUP1 ISZERO PUSH2 0x10 JUMPI PUSH1 0x0 DUP1 REVERT JUMPDEST POP PUSH1 0x4 CALLDATASIZE LT PUSH2 0x41 JUMPI PUSH1 0x0 CALLDATALOAD PUSH1 0xE0 SHR DUP1 PUSH4 0x59896366 EQ PUSH2 0x46 JUMPI DUP1 PUSH4 0x95076334 EQ PUSH2 0x50 JUMPI DUP1 PUSH4 0xD6730F35 EQ PUSH2 0x6E JUMPI JUMPDEST PUSH1 0x0 DUP1 REVERT JUMPDEST PUSH2 0x4E PUSH2 0x8C JUMP JUMPDEST STOP JUMPDEST PUSH2 0x58 PUSH2 0x208 JUMP JUMPDEST PUSH1 0x40 MLOAD PUSH2 0x65 SWAP2 SWAP1 PUSH2 0x326 JUMP JUMPDEST PUSH1 0x40 MLOAD DUP1 SWAP2 SUB SWAP1 RETURN JUMPDEST PUSH2 0x76 PUSH2 0x25C JUMP JUMPDEST PUSH1 0x40 MLOAD PUSH2 0x83 SWAP2 SWAP1 PUSH2 0x381 JUMP JUMPDEST PUSH1 0x40 MLOAD DUP1 SWAP2 SUB SWAP1 RETURN JUMPDEST PUSH1 0x2 PUSH1 0x0 CALLER PUSH20 0xFFFFFFFFFFFFFFFFFFFFFFFFFFFFFFFFFFFFFFFF AND PUSH20 0xFFFFFFFFFFFFFFFFFFFFFFFFFFFFFFFFFFFFFFFF AND DUP2 MSTORE PUSH1 0x20 ADD SWAP1 DUP2 MSTORE PUSH1 0x20 ADD PUSH1 0x0 KECCAK256 PUSH1 0x0 SWAP1 SLOAD SWAP1 PUSH2 0x100 EXP SWAP1 DIV PUSH1 0xFF AND ISZERO PUSH2 0x119 JUMPI PUSH1 0x40 MLOAD PUSH32 0x8C379A000000000000000000000000000000000000000000000000000000000 DUP2 MSTORE PUSH1 0x4 ADD PUSH2 0x110 SWAP1 PUSH2 0x361 JUMP JUMPDEST PUSH1 0x40 MLOAD DUP1 SWAP2 SUB SWAP1 REVERT JUMPDEST PUSH1 0x0 SLOAD PUSH1 0x1 SLOAD LT PUSH2 0x15F JUMPI PUSH1 0x40 MLOAD PUSH32 0x8C379A000000000000000000000000000000000000000000000000000000000 DUP2 MSTORE PUSH1 0x4 ADD PUSH2 0x156 SWAP1 PUSH2 0x341 JUMP JUMPDEST PUSH1 0x40 MLOAD DUP1 SWAP2 SUB SWAP1 REVERT JUMPDEST PUSH1 0x1 PUSH1 0x2 PUSH1 0x0 CALLER PUSH20 0xFFFFFFFFFFFFFFFFFFFFFFFFFFFFFFFFFFFFFFFF AND PUSH20 0xFFFFFFFFFFFFFFFFFFFFFFFFFFFFFFFFFFFFFFFF AND DUP2 MSTORE PUSH1 0x20 ADD SWAP1 DUP2 MSTORE PUSH1 0x20 ADD PUSH1 0x0 KECCAK256 PUSH1 0x0 PUSH2 0x100 EXP DUP2 SLOAD DUP2 PUSH1 0xFF MUL NOT AND SWAP1 DUP4 ISZERO ISZERO MUL OR SWAP1 SSTORE POP PUSH1 0x1 PUSH1 0x0 DUP2 SLOAD DUP1 SWAP3 SWAP2 SWAP1 PUSH2 0x1CA SWAP1 PUSH2 0x3F5 JUMP JUMPDEST SWAP2 SWAP1 POP SSTORE POP PUSH32 0x67988FA01E6014DE6062AC5892F64CC8AC86C38CC1052E9328B5419F068FA1C CALLER PUSH1 0x40 MLOAD PUSH2 0x1FE SWAP2 SWAP1 PUSH2 0x2F8 JUMP JUMPDEST PUSH1 0x40 MLOAD DUP1 SWAP2 SUB SWAP1 LOG1 JUMP JUMPDEST PUSH1 0x0 PUSH1 0x2 PUSH1 0x0 CALLER PUSH20 0xFFFFFFFFFFFFFFFFFFFFFFFFFFFFFFFFFFFFFFFF AND PUSH20 0xFFFFFFFFFFFFFFFFFFFFFFFFFFFFFFFFFFFFFFFF AND DUP2 MSTORE PUSH1 0x20 ADD SWAP1 DUP2 MSTORE PUSH1 0x20 ADD PUSH1 0x0 KECCAK256 PUSH1 0x0 SWAP1 SLOAD SWAP1 PUSH2 0x100 EXP SWAP1 DIV PUSH1 0xFF AND SWAP1 POP SWAP1 JUMP JUMPDEST PUSH1 0x1 SLOAD DUP2 JUMP JUMPDEST PUSH2 0x26B DUP2 PUSH2 0x3AD JUMP JUMPDEST DUP3 MSTORE POP POP JUMP JUMPDEST PUSH2 0x27A DUP2 PUSH2 0x3BF JUMP JUMPDEST DUP3 MSTORE POP POP JUMP JUMPDEST PUSH1 0x0 PUSH2 0x28D PUSH1 0x12 DUP4 PUSH2 0x39C JUMP JUMPDEST SWAP2 POP PUSH2 0x298 DUP3 PUSH2 0x46D JUMP JUMPDEST PUSH1 0x20 DUP3 ADD SWAP1 POP SWAP2 SWAP1 POP JUMP JUMPDEST PUSH1 0x0 PUSH2 0x2B0 PUSH1 0xE DUP4 PUSH2 0x39C JUMP JUMPDEST SWAP2 POP PUSH2 0x2BB DUP3 PUSH2 0x496 JUMP JUMPDEST PUSH1 0x20 DUP3 ADD SWAP1 POP SWAP2 SWAP1 POP JUMP JUMPDEST PUSH1 0x0 PUSH2 0x2D3 PUSH1 0x1B DUP4 PUSH2 0x39C JUMP JUMPDEST SWAP2 POP PUSH2 0x2DE DUP3 PUSH2 0x4BF JUMP JUMPDEST PUSH1 0x20 DUP3 ADD SWAP1 POP SWAP2 SWAP1 POP JUMP JUMPDEST PUSH2 0x2F2 DUP2 PUSH2 0x3EB JUMP JUMPDEST DUP3 MSTORE POP POP JUMP JUMPDEST PUSH1 0x0 PUSH1 0x40 DUP3 ADD SWAP1 POP PUSH2 0x30D PUSH1 0x0 DUP4 ADD DUP5 PUSH2 0x262 JUMP JUMPDEST DUP2 DUP2 SUB PUSH1 0x20 DUP4 ADD MSTORE PUSH2 0x31E DUP2 PUSH2 0x280 JUMP JUMPDEST SWAP1 POP SWAP3 SWAP2 POP POP JUMP JUMPDEST PUSH1 0x0 PUSH1 0x20 DUP3 ADD SWAP1 POP PUSH2 0x33B PUSH1 0x0 DUP4 ADD DUP5 PUSH2 0x271 JUMP JUMPDEST SWAP3 SWAP2 POP POP JUMP JUMPDEST PUSH1 0x0 PUSH1 0x20 DUP3 ADD SWAP1 POP DUP2 DUP2 SUB PUSH1 0x0 DUP4 ADD MSTORE PUSH2 0x35A DUP2 PUSH2 0x2A3 JUMP JUMPDEST SWAP1 POP SWAP2 SWAP1 POP JUMP JUMPDEST PUSH1 0x0 PUSH1 0x20 DUP3 ADD SWAP1 POP DUP2 DUP2 SUB PUSH1 0x0 DUP4 ADD MSTORE PUSH2 0x37A DUP2 PUSH2 0x2C6 JUMP JUMPDEST SWAP1 POP SWAP2 SWAP1 POP JUMP JUMPDEST PUSH1 0x0 PUSH1 0x20 DUP3 ADD SWAP1 POP PUSH2 0x396 PUSH1 0x0 DUP4 ADD DUP5 PUSH2 0x2E9 JUMP JUMPDEST SWAP3 SWAP2 POP POP JUMP JUMPDEST PUSH1 0x0 DUP3 DUP3 MSTORE PUSH1 0x20 DUP3 ADD SWAP1 POP SWAP3 SWAP2 POP POP JUMP JUMPDEST PUSH1 0x0 PUSH2 0x3B8 DUP3 PUSH2 0x3CB JUMP JUMPDEST SWAP1 POP SWAP2 SWAP1 POP JUMP JUMPDEST PUSH1 0x0 DUP2 ISZERO ISZERO SWAP1 POP SWAP2 SWAP1 POP JUMP JUMPDEST PUSH1 0x0 PUSH20 0xFFFFFFFFFFFFFFFFFFFFFFFFFFFFFFFFFFFFFFFF DUP3 AND SWAP1 POP SWAP2 SWAP1 POP JUMP JUMPDEST PUSH1 0x0 DUP2 SWAP1 POP SWAP2 SWAP1 POP JUMP JUMPDEST PUSH1 0x0 PUSH2 0x400 DUP3 PUSH2 0x3EB JUMP JUMPDEST SWAP2 POP PUSH32 0xFFFFFFFFFFFFFFFFFFFFFFFFFFFFFFFFFFFFFFFFFFFFFFFFFFFFFFFFFFFFFFFF DUP3 EQ ISZERO PUSH2 0x433 JUMPI PUSH2 0x432 PUSH2 0x43E JUMP JUMPDEST JUMPDEST PUSH1 0x1 DUP3 ADD SWAP1 POP SWAP2 SWAP1 POP JUMP JUMPDEST PUSH32 0x4E487B7100000000000000000000000000000000000000000000000000000000 PUSH1 0x0 MSTORE PUSH1 0x11 PUSH1 0x4 MSTORE PUSH1 0x24 PUSH1 0x0 REVERT JUMPDEST PUSH32 0x416464656420746F2077686974656C6973740000000000000000000000000000 PUSH1 0x0 DUP3 ADD MSTORE POP JUMP JUMPDEST PUSH32 0x57686974656C6973742066756C6C000000000000000000000000000000000000 PUSH1 0x0 DUP3 ADD MSTORE POP JUMP JUMPDEST PUSH32 0x4164647265737320616C72656164792077686974656C69737465640000000000 PUSH1 0x0 DUP3 ADD MSTORE POP JUMP INVALID LOG2 PUSH5 0x6970667358 0x22 SLT KECCAK256 0x28 CALLER 0xB5 JUMPDEST PUSH16 0xBA68D23276A92ECB3FF4CFEF72F41EBC 0xDB 0xDC 0xA8 0xEC PUSH31 0xF89E09F0D45F64736F6C634300080700330000000000000000000000000000 "
				},
				"gasEstimates": {
					"creation": {
						"codeDepositCost": "262000",
						"executionCost": "22406",
						"totalCost": "284406"
					},
					"external": {
						"addToWhitelist()": "57515",
						"currentlyWhitelisted()": "2451",
						"getAddressStatus()": "2568"
					}
				},
				"methodIdentifiers": {
					"addToWhitelist()": "59896366",
					"currentlyWhitelisted()": "d6730f35",
					"getAddressStatus()": "95076334"
				}
			},
			"userdoc": {
				"kind": "user",
				"methods": {},
				"version": 1
			}
		}
	}
}