{
	"contracts/whitelist.sol": {
		"Whitelist": {
			"abi": [
				{
					"anonymous": false,
					"inputs": [
						{
							"indexed": false,
							"internalType": "address",
							"name": "",
							"type": "address"
						},
						{
							"indexed": false,
							"internalType": "string",
							"name": "",
							"type": "string"
						}
					],
					"name": "whitelistLog",
					"type": "event"
				},
				{
					"inputs": [],
					"name": "addToWhitelist",
					"outputs": [],
					"stateMutability": "nonpayable",
					"type": "function"
				}
			],
			"devdoc": {
				"kind": "dev",
				"methods": {},
				"version": 1
			},
			"evm": {
				"assembly": "    /* \"contracts/whitelist.sol\":60:300  contract Whitelist {\r... */\n  mstore(0x40, 0x80)\n    /* \"contracts/whitelist.sol\":155:157  10 */\n  0x0a\n    /* \"contracts/whitelist.sol\":128:157  uint maxWhitelistAddress = 10 */\n  0x00\n  sstore\n    /* \"contracts/whitelist.sol\":60:300  contract Whitelist {\r... */\n  callvalue\n  dup1\n  iszero\n  tag_1\n  jumpi\n  0x00\n  dup1\n  revert\ntag_1:\n  pop\n  dataSize(sub_0)\n  dup1\n  dataOffset(sub_0)\n  0x00\n  codecopy\n  0x00\n  return\nstop\n\nsub_0: assembly {\n        /* \"contracts/whitelist.sol\":60:300  contract Whitelist {\r... */\n      mstore(0x40, 0x80)\n      callvalue\n      dup1\n      iszero\n      tag_1\n      jumpi\n      0x00\n      dup1\n      revert\n    tag_1:\n      pop\n      jumpi(tag_2, lt(calldatasize, 0x04))\n      shr(0xe0, calldataload(0x00))\n      dup1\n      0x59896366\n      eq\n      tag_3\n      jumpi\n    tag_2:\n      0x00\n      dup1\n      revert\n        /* \"contracts/whitelist.sol\":246:289  function addToWhitelist() public {\r... */\n    tag_3:\n      tag_4\n      tag_5\n      jump\t// in\n    tag_4:\n      stop\n    tag_5:\n      jump\t// out\n\n    auxdata: 0xa2646970667358221220dc1135f6dbdae10efacc976b89fbc1834b0a69f59b84462f56fbd3c2cb65402264736f6c63430008070033\n}\n",
				"bytecode": {
					"linkReferences": {},
					"object": "6080604052600a600055348015601457600080fd5b50606d8060226000396000f3fe6080604052348015600f57600080fd5b506004361060285760003560e01c80635989636614602d575b600080fd5b60336035565b005b56fea2646970667358221220dc1135f6dbdae10efacc976b89fbc1834b0a69f59b84462f56fbd3c2cb65402264736f6c63430008070033",
					"opcodes": "PUSH1 0x80 PUSH1 0x40 MSTORE PUSH1 0xA PUSH1 0x0 SSTORE CALLVALUE DUP1 ISZERO PUSH1 0x14 JUMPI PUSH1 0x0 DUP1 REVERT JUMPDEST POP PUSH1 0x6D DUP1 PUSH1 0x22 PUSH1 0x0 CODECOPY PUSH1 0x0 RETURN INVALID PUSH1 0x80 PUSH1 0x40 MSTORE CALLVALUE DUP1 ISZERO PUSH1 0xF JUMPI PUSH1 0x0 DUP1 REVERT JUMPDEST POP PUSH1 0x4 CALLDATASIZE LT PUSH1 0x28 JUMPI PUSH1 0x0 CALLDATALOAD PUSH1 0xE0 SHR DUP1 PUSH4 0x59896366 EQ PUSH1 0x2D JUMPI JUMPDEST PUSH1 0x0 DUP1 REVERT JUMPDEST PUSH1 0x33 PUSH1 0x35 JUMP JUMPDEST STOP JUMPDEST JUMP INVALID LOG2 PUSH5 0x6970667358 0x22 SLT KECCAK256 0xDC GT CALLDATALOAD 0xF6 0xDB 0xDA 0xE1 0xE STATICCALL 0xCC SWAP8 PUSH12 0x89FBC1834B0A69F59B84462F JUMP 0xFB 0xD3 0xC2 0xCB PUSH6 0x402264736F6C PUSH4 0x43000807 STOP CALLER "
				},
				"gasEstimates": {
					"creation": {
						"codeDepositCost": "21800",
						"executionCost": "22181",
						"totalCost": "43981"
					},
					"external": {
						"addToWhitelist()": "122"
					}
				},
				"methodIdentifiers": {
					"addToWhitelist()": "59896366"
				}
			},
			"userdoc": {
				"kind": "user",
				"methods": {},
				"version": 1
			}
		}
	}
}