{
	"contracts/cryptodev.sol": {
		"TomiwaCoin": {
			"abi": [
				{
					"inputs": [
						{
							"internalType": "address",
							"name": "_nftAddress",
							"type": "address"
						}
					],
					"stateMutability": "nonpayable",
					"type": "constructor"
				},
				{
					"anonymous": false,
					"inputs": [
						{
							"indexed": true,
							"internalType": "address",
							"name": "owner",
							"type": "address"
						},
						{
							"indexed": true,
							"internalType": "address",
							"name": "spender",
							"type": "address"
						},
						{
							"indexed": false,
							"internalType": "uint256",
							"name": "value",
							"type": "uint256"
						}
					],
					"name": "Approval",
					"type": "event"
				},
				{
					"anonymous": false,
					"inputs": [
						{
							"indexed": true,
							"internalType": "address",
							"name": "from",
							"type": "address"
						},
						{
							"indexed": true,
							"internalType": "address",
							"name": "to",
							"type": "address"
						},
						{
							"indexed": false,
							"internalType": "uint256",
							"name": "value",
							"type": "uint256"
						}
					],
					"name": "Transfer",
					"type": "event"
				},
				{
					"inputs": [
						{
							"internalType": "address",
							"name": "owner",
							"type": "address"
						},
						{
							"internalType": "address",
							"name": "spender",
							"type": "address"
						}
					],
					"name": "allowance",
					"outputs": [
						{
							"internalType": "uint256",
							"name": "",
							"type": "uint256"
						}
					],
					"stateMutability": "view",
					"type": "function"
				},
				{
					"inputs": [
						{
							"internalType": "address",
							"name": "spender",
							"type": "address"
						},
						{
							"internalType": "uint256",
							"name": "amount",
							"type": "uint256"
						}
					],
					"name": "approve",
					"outputs": [
						{
							"internalType": "bool",
							"name": "",
							"type": "bool"
						}
					],
					"stateMutability": "nonpayable",
					"type": "function"
				},
				{
					"inputs": [
						{
							"internalType": "address",
							"name": "account",
							"type": "address"
						}
					],
					"name": "balanceOf",
					"outputs": [
						{
							"internalType": "uint256",
							"name": "",
							"type": "uint256"
						}
					],
					"stateMutability": "view",
					"type": "function"
				},
				{
					"inputs": [],
					"name": "claimToken",
					"outputs": [],
					"stateMutability": "payable",
					"type": "function"
				},
				{
					"inputs": [],
					"name": "decimals",
					"outputs": [
						{
							"internalType": "uint8",
							"name": "",
							"type": "uint8"
						}
					],
					"stateMutability": "view",
					"type": "function"
				},
				{
					"inputs": [
						{
							"internalType": "address",
							"name": "spender",
							"type": "address"
						},
						{
							"internalType": "uint256",
							"name": "subtractedValue",
							"type": "uint256"
						}
					],
					"name": "decreaseAllowance",
					"outputs": [
						{
							"internalType": "bool",
							"name": "",
							"type": "bool"
						}
					],
					"stateMutability": "nonpayable",
					"type": "function"
				},
				{
					"inputs": [
						{
							"internalType": "address",
							"name": "spender",
							"type": "address"
						},
						{
							"internalType": "uint256",
							"name": "addedValue",
							"type": "uint256"
						}
					],
					"name": "increaseAllowance",
					"outputs": [
						{
							"internalType": "bool",
							"name": "",
							"type": "bool"
						}
					],
					"stateMutability": "nonpayable",
					"type": "function"
				},
				{
					"inputs": [
						{
							"internalType": "uint256",
							"name": "_amount",
							"type": "uint256"
						}
					],
					"name": "mint",
					"outputs": [],
					"stateMutability": "payable",
					"type": "function"
				},
				{
					"inputs": [],
					"name": "name",
					"outputs": [
						{
							"internalType": "string",
							"name": "",
							"type": "string"
						}
					],
					"stateMutability": "view",
					"type": "function"
				},
				{
					"inputs": [],
					"name": "symbol",
					"outputs": [
						{
							"internalType": "string",
							"name": "",
							"type": "string"
						}
					],
					"stateMutability": "view",
					"type": "function"
				},
				{
					"inputs": [],
					"name": "totalSupply",
					"outputs": [
						{
							"internalType": "uint256",
							"name": "",
							"type": "uint256"
						}
					],
					"stateMutability": "view",
					"type": "function"
				},
				{
					"inputs": [
						{
							"internalType": "address",
							"name": "to",
							"type": "address"
						},
						{
							"internalType": "uint256",
							"name": "amount",
							"type": "uint256"
						}
					],
					"name": "transfer",
					"outputs": [
						{
							"internalType": "bool",
							"name": "",
							"type": "bool"
						}
					],
					"stateMutability": "nonpayable",
					"type": "function"
				},
				{
					"inputs": [
						{
							"internalType": "address",
							"name": "from",
							"type": "address"
						},
						{
							"internalType": "address",
							"name": "to",
							"type": "address"
						},
						{
							"internalType": "uint256",
							"name": "amount",
							"type": "uint256"
						}
					],
					"name": "transferFrom",
					"outputs": [
						{
							"internalType": "bool",
							"name": "",
							"type": "bool"
						}
					],
					"stateMutability": "nonpayable",
					"type": "function"
				}
			],
			"devdoc": {
				"kind": "dev",
				"methods": {
					"allowance(address,address)": {
						"details": "See {IERC20-allowance}."
					},
					"approve(address,uint256)": {
						"details": "See {IERC20-approve}. NOTE: If `amount` is the maximum `uint256`, the allowance is not updated on `transferFrom`. This is semantically equivalent to an infinite approval. Requirements: - `spender` cannot be the zero address."
					},
					"balanceOf(address)": {
						"details": "See {IERC20-balanceOf}."
					},
					"decimals()": {
						"details": "Returns the number of decimals used to get its user representation. For example, if `decimals` equals `2`, a balance of `505` tokens should be displayed to a user as `5.05` (`505 / 10 ** 2`). Tokens usually opt for a value of 18, imitating the relationship between Ether and Wei. This is the value {ERC20} uses, unless this function is overridden; NOTE: This information is only used for _display_ purposes: it in no way affects any of the arithmetic of the contract, including {IERC20-balanceOf} and {IERC20-transfer}."
					},
					"decreaseAllowance(address,uint256)": {
						"details": "Atomically decreases the allowance granted to `spender` by the caller. This is an alternative to {approve} that can be used as a mitigation for problems described in {IERC20-approve}. Emits an {Approval} event indicating the updated allowance. Requirements: - `spender` cannot be the zero address. - `spender` must have allowance for the caller of at least `subtractedValue`."
					},
					"increaseAllowance(address,uint256)": {
						"details": "Atomically increases the allowance granted to `spender` by the caller. This is an alternative to {approve} that can be used as a mitigation for problems described in {IERC20-approve}. Emits an {Approval} event indicating the updated allowance. Requirements: - `spender` cannot be the zero address."
					},
					"name()": {
						"details": "Returns the name of the token."
					},
					"symbol()": {
						"details": "Returns the symbol of the token, usually a shorter version of the name."
					},
					"totalSupply()": {
						"details": "See {IERC20-totalSupply}."
					},
					"transfer(address,uint256)": {
						"details": "See {IERC20-transfer}. Requirements: - `to` cannot be the zero address. - the caller must have a balance of at least `amount`."
					},
					"transferFrom(address,address,uint256)": {
						"details": "See {IERC20-transferFrom}. Emits an {Approval} event indicating the updated allowance. This is not required by the EIP. See the note at the beginning of {ERC20}. NOTE: Does not update the allowance if the current allowance is the maximum `uint256`. Requirements: - `from` and `to` cannot be the zero address. - `from` must have a balance of at least `amount`. - the caller must have allowance for ``from``'s tokens of at least `amount`."
					}
				},
				"version": 1
			},
			"evm": {
				"assembly": "    /* \"contracts/cryptodev.sol\":377:1351  contract TomiwaCoin is ERC20 {\r... */\n  mstore(0x40, 0x80)\n    /* \"contracts/cryptodev.sol\":477:488  10 * 10**18 */\n  0x8ac7230489e80000\n    /* \"contracts/cryptodev.sol\":458:488  uint pricePerNFT = 10 * 10**18 */\n  0x05\n  sstore\n    /* \"contracts/cryptodev.sol\":512:525  10000* 10**18 */\n  0x021e19e0c9bab2400000\n    /* \"contracts/cryptodev.sol\":495:525  uint maxSupply = 10000* 10**18 */\n  0x06\n  sstore\n    /* \"contracts/cryptodev.sol\":606:724  constructor(address _nftAddress) ERC20(\"Tomiwa Coin\", \"TC\"){\r... */\n  callvalue\n  dup1\n  iszero\n  tag_1\n  jumpi\n  0x00\n  dup1\n  revert\ntag_1:\n  pop\n  mload(0x40)\n  sub(codesize, bytecodeSize)\n  dup1\n  bytecodeSize\n  dup4\n  codecopy\n  dup2\n  dup2\n  add\n  0x40\n  mstore\n  dup2\n  add\n  swap1\n  tag_2\n  swap2\n  swap1\n  tag_3\n  jump\t// in\ntag_2:\n    /* \"https://github.com/OpenZeppelin/openzeppelin-contracts/blob/master/contracts/token/ERC20/ERC20.sol\":1978:2091  constructor(string memory name_, string memory symbol_) {... */\n  mload(0x40)\n  dup1\n  0x40\n  add\n  0x40\n  mstore\n  dup1\n  0x0b\n  dup2\n  mstore\n  0x20\n  add\n  0x546f6d69776120436f696e000000000000000000000000000000000000000000\n  dup2\n  mstore\n  pop\n  mload(0x40)\n  dup1\n  0x40\n  add\n  0x40\n  mstore\n  dup1\n  0x02\n  dup2\n  mstore\n  0x20\n  add\n  0x5443000000000000000000000000000000000000000000000000000000000000\n  dup2\n  mstore\n  pop\n    /* \"https://github.com/OpenZeppelin/openzeppelin-contracts/blob/master/contracts/token/ERC20/ERC20.sol\":2052:2057  name_ */\n  dup2\n    /* \"https://github.com/OpenZeppelin/openzeppelin-contracts/blob/master/contracts/token/ERC20/ERC20.sol\":2044:2049  _name */\n  0x03\n    /* \"https://github.com/OpenZeppelin/openzeppelin-contracts/blob/master/contracts/token/ERC20/ERC20.sol\":2044:2057  _name = name_ */\n  swap1\n  dup1\n  mload\n  swap1\n  0x20\n  add\n  swap1\n  tag_7\n  swap3\n  swap2\n  swap1\n  tag_8\n  jump\t// in\ntag_7:\n  pop\n    /* \"https://github.com/OpenZeppelin/openzeppelin-contracts/blob/master/contracts/token/ERC20/ERC20.sol\":2077:2084  symbol_ */\n  dup1\n    /* \"https://github.com/OpenZeppelin/openzeppelin-contracts/blob/master/contracts/token/ERC20/ERC20.sol\":2067:2074  _symbol */\n  0x04\n    /* \"https://github.com/OpenZeppelin/openzeppelin-contracts/blob/master/contracts/token/ERC20/ERC20.sol\":2067:2084  _symbol = symbol_ */\n  swap1\n  dup1\n  mload\n  swap1\n  0x20\n  add\n  swap1\n  tag_9\n  swap3\n  swap2\n  swap1\n  tag_8\n  jump\t// in\ntag_9:\n  pop\n    /* \"https://github.com/OpenZeppelin/openzeppelin-contracts/blob/master/contracts/token/ERC20/ERC20.sol\":1978:2091  constructor(string memory name_, string memory symbol_) {... */\n  pop\n  pop\n    /* \"contracts/cryptodev.sol\":706:717  _nftAddress */\n  dup1\n    /* \"contracts/cryptodev.sol\":675:688  nftCollection */\n  0x07\n  0x00\n    /* \"contracts/cryptodev.sol\":675:718  nftCollection = InftCollection(_nftAddress) */\n  0x0100\n  exp\n  dup2\n  sload\n  dup2\n  0xffffffffffffffffffffffffffffffffffffffff\n  mul\n  not\n  and\n  swap1\n  dup4\n  0xffffffffffffffffffffffffffffffffffffffff\n  and\n  mul\n  or\n  swap1\n  sstore\n  pop\n    /* \"contracts/cryptodev.sol\":606:724  constructor(address _nftAddress) ERC20(\"Tomiwa Coin\", \"TC\"){\r... */\n  pop\n    /* \"contracts/cryptodev.sol\":377:1351  contract TomiwaCoin is ERC20 {\r... */\n  jump(tag_11)\ntag_8:\n  dup3\n  dup1\n  sload\n  tag_12\n  swap1\n  tag_13\n  jump\t// in\ntag_12:\n  swap1\n  0x00\n  mstore\n  keccak256(0x00, 0x20)\n  swap1\n  0x1f\n  add\n  0x20\n  swap1\n  div\n  dup2\n  add\n  swap3\n  dup3\n  tag_15\n  jumpi\n  0x00\n  dup6\n  sstore\n  jump(tag_14)\ntag_15:\n  dup3\n  0x1f\n  lt\n  tag_16\n  jumpi\n  dup1\n  mload\n  not(0xff)\n  and\n  dup4\n  dup1\n  add\n  or\n  dup6\n  sstore\n  jump(tag_14)\ntag_16:\n  dup3\n  dup1\n  add\n  0x01\n  add\n  dup6\n  sstore\n  dup3\n  iszero\n  tag_14\n  jumpi\n  swap2\n  dup3\n  add\ntag_17:\n  dup3\n  dup2\n  gt\n  iszero\n  tag_18\n  jumpi\n  dup3\n  mload\n  dup3\n  sstore\n  swap2\n  0x20\n  add\n  swap2\n  swap1\n  0x01\n  add\n  swap1\n  jump(tag_17)\ntag_18:\ntag_14:\n  pop\n  swap1\n  pop\n  tag_19\n  swap2\n  swap1\n  tag_20\n  jump\t// in\ntag_19:\n  pop\n  swap1\n  jump\t// out\ntag_20:\ntag_21:\n  dup1\n  dup3\n  gt\n  iszero\n  tag_22\n  jumpi\n  0x00\n  dup2\n  0x00\n  swap1\n  sstore\n  pop\n  0x01\n  add\n  jump(tag_21)\ntag_22:\n  pop\n  swap1\n  jump\t// out\n    /* \"#utility.yul\":7:150   */\ntag_24:\n    /* \"#utility.yul\":64:69   */\n  0x00\n    /* \"#utility.yul\":95:101   */\n  dup2\n    /* \"#utility.yul\":89:102   */\n  mload\n    /* \"#utility.yul\":80:102   */\n  swap1\n  pop\n    /* \"#utility.yul\":111:144   */\n  tag_26\n    /* \"#utility.yul\":138:143   */\n  dup2\n    /* \"#utility.yul\":111:144   */\n  tag_27\n  jump\t// in\ntag_26:\n    /* \"#utility.yul\":7:150   */\n  swap3\n  swap2\n  pop\n  pop\n  jump\t// out\n    /* \"#utility.yul\":156:507   */\ntag_3:\n    /* \"#utility.yul\":226:232   */\n  0x00\n    /* \"#utility.yul\":275:277   */\n  0x20\n    /* \"#utility.yul\":263:272   */\n  dup3\n    /* \"#utility.yul\":254:261   */\n  dup5\n    /* \"#utility.yul\":250:273   */\n  sub\n    /* \"#utility.yul\":246:278   */\n  slt\n    /* \"#utility.yul\":243:362   */\n  iszero\n  tag_29\n  jumpi\n    /* \"#utility.yul\":281:360   */\n  tag_30\n  tag_31\n  jump\t// in\ntag_30:\n    /* \"#utility.yul\":243:362   */\ntag_29:\n    /* \"#utility.yul\":401:402   */\n  0x00\n    /* \"#utility.yul\":426:490   */\n  tag_32\n    /* \"#utility.yul\":482:489   */\n  dup5\n    /* \"#utility.yul\":473:479   */\n  dup3\n    /* \"#utility.yul\":462:471   */\n  dup6\n    /* \"#utility.yul\":458:480   */\n  add\n    /* \"#utility.yul\":426:490   */\n  tag_24\n  jump\t// in\ntag_32:\n    /* \"#utility.yul\":416:490   */\n  swap2\n  pop\n    /* \"#utility.yul\":372:500   */\n  pop\n    /* \"#utility.yul\":156:507   */\n  swap3\n  swap2\n  pop\n  pop\n  jump\t// out\n    /* \"#utility.yul\":594:690   */\ntag_35:\n    /* \"#utility.yul\":631:638   */\n  0x00\n    /* \"#utility.yul\":660:684   */\n  tag_37\n    /* \"#utility.yul\":678:683   */\n  dup3\n    /* \"#utility.yul\":660:684   */\n  tag_38\n  jump\t// in\ntag_37:\n    /* \"#utility.yul\":649:684   */\n  swap1\n  pop\n    /* \"#utility.yul\":594:690   */\n  swap2\n  swap1\n  pop\n  jump\t// out\n    /* \"#utility.yul\":696:822   */\ntag_38:\n    /* \"#utility.yul\":733:740   */\n  0x00\n    /* \"#utility.yul\":773:815   */\n  0xffffffffffffffffffffffffffffffffffffffff\n    /* \"#utility.yul\":766:771   */\n  dup3\n    /* \"#utility.yul\":762:816   */\n  and\n    /* \"#utility.yul\":751:816   */\n  swap1\n  pop\n    /* \"#utility.yul\":696:822   */\n  swap2\n  swap1\n  pop\n  jump\t// out\n    /* \"#utility.yul\":828:1148   */\ntag_13:\n    /* \"#utility.yul\":872:878   */\n  0x00\n    /* \"#utility.yul\":909:910   */\n  0x02\n    /* \"#utility.yul\":903:907   */\n  dup3\n    /* \"#utility.yul\":899:911   */\n  div\n    /* \"#utility.yul\":889:911   */\n  swap1\n  pop\n    /* \"#utility.yul\":956:957   */\n  0x01\n    /* \"#utility.yul\":950:954   */\n  dup3\n    /* \"#utility.yul\":946:958   */\n  and\n    /* \"#utility.yul\":977:995   */\n  dup1\n    /* \"#utility.yul\":967:1048   */\n  tag_41\n  jumpi\n    /* \"#utility.yul\":1033:1037   */\n  0x7f\n    /* \"#utility.yul\":1025:1031   */\n  dup3\n    /* \"#utility.yul\":1021:1038   */\n  and\n    /* \"#utility.yul\":1011:1038   */\n  swap2\n  pop\n    /* \"#utility.yul\":967:1048   */\ntag_41:\n    /* \"#utility.yul\":1095:1097   */\n  0x20\n    /* \"#utility.yul\":1087:1093   */\n  dup3\n    /* \"#utility.yul\":1084:1098   */\n  lt\n    /* \"#utility.yul\":1064:1082   */\n  dup2\n    /* \"#utility.yul\":1061:1099   */\n  eq\n    /* \"#utility.yul\":1058:1142   */\n  iszero\n  tag_42\n  jumpi\n    /* \"#utility.yul\":1114:1132   */\n  tag_43\n  tag_44\n  jump\t// in\ntag_43:\n    /* \"#utility.yul\":1058:1142   */\ntag_42:\n    /* \"#utility.yul\":879:1148   */\n  pop\n    /* \"#utility.yul\":828:1148   */\n  swap2\n  swap1\n  pop\n  jump\t// out\n    /* \"#utility.yul\":1154:1334   */\ntag_44:\n    /* \"#utility.yul\":1202:1279   */\n  0x4e487b7100000000000000000000000000000000000000000000000000000000\n    /* \"#utility.yul\":1199:1200   */\n  0x00\n    /* \"#utility.yul\":1192:1280   */\n  mstore\n    /* \"#utility.yul\":1299:1303   */\n  0x22\n    /* \"#utility.yul\":1296:1297   */\n  0x04\n    /* \"#utility.yul\":1289:1304   */\n  mstore\n    /* \"#utility.yul\":1323:1327   */\n  0x24\n    /* \"#utility.yul\":1320:1321   */\n  0x00\n    /* \"#utility.yul\":1313:1328   */\n  revert\n    /* \"#utility.yul\":1463:1580   */\ntag_31:\n    /* \"#utility.yul\":1572:1573   */\n  0x00\n    /* \"#utility.yul\":1569:1570   */\n  dup1\n    /* \"#utility.yul\":1562:1574   */\n  revert\n    /* \"#utility.yul\":1586:1708   */\ntag_27:\n    /* \"#utility.yul\":1659:1683   */\n  tag_50\n    /* \"#utility.yul\":1677:1682   */\n  dup2\n    /* \"#utility.yul\":1659:1683   */\n  tag_35\n  jump\t// in\ntag_50:\n    /* \"#utility.yul\":1652:1657   */\n  dup2\n    /* \"#utility.yul\":1649:1684   */\n  eq\n    /* \"#utility.yul\":1639:1702   */\n  tag_51\n  jumpi\n    /* \"#utility.yul\":1698:1699   */\n  0x00\n    /* \"#utility.yul\":1695:1696   */\n  dup1\n    /* \"#utility.yul\":1688:1700   */\n  revert\n    /* \"#utility.yul\":1639:1702   */\ntag_51:\n    /* \"#utility.yul\":1586:1708   */\n  pop\n  jump\t// out\n    /* \"contracts/cryptodev.sol\":377:1351  contract TomiwaCoin is ERC20 {\r... */\ntag_11:\n  dataSize(sub_0)\n  dup1\n  dataOffset(sub_0)\n  0x00\n  codecopy\n  0x00\n  return\nstop\n\nsub_0: assembly {\n        /* \"contracts/cryptodev.sol\":377:1351  contract TomiwaCoin is ERC20 {\r... */\n      mstore(0x40, 0x80)\n      jumpi(tag_1, lt(calldatasize, 0x04))\n      shr(0xe0, calldataload(0x00))\n      dup1\n      0x4451d89f\n      gt\n      tag_15\n      jumpi\n      dup1\n      0xa0712d68\n      gt\n      tag_16\n      jumpi\n      dup1\n      0xa0712d68\n      eq\n      tag_11\n      jumpi\n      dup1\n      0xa457c2d7\n      eq\n      tag_12\n      jumpi\n      dup1\n      0xa9059cbb\n      eq\n      tag_13\n      jumpi\n      dup1\n      0xdd62ed3e\n      eq\n      tag_14\n      jumpi\n      jump(tag_1)\n    tag_16:\n      dup1\n      0x4451d89f\n      eq\n      tag_8\n      jumpi\n      dup1\n      0x70a08231\n      eq\n      tag_9\n      jumpi\n      dup1\n      0x95d89b41\n      eq\n      tag_10\n      jumpi\n      jump(tag_1)\n    tag_15:\n      dup1\n      0x06fdde03\n      eq\n      tag_2\n      jumpi\n      dup1\n      0x095ea7b3\n      eq\n      tag_3\n      jumpi\n      dup1\n      0x18160ddd\n      eq\n      tag_4\n      jumpi\n      dup1\n      0x23b872dd\n      eq\n      tag_5\n      jumpi\n      dup1\n      0x313ce567\n      eq\n      tag_6\n      jumpi\n      dup1\n      0x39509351\n      eq\n      tag_7\n      jumpi\n    tag_1:\n      0x00\n      dup1\n      revert\n        /* \"https://github.com/OpenZeppelin/openzeppelin-contracts/blob/master/contracts/token/ERC20/ERC20.sol\":2156:2254  function name() public view virtual override returns (string memory) {... */\n    tag_2:\n      callvalue\n      dup1\n      iszero\n      tag_17\n      jumpi\n      0x00\n      dup1\n      revert\n    tag_17:\n      pop\n      tag_18\n      tag_19\n      jump\t// in\n    tag_18:\n      mload(0x40)\n      tag_20\n      swap2\n      swap1\n      tag_21\n      jump\t// in\n    tag_20:\n      mload(0x40)\n      dup1\n      swap2\n      sub\n      swap1\n      return\n        /* \"https://github.com/OpenZeppelin/openzeppelin-contracts/blob/master/contracts/token/ERC20/ERC20.sol\":4433:4630  function approve(address spender, uint256 amount) public virtual override returns (bool) {... */\n    tag_3:\n      callvalue\n      dup1\n      iszero\n      tag_22\n      jumpi\n      0x00\n      dup1\n      revert\n    tag_22:\n      pop\n      tag_23\n      0x04\n      dup1\n      calldatasize\n      sub\n      dup2\n      add\n      swap1\n      tag_24\n      swap2\n      swap1\n      tag_25\n      jump\t// in\n    tag_24:\n      tag_26\n      jump\t// in\n    tag_23:\n      mload(0x40)\n      tag_27\n      swap2\n      swap1\n      tag_28\n      jump\t// in\n    tag_27:\n      mload(0x40)\n      dup1\n      swap2\n      sub\n      swap1\n      return\n        /* \"https://github.com/OpenZeppelin/openzeppelin-contracts/blob/master/contracts/token/ERC20/ERC20.sol\":3244:3350  function totalSupply() public view virtual override returns (uint256) {... */\n    tag_4:\n      callvalue\n      dup1\n      iszero\n      tag_29\n      jumpi\n      0x00\n      dup1\n      revert\n    tag_29:\n      pop\n      tag_30\n      tag_31\n      jump\t// in\n    tag_30:\n      mload(0x40)\n      tag_32\n      swap2\n      swap1\n      tag_33\n      jump\t// in\n    tag_32:\n      mload(0x40)\n      dup1\n      swap2\n      sub\n      swap1\n      return\n        /* \"https://github.com/OpenZeppelin/openzeppelin-contracts/blob/master/contracts/token/ERC20/ERC20.sol\":5192:5478  function transferFrom(... */\n    tag_5:\n      callvalue\n      dup1\n      iszero\n      tag_34\n      jumpi\n      0x00\n      dup1\n      revert\n    tag_34:\n      pop\n      tag_35\n      0x04\n      dup1\n      calldatasize\n      sub\n      dup2\n      add\n      swap1\n      tag_36\n      swap2\n      swap1\n      tag_37\n      jump\t// in\n    tag_36:\n      tag_38\n      jump\t// in\n    tag_35:\n      mload(0x40)\n      tag_39\n      swap2\n      swap1\n      tag_28\n      jump\t// in\n    tag_39:\n      mload(0x40)\n      dup1\n      swap2\n      sub\n      swap1\n      return\n        /* \"https://github.com/OpenZeppelin/openzeppelin-contracts/blob/master/contracts/token/ERC20/ERC20.sol\":3093:3184  function decimals() public view virtual override returns (uint8) {... */\n    tag_6:\n      callvalue\n      dup1\n      iszero\n      tag_40\n      jumpi\n      0x00\n      dup1\n      revert\n    tag_40:\n      pop\n      tag_41\n      tag_42\n      jump\t// in\n    tag_41:\n      mload(0x40)\n      tag_43\n      swap2\n      swap1\n      tag_44\n      jump\t// in\n    tag_43:\n      mload(0x40)\n      dup1\n      swap2\n      sub\n      swap1\n      return\n        /* \"https://github.com/OpenZeppelin/openzeppelin-contracts/blob/master/contracts/token/ERC20/ERC20.sol\":5873:6107  function increaseAllowance(address spender, uint256 addedValue) public virtual returns (bool) {... */\n    tag_7:\n      callvalue\n      dup1\n      iszero\n      tag_45\n      jumpi\n      0x00\n      dup1\n      revert\n    tag_45:\n      pop\n      tag_46\n      0x04\n      dup1\n      calldatasize\n      sub\n      dup2\n      add\n      swap1\n      tag_47\n      swap2\n      swap1\n      tag_25\n      jump\t// in\n    tag_47:\n      tag_48\n      jump\t// in\n    tag_46:\n      mload(0x40)\n      tag_49\n      swap2\n      swap1\n      tag_28\n      jump\t// in\n    tag_49:\n      mload(0x40)\n      dup1\n      swap2\n      sub\n      swap1\n      return\n        /* \"contracts/cryptodev.sol\":1079:1346  function claimToken() public payable {\r... */\n    tag_8:\n      tag_50\n      tag_51\n      jump\t// in\n    tag_50:\n      stop\n        /* \"https://github.com/OpenZeppelin/openzeppelin-contracts/blob/master/contracts/token/ERC20/ERC20.sol\":3408:3533  function balanceOf(address account) public view virtual override returns (uint256) {... */\n    tag_9:\n      callvalue\n      dup1\n      iszero\n      tag_52\n      jumpi\n      0x00\n      dup1\n      revert\n    tag_52:\n      pop\n      tag_53\n      0x04\n      dup1\n      calldatasize\n      sub\n      dup2\n      add\n      swap1\n      tag_54\n      swap2\n      swap1\n      tag_55\n      jump\t// in\n    tag_54:\n      tag_56\n      jump\t// in\n    tag_53:\n      mload(0x40)\n      tag_57\n      swap2\n      swap1\n      tag_33\n      jump\t// in\n    tag_57:\n      mload(0x40)\n      dup1\n      swap2\n      sub\n      swap1\n      return\n        /* \"https://github.com/OpenZeppelin/openzeppelin-contracts/blob/master/contracts/token/ERC20/ERC20.sol\":2367:2469  function symbol() public view virtual override returns (string memory) {... */\n    tag_10:\n      callvalue\n      dup1\n      iszero\n      tag_58\n      jumpi\n      0x00\n      dup1\n      revert\n    tag_58:\n      pop\n      tag_59\n      tag_60\n      jump\t// in\n    tag_59:\n      mload(0x40)\n      tag_61\n      swap2\n      swap1\n      tag_21\n      jump\t// in\n    tag_61:\n      mload(0x40)\n      dup1\n      swap2\n      sub\n      swap1\n      return\n        /* \"contracts/cryptodev.sol\":729:1074  function mint(uint _amount) public payable {\r... */\n    tag_11:\n      tag_62\n      0x04\n      dup1\n      calldatasize\n      sub\n      dup2\n      add\n      swap1\n      tag_63\n      swap2\n      swap1\n      tag_64\n      jump\t// in\n    tag_63:\n      tag_65\n      jump\t// in\n    tag_62:\n      stop\n        /* \"https://github.com/OpenZeppelin/openzeppelin-contracts/blob/master/contracts/token/ERC20/ERC20.sol\":6594:7021  function decreaseAllowance(address spender, uint256 subtractedValue) public virtual returns (bool) {... */\n    tag_12:\n      callvalue\n      dup1\n      iszero\n      tag_66\n      jumpi\n      0x00\n      dup1\n      revert\n    tag_66:\n      pop\n      tag_67\n      0x04\n      dup1\n      calldatasize\n      sub\n      dup2\n      add\n      swap1\n      tag_68\n      swap2\n      swap1\n      tag_25\n      jump\t// in\n    tag_68:\n      tag_69\n      jump\t// in\n    tag_67:\n      mload(0x40)\n      tag_70\n      swap2\n      swap1\n      tag_28\n      jump\t// in\n    tag_70:\n      mload(0x40)\n      dup1\n      swap2\n      sub\n      swap1\n      return\n        /* \"https://github.com/OpenZeppelin/openzeppelin-contracts/blob/master/contracts/token/ERC20/ERC20.sol\":3729:3918  function transfer(address to, uint256 amount) public virtual override returns (bool) {... */\n    tag_13:\n      callvalue\n      dup1\n      iszero\n      tag_71\n      jumpi\n      0x00\n      dup1\n      revert\n    tag_71:\n      pop\n      tag_72\n      0x04\n      dup1\n      calldatasize\n      sub\n      dup2\n      add\n      swap1\n      tag_73\n      swap2\n      swap1\n      tag_25\n      jump\t// in\n    tag_73:\n      tag_74\n      jump\t// in\n    tag_72:\n      mload(0x40)\n      tag_75\n      swap2\n      swap1\n      tag_28\n      jump\t// in\n    tag_75:\n      mload(0x40)\n      dup1\n      swap2\n      sub\n      swap1\n      return\n        /* \"https://github.com/OpenZeppelin/openzeppelin-contracts/blob/master/contracts/token/ERC20/ERC20.sol\":3976:4125  function allowance(address owner, address spender) public view virtual override returns (uint256) {... */\n    tag_14:\n      callvalue\n      dup1\n      iszero\n      tag_76\n      jumpi\n      0x00\n      dup1\n      revert\n    tag_76:\n      pop\n      tag_77\n      0x04\n      dup1\n      calldatasize\n      sub\n      dup2\n      add\n      swap1\n      tag_78\n      swap2\n      swap1\n      tag_79\n      jump\t// in\n    tag_78:\n      tag_80\n      jump\t// in\n    tag_77:\n      mload(0x40)\n      tag_81\n      swap2\n      swap1\n      tag_33\n      jump\t// in\n    tag_81:\n      mload(0x40)\n      dup1\n      swap2\n      sub\n      swap1\n      return\n        /* \"https://github.com/OpenZeppelin/openzeppelin-contracts/blob/master/contracts/token/ERC20/ERC20.sol\":2156:2254  function name() public view virtual override returns (string memory) {... */\n    tag_19:\n        /* \"https://github.com/OpenZeppelin/openzeppelin-contracts/blob/master/contracts/token/ERC20/ERC20.sol\":2210:2223  string memory */\n      0x60\n        /* \"https://github.com/OpenZeppelin/openzeppelin-contracts/blob/master/contracts/token/ERC20/ERC20.sol\":2242:2247  _name */\n      0x03\n        /* \"https://github.com/OpenZeppelin/openzeppelin-contracts/blob/master/contracts/token/ERC20/ERC20.sol\":2235:2247  return _name */\n      dup1\n      sload\n      tag_83\n      swap1\n      tag_84\n      jump\t// in\n    tag_83:\n      dup1\n      0x1f\n      add\n      0x20\n      dup1\n      swap2\n      div\n      mul\n      0x20\n      add\n      mload(0x40)\n      swap1\n      dup2\n      add\n      0x40\n      mstore\n      dup1\n      swap3\n      swap2\n      swap1\n      dup2\n      dup2\n      mstore\n      0x20\n      add\n      dup3\n      dup1\n      sload\n      tag_85\n      swap1\n      tag_84\n      jump\t// in\n    tag_85:\n      dup1\n      iszero\n      tag_86\n      jumpi\n      dup1\n      0x1f\n      lt\n      tag_87\n      jumpi\n      0x0100\n      dup1\n      dup4\n      sload\n      div\n      mul\n      dup4\n      mstore\n      swap2\n      0x20\n      add\n      swap2\n      jump(tag_86)\n    tag_87:\n      dup3\n      add\n      swap2\n      swap1\n      0x00\n      mstore\n      keccak256(0x00, 0x20)\n      swap1\n    tag_88:\n      dup2\n      sload\n      dup2\n      mstore\n      swap1\n      0x01\n      add\n      swap1\n      0x20\n      add\n      dup1\n      dup4\n      gt\n      tag_88\n      jumpi\n      dup3\n      swap1\n      sub\n      0x1f\n      and\n      dup3\n      add\n      swap2\n    tag_86:\n      pop\n      pop\n      pop\n      pop\n      pop\n      swap1\n      pop\n        /* \"https://github.com/OpenZeppelin/openzeppelin-contracts/blob/master/contracts/token/ERC20/ERC20.sol\":2156:2254  function name() public view virtual override returns (string memory) {... */\n      swap1\n      jump\t// out\n        /* \"https://github.com/OpenZeppelin/openzeppelin-contracts/blob/master/contracts/token/ERC20/ERC20.sol\":4433:4630  function approve(address spender, uint256 amount) public virtual override returns (bool) {... */\n    tag_26:\n        /* \"https://github.com/OpenZeppelin/openzeppelin-contracts/blob/master/contracts/token/ERC20/ERC20.sol\":4516:4520  bool */\n      0x00\n        /* \"https://github.com/OpenZeppelin/openzeppelin-contracts/blob/master/contracts/token/ERC20/ERC20.sol\":4532:4545  address owner */\n      dup1\n        /* \"https://github.com/OpenZeppelin/openzeppelin-contracts/blob/master/contracts/token/ERC20/ERC20.sol\":4548:4560  _msgSender() */\n      tag_90\n        /* \"https://github.com/OpenZeppelin/openzeppelin-contracts/blob/master/contracts/token/ERC20/ERC20.sol\":4548:4558  _msgSender */\n      tag_91\n        /* \"https://github.com/OpenZeppelin/openzeppelin-contracts/blob/master/contracts/token/ERC20/ERC20.sol\":4548:4560  _msgSender() */\n      jump\t// in\n    tag_90:\n        /* \"https://github.com/OpenZeppelin/openzeppelin-contracts/blob/master/contracts/token/ERC20/ERC20.sol\":4532:4560  address owner = _msgSender() */\n      swap1\n      pop\n        /* \"https://github.com/OpenZeppelin/openzeppelin-contracts/blob/master/contracts/token/ERC20/ERC20.sol\":4570:4602  _approve(owner, spender, amount) */\n      tag_92\n        /* \"https://github.com/OpenZeppelin/openzeppelin-contracts/blob/master/contracts/token/ERC20/ERC20.sol\":4579:4584  owner */\n      dup2\n        /* \"https://github.com/OpenZeppelin/openzeppelin-contracts/blob/master/contracts/token/ERC20/ERC20.sol\":4586:4593  spender */\n      dup6\n        /* \"https://github.com/OpenZeppelin/openzeppelin-contracts/blob/master/contracts/token/ERC20/ERC20.sol\":4595:4601  amount */\n      dup6\n        /* \"https://github.com/OpenZeppelin/openzeppelin-contracts/blob/master/contracts/token/ERC20/ERC20.sol\":4570:4578  _approve */\n      tag_93\n        /* \"https://github.com/OpenZeppelin/openzeppelin-contracts/blob/master/contracts/token/ERC20/ERC20.sol\":4570:4602  _approve(owner, spender, amount) */\n      jump\t// in\n    tag_92:\n        /* \"https://github.com/OpenZeppelin/openzeppelin-contracts/blob/master/contracts/token/ERC20/ERC20.sol\":4619:4623  true */\n      0x01\n        /* \"https://github.com/OpenZeppelin/openzeppelin-contracts/blob/master/contracts/token/ERC20/ERC20.sol\":4612:4623  return true */\n      swap2\n      pop\n      pop\n        /* \"https://github.com/OpenZeppelin/openzeppelin-contracts/blob/master/contracts/token/ERC20/ERC20.sol\":4433:4630  function approve(address spender, uint256 amount) public virtual override returns (bool) {... */\n      swap3\n      swap2\n      pop\n      pop\n      jump\t// out\n        /* \"https://github.com/OpenZeppelin/openzeppelin-contracts/blob/master/contracts/token/ERC20/ERC20.sol\":3244:3350  function totalSupply() public view virtual override returns (uint256) {... */\n    tag_31:\n        /* \"https://github.com/OpenZeppelin/openzeppelin-contracts/blob/master/contracts/token/ERC20/ERC20.sol\":3305:3312  uint256 */\n      0x00\n        /* \"https://github.com/OpenZeppelin/openzeppelin-contracts/blob/master/contracts/token/ERC20/ERC20.sol\":3331:3343  _totalSupply */\n      sload(0x02)\n        /* \"https://github.com/OpenZeppelin/openzeppelin-contracts/blob/master/contracts/token/ERC20/ERC20.sol\":3324:3343  return _totalSupply */\n      swap1\n      pop\n        /* \"https://github.com/OpenZeppelin/openzeppelin-contracts/blob/master/contracts/token/ERC20/ERC20.sol\":3244:3350  function totalSupply() public view virtual override returns (uint256) {... */\n      swap1\n      jump\t// out\n        /* \"https://github.com/OpenZeppelin/openzeppelin-contracts/blob/master/contracts/token/ERC20/ERC20.sol\":5192:5478  function transferFrom(... */\n    tag_38:\n        /* \"https://github.com/OpenZeppelin/openzeppelin-contracts/blob/master/contracts/token/ERC20/ERC20.sol\":5319:5323  bool */\n      0x00\n        /* \"https://github.com/OpenZeppelin/openzeppelin-contracts/blob/master/contracts/token/ERC20/ERC20.sol\":5335:5350  address spender */\n      dup1\n        /* \"https://github.com/OpenZeppelin/openzeppelin-contracts/blob/master/contracts/token/ERC20/ERC20.sol\":5353:5365  _msgSender() */\n      tag_96\n        /* \"https://github.com/OpenZeppelin/openzeppelin-contracts/blob/master/contracts/token/ERC20/ERC20.sol\":5353:5363  _msgSender */\n      tag_91\n        /* \"https://github.com/OpenZeppelin/openzeppelin-contracts/blob/master/contracts/token/ERC20/ERC20.sol\":5353:5365  _msgSender() */\n      jump\t// in\n    tag_96:\n        /* \"https://github.com/OpenZeppelin/openzeppelin-contracts/blob/master/contracts/token/ERC20/ERC20.sol\":5335:5365  address spender = _msgSender() */\n      swap1\n      pop\n        /* \"https://github.com/OpenZeppelin/openzeppelin-contracts/blob/master/contracts/token/ERC20/ERC20.sol\":5375:5413  _spendAllowance(from, spender, amount) */\n      tag_97\n        /* \"https://github.com/OpenZeppelin/openzeppelin-contracts/blob/master/contracts/token/ERC20/ERC20.sol\":5391:5395  from */\n      dup6\n        /* \"https://github.com/OpenZeppelin/openzeppelin-contracts/blob/master/contracts/token/ERC20/ERC20.sol\":5397:5404  spender */\n      dup3\n        /* \"https://github.com/OpenZeppelin/openzeppelin-contracts/blob/master/contracts/token/ERC20/ERC20.sol\":5406:5412  amount */\n      dup6\n        /* \"https://github.com/OpenZeppelin/openzeppelin-contracts/blob/master/contracts/token/ERC20/ERC20.sol\":5375:5390  _spendAllowance */\n      tag_98\n        /* \"https://github.com/OpenZeppelin/openzeppelin-contracts/blob/master/contracts/token/ERC20/ERC20.sol\":5375:5413  _spendAllowance(from, spender, amount) */\n      jump\t// in\n    tag_97:\n        /* \"https://github.com/OpenZeppelin/openzeppelin-contracts/blob/master/contracts/token/ERC20/ERC20.sol\":5423:5450  _transfer(from, to, amount) */\n      tag_99\n        /* \"https://github.com/OpenZeppelin/openzeppelin-contracts/blob/master/contracts/token/ERC20/ERC20.sol\":5433:5437  from */\n      dup6\n        /* \"https://github.com/OpenZeppelin/openzeppelin-contracts/blob/master/contracts/token/ERC20/ERC20.sol\":5439:5441  to */\n      dup6\n        /* \"https://github.com/OpenZeppelin/openzeppelin-contracts/blob/master/contracts/token/ERC20/ERC20.sol\":5443:5449  amount */\n      dup6\n        /* \"https://github.com/OpenZeppelin/openzeppelin-contracts/blob/master/contracts/token/ERC20/ERC20.sol\":5423:5432  _transfer */\n      tag_100\n        /* \"https://github.com/OpenZeppelin/openzeppelin-contracts/blob/master/contracts/token/ERC20/ERC20.sol\":5423:5450  _transfer(from, to, amount) */\n      jump\t// in\n    tag_99:\n        /* \"https://github.com/OpenZeppelin/openzeppelin-contracts/blob/master/contracts/token/ERC20/ERC20.sol\":5467:5471  true */\n      0x01\n        /* \"https://github.com/OpenZeppelin/openzeppelin-contracts/blob/master/contracts/token/ERC20/ERC20.sol\":5460:5471  return true */\n      swap2\n      pop\n      pop\n        /* \"https://github.com/OpenZeppelin/openzeppelin-contracts/blob/master/contracts/token/ERC20/ERC20.sol\":5192:5478  function transferFrom(... */\n      swap4\n      swap3\n      pop\n      pop\n      pop\n      jump\t// out\n        /* \"https://github.com/OpenZeppelin/openzeppelin-contracts/blob/master/contracts/token/ERC20/ERC20.sol\":3093:3184  function decimals() public view virtual override returns (uint8) {... */\n    tag_42:\n        /* \"https://github.com/OpenZeppelin/openzeppelin-contracts/blob/master/contracts/token/ERC20/ERC20.sol\":3151:3156  uint8 */\n      0x00\n        /* \"https://github.com/OpenZeppelin/openzeppelin-contracts/blob/master/contracts/token/ERC20/ERC20.sol\":3175:3177  18 */\n      0x12\n        /* \"https://github.com/OpenZeppelin/openzeppelin-contracts/blob/master/contracts/token/ERC20/ERC20.sol\":3168:3177  return 18 */\n      swap1\n      pop\n        /* \"https://github.com/OpenZeppelin/openzeppelin-contracts/blob/master/contracts/token/ERC20/ERC20.sol\":3093:3184  function decimals() public view virtual override returns (uint8) {... */\n      swap1\n      jump\t// out\n        /* \"https://github.com/OpenZeppelin/openzeppelin-contracts/blob/master/contracts/token/ERC20/ERC20.sol\":5873:6107  function increaseAllowance(address spender, uint256 addedValue) public virtual returns (bool) {... */\n    tag_48:\n        /* \"https://github.com/OpenZeppelin/openzeppelin-contracts/blob/master/contracts/token/ERC20/ERC20.sol\":5961:5965  bool */\n      0x00\n        /* \"https://github.com/OpenZeppelin/openzeppelin-contracts/blob/master/contracts/token/ERC20/ERC20.sol\":5977:5990  address owner */\n      dup1\n        /* \"https://github.com/OpenZeppelin/openzeppelin-contracts/blob/master/contracts/token/ERC20/ERC20.sol\":5993:6005  _msgSender() */\n      tag_103\n        /* \"https://github.com/OpenZeppelin/openzeppelin-contracts/blob/master/contracts/token/ERC20/ERC20.sol\":5993:6003  _msgSender */\n      tag_91\n        /* \"https://github.com/OpenZeppelin/openzeppelin-contracts/blob/master/contracts/token/ERC20/ERC20.sol\":5993:6005  _msgSender() */\n      jump\t// in\n    tag_103:\n        /* \"https://github.com/OpenZeppelin/openzeppelin-contracts/blob/master/contracts/token/ERC20/ERC20.sol\":5977:6005  address owner = _msgSender() */\n      swap1\n      pop\n        /* \"https://github.com/OpenZeppelin/openzeppelin-contracts/blob/master/contracts/token/ERC20/ERC20.sol\":6015:6079  _approve(owner, spender, allowance(owner, spender) + addedValue) */\n      tag_104\n        /* \"https://github.com/OpenZeppelin/openzeppelin-contracts/blob/master/contracts/token/ERC20/ERC20.sol\":6024:6029  owner */\n      dup2\n        /* \"https://github.com/OpenZeppelin/openzeppelin-contracts/blob/master/contracts/token/ERC20/ERC20.sol\":6031:6038  spender */\n      dup6\n        /* \"https://github.com/OpenZeppelin/openzeppelin-contracts/blob/master/contracts/token/ERC20/ERC20.sol\":6068:6078  addedValue */\n      dup6\n        /* \"https://github.com/OpenZeppelin/openzeppelin-contracts/blob/master/contracts/token/ERC20/ERC20.sol\":6040:6065  allowance(owner, spender) */\n      tag_105\n        /* \"https://github.com/OpenZeppelin/openzeppelin-contracts/blob/master/contracts/token/ERC20/ERC20.sol\":6050:6055  owner */\n      dup6\n        /* \"https://github.com/OpenZeppelin/openzeppelin-contracts/blob/master/contracts/token/ERC20/ERC20.sol\":6057:6064  spender */\n      dup10\n        /* \"https://github.com/OpenZeppelin/openzeppelin-contracts/blob/master/contracts/token/ERC20/ERC20.sol\":6040:6049  allowance */\n      tag_80\n        /* \"https://github.com/OpenZeppelin/openzeppelin-contracts/blob/master/contracts/token/ERC20/ERC20.sol\":6040:6065  allowance(owner, spender) */\n      jump\t// in\n    tag_105:\n        /* \"https://github.com/OpenZeppelin/openzeppelin-contracts/blob/master/contracts/token/ERC20/ERC20.sol\":6040:6078  allowance(owner, spender) + addedValue */\n      tag_106\n      swap2\n      swap1\n      tag_107\n      jump\t// in\n    tag_106:\n        /* \"https://github.com/OpenZeppelin/openzeppelin-contracts/blob/master/contracts/token/ERC20/ERC20.sol\":6015:6023  _approve */\n      tag_93\n        /* \"https://github.com/OpenZeppelin/openzeppelin-contracts/blob/master/contracts/token/ERC20/ERC20.sol\":6015:6079  _approve(owner, spender, allowance(owner, spender) + addedValue) */\n      jump\t// in\n    tag_104:\n        /* \"https://github.com/OpenZeppelin/openzeppelin-contracts/blob/master/contracts/token/ERC20/ERC20.sol\":6096:6100  true */\n      0x01\n        /* \"https://github.com/OpenZeppelin/openzeppelin-contracts/blob/master/contracts/token/ERC20/ERC20.sol\":6089:6100  return true */\n      swap2\n      pop\n      pop\n        /* \"https://github.com/OpenZeppelin/openzeppelin-contracts/blob/master/contracts/token/ERC20/ERC20.sol\":5873:6107  function increaseAllowance(address spender, uint256 addedValue) public virtual returns (bool) {... */\n      swap3\n      swap2\n      pop\n      pop\n      jump\t// out\n        /* \"contracts/cryptodev.sol\":1079:1346  function claimToken() public payable {\r... */\n    tag_51:\n        /* \"contracts/cryptodev.sol\":1122:1147  address _connectedAddress */\n      0x00\n        /* \"contracts/cryptodev.sol\":1150:1160  msg.sender */\n      caller\n        /* \"contracts/cryptodev.sol\":1122:1160  address _connectedAddress = msg.sender */\n      swap1\n      pop\n        /* \"contracts/cryptodev.sol\":1169:1200  uint connectedAddressNFTBalance */\n      0x00\n        /* \"contracts/cryptodev.sol\":1203:1216  nftCollection */\n      0x07\n      0x00\n      swap1\n      sload\n      swap1\n      0x0100\n      exp\n      swap1\n      div\n      0xffffffffffffffffffffffffffffffffffffffff\n      and\n        /* \"contracts/cryptodev.sol\":1203:1226  nftCollection.balanceOf */\n      0xffffffffffffffffffffffffffffffffffffffff\n      and\n      0x70a08231\n        /* \"contracts/cryptodev.sol\":1227:1244  _connectedAddress */\n      dup4\n        /* \"contracts/cryptodev.sol\":1203:1245  nftCollection.balanceOf(_connectedAddress) */\n      mload(0x40)\n      dup3\n      0xffffffff\n      and\n      0xe0\n      shl\n      dup2\n      mstore\n      0x04\n      add\n      tag_109\n      swap2\n      swap1\n      tag_110\n      jump\t// in\n    tag_109:\n      0x20\n      mload(0x40)\n      dup1\n      dup4\n      sub\n      dup2\n      dup7\n      dup1\n      extcodesize\n      iszero\n      dup1\n      iszero\n      tag_111\n      jumpi\n      0x00\n      dup1\n      revert\n    tag_111:\n      pop\n      gas\n      staticcall\n      iszero\n      dup1\n      iszero\n      tag_113\n      jumpi\n      returndatasize\n      0x00\n      dup1\n      returndatacopy\n      revert(0x00, returndatasize)\n    tag_113:\n      pop\n      pop\n      pop\n      pop\n      mload(0x40)\n      returndatasize\n      not(0x1f)\n      0x1f\n      dup3\n      add\n      and\n      dup3\n      add\n      dup1\n      0x40\n      mstore\n      pop\n      dup2\n      add\n      swap1\n      tag_114\n      swap2\n      swap1\n      tag_115\n      jump\t// in\n    tag_114:\n        /* \"contracts/cryptodev.sol\":1169:1245  uint connectedAddressNFTBalance = nftCollection.balanceOf(_connectedAddress) */\n      swap1\n      pop\n        /* \"contracts/cryptodev.sol\":1291:1292  0 */\n      0x00\n        /* \"contracts/cryptodev.sol\":1261:1287  connectedAddressNFTBalance */\n      dup2\n        /* \"contracts/cryptodev.sol\":1261:1292  connectedAddressNFTBalance == 0 */\n      eq\n        /* \"contracts/cryptodev.sol\":1253:1332  require(connectedAddressNFTBalance == 0, \"You do not have any Mutant Apes NFT\") */\n      tag_116\n      jumpi\n      mload(0x40)\n      0x08c379a000000000000000000000000000000000000000000000000000000000\n      dup2\n      mstore\n      0x04\n      add\n      tag_117\n      swap1\n      tag_118\n      jump\t// in\n    tag_117:\n      mload(0x40)\n      dup1\n      swap2\n      sub\n      swap1\n      revert\n    tag_116:\n        /* \"contracts/cryptodev.sol\":1116:1346  {\r... */\n      pop\n      pop\n        /* \"contracts/cryptodev.sol\":1079:1346  function claimToken() public payable {\r... */\n      jump\t// out\n        /* \"https://github.com/OpenZeppelin/openzeppelin-contracts/blob/master/contracts/token/ERC20/ERC20.sol\":3408:3533  function balanceOf(address account) public view virtual override returns (uint256) {... */\n    tag_56:\n        /* \"https://github.com/OpenZeppelin/openzeppelin-contracts/blob/master/contracts/token/ERC20/ERC20.sol\":3482:3489  uint256 */\n      0x00\n        /* \"https://github.com/OpenZeppelin/openzeppelin-contracts/blob/master/contracts/token/ERC20/ERC20.sol\":3508:3517  _balances */\n      dup1\n        /* \"https://github.com/OpenZeppelin/openzeppelin-contracts/blob/master/contracts/token/ERC20/ERC20.sol\":3508:3526  _balances[account] */\n      0x00\n        /* \"https://github.com/OpenZeppelin/openzeppelin-contracts/blob/master/contracts/token/ERC20/ERC20.sol\":3518:3525  account */\n      dup4\n        /* \"https://github.com/OpenZeppelin/openzeppelin-contracts/blob/master/contracts/token/ERC20/ERC20.sol\":3508:3526  _balances[account] */\n      0xffffffffffffffffffffffffffffffffffffffff\n      and\n      0xffffffffffffffffffffffffffffffffffffffff\n      and\n      dup2\n      mstore\n      0x20\n      add\n      swap1\n      dup2\n      mstore\n      0x20\n      add\n      0x00\n      keccak256\n      sload\n        /* \"https://github.com/OpenZeppelin/openzeppelin-contracts/blob/master/contracts/token/ERC20/ERC20.sol\":3501:3526  return _balances[account] */\n      swap1\n      pop\n        /* \"https://github.com/OpenZeppelin/openzeppelin-contracts/blob/master/contracts/token/ERC20/ERC20.sol\":3408:3533  function balanceOf(address account) public view virtual override returns (uint256) {... */\n      swap2\n      swap1\n      pop\n      jump\t// out\n        /* \"https://github.com/OpenZeppelin/openzeppelin-contracts/blob/master/contracts/token/ERC20/ERC20.sol\":2367:2469  function symbol() public view virtual override returns (string memory) {... */\n    tag_60:\n        /* \"https://github.com/OpenZeppelin/openzeppelin-contracts/blob/master/contracts/token/ERC20/ERC20.sol\":2423:2436  string memory */\n      0x60\n        /* \"https://github.com/OpenZeppelin/openzeppelin-contracts/blob/master/contracts/token/ERC20/ERC20.sol\":2455:2462  _symbol */\n      0x04\n        /* \"https://github.com/OpenZeppelin/openzeppelin-contracts/blob/master/contracts/token/ERC20/ERC20.sol\":2448:2462  return _symbol */\n      dup1\n      sload\n      tag_121\n      swap1\n      tag_84\n      jump\t// in\n    tag_121:\n      dup1\n      0x1f\n      add\n      0x20\n      dup1\n      swap2\n      div\n      mul\n      0x20\n      add\n      mload(0x40)\n      swap1\n      dup2\n      add\n      0x40\n      mstore\n      dup1\n      swap3\n      swap2\n      swap1\n      dup2\n      dup2\n      mstore\n      0x20\n      add\n      dup3\n      dup1\n      sload\n      tag_122\n      swap1\n      tag_84\n      jump\t// in\n    tag_122:\n      dup1\n      iszero\n      tag_123\n      jumpi\n      dup1\n      0x1f\n      lt\n      tag_124\n      jumpi\n      0x0100\n      dup1\n      dup4\n      sload\n      div\n      mul\n      dup4\n      mstore\n      swap2\n      0x20\n      add\n      swap2\n      jump(tag_123)\n    tag_124:\n      dup3\n      add\n      swap2\n      swap1\n      0x00\n      mstore\n      keccak256(0x00, 0x20)\n      swap1\n    tag_125:\n      dup2\n      sload\n      dup2\n      mstore\n      swap1\n      0x01\n      add\n      swap1\n      0x20\n      add\n      dup1\n      dup4\n      gt\n      tag_125\n      jumpi\n      dup3\n      swap1\n      sub\n      0x1f\n      and\n      dup3\n      add\n      swap2\n    tag_123:\n      pop\n      pop\n      pop\n      pop\n      pop\n      swap1\n      pop\n        /* \"https://github.com/OpenZeppelin/openzeppelin-contracts/blob/master/contracts/token/ERC20/ERC20.sol\":2367:2469  function symbol() public view virtual override returns (string memory) {... */\n      swap1\n      jump\t// out\n        /* \"contracts/cryptodev.sol\":729:1074  function mint(uint _amount) public payable {\r... */\n    tag_65:\n        /* \"contracts/cryptodev.sol\":779:800  uint calculatedAmount */\n      0x00\n        /* \"contracts/cryptodev.sol\":440:451  0.001 ether */\n      0x038d7ea4c68000\n        /* \"contracts/cryptodev.sol\":803:810  _amount */\n      dup3\n        /* \"contracts/cryptodev.sol\":803:823  _amount * tokenPrice */\n      tag_127\n      swap2\n      swap1\n      tag_128\n      jump\t// in\n    tag_127:\n        /* \"contracts/cryptodev.sol\":779:823  uint calculatedAmount = _amount * tokenPrice */\n      swap1\n      pop\n        /* \"contracts/cryptodev.sol\":849:865  calculatedAmount */\n      dup1\n        /* \"contracts/cryptodev.sol\":836:845  msg.value */\n      callvalue\n        /* \"contracts/cryptodev.sol\":836:865  msg.value >= calculatedAmount */\n      lt\n      iszero\n        /* \"contracts/cryptodev.sol\":828:890  require(msg.value >= calculatedAmount, \"Incorrect ether sent\") */\n      tag_129\n      jumpi\n      mload(0x40)\n      0x08c379a000000000000000000000000000000000000000000000000000000000\n      dup2\n      mstore\n      0x04\n      add\n      tag_130\n      swap1\n      tag_131\n      jump\t// in\n    tag_130:\n      mload(0x40)\n      dup1\n      swap2\n      sub\n      swap1\n      revert\n    tag_129:\n        /* \"contracts/cryptodev.sol\":895:915  uint convertedAmount */\n      0x00\n        /* \"contracts/cryptodev.sol\":937:943  10**18 */\n      0x0de0b6b3a7640000\n        /* \"contracts/cryptodev.sol\":918:934  calculatedAmount */\n      dup3\n        /* \"contracts/cryptodev.sol\":918:943  calculatedAmount * 10**18 */\n      tag_132\n      swap2\n      swap1\n      tag_128\n      jump\t// in\n    tag_132:\n        /* \"contracts/cryptodev.sol\":895:943  uint convertedAmount = calculatedAmount * 10**18 */\n      swap1\n      pop\n        /* \"contracts/cryptodev.sol\":994:1003  maxSupply */\n      sload(0x06)\n        /* \"contracts/cryptodev.sol\":974:989  convertedAmount */\n      dup2\n        /* \"contracts/cryptodev.sol\":958:971  totalSupply() */\n      tag_133\n        /* \"contracts/cryptodev.sol\":958:969  totalSupply */\n      tag_31\n        /* \"contracts/cryptodev.sol\":958:971  totalSupply() */\n      jump\t// in\n    tag_133:\n        /* \"contracts/cryptodev.sol\":958:989  totalSupply() + convertedAmount */\n      tag_134\n      swap2\n      swap1\n      tag_107\n      jump\t// in\n    tag_134:\n        /* \"contracts/cryptodev.sol\":957:1003  (totalSupply() + convertedAmount) <= maxSupply */\n      gt\n      iszero\n        /* \"contracts/cryptodev.sol\":948:1030  require( (totalSupply() + convertedAmount) <= maxSupply, \"Maximum supply reached\") */\n      tag_135\n      jumpi\n      mload(0x40)\n      0x08c379a000000000000000000000000000000000000000000000000000000000\n      dup2\n      mstore\n      0x04\n      add\n      tag_136\n      swap1\n      tag_137\n      jump\t// in\n    tag_136:\n      mload(0x40)\n      dup1\n      swap2\n      sub\n      swap1\n      revert\n    tag_135:\n        /* \"contracts/cryptodev.sol\":1035:1069  _mint(msg.sender, convertedAmount) */\n      tag_138\n        /* \"contracts/cryptodev.sol\":1041:1051  msg.sender */\n      caller\n        /* \"contracts/cryptodev.sol\":1053:1068  convertedAmount */\n      dup3\n        /* \"contracts/cryptodev.sol\":1035:1040  _mint */\n      tag_139\n        /* \"contracts/cryptodev.sol\":1035:1069  _mint(msg.sender, convertedAmount) */\n      jump\t// in\n    tag_138:\n        /* \"contracts/cryptodev.sol\":772:1074  {\r... */\n      pop\n      pop\n        /* \"contracts/cryptodev.sol\":729:1074  function mint(uint _amount) public payable {\r... */\n      pop\n      jump\t// out\n        /* \"https://github.com/OpenZeppelin/openzeppelin-contracts/blob/master/contracts/token/ERC20/ERC20.sol\":6594:7021  function decreaseAllowance(address spender, uint256 subtractedValue) public virtual returns (bool) {... */\n    tag_69:\n        /* \"https://github.com/OpenZeppelin/openzeppelin-contracts/blob/master/contracts/token/ERC20/ERC20.sol\":6687:6691  bool */\n      0x00\n        /* \"https://github.com/OpenZeppelin/openzeppelin-contracts/blob/master/contracts/token/ERC20/ERC20.sol\":6703:6716  address owner */\n      dup1\n        /* \"https://github.com/OpenZeppelin/openzeppelin-contracts/blob/master/contracts/token/ERC20/ERC20.sol\":6719:6731  _msgSender() */\n      tag_141\n        /* \"https://github.com/OpenZeppelin/openzeppelin-contracts/blob/master/contracts/token/ERC20/ERC20.sol\":6719:6729  _msgSender */\n      tag_91\n        /* \"https://github.com/OpenZeppelin/openzeppelin-contracts/blob/master/contracts/token/ERC20/ERC20.sol\":6719:6731  _msgSender() */\n      jump\t// in\n    tag_141:\n        /* \"https://github.com/OpenZeppelin/openzeppelin-contracts/blob/master/contracts/token/ERC20/ERC20.sol\":6703:6731  address owner = _msgSender() */\n      swap1\n      pop\n        /* \"https://github.com/OpenZeppelin/openzeppelin-contracts/blob/master/contracts/token/ERC20/ERC20.sol\":6741:6765  uint256 currentAllowance */\n      0x00\n        /* \"https://github.com/OpenZeppelin/openzeppelin-contracts/blob/master/contracts/token/ERC20/ERC20.sol\":6768:6793  allowance(owner, spender) */\n      tag_142\n        /* \"https://github.com/OpenZeppelin/openzeppelin-contracts/blob/master/contracts/token/ERC20/ERC20.sol\":6778:6783  owner */\n      dup3\n        /* \"https://github.com/OpenZeppelin/openzeppelin-contracts/blob/master/contracts/token/ERC20/ERC20.sol\":6785:6792  spender */\n      dup7\n        /* \"https://github.com/OpenZeppelin/openzeppelin-contracts/blob/master/contracts/token/ERC20/ERC20.sol\":6768:6777  allowance */\n      tag_80\n        /* \"https://github.com/OpenZeppelin/openzeppelin-contracts/blob/master/contracts/token/ERC20/ERC20.sol\":6768:6793  allowance(owner, spender) */\n      jump\t// in\n    tag_142:\n        /* \"https://github.com/OpenZeppelin/openzeppelin-contracts/blob/master/contracts/token/ERC20/ERC20.sol\":6741:6793  uint256 currentAllowance = allowance(owner, spender) */\n      swap1\n      pop\n        /* \"https://github.com/OpenZeppelin/openzeppelin-contracts/blob/master/contracts/token/ERC20/ERC20.sol\":6831:6846  subtractedValue */\n      dup4\n        /* \"https://github.com/OpenZeppelin/openzeppelin-contracts/blob/master/contracts/token/ERC20/ERC20.sol\":6811:6827  currentAllowance */\n      dup2\n        /* \"https://github.com/OpenZeppelin/openzeppelin-contracts/blob/master/contracts/token/ERC20/ERC20.sol\":6811:6846  currentAllowance >= subtractedValue */\n      lt\n      iszero\n        /* \"https://github.com/OpenZeppelin/openzeppelin-contracts/blob/master/contracts/token/ERC20/ERC20.sol\":6803:6888  require(currentAllowance >= subtractedValue, \"ERC20: decreased allowance below zero\") */\n      tag_143\n      jumpi\n      mload(0x40)\n      0x08c379a000000000000000000000000000000000000000000000000000000000\n      dup2\n      mstore\n      0x04\n      add\n      tag_144\n      swap1\n      tag_145\n      jump\t// in\n    tag_144:\n      mload(0x40)\n      dup1\n      swap2\n      sub\n      swap1\n      revert\n    tag_143:\n        /* \"https://github.com/OpenZeppelin/openzeppelin-contracts/blob/master/contracts/token/ERC20/ERC20.sol\":6922:6982  _approve(owner, spender, currentAllowance - subtractedValue) */\n      tag_146\n        /* \"https://github.com/OpenZeppelin/openzeppelin-contracts/blob/master/contracts/token/ERC20/ERC20.sol\":6931:6936  owner */\n      dup3\n        /* \"https://github.com/OpenZeppelin/openzeppelin-contracts/blob/master/contracts/token/ERC20/ERC20.sol\":6938:6945  spender */\n      dup7\n        /* \"https://github.com/OpenZeppelin/openzeppelin-contracts/blob/master/contracts/token/ERC20/ERC20.sol\":6966:6981  subtractedValue */\n      dup7\n        /* \"https://github.com/OpenZeppelin/openzeppelin-contracts/blob/master/contracts/token/ERC20/ERC20.sol\":6947:6963  currentAllowance */\n      dup5\n        /* \"https://github.com/OpenZeppelin/openzeppelin-contracts/blob/master/contracts/token/ERC20/ERC20.sol\":6947:6981  currentAllowance - subtractedValue */\n      sub\n        /* \"https://github.com/OpenZeppelin/openzeppelin-contracts/blob/master/contracts/token/ERC20/ERC20.sol\":6922:6930  _approve */\n      tag_93\n        /* \"https://github.com/OpenZeppelin/openzeppelin-contracts/blob/master/contracts/token/ERC20/ERC20.sol\":6922:6982  _approve(owner, spender, currentAllowance - subtractedValue) */\n      jump\t// in\n    tag_146:\n        /* \"https://github.com/OpenZeppelin/openzeppelin-contracts/blob/master/contracts/token/ERC20/ERC20.sol\":7010:7014  true */\n      0x01\n        /* \"https://github.com/OpenZeppelin/openzeppelin-contracts/blob/master/contracts/token/ERC20/ERC20.sol\":7003:7014  return true */\n      swap3\n      pop\n      pop\n      pop\n        /* \"https://github.com/OpenZeppelin/openzeppelin-contracts/blob/master/contracts/token/ERC20/ERC20.sol\":6594:7021  function decreaseAllowance(address spender, uint256 subtractedValue) public virtual returns (bool) {... */\n      swap3\n      swap2\n      pop\n      pop\n      jump\t// out\n        /* \"https://github.com/OpenZeppelin/openzeppelin-contracts/blob/master/contracts/token/ERC20/ERC20.sol\":3729:3918  function transfer(address to, uint256 amount) public virtual override returns (bool) {... */\n    tag_74:\n        /* \"https://github.com/OpenZeppelin/openzeppelin-contracts/blob/master/contracts/token/ERC20/ERC20.sol\":3808:3812  bool */\n      0x00\n        /* \"https://github.com/OpenZeppelin/openzeppelin-contracts/blob/master/contracts/token/ERC20/ERC20.sol\":3824:3837  address owner */\n      dup1\n        /* \"https://github.com/OpenZeppelin/openzeppelin-contracts/blob/master/contracts/token/ERC20/ERC20.sol\":3840:3852  _msgSender() */\n      tag_148\n        /* \"https://github.com/OpenZeppelin/openzeppelin-contracts/blob/master/contracts/token/ERC20/ERC20.sol\":3840:3850  _msgSender */\n      tag_91\n        /* \"https://github.com/OpenZeppelin/openzeppelin-contracts/blob/master/contracts/token/ERC20/ERC20.sol\":3840:3852  _msgSender() */\n      jump\t// in\n    tag_148:\n        /* \"https://github.com/OpenZeppelin/openzeppelin-contracts/blob/master/contracts/token/ERC20/ERC20.sol\":3824:3852  address owner = _msgSender() */\n      swap1\n      pop\n        /* \"https://github.com/OpenZeppelin/openzeppelin-contracts/blob/master/contracts/token/ERC20/ERC20.sol\":3862:3890  _transfer(owner, to, amount) */\n      tag_149\n        /* \"https://github.com/OpenZeppelin/openzeppelin-contracts/blob/master/contracts/token/ERC20/ERC20.sol\":3872:3877  owner */\n      dup2\n        /* \"https://github.com/OpenZeppelin/openzeppelin-contracts/blob/master/contracts/token/ERC20/ERC20.sol\":3879:3881  to */\n      dup6\n        /* \"https://github.com/OpenZeppelin/openzeppelin-contracts/blob/master/contracts/token/ERC20/ERC20.sol\":3883:3889  amount */\n      dup6\n        /* \"https://github.com/OpenZeppelin/openzeppelin-contracts/blob/master/contracts/token/ERC20/ERC20.sol\":3862:3871  _transfer */\n      tag_100\n        /* \"https://github.com/OpenZeppelin/openzeppelin-contracts/blob/master/contracts/token/ERC20/ERC20.sol\":3862:3890  _transfer(owner, to, amount) */\n      jump\t// in\n    tag_149:\n        /* \"https://github.com/OpenZeppelin/openzeppelin-contracts/blob/master/contracts/token/ERC20/ERC20.sol\":3907:3911  true */\n      0x01\n        /* \"https://github.com/OpenZeppelin/openzeppelin-contracts/blob/master/contracts/token/ERC20/ERC20.sol\":3900:3911  return true */\n      swap2\n      pop\n      pop\n        /* \"https://github.com/OpenZeppelin/openzeppelin-contracts/blob/master/contracts/token/ERC20/ERC20.sol\":3729:3918  function transfer(address to, uint256 amount) public virtual override returns (bool) {... */\n      swap3\n      swap2\n      pop\n      pop\n      jump\t// out\n        /* \"https://github.com/OpenZeppelin/openzeppelin-contracts/blob/master/contracts/token/ERC20/ERC20.sol\":3976:4125  function allowance(address owner, address spender) public view virtual override returns (uint256) {... */\n    tag_80:\n        /* \"https://github.com/OpenZeppelin/openzeppelin-contracts/blob/master/contracts/token/ERC20/ERC20.sol\":4065:4072  uint256 */\n      0x00\n        /* \"https://github.com/OpenZeppelin/openzeppelin-contracts/blob/master/contracts/token/ERC20/ERC20.sol\":4091:4102  _allowances */\n      0x01\n        /* \"https://github.com/OpenZeppelin/openzeppelin-contracts/blob/master/contracts/token/ERC20/ERC20.sol\":4091:4109  _allowances[owner] */\n      0x00\n        /* \"https://github.com/OpenZeppelin/openzeppelin-contracts/blob/master/contracts/token/ERC20/ERC20.sol\":4103:4108  owner */\n      dup5\n        /* \"https://github.com/OpenZeppelin/openzeppelin-contracts/blob/master/contracts/token/ERC20/ERC20.sol\":4091:4109  _allowances[owner] */\n      0xffffffffffffffffffffffffffffffffffffffff\n      and\n      0xffffffffffffffffffffffffffffffffffffffff\n      and\n      dup2\n      mstore\n      0x20\n      add\n      swap1\n      dup2\n      mstore\n      0x20\n      add\n      0x00\n      keccak256\n        /* \"https://github.com/OpenZeppelin/openzeppelin-contracts/blob/master/contracts/token/ERC20/ERC20.sol\":4091:4118  _allowances[owner][spender] */\n      0x00\n        /* \"https://github.com/OpenZeppelin/openzeppelin-contracts/blob/master/contracts/token/ERC20/ERC20.sol\":4110:4117  spender */\n      dup4\n        /* \"https://github.com/OpenZeppelin/openzeppelin-contracts/blob/master/contracts/token/ERC20/ERC20.sol\":4091:4118  _allowances[owner][spender] */\n      0xffffffffffffffffffffffffffffffffffffffff\n      and\n      0xffffffffffffffffffffffffffffffffffffffff\n      and\n      dup2\n      mstore\n      0x20\n      add\n      swap1\n      dup2\n      mstore\n      0x20\n      add\n      0x00\n      keccak256\n      sload\n        /* \"https://github.com/OpenZeppelin/openzeppelin-contracts/blob/master/contracts/token/ERC20/ERC20.sol\":4084:4118  return _allowances[owner][spender] */\n      swap1\n      pop\n        /* \"https://github.com/OpenZeppelin/openzeppelin-contracts/blob/master/contracts/token/ERC20/ERC20.sol\":3976:4125  function allowance(address owner, address spender) public view virtual override returns (uint256) {... */\n      swap3\n      swap2\n      pop\n      pop\n      jump\t// out\n        /* \"https://github.com/OpenZeppelin/openzeppelin-contracts/blob/master/contracts/utils/Context.sol\":640:736  function _msgSender() internal view virtual returns (address) {... */\n    tag_91:\n        /* \"https://github.com/OpenZeppelin/openzeppelin-contracts/blob/master/contracts/utils/Context.sol\":693:700  address */\n      0x00\n        /* \"https://github.com/OpenZeppelin/openzeppelin-contracts/blob/master/contracts/utils/Context.sol\":719:729  msg.sender */\n      caller\n        /* \"https://github.com/OpenZeppelin/openzeppelin-contracts/blob/master/contracts/utils/Context.sol\":712:729  return msg.sender */\n      swap1\n      pop\n        /* \"https://github.com/OpenZeppelin/openzeppelin-contracts/blob/master/contracts/utils/Context.sol\":640:736  function _msgSender() internal view virtual returns (address) {... */\n      swap1\n      jump\t// out\n        /* \"https://github.com/OpenZeppelin/openzeppelin-contracts/blob/master/contracts/token/ERC20/ERC20.sol\":10119:10489  function _approve(... */\n    tag_93:\n        /* \"https://github.com/OpenZeppelin/openzeppelin-contracts/blob/master/contracts/token/ERC20/ERC20.sol\":10267:10268  0 */\n      0x00\n        /* \"https://github.com/OpenZeppelin/openzeppelin-contracts/blob/master/contracts/token/ERC20/ERC20.sol\":10250:10269  owner != address(0) */\n      0xffffffffffffffffffffffffffffffffffffffff\n      and\n        /* \"https://github.com/OpenZeppelin/openzeppelin-contracts/blob/master/contracts/token/ERC20/ERC20.sol\":10250:10255  owner */\n      dup4\n        /* \"https://github.com/OpenZeppelin/openzeppelin-contracts/blob/master/contracts/token/ERC20/ERC20.sol\":10250:10269  owner != address(0) */\n      0xffffffffffffffffffffffffffffffffffffffff\n      and\n      eq\n      iszero\n        /* \"https://github.com/OpenZeppelin/openzeppelin-contracts/blob/master/contracts/token/ERC20/ERC20.sol\":10242:10310  require(owner != address(0), \"ERC20: approve from the zero address\") */\n      tag_153\n      jumpi\n      mload(0x40)\n      0x08c379a000000000000000000000000000000000000000000000000000000000\n      dup2\n      mstore\n      0x04\n      add\n      tag_154\n      swap1\n      tag_155\n      jump\t// in\n    tag_154:\n      mload(0x40)\n      dup1\n      swap2\n      sub\n      swap1\n      revert\n    tag_153:\n        /* \"https://github.com/OpenZeppelin/openzeppelin-contracts/blob/master/contracts/token/ERC20/ERC20.sol\":10347:10348  0 */\n      0x00\n        /* \"https://github.com/OpenZeppelin/openzeppelin-contracts/blob/master/contracts/token/ERC20/ERC20.sol\":10328:10349  spender != address(0) */\n      0xffffffffffffffffffffffffffffffffffffffff\n      and\n        /* \"https://github.com/OpenZeppelin/openzeppelin-contracts/blob/master/contracts/token/ERC20/ERC20.sol\":10328:10335  spender */\n      dup3\n        /* \"https://github.com/OpenZeppelin/openzeppelin-contracts/blob/master/contracts/token/ERC20/ERC20.sol\":10328:10349  spender != address(0) */\n      0xffffffffffffffffffffffffffffffffffffffff\n      and\n      eq\n      iszero\n        /* \"https://github.com/OpenZeppelin/openzeppelin-contracts/blob/master/contracts/token/ERC20/ERC20.sol\":10320:10388  require(spender != address(0), \"ERC20: approve to the zero address\") */\n      tag_156\n      jumpi\n      mload(0x40)\n      0x08c379a000000000000000000000000000000000000000000000000000000000\n      dup2\n      mstore\n      0x04\n      add\n      tag_157\n      swap1\n      tag_158\n      jump\t// in\n    tag_157:\n      mload(0x40)\n      dup1\n      swap2\n      sub\n      swap1\n      revert\n    tag_156:\n        /* \"https://github.com/OpenZeppelin/openzeppelin-contracts/blob/master/contracts/token/ERC20/ERC20.sol\":10429:10435  amount */\n      dup1\n        /* \"https://github.com/OpenZeppelin/openzeppelin-contracts/blob/master/contracts/token/ERC20/ERC20.sol\":10399:10410  _allowances */\n      0x01\n        /* \"https://github.com/OpenZeppelin/openzeppelin-contracts/blob/master/contracts/token/ERC20/ERC20.sol\":10399:10417  _allowances[owner] */\n      0x00\n        /* \"https://github.com/OpenZeppelin/openzeppelin-contracts/blob/master/contracts/token/ERC20/ERC20.sol\":10411:10416  owner */\n      dup6\n        /* \"https://github.com/OpenZeppelin/openzeppelin-contracts/blob/master/contracts/token/ERC20/ERC20.sol\":10399:10417  _allowances[owner] */\n      0xffffffffffffffffffffffffffffffffffffffff\n      and\n      0xffffffffffffffffffffffffffffffffffffffff\n      and\n      dup2\n      mstore\n      0x20\n      add\n      swap1\n      dup2\n      mstore\n      0x20\n      add\n      0x00\n      keccak256\n        /* \"https://github.com/OpenZeppelin/openzeppelin-contracts/blob/master/contracts/token/ERC20/ERC20.sol\":10399:10426  _allowances[owner][spender] */\n      0x00\n        /* \"https://github.com/OpenZeppelin/openzeppelin-contracts/blob/master/contracts/token/ERC20/ERC20.sol\":10418:10425  spender */\n      dup5\n        /* \"https://github.com/OpenZeppelin/openzeppelin-contracts/blob/master/contracts/token/ERC20/ERC20.sol\":10399:10426  _allowances[owner][spender] */\n      0xffffffffffffffffffffffffffffffffffffffff\n      and\n      0xffffffffffffffffffffffffffffffffffffffff\n      and\n      dup2\n      mstore\n      0x20\n      add\n      swap1\n      dup2\n      mstore\n      0x20\n      add\n      0x00\n      keccak256\n        /* \"https://github.com/OpenZeppelin/openzeppelin-contracts/blob/master/contracts/token/ERC20/ERC20.sol\":10399:10435  _allowances[owner][spender] = amount */\n      dup2\n      swap1\n      sstore\n      pop\n        /* \"https://github.com/OpenZeppelin/openzeppelin-contracts/blob/master/contracts/token/ERC20/ERC20.sol\":10466:10473  spender */\n      dup2\n        /* \"https://github.com/OpenZeppelin/openzeppelin-contracts/blob/master/contracts/token/ERC20/ERC20.sol\":10450:10482  Approval(owner, spender, amount) */\n      0xffffffffffffffffffffffffffffffffffffffff\n      and\n        /* \"https://github.com/OpenZeppelin/openzeppelin-contracts/blob/master/contracts/token/ERC20/ERC20.sol\":10459:10464  owner */\n      dup4\n        /* \"https://github.com/OpenZeppelin/openzeppelin-contracts/blob/master/contracts/token/ERC20/ERC20.sol\":10450:10482  Approval(owner, spender, amount) */\n      0xffffffffffffffffffffffffffffffffffffffff\n      and\n      0x8c5be1e5ebec7d5bd14f71427d1e84f3dd0314c0f7b2291e5b200ac8c7c3b925\n        /* \"https://github.com/OpenZeppelin/openzeppelin-contracts/blob/master/contracts/token/ERC20/ERC20.sol\":10475:10481  amount */\n      dup4\n        /* \"https://github.com/OpenZeppelin/openzeppelin-contracts/blob/master/contracts/token/ERC20/ERC20.sol\":10450:10482  Approval(owner, spender, amount) */\n      mload(0x40)\n      tag_159\n      swap2\n      swap1\n      tag_33\n      jump\t// in\n    tag_159:\n      mload(0x40)\n      dup1\n      swap2\n      sub\n      swap1\n      log3\n        /* \"https://github.com/OpenZeppelin/openzeppelin-contracts/blob/master/contracts/token/ERC20/ERC20.sol\":10119:10489  function _approve(... */\n      pop\n      pop\n      pop\n      jump\t// out\n        /* \"https://github.com/OpenZeppelin/openzeppelin-contracts/blob/master/contracts/token/ERC20/ERC20.sol\":10770:11211  function _spendAllowance(... */\n    tag_98:\n        /* \"https://github.com/OpenZeppelin/openzeppelin-contracts/blob/master/contracts/token/ERC20/ERC20.sol\":10900:10924  uint256 currentAllowance */\n      0x00\n        /* \"https://github.com/OpenZeppelin/openzeppelin-contracts/blob/master/contracts/token/ERC20/ERC20.sol\":10927:10952  allowance(owner, spender) */\n      tag_161\n        /* \"https://github.com/OpenZeppelin/openzeppelin-contracts/blob/master/contracts/token/ERC20/ERC20.sol\":10937:10942  owner */\n      dup5\n        /* \"https://github.com/OpenZeppelin/openzeppelin-contracts/blob/master/contracts/token/ERC20/ERC20.sol\":10944:10951  spender */\n      dup5\n        /* \"https://github.com/OpenZeppelin/openzeppelin-contracts/blob/master/contracts/token/ERC20/ERC20.sol\":10927:10936  allowance */\n      tag_80\n        /* \"https://github.com/OpenZeppelin/openzeppelin-contracts/blob/master/contracts/token/ERC20/ERC20.sol\":10927:10952  allowance(owner, spender) */\n      jump\t// in\n    tag_161:\n        /* \"https://github.com/OpenZeppelin/openzeppelin-contracts/blob/master/contracts/token/ERC20/ERC20.sol\":10900:10952  uint256 currentAllowance = allowance(owner, spender) */\n      swap1\n      pop\n        /* \"https://github.com/OpenZeppelin/openzeppelin-contracts/blob/master/contracts/token/ERC20/ERC20.sol\":10986:11003  type(uint256).max */\n      0xffffffffffffffffffffffffffffffffffffffffffffffffffffffffffffffff\n        /* \"https://github.com/OpenZeppelin/openzeppelin-contracts/blob/master/contracts/token/ERC20/ERC20.sol\":10966:10982  currentAllowance */\n      dup2\n        /* \"https://github.com/OpenZeppelin/openzeppelin-contracts/blob/master/contracts/token/ERC20/ERC20.sol\":10966:11003  currentAllowance != type(uint256).max */\n      eq\n        /* \"https://github.com/OpenZeppelin/openzeppelin-contracts/blob/master/contracts/token/ERC20/ERC20.sol\":10962:11205  if (currentAllowance != type(uint256).max) {... */\n      tag_162\n      jumpi\n        /* \"https://github.com/OpenZeppelin/openzeppelin-contracts/blob/master/contracts/token/ERC20/ERC20.sol\":11047:11053  amount */\n      dup2\n        /* \"https://github.com/OpenZeppelin/openzeppelin-contracts/blob/master/contracts/token/ERC20/ERC20.sol\":11027:11043  currentAllowance */\n      dup2\n        /* \"https://github.com/OpenZeppelin/openzeppelin-contracts/blob/master/contracts/token/ERC20/ERC20.sol\":11027:11053  currentAllowance >= amount */\n      lt\n      iszero\n        /* \"https://github.com/OpenZeppelin/openzeppelin-contracts/blob/master/contracts/token/ERC20/ERC20.sol\":11019:11087  require(currentAllowance >= amount, \"ERC20: insufficient allowance\") */\n      tag_163\n      jumpi\n      mload(0x40)\n      0x08c379a000000000000000000000000000000000000000000000000000000000\n      dup2\n      mstore\n      0x04\n      add\n      tag_164\n      swap1\n      tag_165\n      jump\t// in\n    tag_164:\n      mload(0x40)\n      dup1\n      swap2\n      sub\n      swap1\n      revert\n    tag_163:\n        /* \"https://github.com/OpenZeppelin/openzeppelin-contracts/blob/master/contracts/token/ERC20/ERC20.sol\":11129:11180  _approve(owner, spender, currentAllowance - amount) */\n      tag_166\n        /* \"https://github.com/OpenZeppelin/openzeppelin-contracts/blob/master/contracts/token/ERC20/ERC20.sol\":11138:11143  owner */\n      dup5\n        /* \"https://github.com/OpenZeppelin/openzeppelin-contracts/blob/master/contracts/token/ERC20/ERC20.sol\":11145:11152  spender */\n      dup5\n        /* \"https://github.com/OpenZeppelin/openzeppelin-contracts/blob/master/contracts/token/ERC20/ERC20.sol\":11173:11179  amount */\n      dup5\n        /* \"https://github.com/OpenZeppelin/openzeppelin-contracts/blob/master/contracts/token/ERC20/ERC20.sol\":11154:11170  currentAllowance */\n      dup5\n        /* \"https://github.com/OpenZeppelin/openzeppelin-contracts/blob/master/contracts/token/ERC20/ERC20.sol\":11154:11179  currentAllowance - amount */\n      sub\n        /* \"https://github.com/OpenZeppelin/openzeppelin-contracts/blob/master/contracts/token/ERC20/ERC20.sol\":11129:11137  _approve */\n      tag_93\n        /* \"https://github.com/OpenZeppelin/openzeppelin-contracts/blob/master/contracts/token/ERC20/ERC20.sol\":11129:11180  _approve(owner, spender, currentAllowance - amount) */\n      jump\t// in\n    tag_166:\n        /* \"https://github.com/OpenZeppelin/openzeppelin-contracts/blob/master/contracts/token/ERC20/ERC20.sol\":10962:11205  if (currentAllowance != type(uint256).max) {... */\n    tag_162:\n        /* \"https://github.com/OpenZeppelin/openzeppelin-contracts/blob/master/contracts/token/ERC20/ERC20.sol\":10890:11211  {... */\n      pop\n        /* \"https://github.com/OpenZeppelin/openzeppelin-contracts/blob/master/contracts/token/ERC20/ERC20.sol\":10770:11211  function _spendAllowance(... */\n      pop\n      pop\n      pop\n      jump\t// out\n        /* \"https://github.com/OpenZeppelin/openzeppelin-contracts/blob/master/contracts/token/ERC20/ERC20.sol\":7484:8135  function _transfer(... */\n    tag_100:\n        /* \"https://github.com/OpenZeppelin/openzeppelin-contracts/blob/master/contracts/token/ERC20/ERC20.sol\":7626:7627  0 */\n      0x00\n        /* \"https://github.com/OpenZeppelin/openzeppelin-contracts/blob/master/contracts/token/ERC20/ERC20.sol\":7610:7628  from != address(0) */\n      0xffffffffffffffffffffffffffffffffffffffff\n      and\n        /* \"https://github.com/OpenZeppelin/openzeppelin-contracts/blob/master/contracts/token/ERC20/ERC20.sol\":7610:7614  from */\n      dup4\n        /* \"https://github.com/OpenZeppelin/openzeppelin-contracts/blob/master/contracts/token/ERC20/ERC20.sol\":7610:7628  from != address(0) */\n      0xffffffffffffffffffffffffffffffffffffffff\n      and\n      eq\n      iszero\n        /* \"https://github.com/OpenZeppelin/openzeppelin-contracts/blob/master/contracts/token/ERC20/ERC20.sol\":7602:7670  require(from != address(0), \"ERC20: transfer from the zero address\") */\n      tag_168\n      jumpi\n      mload(0x40)\n      0x08c379a000000000000000000000000000000000000000000000000000000000\n      dup2\n      mstore\n      0x04\n      add\n      tag_169\n      swap1\n      tag_170\n      jump\t// in\n    tag_169:\n      mload(0x40)\n      dup1\n      swap2\n      sub\n      swap1\n      revert\n    tag_168:\n        /* \"https://github.com/OpenZeppelin/openzeppelin-contracts/blob/master/contracts/token/ERC20/ERC20.sol\":7702:7703  0 */\n      0x00\n        /* \"https://github.com/OpenZeppelin/openzeppelin-contracts/blob/master/contracts/token/ERC20/ERC20.sol\":7688:7704  to != address(0) */\n      0xffffffffffffffffffffffffffffffffffffffff\n      and\n        /* \"https://github.com/OpenZeppelin/openzeppelin-contracts/blob/master/contracts/token/ERC20/ERC20.sol\":7688:7690  to */\n      dup3\n        /* \"https://github.com/OpenZeppelin/openzeppelin-contracts/blob/master/contracts/token/ERC20/ERC20.sol\":7688:7704  to != address(0) */\n      0xffffffffffffffffffffffffffffffffffffffff\n      and\n      eq\n      iszero\n        /* \"https://github.com/OpenZeppelin/openzeppelin-contracts/blob/master/contracts/token/ERC20/ERC20.sol\":7680:7744  require(to != address(0), \"ERC20: transfer to the zero address\") */\n      tag_171\n      jumpi\n      mload(0x40)\n      0x08c379a000000000000000000000000000000000000000000000000000000000\n      dup2\n      mstore\n      0x04\n      add\n      tag_172\n      swap1\n      tag_173\n      jump\t// in\n    tag_172:\n      mload(0x40)\n      dup1\n      swap2\n      sub\n      swap1\n      revert\n    tag_171:\n        /* \"https://github.com/OpenZeppelin/openzeppelin-contracts/blob/master/contracts/token/ERC20/ERC20.sol\":7755:7793  _beforeTokenTransfer(from, to, amount) */\n      tag_174\n        /* \"https://github.com/OpenZeppelin/openzeppelin-contracts/blob/master/contracts/token/ERC20/ERC20.sol\":7776:7780  from */\n      dup4\n        /* \"https://github.com/OpenZeppelin/openzeppelin-contracts/blob/master/contracts/token/ERC20/ERC20.sol\":7782:7784  to */\n      dup4\n        /* \"https://github.com/OpenZeppelin/openzeppelin-contracts/blob/master/contracts/token/ERC20/ERC20.sol\":7786:7792  amount */\n      dup4\n        /* \"https://github.com/OpenZeppelin/openzeppelin-contracts/blob/master/contracts/token/ERC20/ERC20.sol\":7755:7775  _beforeTokenTransfer */\n      tag_175\n        /* \"https://github.com/OpenZeppelin/openzeppelin-contracts/blob/master/contracts/token/ERC20/ERC20.sol\":7755:7793  _beforeTokenTransfer(from, to, amount) */\n      jump\t// in\n    tag_174:\n        /* \"https://github.com/OpenZeppelin/openzeppelin-contracts/blob/master/contracts/token/ERC20/ERC20.sol\":7804:7823  uint256 fromBalance */\n      0x00\n        /* \"https://github.com/OpenZeppelin/openzeppelin-contracts/blob/master/contracts/token/ERC20/ERC20.sol\":7826:7835  _balances */\n      dup1\n        /* \"https://github.com/OpenZeppelin/openzeppelin-contracts/blob/master/contracts/token/ERC20/ERC20.sol\":7826:7841  _balances[from] */\n      0x00\n        /* \"https://github.com/OpenZeppelin/openzeppelin-contracts/blob/master/contracts/token/ERC20/ERC20.sol\":7836:7840  from */\n      dup6\n        /* \"https://github.com/OpenZeppelin/openzeppelin-contracts/blob/master/contracts/token/ERC20/ERC20.sol\":7826:7841  _balances[from] */\n      0xffffffffffffffffffffffffffffffffffffffff\n      and\n      0xffffffffffffffffffffffffffffffffffffffff\n      and\n      dup2\n      mstore\n      0x20\n      add\n      swap1\n      dup2\n      mstore\n      0x20\n      add\n      0x00\n      keccak256\n      sload\n        /* \"https://github.com/OpenZeppelin/openzeppelin-contracts/blob/master/contracts/token/ERC20/ERC20.sol\":7804:7841  uint256 fromBalance = _balances[from] */\n      swap1\n      pop\n        /* \"https://github.com/OpenZeppelin/openzeppelin-contracts/blob/master/contracts/token/ERC20/ERC20.sol\":7874:7880  amount */\n      dup2\n        /* \"https://github.com/OpenZeppelin/openzeppelin-contracts/blob/master/contracts/token/ERC20/ERC20.sol\":7859:7870  fromBalance */\n      dup2\n        /* \"https://github.com/OpenZeppelin/openzeppelin-contracts/blob/master/contracts/token/ERC20/ERC20.sol\":7859:7880  fromBalance >= amount */\n      lt\n      iszero\n        /* \"https://github.com/OpenZeppelin/openzeppelin-contracts/blob/master/contracts/token/ERC20/ERC20.sol\":7851:7923  require(fromBalance >= amount, \"ERC20: transfer amount exceeds balance\") */\n      tag_176\n      jumpi\n      mload(0x40)\n      0x08c379a000000000000000000000000000000000000000000000000000000000\n      dup2\n      mstore\n      0x04\n      add\n      tag_177\n      swap1\n      tag_178\n      jump\t// in\n    tag_177:\n      mload(0x40)\n      dup1\n      swap2\n      sub\n      swap1\n      revert\n    tag_176:\n        /* \"https://github.com/OpenZeppelin/openzeppelin-contracts/blob/master/contracts/token/ERC20/ERC20.sol\":7989:7995  amount */\n      dup2\n        /* \"https://github.com/OpenZeppelin/openzeppelin-contracts/blob/master/contracts/token/ERC20/ERC20.sol\":7975:7986  fromBalance */\n      dup2\n        /* \"https://github.com/OpenZeppelin/openzeppelin-contracts/blob/master/contracts/token/ERC20/ERC20.sol\":7975:7995  fromBalance - amount */\n      sub\n        /* \"https://github.com/OpenZeppelin/openzeppelin-contracts/blob/master/contracts/token/ERC20/ERC20.sol\":7957:7966  _balances */\n      0x00\n        /* \"https://github.com/OpenZeppelin/openzeppelin-contracts/blob/master/contracts/token/ERC20/ERC20.sol\":7957:7972  _balances[from] */\n      dup1\n        /* \"https://github.com/OpenZeppelin/openzeppelin-contracts/blob/master/contracts/token/ERC20/ERC20.sol\":7967:7971  from */\n      dup7\n        /* \"https://github.com/OpenZeppelin/openzeppelin-contracts/blob/master/contracts/token/ERC20/ERC20.sol\":7957:7972  _balances[from] */\n      0xffffffffffffffffffffffffffffffffffffffff\n      and\n      0xffffffffffffffffffffffffffffffffffffffff\n      and\n      dup2\n      mstore\n      0x20\n      add\n      swap1\n      dup2\n      mstore\n      0x20\n      add\n      0x00\n      keccak256\n        /* \"https://github.com/OpenZeppelin/openzeppelin-contracts/blob/master/contracts/token/ERC20/ERC20.sol\":7957:7995  _balances[from] = fromBalance - amount */\n      dup2\n      swap1\n      sstore\n      pop\n        /* \"https://github.com/OpenZeppelin/openzeppelin-contracts/blob/master/contracts/token/ERC20/ERC20.sol\":8032:8038  amount */\n      dup2\n        /* \"https://github.com/OpenZeppelin/openzeppelin-contracts/blob/master/contracts/token/ERC20/ERC20.sol\":8015:8024  _balances */\n      0x00\n        /* \"https://github.com/OpenZeppelin/openzeppelin-contracts/blob/master/contracts/token/ERC20/ERC20.sol\":8015:8028  _balances[to] */\n      dup1\n        /* \"https://github.com/OpenZeppelin/openzeppelin-contracts/blob/master/contracts/token/ERC20/ERC20.sol\":8025:8027  to */\n      dup6\n        /* \"https://github.com/OpenZeppelin/openzeppelin-contracts/blob/master/contracts/token/ERC20/ERC20.sol\":8015:8028  _balances[to] */\n      0xffffffffffffffffffffffffffffffffffffffff\n      and\n      0xffffffffffffffffffffffffffffffffffffffff\n      and\n      dup2\n      mstore\n      0x20\n      add\n      swap1\n      dup2\n      mstore\n      0x20\n      add\n      0x00\n      keccak256\n      0x00\n        /* \"https://github.com/OpenZeppelin/openzeppelin-contracts/blob/master/contracts/token/ERC20/ERC20.sol\":8015:8038  _balances[to] += amount */\n      dup3\n      dup3\n      sload\n      tag_179\n      swap2\n      swap1\n      tag_107\n      jump\t// in\n    tag_179:\n      swap3\n      pop\n      pop\n      dup2\n      swap1\n      sstore\n      pop\n        /* \"https://github.com/OpenZeppelin/openzeppelin-contracts/blob/master/contracts/token/ERC20/ERC20.sol\":8069:8071  to */\n      dup3\n        /* \"https://github.com/OpenZeppelin/openzeppelin-contracts/blob/master/contracts/token/ERC20/ERC20.sol\":8054:8080  Transfer(from, to, amount) */\n      0xffffffffffffffffffffffffffffffffffffffff\n      and\n        /* \"https://github.com/OpenZeppelin/openzeppelin-contracts/blob/master/contracts/token/ERC20/ERC20.sol\":8063:8067  from */\n      dup5\n        /* \"https://github.com/OpenZeppelin/openzeppelin-contracts/blob/master/contracts/token/ERC20/ERC20.sol\":8054:8080  Transfer(from, to, amount) */\n      0xffffffffffffffffffffffffffffffffffffffff\n      and\n      0xddf252ad1be2c89b69c2b068fc378daa952ba7f163c4a11628f55a4df523b3ef\n        /* \"https://github.com/OpenZeppelin/openzeppelin-contracts/blob/master/contracts/token/ERC20/ERC20.sol\":8073:8079  amount */\n      dup5\n        /* \"https://github.com/OpenZeppelin/openzeppelin-contracts/blob/master/contracts/token/ERC20/ERC20.sol\":8054:8080  Transfer(from, to, amount) */\n      mload(0x40)\n      tag_180\n      swap2\n      swap1\n      tag_33\n      jump\t// in\n    tag_180:\n      mload(0x40)\n      dup1\n      swap2\n      sub\n      swap1\n      log3\n        /* \"https://github.com/OpenZeppelin/openzeppelin-contracts/blob/master/contracts/token/ERC20/ERC20.sol\":8091:8128  _afterTokenTransfer(from, to, amount) */\n      tag_181\n        /* \"https://github.com/OpenZeppelin/openzeppelin-contracts/blob/master/contracts/token/ERC20/ERC20.sol\":8111:8115  from */\n      dup5\n        /* \"https://github.com/OpenZeppelin/openzeppelin-contracts/blob/master/contracts/token/ERC20/ERC20.sol\":8117:8119  to */\n      dup5\n        /* \"https://github.com/OpenZeppelin/openzeppelin-contracts/blob/master/contracts/token/ERC20/ERC20.sol\":8121:8127  amount */\n      dup5\n        /* \"https://github.com/OpenZeppelin/openzeppelin-contracts/blob/master/contracts/token/ERC20/ERC20.sol\":8091:8110  _afterTokenTransfer */\n      tag_182\n        /* \"https://github.com/OpenZeppelin/openzeppelin-contracts/blob/master/contracts/token/ERC20/ERC20.sol\":8091:8128  _afterTokenTransfer(from, to, amount) */\n      jump\t// in\n    tag_181:\n        /* \"https://github.com/OpenZeppelin/openzeppelin-contracts/blob/master/contracts/token/ERC20/ERC20.sol\":7592:8135  {... */\n      pop\n        /* \"https://github.com/OpenZeppelin/openzeppelin-contracts/blob/master/contracts/token/ERC20/ERC20.sol\":7484:8135  function _transfer(... */\n      pop\n      pop\n      pop\n      jump\t// out\n        /* \"https://github.com/OpenZeppelin/openzeppelin-contracts/blob/master/contracts/token/ERC20/ERC20.sol\":8411:8800  function _mint(address account, uint256 amount) internal virtual {... */\n    tag_139:\n        /* \"https://github.com/OpenZeppelin/openzeppelin-contracts/blob/master/contracts/token/ERC20/ERC20.sol\":8513:8514  0 */\n      0x00\n        /* \"https://github.com/OpenZeppelin/openzeppelin-contracts/blob/master/contracts/token/ERC20/ERC20.sol\":8494:8515  account != address(0) */\n      0xffffffffffffffffffffffffffffffffffffffff\n      and\n        /* \"https://github.com/OpenZeppelin/openzeppelin-contracts/blob/master/contracts/token/ERC20/ERC20.sol\":8494:8501  account */\n      dup3\n        /* \"https://github.com/OpenZeppelin/openzeppelin-contracts/blob/master/contracts/token/ERC20/ERC20.sol\":8494:8515  account != address(0) */\n      0xffffffffffffffffffffffffffffffffffffffff\n      and\n      eq\n      iszero\n        /* \"https://github.com/OpenZeppelin/openzeppelin-contracts/blob/master/contracts/token/ERC20/ERC20.sol\":8486:8551  require(account != address(0), \"ERC20: mint to the zero address\") */\n      tag_184\n      jumpi\n      mload(0x40)\n      0x08c379a000000000000000000000000000000000000000000000000000000000\n      dup2\n      mstore\n      0x04\n      add\n      tag_185\n      swap1\n      tag_186\n      jump\t// in\n    tag_185:\n      mload(0x40)\n      dup1\n      swap2\n      sub\n      swap1\n      revert\n    tag_184:\n        /* \"https://github.com/OpenZeppelin/openzeppelin-contracts/blob/master/contracts/token/ERC20/ERC20.sol\":8562:8611  _beforeTokenTransfer(address(0), account, amount) */\n      tag_187\n        /* \"https://github.com/OpenZeppelin/openzeppelin-contracts/blob/master/contracts/token/ERC20/ERC20.sol\":8591:8592  0 */\n      0x00\n        /* \"https://github.com/OpenZeppelin/openzeppelin-contracts/blob/master/contracts/token/ERC20/ERC20.sol\":8595:8602  account */\n      dup4\n        /* \"https://github.com/OpenZeppelin/openzeppelin-contracts/blob/master/contracts/token/ERC20/ERC20.sol\":8604:8610  amount */\n      dup4\n        /* \"https://github.com/OpenZeppelin/openzeppelin-contracts/blob/master/contracts/token/ERC20/ERC20.sol\":8562:8582  _beforeTokenTransfer */\n      tag_175\n        /* \"https://github.com/OpenZeppelin/openzeppelin-contracts/blob/master/contracts/token/ERC20/ERC20.sol\":8562:8611  _beforeTokenTransfer(address(0), account, amount) */\n      jump\t// in\n    tag_187:\n        /* \"https://github.com/OpenZeppelin/openzeppelin-contracts/blob/master/contracts/token/ERC20/ERC20.sol\":8638:8644  amount */\n      dup1\n        /* \"https://github.com/OpenZeppelin/openzeppelin-contracts/blob/master/contracts/token/ERC20/ERC20.sol\":8622:8634  _totalSupply */\n      0x02\n      0x00\n        /* \"https://github.com/OpenZeppelin/openzeppelin-contracts/blob/master/contracts/token/ERC20/ERC20.sol\":8622:8644  _totalSupply += amount */\n      dup3\n      dup3\n      sload\n      tag_188\n      swap2\n      swap1\n      tag_107\n      jump\t// in\n    tag_188:\n      swap3\n      pop\n      pop\n      dup2\n      swap1\n      sstore\n      pop\n        /* \"https://github.com/OpenZeppelin/openzeppelin-contracts/blob/master/contracts/token/ERC20/ERC20.sol\":8676:8682  amount */\n      dup1\n        /* \"https://github.com/OpenZeppelin/openzeppelin-contracts/blob/master/contracts/token/ERC20/ERC20.sol\":8654:8663  _balances */\n      0x00\n        /* \"https://github.com/OpenZeppelin/openzeppelin-contracts/blob/master/contracts/token/ERC20/ERC20.sol\":8654:8672  _balances[account] */\n      dup1\n        /* \"https://github.com/OpenZeppelin/openzeppelin-contracts/blob/master/contracts/token/ERC20/ERC20.sol\":8664:8671  account */\n      dup5\n        /* \"https://github.com/OpenZeppelin/openzeppelin-contracts/blob/master/contracts/token/ERC20/ERC20.sol\":8654:8672  _balances[account] */\n      0xffffffffffffffffffffffffffffffffffffffff\n      and\n      0xffffffffffffffffffffffffffffffffffffffff\n      and\n      dup2\n      mstore\n      0x20\n      add\n      swap1\n      dup2\n      mstore\n      0x20\n      add\n      0x00\n      keccak256\n      0x00\n        /* \"https://github.com/OpenZeppelin/openzeppelin-contracts/blob/master/contracts/token/ERC20/ERC20.sol\":8654:8682  _balances[account] += amount */\n      dup3\n      dup3\n      sload\n      tag_189\n      swap2\n      swap1\n      tag_107\n      jump\t// in\n    tag_189:\n      swap3\n      pop\n      pop\n      dup2\n      swap1\n      sstore\n      pop\n        /* \"https://github.com/OpenZeppelin/openzeppelin-contracts/blob/master/contracts/token/ERC20/ERC20.sol\":8718:8725  account */\n      dup2\n        /* \"https://github.com/OpenZeppelin/openzeppelin-contracts/blob/master/contracts/token/ERC20/ERC20.sol\":8697:8734  Transfer(address(0), account, amount) */\n      0xffffffffffffffffffffffffffffffffffffffff\n      and\n        /* \"https://github.com/OpenZeppelin/openzeppelin-contracts/blob/master/contracts/token/ERC20/ERC20.sol\":8714:8715  0 */\n      0x00\n        /* \"https://github.com/OpenZeppelin/openzeppelin-contracts/blob/master/contracts/token/ERC20/ERC20.sol\":8697:8734  Transfer(address(0), account, amount) */\n      0xffffffffffffffffffffffffffffffffffffffff\n      and\n      0xddf252ad1be2c89b69c2b068fc378daa952ba7f163c4a11628f55a4df523b3ef\n        /* \"https://github.com/OpenZeppelin/openzeppelin-contracts/blob/master/contracts/token/ERC20/ERC20.sol\":8727:8733  amount */\n      dup4\n        /* \"https://github.com/OpenZeppelin/openzeppelin-contracts/blob/master/contracts/token/ERC20/ERC20.sol\":8697:8734  Transfer(address(0), account, amount) */\n      mload(0x40)\n      tag_190\n      swap2\n      swap1\n      tag_33\n      jump\t// in\n    tag_190:\n      mload(0x40)\n      dup1\n      swap2\n      sub\n      swap1\n      log3\n        /* \"https://github.com/OpenZeppelin/openzeppelin-contracts/blob/master/contracts/token/ERC20/ERC20.sol\":8745:8793  _afterTokenTransfer(address(0), account, amount) */\n      tag_191\n        /* \"https://github.com/OpenZeppelin/openzeppelin-contracts/blob/master/contracts/token/ERC20/ERC20.sol\":8773:8774  0 */\n      0x00\n        /* \"https://github.com/OpenZeppelin/openzeppelin-contracts/blob/master/contracts/token/ERC20/ERC20.sol\":8777:8784  account */\n      dup4\n        /* \"https://github.com/OpenZeppelin/openzeppelin-contracts/blob/master/contracts/token/ERC20/ERC20.sol\":8786:8792  amount */\n      dup4\n        /* \"https://github.com/OpenZeppelin/openzeppelin-contracts/blob/master/contracts/token/ERC20/ERC20.sol\":8745:8764  _afterTokenTransfer */\n      tag_182\n        /* \"https://github.com/OpenZeppelin/openzeppelin-contracts/blob/master/contracts/token/ERC20/ERC20.sol\":8745:8793  _afterTokenTransfer(address(0), account, amount) */\n      jump\t// in\n    tag_191:\n        /* \"https://github.com/OpenZeppelin/openzeppelin-contracts/blob/master/contracts/token/ERC20/ERC20.sol\":8411:8800  function _mint(address account, uint256 amount) internal virtual {... */\n      pop\n      pop\n      jump\t// out\n        /* \"https://github.com/OpenZeppelin/openzeppelin-contracts/blob/master/contracts/token/ERC20/ERC20.sol\":11795:11916  function _beforeTokenTransfer(... */\n    tag_175:\n      pop\n      pop\n      pop\n      jump\t// out\n        /* \"https://github.com/OpenZeppelin/openzeppelin-contracts/blob/master/contracts/token/ERC20/ERC20.sol\":12504:12624  function _afterTokenTransfer(... */\n    tag_182:\n      pop\n      pop\n      pop\n      jump\t// out\n        /* \"#utility.yul\":7:146   */\n    tag_195:\n        /* \"#utility.yul\":53:58   */\n      0x00\n        /* \"#utility.yul\":91:97   */\n      dup2\n        /* \"#utility.yul\":78:98   */\n      calldataload\n        /* \"#utility.yul\":69:98   */\n      swap1\n      pop\n        /* \"#utility.yul\":107:140   */\n      tag_197\n        /* \"#utility.yul\":134:139   */\n      dup2\n        /* \"#utility.yul\":107:140   */\n      tag_198\n      jump\t// in\n    tag_197:\n        /* \"#utility.yul\":7:146   */\n      swap3\n      swap2\n      pop\n      pop\n      jump\t// out\n        /* \"#utility.yul\":152:291   */\n    tag_199:\n        /* \"#utility.yul\":198:203   */\n      0x00\n        /* \"#utility.yul\":236:242   */\n      dup2\n        /* \"#utility.yul\":223:243   */\n      calldataload\n        /* \"#utility.yul\":214:243   */\n      swap1\n      pop\n        /* \"#utility.yul\":252:285   */\n      tag_201\n        /* \"#utility.yul\":279:284   */\n      dup2\n        /* \"#utility.yul\":252:285   */\n      tag_202\n      jump\t// in\n    tag_201:\n        /* \"#utility.yul\":152:291   */\n      swap3\n      swap2\n      pop\n      pop\n      jump\t// out\n        /* \"#utility.yul\":297:440   */\n    tag_203:\n        /* \"#utility.yul\":354:359   */\n      0x00\n        /* \"#utility.yul\":385:391   */\n      dup2\n        /* \"#utility.yul\":379:392   */\n      mload\n        /* \"#utility.yul\":370:392   */\n      swap1\n      pop\n        /* \"#utility.yul\":401:434   */\n      tag_205\n        /* \"#utility.yul\":428:433   */\n      dup2\n        /* \"#utility.yul\":401:434   */\n      tag_202\n      jump\t// in\n    tag_205:\n        /* \"#utility.yul\":297:440   */\n      swap3\n      swap2\n      pop\n      pop\n      jump\t// out\n        /* \"#utility.yul\":446:775   */\n    tag_55:\n        /* \"#utility.yul\":505:511   */\n      0x00\n        /* \"#utility.yul\":554:556   */\n      0x20\n        /* \"#utility.yul\":542:551   */\n      dup3\n        /* \"#utility.yul\":533:540   */\n      dup5\n        /* \"#utility.yul\":529:552   */\n      sub\n        /* \"#utility.yul\":525:557   */\n      slt\n        /* \"#utility.yul\":522:641   */\n      iszero\n      tag_207\n      jumpi\n        /* \"#utility.yul\":560:639   */\n      tag_208\n      tag_209\n      jump\t// in\n    tag_208:\n        /* \"#utility.yul\":522:641   */\n    tag_207:\n        /* \"#utility.yul\":680:681   */\n      0x00\n        /* \"#utility.yul\":705:758   */\n      tag_210\n        /* \"#utility.yul\":750:757   */\n      dup5\n        /* \"#utility.yul\":741:747   */\n      dup3\n        /* \"#utility.yul\":730:739   */\n      dup6\n        /* \"#utility.yul\":726:748   */\n      add\n        /* \"#utility.yul\":705:758   */\n      tag_195\n      jump\t// in\n    tag_210:\n        /* \"#utility.yul\":695:758   */\n      swap2\n      pop\n        /* \"#utility.yul\":651:768   */\n      pop\n        /* \"#utility.yul\":446:775   */\n      swap3\n      swap2\n      pop\n      pop\n      jump\t// out\n        /* \"#utility.yul\":781:1255   */\n    tag_79:\n        /* \"#utility.yul\":849:855   */\n      0x00\n        /* \"#utility.yul\":857:863   */\n      dup1\n        /* \"#utility.yul\":906:908   */\n      0x40\n        /* \"#utility.yul\":894:903   */\n      dup4\n        /* \"#utility.yul\":885:892   */\n      dup6\n        /* \"#utility.yul\":881:904   */\n      sub\n        /* \"#utility.yul\":877:909   */\n      slt\n        /* \"#utility.yul\":874:993   */\n      iszero\n      tag_212\n      jumpi\n        /* \"#utility.yul\":912:991   */\n      tag_213\n      tag_209\n      jump\t// in\n    tag_213:\n        /* \"#utility.yul\":874:993   */\n    tag_212:\n        /* \"#utility.yul\":1032:1033   */\n      0x00\n        /* \"#utility.yul\":1057:1110   */\n      tag_214\n        /* \"#utility.yul\":1102:1109   */\n      dup6\n        /* \"#utility.yul\":1093:1099   */\n      dup3\n        /* \"#utility.yul\":1082:1091   */\n      dup7\n        /* \"#utility.yul\":1078:1100   */\n      add\n        /* \"#utility.yul\":1057:1110   */\n      tag_195\n      jump\t// in\n    tag_214:\n        /* \"#utility.yul\":1047:1110   */\n      swap3\n      pop\n        /* \"#utility.yul\":1003:1120   */\n      pop\n        /* \"#utility.yul\":1159:1161   */\n      0x20\n        /* \"#utility.yul\":1185:1238   */\n      tag_215\n        /* \"#utility.yul\":1230:1237   */\n      dup6\n        /* \"#utility.yul\":1221:1227   */\n      dup3\n        /* \"#utility.yul\":1210:1219   */\n      dup7\n        /* \"#utility.yul\":1206:1228   */\n      add\n        /* \"#utility.yul\":1185:1238   */\n      tag_195\n      jump\t// in\n    tag_215:\n        /* \"#utility.yul\":1175:1238   */\n      swap2\n      pop\n        /* \"#utility.yul\":1130:1248   */\n      pop\n        /* \"#utility.yul\":781:1255   */\n      swap3\n      pop\n      swap3\n      swap1\n      pop\n      jump\t// out\n        /* \"#utility.yul\":1261:1880   */\n    tag_37:\n        /* \"#utility.yul\":1338:1344   */\n      0x00\n        /* \"#utility.yul\":1346:1352   */\n      dup1\n        /* \"#utility.yul\":1354:1360   */\n      0x00\n        /* \"#utility.yul\":1403:1405   */\n      0x60\n        /* \"#utility.yul\":1391:1400   */\n      dup5\n        /* \"#utility.yul\":1382:1389   */\n      dup7\n        /* \"#utility.yul\":1378:1401   */\n      sub\n        /* \"#utility.yul\":1374:1406   */\n      slt\n        /* \"#utility.yul\":1371:1490   */\n      iszero\n      tag_217\n      jumpi\n        /* \"#utility.yul\":1409:1488   */\n      tag_218\n      tag_209\n      jump\t// in\n    tag_218:\n        /* \"#utility.yul\":1371:1490   */\n    tag_217:\n        /* \"#utility.yul\":1529:1530   */\n      0x00\n        /* \"#utility.yul\":1554:1607   */\n      tag_219\n        /* \"#utility.yul\":1599:1606   */\n      dup7\n        /* \"#utility.yul\":1590:1596   */\n      dup3\n        /* \"#utility.yul\":1579:1588   */\n      dup8\n        /* \"#utility.yul\":1575:1597   */\n      add\n        /* \"#utility.yul\":1554:1607   */\n      tag_195\n      jump\t// in\n    tag_219:\n        /* \"#utility.yul\":1544:1607   */\n      swap4\n      pop\n        /* \"#utility.yul\":1500:1617   */\n      pop\n        /* \"#utility.yul\":1656:1658   */\n      0x20\n        /* \"#utility.yul\":1682:1735   */\n      tag_220\n        /* \"#utility.yul\":1727:1734   */\n      dup7\n        /* \"#utility.yul\":1718:1724   */\n      dup3\n        /* \"#utility.yul\":1707:1716   */\n      dup8\n        /* \"#utility.yul\":1703:1725   */\n      add\n        /* \"#utility.yul\":1682:1735   */\n      tag_195\n      jump\t// in\n    tag_220:\n        /* \"#utility.yul\":1672:1735   */\n      swap3\n      pop\n        /* \"#utility.yul\":1627:1745   */\n      pop\n        /* \"#utility.yul\":1784:1786   */\n      0x40\n        /* \"#utility.yul\":1810:1863   */\n      tag_221\n        /* \"#utility.yul\":1855:1862   */\n      dup7\n        /* \"#utility.yul\":1846:1852   */\n      dup3\n        /* \"#utility.yul\":1835:1844   */\n      dup8\n        /* \"#utility.yul\":1831:1853   */\n      add\n        /* \"#utility.yul\":1810:1863   */\n      tag_199\n      jump\t// in\n    tag_221:\n        /* \"#utility.yul\":1800:1863   */\n      swap2\n      pop\n        /* \"#utility.yul\":1755:1873   */\n      pop\n        /* \"#utility.yul\":1261:1880   */\n      swap3\n      pop\n      swap3\n      pop\n      swap3\n      jump\t// out\n        /* \"#utility.yul\":1886:2360   */\n    tag_25:\n        /* \"#utility.yul\":1954:1960   */\n      0x00\n        /* \"#utility.yul\":1962:1968   */\n      dup1\n        /* \"#utility.yul\":2011:2013   */\n      0x40\n        /* \"#utility.yul\":1999:2008   */\n      dup4\n        /* \"#utility.yul\":1990:1997   */\n      dup6\n        /* \"#utility.yul\":1986:2009   */\n      sub\n        /* \"#utility.yul\":1982:2014   */\n      slt\n        /* \"#utility.yul\":1979:2098   */\n      iszero\n      tag_223\n      jumpi\n        /* \"#utility.yul\":2017:2096   */\n      tag_224\n      tag_209\n      jump\t// in\n    tag_224:\n        /* \"#utility.yul\":1979:2098   */\n    tag_223:\n        /* \"#utility.yul\":2137:2138   */\n      0x00\n        /* \"#utility.yul\":2162:2215   */\n      tag_225\n        /* \"#utility.yul\":2207:2214   */\n      dup6\n        /* \"#utility.yul\":2198:2204   */\n      dup3\n        /* \"#utility.yul\":2187:2196   */\n      dup7\n        /* \"#utility.yul\":2183:2205   */\n      add\n        /* \"#utility.yul\":2162:2215   */\n      tag_195\n      jump\t// in\n    tag_225:\n        /* \"#utility.yul\":2152:2215   */\n      swap3\n      pop\n        /* \"#utility.yul\":2108:2225   */\n      pop\n        /* \"#utility.yul\":2264:2266   */\n      0x20\n        /* \"#utility.yul\":2290:2343   */\n      tag_226\n        /* \"#utility.yul\":2335:2342   */\n      dup6\n        /* \"#utility.yul\":2326:2332   */\n      dup3\n        /* \"#utility.yul\":2315:2324   */\n      dup7\n        /* \"#utility.yul\":2311:2333   */\n      add\n        /* \"#utility.yul\":2290:2343   */\n      tag_199\n      jump\t// in\n    tag_226:\n        /* \"#utility.yul\":2280:2343   */\n      swap2\n      pop\n        /* \"#utility.yul\":2235:2353   */\n      pop\n        /* \"#utility.yul\":1886:2360   */\n      swap3\n      pop\n      swap3\n      swap1\n      pop\n      jump\t// out\n        /* \"#utility.yul\":2366:2695   */\n    tag_64:\n        /* \"#utility.yul\":2425:2431   */\n      0x00\n        /* \"#utility.yul\":2474:2476   */\n      0x20\n        /* \"#utility.yul\":2462:2471   */\n      dup3\n        /* \"#utility.yul\":2453:2460   */\n      dup5\n        /* \"#utility.yul\":2449:2472   */\n      sub\n        /* \"#utility.yul\":2445:2477   */\n      slt\n        /* \"#utility.yul\":2442:2561   */\n      iszero\n      tag_228\n      jumpi\n        /* \"#utility.yul\":2480:2559   */\n      tag_229\n      tag_209\n      jump\t// in\n    tag_229:\n        /* \"#utility.yul\":2442:2561   */\n    tag_228:\n        /* \"#utility.yul\":2600:2601   */\n      0x00\n        /* \"#utility.yul\":2625:2678   */\n      tag_230\n        /* \"#utility.yul\":2670:2677   */\n      dup5\n        /* \"#utility.yul\":2661:2667   */\n      dup3\n        /* \"#utility.yul\":2650:2659   */\n      dup6\n        /* \"#utility.yul\":2646:2668   */\n      add\n        /* \"#utility.yul\":2625:2678   */\n      tag_199\n      jump\t// in\n    tag_230:\n        /* \"#utility.yul\":2615:2678   */\n      swap2\n      pop\n        /* \"#utility.yul\":2571:2688   */\n      pop\n        /* \"#utility.yul\":2366:2695   */\n      swap3\n      swap2\n      pop\n      pop\n      jump\t// out\n        /* \"#utility.yul\":2701:3052   */\n    tag_115:\n        /* \"#utility.yul\":2771:2777   */\n      0x00\n        /* \"#utility.yul\":2820:2822   */\n      0x20\n        /* \"#utility.yul\":2808:2817   */\n      dup3\n        /* \"#utility.yul\":2799:2806   */\n      dup5\n        /* \"#utility.yul\":2795:2818   */\n      sub\n        /* \"#utility.yul\":2791:2823   */\n      slt\n        /* \"#utility.yul\":2788:2907   */\n      iszero\n      tag_232\n      jumpi\n        /* \"#utility.yul\":2826:2905   */\n      tag_233\n      tag_209\n      jump\t// in\n    tag_233:\n        /* \"#utility.yul\":2788:2907   */\n    tag_232:\n        /* \"#utility.yul\":2946:2947   */\n      0x00\n        /* \"#utility.yul\":2971:3035   */\n      tag_234\n        /* \"#utility.yul\":3027:3034   */\n      dup5\n        /* \"#utility.yul\":3018:3024   */\n      dup3\n        /* \"#utility.yul\":3007:3016   */\n      dup6\n        /* \"#utility.yul\":3003:3025   */\n      add\n        /* \"#utility.yul\":2971:3035   */\n      tag_203\n      jump\t// in\n    tag_234:\n        /* \"#utility.yul\":2961:3035   */\n      swap2\n      pop\n        /* \"#utility.yul\":2917:3045   */\n      pop\n        /* \"#utility.yul\":2701:3052   */\n      swap3\n      swap2\n      pop\n      pop\n      jump\t// out\n        /* \"#utility.yul\":3058:3176   */\n    tag_235:\n        /* \"#utility.yul\":3145:3169   */\n      tag_237\n        /* \"#utility.yul\":3163:3168   */\n      dup2\n        /* \"#utility.yul\":3145:3169   */\n      tag_238\n      jump\t// in\n    tag_237:\n        /* \"#utility.yul\":3140:3143   */\n      dup3\n        /* \"#utility.yul\":3133:3170   */\n      mstore\n        /* \"#utility.yul\":3058:3176   */\n      pop\n      pop\n      jump\t// out\n        /* \"#utility.yul\":3182:3291   */\n    tag_239:\n        /* \"#utility.yul\":3263:3284   */\n      tag_241\n        /* \"#utility.yul\":3278:3283   */\n      dup2\n        /* \"#utility.yul\":3263:3284   */\n      tag_242\n      jump\t// in\n    tag_241:\n        /* \"#utility.yul\":3258:3261   */\n      dup3\n        /* \"#utility.yul\":3251:3285   */\n      mstore\n        /* \"#utility.yul\":3182:3291   */\n      pop\n      pop\n      jump\t// out\n        /* \"#utility.yul\":3297:3661   */\n    tag_243:\n        /* \"#utility.yul\":3385:3388   */\n      0x00\n        /* \"#utility.yul\":3413:3452   */\n      tag_245\n        /* \"#utility.yul\":3446:3451   */\n      dup3\n        /* \"#utility.yul\":3413:3452   */\n      tag_246\n      jump\t// in\n    tag_245:\n        /* \"#utility.yul\":3468:3539   */\n      tag_247\n        /* \"#utility.yul\":3532:3538   */\n      dup2\n        /* \"#utility.yul\":3527:3530   */\n      dup6\n        /* \"#utility.yul\":3468:3539   */\n      tag_248\n      jump\t// in\n    tag_247:\n        /* \"#utility.yul\":3461:3539   */\n      swap4\n      pop\n        /* \"#utility.yul\":3548:3600   */\n      tag_249\n        /* \"#utility.yul\":3593:3599   */\n      dup2\n        /* \"#utility.yul\":3588:3591   */\n      dup6\n        /* \"#utility.yul\":3581:3585   */\n      0x20\n        /* \"#utility.yul\":3574:3579   */\n      dup7\n        /* \"#utility.yul\":3570:3586   */\n      add\n        /* \"#utility.yul\":3548:3600   */\n      tag_250\n      jump\t// in\n    tag_249:\n        /* \"#utility.yul\":3625:3654   */\n      tag_251\n        /* \"#utility.yul\":3647:3653   */\n      dup2\n        /* \"#utility.yul\":3625:3654   */\n      tag_252\n      jump\t// in\n    tag_251:\n        /* \"#utility.yul\":3620:3623   */\n      dup5\n        /* \"#utility.yul\":3616:3655   */\n      add\n        /* \"#utility.yul\":3609:3655   */\n      swap2\n      pop\n        /* \"#utility.yul\":3389:3661   */\n      pop\n        /* \"#utility.yul\":3297:3661   */\n      swap3\n      swap2\n      pop\n      pop\n      jump\t// out\n        /* \"#utility.yul\":3667:4033   */\n    tag_253:\n        /* \"#utility.yul\":3809:3812   */\n      0x00\n        /* \"#utility.yul\":3830:3897   */\n      tag_255\n        /* \"#utility.yul\":3894:3896   */\n      0x14\n        /* \"#utility.yul\":3889:3892   */\n      dup4\n        /* \"#utility.yul\":3830:3897   */\n      tag_248\n      jump\t// in\n    tag_255:\n        /* \"#utility.yul\":3823:3897   */\n      swap2\n      pop\n        /* \"#utility.yul\":3906:3999   */\n      tag_256\n        /* \"#utility.yul\":3995:3998   */\n      dup3\n        /* \"#utility.yul\":3906:3999   */\n      tag_257\n      jump\t// in\n    tag_256:\n        /* \"#utility.yul\":4024:4026   */\n      0x20\n        /* \"#utility.yul\":4019:4022   */\n      dup3\n        /* \"#utility.yul\":4015:4027   */\n      add\n        /* \"#utility.yul\":4008:4027   */\n      swap1\n      pop\n        /* \"#utility.yul\":3667:4033   */\n      swap2\n      swap1\n      pop\n      jump\t// out\n        /* \"#utility.yul\":4039:4405   */\n    tag_258:\n        /* \"#utility.yul\":4181:4184   */\n      0x00\n        /* \"#utility.yul\":4202:4269   */\n      tag_260\n        /* \"#utility.yul\":4266:4268   */\n      0x23\n        /* \"#utility.yul\":4261:4264   */\n      dup4\n        /* \"#utility.yul\":4202:4269   */\n      tag_248\n      jump\t// in\n    tag_260:\n        /* \"#utility.yul\":4195:4269   */\n      swap2\n      pop\n        /* \"#utility.yul\":4278:4371   */\n      tag_261\n        /* \"#utility.yul\":4367:4370   */\n      dup3\n        /* \"#utility.yul\":4278:4371   */\n      tag_262\n      jump\t// in\n    tag_261:\n        /* \"#utility.yul\":4396:4398   */\n      0x40\n        /* \"#utility.yul\":4391:4394   */\n      dup3\n        /* \"#utility.yul\":4387:4399   */\n      add\n        /* \"#utility.yul\":4380:4399   */\n      swap1\n      pop\n        /* \"#utility.yul\":4039:4405   */\n      swap2\n      swap1\n      pop\n      jump\t// out\n        /* \"#utility.yul\":4411:4777   */\n    tag_263:\n        /* \"#utility.yul\":4553:4556   */\n      0x00\n        /* \"#utility.yul\":4574:4641   */\n      tag_265\n        /* \"#utility.yul\":4638:4640   */\n      0x22\n        /* \"#utility.yul\":4633:4636   */\n      dup4\n        /* \"#utility.yul\":4574:4641   */\n      tag_248\n      jump\t// in\n    tag_265:\n        /* \"#utility.yul\":4567:4641   */\n      swap2\n      pop\n        /* \"#utility.yul\":4650:4743   */\n      tag_266\n        /* \"#utility.yul\":4739:4742   */\n      dup3\n        /* \"#utility.yul\":4650:4743   */\n      tag_267\n      jump\t// in\n    tag_266:\n        /* \"#utility.yul\":4768:4770   */\n      0x40\n        /* \"#utility.yul\":4763:4766   */\n      dup3\n        /* \"#utility.yul\":4759:4771   */\n      add\n        /* \"#utility.yul\":4752:4771   */\n      swap1\n      pop\n        /* \"#utility.yul\":4411:4777   */\n      swap2\n      swap1\n      pop\n      jump\t// out\n        /* \"#utility.yul\":4783:5149   */\n    tag_268:\n        /* \"#utility.yul\":4925:4928   */\n      0x00\n        /* \"#utility.yul\":4946:5013   */\n      tag_270\n        /* \"#utility.yul\":5010:5012   */\n      0x1d\n        /* \"#utility.yul\":5005:5008   */\n      dup4\n        /* \"#utility.yul\":4946:5013   */\n      tag_248\n      jump\t// in\n    tag_270:\n        /* \"#utility.yul\":4939:5013   */\n      swap2\n      pop\n        /* \"#utility.yul\":5022:5115   */\n      tag_271\n        /* \"#utility.yul\":5111:5114   */\n      dup3\n        /* \"#utility.yul\":5022:5115   */\n      tag_272\n      jump\t// in\n    tag_271:\n        /* \"#utility.yul\":5140:5142   */\n      0x20\n        /* \"#utility.yul\":5135:5138   */\n      dup3\n        /* \"#utility.yul\":5131:5143   */\n      add\n        /* \"#utility.yul\":5124:5143   */\n      swap1\n      pop\n        /* \"#utility.yul\":4783:5149   */\n      swap2\n      swap1\n      pop\n      jump\t// out\n        /* \"#utility.yul\":5155:5521   */\n    tag_273:\n        /* \"#utility.yul\":5297:5300   */\n      0x00\n        /* \"#utility.yul\":5318:5385   */\n      tag_275\n        /* \"#utility.yul\":5382:5384   */\n      0x26\n        /* \"#utility.yul\":5377:5380   */\n      dup4\n        /* \"#utility.yul\":5318:5385   */\n      tag_248\n      jump\t// in\n    tag_275:\n        /* \"#utility.yul\":5311:5385   */\n      swap2\n      pop\n        /* \"#utility.yul\":5394:5487   */\n      tag_276\n        /* \"#utility.yul\":5483:5486   */\n      dup3\n        /* \"#utility.yul\":5394:5487   */\n      tag_277\n      jump\t// in\n    tag_276:\n        /* \"#utility.yul\":5512:5514   */\n      0x40\n        /* \"#utility.yul\":5507:5510   */\n      dup3\n        /* \"#utility.yul\":5503:5515   */\n      add\n        /* \"#utility.yul\":5496:5515   */\n      swap1\n      pop\n        /* \"#utility.yul\":5155:5521   */\n      swap2\n      swap1\n      pop\n      jump\t// out\n        /* \"#utility.yul\":5527:5893   */\n    tag_278:\n        /* \"#utility.yul\":5669:5672   */\n      0x00\n        /* \"#utility.yul\":5690:5757   */\n      tag_280\n        /* \"#utility.yul\":5754:5756   */\n      0x16\n        /* \"#utility.yul\":5749:5752   */\n      dup4\n        /* \"#utility.yul\":5690:5757   */\n      tag_248\n      jump\t// in\n    tag_280:\n        /* \"#utility.yul\":5683:5757   */\n      swap2\n      pop\n        /* \"#utility.yul\":5766:5859   */\n      tag_281\n        /* \"#utility.yul\":5855:5858   */\n      dup3\n        /* \"#utility.yul\":5766:5859   */\n      tag_282\n      jump\t// in\n    tag_281:\n        /* \"#utility.yul\":5884:5886   */\n      0x20\n        /* \"#utility.yul\":5879:5882   */\n      dup3\n        /* \"#utility.yul\":5875:5887   */\n      add\n        /* \"#utility.yul\":5868:5887   */\n      swap1\n      pop\n        /* \"#utility.yul\":5527:5893   */\n      swap2\n      swap1\n      pop\n      jump\t// out\n        /* \"#utility.yul\":5899:6265   */\n    tag_283:\n        /* \"#utility.yul\":6041:6044   */\n      0x00\n        /* \"#utility.yul\":6062:6129   */\n      tag_285\n        /* \"#utility.yul\":6126:6128   */\n      0x23\n        /* \"#utility.yul\":6121:6124   */\n      dup4\n        /* \"#utility.yul\":6062:6129   */\n      tag_248\n      jump\t// in\n    tag_285:\n        /* \"#utility.yul\":6055:6129   */\n      swap2\n      pop\n        /* \"#utility.yul\":6138:6231   */\n      tag_286\n        /* \"#utility.yul\":6227:6230   */\n      dup3\n        /* \"#utility.yul\":6138:6231   */\n      tag_287\n      jump\t// in\n    tag_286:\n        /* \"#utility.yul\":6256:6258   */\n      0x40\n        /* \"#utility.yul\":6251:6254   */\n      dup3\n        /* \"#utility.yul\":6247:6259   */\n      add\n        /* \"#utility.yul\":6240:6259   */\n      swap1\n      pop\n        /* \"#utility.yul\":5899:6265   */\n      swap2\n      swap1\n      pop\n      jump\t// out\n        /* \"#utility.yul\":6271:6637   */\n    tag_288:\n        /* \"#utility.yul\":6413:6416   */\n      0x00\n        /* \"#utility.yul\":6434:6501   */\n      tag_290\n        /* \"#utility.yul\":6498:6500   */\n      0x25\n        /* \"#utility.yul\":6493:6496   */\n      dup4\n        /* \"#utility.yul\":6434:6501   */\n      tag_248\n      jump\t// in\n    tag_290:\n        /* \"#utility.yul\":6427:6501   */\n      swap2\n      pop\n        /* \"#utility.yul\":6510:6603   */\n      tag_291\n        /* \"#utility.yul\":6599:6602   */\n      dup3\n        /* \"#utility.yul\":6510:6603   */\n      tag_292\n      jump\t// in\n    tag_291:\n        /* \"#utility.yul\":6628:6630   */\n      0x40\n        /* \"#utility.yul\":6623:6626   */\n      dup3\n        /* \"#utility.yul\":6619:6631   */\n      add\n        /* \"#utility.yul\":6612:6631   */\n      swap1\n      pop\n        /* \"#utility.yul\":6271:6637   */\n      swap2\n      swap1\n      pop\n      jump\t// out\n        /* \"#utility.yul\":6643:7009   */\n    tag_293:\n        /* \"#utility.yul\":6785:6788   */\n      0x00\n        /* \"#utility.yul\":6806:6873   */\n      tag_295\n        /* \"#utility.yul\":6870:6872   */\n      0x24\n        /* \"#utility.yul\":6865:6868   */\n      dup4\n        /* \"#utility.yul\":6806:6873   */\n      tag_248\n      jump\t// in\n    tag_295:\n        /* \"#utility.yul\":6799:6873   */\n      swap2\n      pop\n        /* \"#utility.yul\":6882:6975   */\n      tag_296\n        /* \"#utility.yul\":6971:6974   */\n      dup3\n        /* \"#utility.yul\":6882:6975   */\n      tag_297\n      jump\t// in\n    tag_296:\n        /* \"#utility.yul\":7000:7002   */\n      0x40\n        /* \"#utility.yul\":6995:6998   */\n      dup3\n        /* \"#utility.yul\":6991:7003   */\n      add\n        /* \"#utility.yul\":6984:7003   */\n      swap1\n      pop\n        /* \"#utility.yul\":6643:7009   */\n      swap2\n      swap1\n      pop\n      jump\t// out\n        /* \"#utility.yul\":7015:7381   */\n    tag_298:\n        /* \"#utility.yul\":7157:7160   */\n      0x00\n        /* \"#utility.yul\":7178:7245   */\n      tag_300\n        /* \"#utility.yul\":7242:7244   */\n      0x25\n        /* \"#utility.yul\":7237:7240   */\n      dup4\n        /* \"#utility.yul\":7178:7245   */\n      tag_248\n      jump\t// in\n    tag_300:\n        /* \"#utility.yul\":7171:7245   */\n      swap2\n      pop\n        /* \"#utility.yul\":7254:7347   */\n      tag_301\n        /* \"#utility.yul\":7343:7346   */\n      dup3\n        /* \"#utility.yul\":7254:7347   */\n      tag_302\n      jump\t// in\n    tag_301:\n        /* \"#utility.yul\":7372:7374   */\n      0x40\n        /* \"#utility.yul\":7367:7370   */\n      dup3\n        /* \"#utility.yul\":7363:7375   */\n      add\n        /* \"#utility.yul\":7356:7375   */\n      swap1\n      pop\n        /* \"#utility.yul\":7015:7381   */\n      swap2\n      swap1\n      pop\n      jump\t// out\n        /* \"#utility.yul\":7387:7753   */\n    tag_303:\n        /* \"#utility.yul\":7529:7532   */\n      0x00\n        /* \"#utility.yul\":7550:7617   */\n      tag_305\n        /* \"#utility.yul\":7614:7616   */\n      0x1f\n        /* \"#utility.yul\":7609:7612   */\n      dup4\n        /* \"#utility.yul\":7550:7617   */\n      tag_248\n      jump\t// in\n    tag_305:\n        /* \"#utility.yul\":7543:7617   */\n      swap2\n      pop\n        /* \"#utility.yul\":7626:7719   */\n      tag_306\n        /* \"#utility.yul\":7715:7718   */\n      dup3\n        /* \"#utility.yul\":7626:7719   */\n      tag_307\n      jump\t// in\n    tag_306:\n        /* \"#utility.yul\":7744:7746   */\n      0x20\n        /* \"#utility.yul\":7739:7742   */\n      dup3\n        /* \"#utility.yul\":7735:7747   */\n      add\n        /* \"#utility.yul\":7728:7747   */\n      swap1\n      pop\n        /* \"#utility.yul\":7387:7753   */\n      swap2\n      swap1\n      pop\n      jump\t// out\n        /* \"#utility.yul\":7759:7877   */\n    tag_308:\n        /* \"#utility.yul\":7846:7870   */\n      tag_310\n        /* \"#utility.yul\":7864:7869   */\n      dup2\n        /* \"#utility.yul\":7846:7870   */\n      tag_311\n      jump\t// in\n    tag_310:\n        /* \"#utility.yul\":7841:7844   */\n      dup3\n        /* \"#utility.yul\":7834:7871   */\n      mstore\n        /* \"#utility.yul\":7759:7877   */\n      pop\n      pop\n      jump\t// out\n        /* \"#utility.yul\":7883:7995   */\n    tag_312:\n        /* \"#utility.yul\":7966:7988   */\n      tag_314\n        /* \"#utility.yul\":7982:7987   */\n      dup2\n        /* \"#utility.yul\":7966:7988   */\n      tag_315\n      jump\t// in\n    tag_314:\n        /* \"#utility.yul\":7961:7964   */\n      dup3\n        /* \"#utility.yul\":7954:7989   */\n      mstore\n        /* \"#utility.yul\":7883:7995   */\n      pop\n      pop\n      jump\t// out\n        /* \"#utility.yul\":8001:8223   */\n    tag_110:\n        /* \"#utility.yul\":8094:8098   */\n      0x00\n        /* \"#utility.yul\":8132:8134   */\n      0x20\n        /* \"#utility.yul\":8121:8130   */\n      dup3\n        /* \"#utility.yul\":8117:8135   */\n      add\n        /* \"#utility.yul\":8109:8135   */\n      swap1\n      pop\n        /* \"#utility.yul\":8145:8216   */\n      tag_317\n        /* \"#utility.yul\":8213:8214   */\n      0x00\n        /* \"#utility.yul\":8202:8211   */\n      dup4\n        /* \"#utility.yul\":8198:8215   */\n      add\n        /* \"#utility.yul\":8189:8195   */\n      dup5\n        /* \"#utility.yul\":8145:8216   */\n      tag_235\n      jump\t// in\n    tag_317:\n        /* \"#utility.yul\":8001:8223   */\n      swap3\n      swap2\n      pop\n      pop\n      jump\t// out\n        /* \"#utility.yul\":8229:8439   */\n    tag_28:\n        /* \"#utility.yul\":8316:8320   */\n      0x00\n        /* \"#utility.yul\":8354:8356   */\n      0x20\n        /* \"#utility.yul\":8343:8352   */\n      dup3\n        /* \"#utility.yul\":8339:8357   */\n      add\n        /* \"#utility.yul\":8331:8357   */\n      swap1\n      pop\n        /* \"#utility.yul\":8367:8432   */\n      tag_319\n        /* \"#utility.yul\":8429:8430   */\n      0x00\n        /* \"#utility.yul\":8418:8427   */\n      dup4\n        /* \"#utility.yul\":8414:8431   */\n      add\n        /* \"#utility.yul\":8405:8411   */\n      dup5\n        /* \"#utility.yul\":8367:8432   */\n      tag_239\n      jump\t// in\n    tag_319:\n        /* \"#utility.yul\":8229:8439   */\n      swap3\n      swap2\n      pop\n      pop\n      jump\t// out\n        /* \"#utility.yul\":8445:8758   */\n    tag_21:\n        /* \"#utility.yul\":8558:8562   */\n      0x00\n        /* \"#utility.yul\":8596:8598   */\n      0x20\n        /* \"#utility.yul\":8585:8594   */\n      dup3\n        /* \"#utility.yul\":8581:8599   */\n      add\n        /* \"#utility.yul\":8573:8599   */\n      swap1\n      pop\n        /* \"#utility.yul\":8645:8654   */\n      dup2\n        /* \"#utility.yul\":8639:8643   */\n      dup2\n        /* \"#utility.yul\":8635:8655   */\n      sub\n        /* \"#utility.yul\":8631:8632   */\n      0x00\n        /* \"#utility.yul\":8620:8629   */\n      dup4\n        /* \"#utility.yul\":8616:8633   */\n      add\n        /* \"#utility.yul\":8609:8656   */\n      mstore\n        /* \"#utility.yul\":8673:8751   */\n      tag_321\n        /* \"#utility.yul\":8746:8750   */\n      dup2\n        /* \"#utility.yul\":8737:8743   */\n      dup5\n        /* \"#utility.yul\":8673:8751   */\n      tag_243\n      jump\t// in\n    tag_321:\n        /* \"#utility.yul\":8665:8751   */\n      swap1\n      pop\n        /* \"#utility.yul\":8445:8758   */\n      swap3\n      swap2\n      pop\n      pop\n      jump\t// out\n        /* \"#utility.yul\":8764:9183   */\n    tag_131:\n        /* \"#utility.yul\":8930:8934   */\n      0x00\n        /* \"#utility.yul\":8968:8970   */\n      0x20\n        /* \"#utility.yul\":8957:8966   */\n      dup3\n        /* \"#utility.yul\":8953:8971   */\n      add\n        /* \"#utility.yul\":8945:8971   */\n      swap1\n      pop\n        /* \"#utility.yul\":9017:9026   */\n      dup2\n        /* \"#utility.yul\":9011:9015   */\n      dup2\n        /* \"#utility.yul\":9007:9027   */\n      sub\n        /* \"#utility.yul\":9003:9004   */\n      0x00\n        /* \"#utility.yul\":8992:9001   */\n      dup4\n        /* \"#utility.yul\":8988:9005   */\n      add\n        /* \"#utility.yul\":8981:9028   */\n      mstore\n        /* \"#utility.yul\":9045:9176   */\n      tag_323\n        /* \"#utility.yul\":9171:9175   */\n      dup2\n        /* \"#utility.yul\":9045:9176   */\n      tag_253\n      jump\t// in\n    tag_323:\n        /* \"#utility.yul\":9037:9176   */\n      swap1\n      pop\n        /* \"#utility.yul\":8764:9183   */\n      swap2\n      swap1\n      pop\n      jump\t// out\n        /* \"#utility.yul\":9189:9608   */\n    tag_173:\n        /* \"#utility.yul\":9355:9359   */\n      0x00\n        /* \"#utility.yul\":9393:9395   */\n      0x20\n        /* \"#utility.yul\":9382:9391   */\n      dup3\n        /* \"#utility.yul\":9378:9396   */\n      add\n        /* \"#utility.yul\":9370:9396   */\n      swap1\n      pop\n        /* \"#utility.yul\":9442:9451   */\n      dup2\n        /* \"#utility.yul\":9436:9440   */\n      dup2\n        /* \"#utility.yul\":9432:9452   */\n      sub\n        /* \"#utility.yul\":9428:9429   */\n      0x00\n        /* \"#utility.yul\":9417:9426   */\n      dup4\n        /* \"#utility.yul\":9413:9430   */\n      add\n        /* \"#utility.yul\":9406:9453   */\n      mstore\n        /* \"#utility.yul\":9470:9601   */\n      tag_325\n        /* \"#utility.yul\":9596:9600   */\n      dup2\n        /* \"#utility.yul\":9470:9601   */\n      tag_258\n      jump\t// in\n    tag_325:\n        /* \"#utility.yul\":9462:9601   */\n      swap1\n      pop\n        /* \"#utility.yul\":9189:9608   */\n      swap2\n      swap1\n      pop\n      jump\t// out\n        /* \"#utility.yul\":9614:10033   */\n    tag_158:\n        /* \"#utility.yul\":9780:9784   */\n      0x00\n        /* \"#utility.yul\":9818:9820   */\n      0x20\n        /* \"#utility.yul\":9807:9816   */\n      dup3\n        /* \"#utility.yul\":9803:9821   */\n      add\n        /* \"#utility.yul\":9795:9821   */\n      swap1\n      pop\n        /* \"#utility.yul\":9867:9876   */\n      dup2\n        /* \"#utility.yul\":9861:9865   */\n      dup2\n        /* \"#utility.yul\":9857:9877   */\n      sub\n        /* \"#utility.yul\":9853:9854   */\n      0x00\n        /* \"#utility.yul\":9842:9851   */\n      dup4\n        /* \"#utility.yul\":9838:9855   */\n      add\n        /* \"#utility.yul\":9831:9878   */\n      mstore\n        /* \"#utility.yul\":9895:10026   */\n      tag_327\n        /* \"#utility.yul\":10021:10025   */\n      dup2\n        /* \"#utility.yul\":9895:10026   */\n      tag_263\n      jump\t// in\n    tag_327:\n        /* \"#utility.yul\":9887:10026   */\n      swap1\n      pop\n        /* \"#utility.yul\":9614:10033   */\n      swap2\n      swap1\n      pop\n      jump\t// out\n        /* \"#utility.yul\":10039:10458   */\n    tag_165:\n        /* \"#utility.yul\":10205:10209   */\n      0x00\n        /* \"#utility.yul\":10243:10245   */\n      0x20\n        /* \"#utility.yul\":10232:10241   */\n      dup3\n        /* \"#utility.yul\":10228:10246   */\n      add\n        /* \"#utility.yul\":10220:10246   */\n      swap1\n      pop\n        /* \"#utility.yul\":10292:10301   */\n      dup2\n        /* \"#utility.yul\":10286:10290   */\n      dup2\n        /* \"#utility.yul\":10282:10302   */\n      sub\n        /* \"#utility.yul\":10278:10279   */\n      0x00\n        /* \"#utility.yul\":10267:10276   */\n      dup4\n        /* \"#utility.yul\":10263:10280   */\n      add\n        /* \"#utility.yul\":10256:10303   */\n      mstore\n        /* \"#utility.yul\":10320:10451   */\n      tag_329\n        /* \"#utility.yul\":10446:10450   */\n      dup2\n        /* \"#utility.yul\":10320:10451   */\n      tag_268\n      jump\t// in\n    tag_329:\n        /* \"#utility.yul\":10312:10451   */\n      swap1\n      pop\n        /* \"#utility.yul\":10039:10458   */\n      swap2\n      swap1\n      pop\n      jump\t// out\n        /* \"#utility.yul\":10464:10883   */\n    tag_178:\n        /* \"#utility.yul\":10630:10634   */\n      0x00\n        /* \"#utility.yul\":10668:10670   */\n      0x20\n        /* \"#utility.yul\":10657:10666   */\n      dup3\n        /* \"#utility.yul\":10653:10671   */\n      add\n        /* \"#utility.yul\":10645:10671   */\n      swap1\n      pop\n        /* \"#utility.yul\":10717:10726   */\n      dup2\n        /* \"#utility.yul\":10711:10715   */\n      dup2\n        /* \"#utility.yul\":10707:10727   */\n      sub\n        /* \"#utility.yul\":10703:10704   */\n      0x00\n        /* \"#utility.yul\":10692:10701   */\n      dup4\n        /* \"#utility.yul\":10688:10705   */\n      add\n        /* \"#utility.yul\":10681:10728   */\n      mstore\n        /* \"#utility.yul\":10745:10876   */\n      tag_331\n        /* \"#utility.yul\":10871:10875   */\n      dup2\n        /* \"#utility.yul\":10745:10876   */\n      tag_273\n      jump\t// in\n    tag_331:\n        /* \"#utility.yul\":10737:10876   */\n      swap1\n      pop\n        /* \"#utility.yul\":10464:10883   */\n      swap2\n      swap1\n      pop\n      jump\t// out\n        /* \"#utility.yul\":10889:11308   */\n    tag_137:\n        /* \"#utility.yul\":11055:11059   */\n      0x00\n        /* \"#utility.yul\":11093:11095   */\n      0x20\n        /* \"#utility.yul\":11082:11091   */\n      dup3\n        /* \"#utility.yul\":11078:11096   */\n      add\n        /* \"#utility.yul\":11070:11096   */\n      swap1\n      pop\n        /* \"#utility.yul\":11142:11151   */\n      dup2\n        /* \"#utility.yul\":11136:11140   */\n      dup2\n        /* \"#utility.yul\":11132:11152   */\n      sub\n        /* \"#utility.yul\":11128:11129   */\n      0x00\n        /* \"#utility.yul\":11117:11126   */\n      dup4\n        /* \"#utility.yul\":11113:11130   */\n      add\n        /* \"#utility.yul\":11106:11153   */\n      mstore\n        /* \"#utility.yul\":11170:11301   */\n      tag_333\n        /* \"#utility.yul\":11296:11300   */\n      dup2\n        /* \"#utility.yul\":11170:11301   */\n      tag_278\n      jump\t// in\n    tag_333:\n        /* \"#utility.yul\":11162:11301   */\n      swap1\n      pop\n        /* \"#utility.yul\":10889:11308   */\n      swap2\n      swap1\n      pop\n      jump\t// out\n        /* \"#utility.yul\":11314:11733   */\n    tag_118:\n        /* \"#utility.yul\":11480:11484   */\n      0x00\n        /* \"#utility.yul\":11518:11520   */\n      0x20\n        /* \"#utility.yul\":11507:11516   */\n      dup3\n        /* \"#utility.yul\":11503:11521   */\n      add\n        /* \"#utility.yul\":11495:11521   */\n      swap1\n      pop\n        /* \"#utility.yul\":11567:11576   */\n      dup2\n        /* \"#utility.yul\":11561:11565   */\n      dup2\n        /* \"#utility.yul\":11557:11577   */\n      sub\n        /* \"#utility.yul\":11553:11554   */\n      0x00\n        /* \"#utility.yul\":11542:11551   */\n      dup4\n        /* \"#utility.yul\":11538:11555   */\n      add\n        /* \"#utility.yul\":11531:11578   */\n      mstore\n        /* \"#utility.yul\":11595:11726   */\n      tag_335\n        /* \"#utility.yul\":11721:11725   */\n      dup2\n        /* \"#utility.yul\":11595:11726   */\n      tag_283\n      jump\t// in\n    tag_335:\n        /* \"#utility.yul\":11587:11726   */\n      swap1\n      pop\n        /* \"#utility.yul\":11314:11733   */\n      swap2\n      swap1\n      pop\n      jump\t// out\n        /* \"#utility.yul\":11739:12158   */\n    tag_170:\n        /* \"#utility.yul\":11905:11909   */\n      0x00\n        /* \"#utility.yul\":11943:11945   */\n      0x20\n        /* \"#utility.yul\":11932:11941   */\n      dup3\n        /* \"#utility.yul\":11928:11946   */\n      add\n        /* \"#utility.yul\":11920:11946   */\n      swap1\n      pop\n        /* \"#utility.yul\":11992:12001   */\n      dup2\n        /* \"#utility.yul\":11986:11990   */\n      dup2\n        /* \"#utility.yul\":11982:12002   */\n      sub\n        /* \"#utility.yul\":11978:11979   */\n      0x00\n        /* \"#utility.yul\":11967:11976   */\n      dup4\n        /* \"#utility.yul\":11963:11980   */\n      add\n        /* \"#utility.yul\":11956:12003   */\n      mstore\n        /* \"#utility.yul\":12020:12151   */\n      tag_337\n        /* \"#utility.yul\":12146:12150   */\n      dup2\n        /* \"#utility.yul\":12020:12151   */\n      tag_288\n      jump\t// in\n    tag_337:\n        /* \"#utility.yul\":12012:12151   */\n      swap1\n      pop\n        /* \"#utility.yul\":11739:12158   */\n      swap2\n      swap1\n      pop\n      jump\t// out\n        /* \"#utility.yul\":12164:12583   */\n    tag_155:\n        /* \"#utility.yul\":12330:12334   */\n      0x00\n        /* \"#utility.yul\":12368:12370   */\n      0x20\n        /* \"#utility.yul\":12357:12366   */\n      dup3\n        /* \"#utility.yul\":12353:12371   */\n      add\n        /* \"#utility.yul\":12345:12371   */\n      swap1\n      pop\n        /* \"#utility.yul\":12417:12426   */\n      dup2\n        /* \"#utility.yul\":12411:12415   */\n      dup2\n        /* \"#utility.yul\":12407:12427   */\n      sub\n        /* \"#utility.yul\":12403:12404   */\n      0x00\n        /* \"#utility.yul\":12392:12401   */\n      dup4\n        /* \"#utility.yul\":12388:12405   */\n      add\n        /* \"#utility.yul\":12381:12428   */\n      mstore\n        /* \"#utility.yul\":12445:12576   */\n      tag_339\n        /* \"#utility.yul\":12571:12575   */\n      dup2\n        /* \"#utility.yul\":12445:12576   */\n      tag_293\n      jump\t// in\n    tag_339:\n        /* \"#utility.yul\":12437:12576   */\n      swap1\n      pop\n        /* \"#utility.yul\":12164:12583   */\n      swap2\n      swap1\n      pop\n      jump\t// out\n        /* \"#utility.yul\":12589:13008   */\n    tag_145:\n        /* \"#utility.yul\":12755:12759   */\n      0x00\n        /* \"#utility.yul\":12793:12795   */\n      0x20\n        /* \"#utility.yul\":12782:12791   */\n      dup3\n        /* \"#utility.yul\":12778:12796   */\n      add\n        /* \"#utility.yul\":12770:12796   */\n      swap1\n      pop\n        /* \"#utility.yul\":12842:12851   */\n      dup2\n        /* \"#utility.yul\":12836:12840   */\n      dup2\n        /* \"#utility.yul\":12832:12852   */\n      sub\n        /* \"#utility.yul\":12828:12829   */\n      0x00\n        /* \"#utility.yul\":12817:12826   */\n      dup4\n        /* \"#utility.yul\":12813:12830   */\n      add\n        /* \"#utility.yul\":12806:12853   */\n      mstore\n        /* \"#utility.yul\":12870:13001   */\n      tag_341\n        /* \"#utility.yul\":12996:13000   */\n      dup2\n        /* \"#utility.yul\":12870:13001   */\n      tag_298\n      jump\t// in\n    tag_341:\n        /* \"#utility.yul\":12862:13001   */\n      swap1\n      pop\n        /* \"#utility.yul\":12589:13008   */\n      swap2\n      swap1\n      pop\n      jump\t// out\n        /* \"#utility.yul\":13014:13433   */\n    tag_186:\n        /* \"#utility.yul\":13180:13184   */\n      0x00\n        /* \"#utility.yul\":13218:13220   */\n      0x20\n        /* \"#utility.yul\":13207:13216   */\n      dup3\n        /* \"#utility.yul\":13203:13221   */\n      add\n        /* \"#utility.yul\":13195:13221   */\n      swap1\n      pop\n        /* \"#utility.yul\":13267:13276   */\n      dup2\n        /* \"#utility.yul\":13261:13265   */\n      dup2\n        /* \"#utility.yul\":13257:13277   */\n      sub\n        /* \"#utility.yul\":13253:13254   */\n      0x00\n        /* \"#utility.yul\":13242:13251   */\n      dup4\n        /* \"#utility.yul\":13238:13255   */\n      add\n        /* \"#utility.yul\":13231:13278   */\n      mstore\n        /* \"#utility.yul\":13295:13426   */\n      tag_343\n        /* \"#utility.yul\":13421:13425   */\n      dup2\n        /* \"#utility.yul\":13295:13426   */\n      tag_303\n      jump\t// in\n    tag_343:\n        /* \"#utility.yul\":13287:13426   */\n      swap1\n      pop\n        /* \"#utility.yul\":13014:13433   */\n      swap2\n      swap1\n      pop\n      jump\t// out\n        /* \"#utility.yul\":13439:13661   */\n    tag_33:\n        /* \"#utility.yul\":13532:13536   */\n      0x00\n        /* \"#utility.yul\":13570:13572   */\n      0x20\n        /* \"#utility.yul\":13559:13568   */\n      dup3\n        /* \"#utility.yul\":13555:13573   */\n      add\n        /* \"#utility.yul\":13547:13573   */\n      swap1\n      pop\n        /* \"#utility.yul\":13583:13654   */\n      tag_345\n        /* \"#utility.yul\":13651:13652   */\n      0x00\n        /* \"#utility.yul\":13640:13649   */\n      dup4\n        /* \"#utility.yul\":13636:13653   */\n      add\n        /* \"#utility.yul\":13627:13633   */\n      dup5\n        /* \"#utility.yul\":13583:13654   */\n      tag_308\n      jump\t// in\n    tag_345:\n        /* \"#utility.yul\":13439:13661   */\n      swap3\n      swap2\n      pop\n      pop\n      jump\t// out\n        /* \"#utility.yul\":13667:13881   */\n    tag_44:\n        /* \"#utility.yul\":13756:13760   */\n      0x00\n        /* \"#utility.yul\":13794:13796   */\n      0x20\n        /* \"#utility.yul\":13783:13792   */\n      dup3\n        /* \"#utility.yul\":13779:13797   */\n      add\n        /* \"#utility.yul\":13771:13797   */\n      swap1\n      pop\n        /* \"#utility.yul\":13807:13874   */\n      tag_347\n        /* \"#utility.yul\":13871:13872   */\n      0x00\n        /* \"#utility.yul\":13860:13869   */\n      dup4\n        /* \"#utility.yul\":13856:13873   */\n      add\n        /* \"#utility.yul\":13847:13853   */\n      dup5\n        /* \"#utility.yul\":13807:13874   */\n      tag_312\n      jump\t// in\n    tag_347:\n        /* \"#utility.yul\":13667:13881   */\n      swap3\n      swap2\n      pop\n      pop\n      jump\t// out\n        /* \"#utility.yul\":13968:14067   */\n    tag_246:\n        /* \"#utility.yul\":14020:14026   */\n      0x00\n        /* \"#utility.yul\":14054:14059   */\n      dup2\n        /* \"#utility.yul\":14048:14060   */\n      mload\n        /* \"#utility.yul\":14038:14060   */\n      swap1\n      pop\n        /* \"#utility.yul\":13968:14067   */\n      swap2\n      swap1\n      pop\n      jump\t// out\n        /* \"#utility.yul\":14073:14242   */\n    tag_248:\n        /* \"#utility.yul\":14157:14168   */\n      0x00\n        /* \"#utility.yul\":14191:14197   */\n      dup3\n        /* \"#utility.yul\":14186:14189   */\n      dup3\n        /* \"#utility.yul\":14179:14198   */\n      mstore\n        /* \"#utility.yul\":14231:14235   */\n      0x20\n        /* \"#utility.yul\":14226:14229   */\n      dup3\n        /* \"#utility.yul\":14222:14236   */\n      add\n        /* \"#utility.yul\":14207:14236   */\n      swap1\n      pop\n        /* \"#utility.yul\":14073:14242   */\n      swap3\n      swap2\n      pop\n      pop\n      jump\t// out\n        /* \"#utility.yul\":14248:14553   */\n    tag_107:\n        /* \"#utility.yul\":14288:14291   */\n      0x00\n        /* \"#utility.yul\":14307:14327   */\n      tag_353\n        /* \"#utility.yul\":14325:14326   */\n      dup3\n        /* \"#utility.yul\":14307:14327   */\n      tag_311\n      jump\t// in\n    tag_353:\n        /* \"#utility.yul\":14302:14327   */\n      swap2\n      pop\n        /* \"#utility.yul\":14341:14361   */\n      tag_354\n        /* \"#utility.yul\":14359:14360   */\n      dup4\n        /* \"#utility.yul\":14341:14361   */\n      tag_311\n      jump\t// in\n    tag_354:\n        /* \"#utility.yul\":14336:14361   */\n      swap3\n      pop\n        /* \"#utility.yul\":14495:14496   */\n      dup3\n        /* \"#utility.yul\":14427:14493   */\n      0xffffffffffffffffffffffffffffffffffffffffffffffffffffffffffffffff\n        /* \"#utility.yul\":14423:14497   */\n      sub\n        /* \"#utility.yul\":14420:14421   */\n      dup3\n        /* \"#utility.yul\":14417:14498   */\n      gt\n        /* \"#utility.yul\":14414:14521   */\n      iszero\n      tag_355\n      jumpi\n        /* \"#utility.yul\":14501:14519   */\n      tag_356\n      tag_357\n      jump\t// in\n    tag_356:\n        /* \"#utility.yul\":14414:14521   */\n    tag_355:\n        /* \"#utility.yul\":14545:14546   */\n      dup3\n        /* \"#utility.yul\":14542:14543   */\n      dup3\n        /* \"#utility.yul\":14538:14547   */\n      add\n        /* \"#utility.yul\":14531:14547   */\n      swap1\n      pop\n        /* \"#utility.yul\":14248:14553   */\n      swap3\n      swap2\n      pop\n      pop\n      jump\t// out\n        /* \"#utility.yul\":14559:14907   */\n    tag_128:\n        /* \"#utility.yul\":14599:14606   */\n      0x00\n        /* \"#utility.yul\":14622:14642   */\n      tag_359\n        /* \"#utility.yul\":14640:14641   */\n      dup3\n        /* \"#utility.yul\":14622:14642   */\n      tag_311\n      jump\t// in\n    tag_359:\n        /* \"#utility.yul\":14617:14642   */\n      swap2\n      pop\n        /* \"#utility.yul\":14656:14676   */\n      tag_360\n        /* \"#utility.yul\":14674:14675   */\n      dup4\n        /* \"#utility.yul\":14656:14676   */\n      tag_311\n      jump\t// in\n    tag_360:\n        /* \"#utility.yul\":14651:14676   */\n      swap3\n      pop\n        /* \"#utility.yul\":14844:14845   */\n      dup2\n        /* \"#utility.yul\":14776:14842   */\n      0xffffffffffffffffffffffffffffffffffffffffffffffffffffffffffffffff\n        /* \"#utility.yul\":14772:14846   */\n      div\n        /* \"#utility.yul\":14769:14770   */\n      dup4\n        /* \"#utility.yul\":14766:14847   */\n      gt\n        /* \"#utility.yul\":14761:14762   */\n      dup3\n        /* \"#utility.yul\":14754:14763   */\n      iszero\n        /* \"#utility.yul\":14747:14764   */\n      iszero\n        /* \"#utility.yul\":14743:14848   */\n      and\n        /* \"#utility.yul\":14740:14871   */\n      iszero\n      tag_361\n      jumpi\n        /* \"#utility.yul\":14851:14869   */\n      tag_362\n      tag_357\n      jump\t// in\n    tag_362:\n        /* \"#utility.yul\":14740:14871   */\n    tag_361:\n        /* \"#utility.yul\":14899:14900   */\n      dup3\n        /* \"#utility.yul\":14896:14897   */\n      dup3\n        /* \"#utility.yul\":14892:14901   */\n      mul\n        /* \"#utility.yul\":14881:14901   */\n      swap1\n      pop\n        /* \"#utility.yul\":14559:14907   */\n      swap3\n      swap2\n      pop\n      pop\n      jump\t// out\n        /* \"#utility.yul\":14913:15009   */\n    tag_238:\n        /* \"#utility.yul\":14950:14957   */\n      0x00\n        /* \"#utility.yul\":14979:15003   */\n      tag_364\n        /* \"#utility.yul\":14997:15002   */\n      dup3\n        /* \"#utility.yul\":14979:15003   */\n      tag_365\n      jump\t// in\n    tag_364:\n        /* \"#utility.yul\":14968:15003   */\n      swap1\n      pop\n        /* \"#utility.yul\":14913:15009   */\n      swap2\n      swap1\n      pop\n      jump\t// out\n        /* \"#utility.yul\":15015:15105   */\n    tag_242:\n        /* \"#utility.yul\":15049:15056   */\n      0x00\n        /* \"#utility.yul\":15092:15097   */\n      dup2\n        /* \"#utility.yul\":15085:15098   */\n      iszero\n        /* \"#utility.yul\":15078:15099   */\n      iszero\n        /* \"#utility.yul\":15067:15099   */\n      swap1\n      pop\n        /* \"#utility.yul\":15015:15105   */\n      swap2\n      swap1\n      pop\n      jump\t// out\n        /* \"#utility.yul\":15111:15237   */\n    tag_365:\n        /* \"#utility.yul\":15148:15155   */\n      0x00\n        /* \"#utility.yul\":15188:15230   */\n      0xffffffffffffffffffffffffffffffffffffffff\n        /* \"#utility.yul\":15181:15186   */\n      dup3\n        /* \"#utility.yul\":15177:15231   */\n      and\n        /* \"#utility.yul\":15166:15231   */\n      swap1\n      pop\n        /* \"#utility.yul\":15111:15237   */\n      swap2\n      swap1\n      pop\n      jump\t// out\n        /* \"#utility.yul\":15243:15320   */\n    tag_311:\n        /* \"#utility.yul\":15280:15287   */\n      0x00\n        /* \"#utility.yul\":15309:15314   */\n      dup2\n        /* \"#utility.yul\":15298:15314   */\n      swap1\n      pop\n        /* \"#utility.yul\":15243:15320   */\n      swap2\n      swap1\n      pop\n      jump\t// out\n        /* \"#utility.yul\":15326:15412   */\n    tag_315:\n        /* \"#utility.yul\":15361:15368   */\n      0x00\n        /* \"#utility.yul\":15401:15405   */\n      0xff\n        /* \"#utility.yul\":15394:15399   */\n      dup3\n        /* \"#utility.yul\":15390:15406   */\n      and\n        /* \"#utility.yul\":15379:15406   */\n      swap1\n      pop\n        /* \"#utility.yul\":15326:15412   */\n      swap2\n      swap1\n      pop\n      jump\t// out\n        /* \"#utility.yul\":15418:15725   */\n    tag_250:\n        /* \"#utility.yul\":15486:15487   */\n      0x00\n        /* \"#utility.yul\":15496:15609   */\n    tag_371:\n        /* \"#utility.yul\":15510:15516   */\n      dup4\n        /* \"#utility.yul\":15507:15508   */\n      dup2\n        /* \"#utility.yul\":15504:15517   */\n      lt\n        /* \"#utility.yul\":15496:15609   */\n      iszero\n      tag_373\n      jumpi\n        /* \"#utility.yul\":15595:15596   */\n      dup1\n        /* \"#utility.yul\":15590:15593   */\n      dup3\n        /* \"#utility.yul\":15586:15597   */\n      add\n        /* \"#utility.yul\":15580:15598   */\n      mload\n        /* \"#utility.yul\":15576:15577   */\n      dup2\n        /* \"#utility.yul\":15571:15574   */\n      dup5\n        /* \"#utility.yul\":15567:15578   */\n      add\n        /* \"#utility.yul\":15560:15599   */\n      mstore\n        /* \"#utility.yul\":15532:15534   */\n      0x20\n        /* \"#utility.yul\":15529:15530   */\n      dup2\n        /* \"#utility.yul\":15525:15535   */\n      add\n        /* \"#utility.yul\":15520:15535   */\n      swap1\n      pop\n        /* \"#utility.yul\":15496:15609   */\n      jump(tag_371)\n    tag_373:\n        /* \"#utility.yul\":15627:15633   */\n      dup4\n        /* \"#utility.yul\":15624:15625   */\n      dup2\n        /* \"#utility.yul\":15621:15634   */\n      gt\n        /* \"#utility.yul\":15618:15719   */\n      iszero\n      tag_374\n      jumpi\n        /* \"#utility.yul\":15707:15708   */\n      0x00\n        /* \"#utility.yul\":15698:15704   */\n      dup5\n        /* \"#utility.yul\":15693:15696   */\n      dup5\n        /* \"#utility.yul\":15689:15705   */\n      add\n        /* \"#utility.yul\":15682:15709   */\n      mstore\n        /* \"#utility.yul\":15618:15719   */\n    tag_374:\n        /* \"#utility.yul\":15467:15725   */\n      pop\n        /* \"#utility.yul\":15418:15725   */\n      pop\n      pop\n      pop\n      jump\t// out\n        /* \"#utility.yul\":15731:16051   */\n    tag_84:\n        /* \"#utility.yul\":15775:15781   */\n      0x00\n        /* \"#utility.yul\":15812:15813   */\n      0x02\n        /* \"#utility.yul\":15806:15810   */\n      dup3\n        /* \"#utility.yul\":15802:15814   */\n      div\n        /* \"#utility.yul\":15792:15814   */\n      swap1\n      pop\n        /* \"#utility.yul\":15859:15860   */\n      0x01\n        /* \"#utility.yul\":15853:15857   */\n      dup3\n        /* \"#utility.yul\":15849:15861   */\n      and\n        /* \"#utility.yul\":15880:15898   */\n      dup1\n        /* \"#utility.yul\":15870:15951   */\n      tag_376\n      jumpi\n        /* \"#utility.yul\":15936:15940   */\n      0x7f\n        /* \"#utility.yul\":15928:15934   */\n      dup3\n        /* \"#utility.yul\":15924:15941   */\n      and\n        /* \"#utility.yul\":15914:15941   */\n      swap2\n      pop\n        /* \"#utility.yul\":15870:15951   */\n    tag_376:\n        /* \"#utility.yul\":15998:16000   */\n      0x20\n        /* \"#utility.yul\":15990:15996   */\n      dup3\n        /* \"#utility.yul\":15987:16001   */\n      lt\n        /* \"#utility.yul\":15967:15985   */\n      dup2\n        /* \"#utility.yul\":15964:16002   */\n      eq\n        /* \"#utility.yul\":15961:16045   */\n      iszero\n      tag_377\n      jumpi\n        /* \"#utility.yul\":16017:16035   */\n      tag_378\n      tag_379\n      jump\t// in\n    tag_378:\n        /* \"#utility.yul\":15961:16045   */\n    tag_377:\n        /* \"#utility.yul\":15782:16051   */\n      pop\n        /* \"#utility.yul\":15731:16051   */\n      swap2\n      swap1\n      pop\n      jump\t// out\n        /* \"#utility.yul\":16057:16237   */\n    tag_357:\n        /* \"#utility.yul\":16105:16182   */\n      0x4e487b7100000000000000000000000000000000000000000000000000000000\n        /* \"#utility.yul\":16102:16103   */\n      0x00\n        /* \"#utility.yul\":16095:16183   */\n      mstore\n        /* \"#utility.yul\":16202:16206   */\n      0x11\n        /* \"#utility.yul\":16199:16200   */\n      0x04\n        /* \"#utility.yul\":16192:16207   */\n      mstore\n        /* \"#utility.yul\":16226:16230   */\n      0x24\n        /* \"#utility.yul\":16223:16224   */\n      0x00\n        /* \"#utility.yul\":16216:16231   */\n      revert\n        /* \"#utility.yul\":16243:16423   */\n    tag_379:\n        /* \"#utility.yul\":16291:16368   */\n      0x4e487b7100000000000000000000000000000000000000000000000000000000\n        /* \"#utility.yul\":16288:16289   */\n      0x00\n        /* \"#utility.yul\":16281:16369   */\n      mstore\n        /* \"#utility.yul\":16388:16392   */\n      0x22\n        /* \"#utility.yul\":16385:16386   */\n      0x04\n        /* \"#utility.yul\":16378:16393   */\n      mstore\n        /* \"#utility.yul\":16412:16416   */\n      0x24\n        /* \"#utility.yul\":16409:16410   */\n      0x00\n        /* \"#utility.yul\":16402:16417   */\n      revert\n        /* \"#utility.yul\":16552:16669   */\n    tag_209:\n        /* \"#utility.yul\":16661:16662   */\n      0x00\n        /* \"#utility.yul\":16658:16659   */\n      dup1\n        /* \"#utility.yul\":16651:16663   */\n      revert\n        /* \"#utility.yul\":16675:16777   */\n    tag_252:\n        /* \"#utility.yul\":16716:16722   */\n      0x00\n        /* \"#utility.yul\":16767:16769   */\n      0x1f\n        /* \"#utility.yul\":16763:16770   */\n      not\n        /* \"#utility.yul\":16758:16760   */\n      0x1f\n        /* \"#utility.yul\":16751:16756   */\n      dup4\n        /* \"#utility.yul\":16747:16761   */\n      add\n        /* \"#utility.yul\":16743:16771   */\n      and\n        /* \"#utility.yul\":16733:16771   */\n      swap1\n      pop\n        /* \"#utility.yul\":16675:16777   */\n      swap2\n      swap1\n      pop\n      jump\t// out\n        /* \"#utility.yul\":16783:16953   */\n    tag_257:\n        /* \"#utility.yul\":16923:16945   */\n      0x496e636f72726563742065746865722073656e74000000000000000000000000\n        /* \"#utility.yul\":16919:16920   */\n      0x00\n        /* \"#utility.yul\":16911:16917   */\n      dup3\n        /* \"#utility.yul\":16907:16921   */\n      add\n        /* \"#utility.yul\":16900:16946   */\n      mstore\n        /* \"#utility.yul\":16783:16953   */\n      pop\n      jump\t// out\n        /* \"#utility.yul\":16959:17181   */\n    tag_262:\n        /* \"#utility.yul\":17099:17133   */\n      0x45524332303a207472616e7366657220746f20746865207a65726f2061646472\n        /* \"#utility.yul\":17095:17096   */\n      0x00\n        /* \"#utility.yul\":17087:17093   */\n      dup3\n        /* \"#utility.yul\":17083:17097   */\n      add\n        /* \"#utility.yul\":17076:17134   */\n      mstore\n        /* \"#utility.yul\":17168:17173   */\n      0x6573730000000000000000000000000000000000000000000000000000000000\n        /* \"#utility.yul\":17163:17165   */\n      0x20\n        /* \"#utility.yul\":17155:17161   */\n      dup3\n        /* \"#utility.yul\":17151:17166   */\n      add\n        /* \"#utility.yul\":17144:17174   */\n      mstore\n        /* \"#utility.yul\":16959:17181   */\n      pop\n      jump\t// out\n        /* \"#utility.yul\":17187:17408   */\n    tag_267:\n        /* \"#utility.yul\":17327:17361   */\n      0x45524332303a20617070726f766520746f20746865207a65726f206164647265\n        /* \"#utility.yul\":17323:17324   */\n      0x00\n        /* \"#utility.yul\":17315:17321   */\n      dup3\n        /* \"#utility.yul\":17311:17325   */\n      add\n        /* \"#utility.yul\":17304:17362   */\n      mstore\n        /* \"#utility.yul\":17396:17400   */\n      0x7373000000000000000000000000000000000000000000000000000000000000\n        /* \"#utility.yul\":17391:17393   */\n      0x20\n        /* \"#utility.yul\":17383:17389   */\n      dup3\n        /* \"#utility.yul\":17379:17394   */\n      add\n        /* \"#utility.yul\":17372:17401   */\n      mstore\n        /* \"#utility.yul\":17187:17408   */\n      pop\n      jump\t// out\n        /* \"#utility.yul\":17414:17593   */\n    tag_272:\n        /* \"#utility.yul\":17554:17585   */\n      0x45524332303a20696e73756666696369656e7420616c6c6f77616e6365000000\n        /* \"#utility.yul\":17550:17551   */\n      0x00\n        /* \"#utility.yul\":17542:17548   */\n      dup3\n        /* \"#utility.yul\":17538:17552   */\n      add\n        /* \"#utility.yul\":17531:17586   */\n      mstore\n        /* \"#utility.yul\":17414:17593   */\n      pop\n      jump\t// out\n        /* \"#utility.yul\":17599:17824   */\n    tag_277:\n        /* \"#utility.yul\":17739:17773   */\n      0x45524332303a207472616e7366657220616d6f756e7420657863656564732062\n        /* \"#utility.yul\":17735:17736   */\n      0x00\n        /* \"#utility.yul\":17727:17733   */\n      dup3\n        /* \"#utility.yul\":17723:17737   */\n      add\n        /* \"#utility.yul\":17716:17774   */\n      mstore\n        /* \"#utility.yul\":17808:17816   */\n      0x616c616e63650000000000000000000000000000000000000000000000000000\n        /* \"#utility.yul\":17803:17805   */\n      0x20\n        /* \"#utility.yul\":17795:17801   */\n      dup3\n        /* \"#utility.yul\":17791:17806   */\n      add\n        /* \"#utility.yul\":17784:17817   */\n      mstore\n        /* \"#utility.yul\":17599:17824   */\n      pop\n      jump\t// out\n        /* \"#utility.yul\":17830:18002   */\n    tag_282:\n        /* \"#utility.yul\":17970:17994   */\n      0x4d6178696d756d20737570706c79207265616368656400000000000000000000\n        /* \"#utility.yul\":17966:17967   */\n      0x00\n        /* \"#utility.yul\":17958:17964   */\n      dup3\n        /* \"#utility.yul\":17954:17968   */\n      add\n        /* \"#utility.yul\":17947:17995   */\n      mstore\n        /* \"#utility.yul\":17830:18002   */\n      pop\n      jump\t// out\n        /* \"#utility.yul\":18008:18230   */\n    tag_287:\n        /* \"#utility.yul\":18148:18182   */\n      0x596f7520646f206e6f74206861766520616e79204d7574616e74204170657320\n        /* \"#utility.yul\":18144:18145   */\n      0x00\n        /* \"#utility.yul\":18136:18142   */\n      dup3\n        /* \"#utility.yul\":18132:18146   */\n      add\n        /* \"#utility.yul\":18125:18183   */\n      mstore\n        /* \"#utility.yul\":18217:18222   */\n      0x4e46540000000000000000000000000000000000000000000000000000000000\n        /* \"#utility.yul\":18212:18214   */\n      0x20\n        /* \"#utility.yul\":18204:18210   */\n      dup3\n        /* \"#utility.yul\":18200:18215   */\n      add\n        /* \"#utility.yul\":18193:18223   */\n      mstore\n        /* \"#utility.yul\":18008:18230   */\n      pop\n      jump\t// out\n        /* \"#utility.yul\":18236:18460   */\n    tag_292:\n        /* \"#utility.yul\":18376:18410   */\n      0x45524332303a207472616e736665722066726f6d20746865207a65726f206164\n        /* \"#utility.yul\":18372:18373   */\n      0x00\n        /* \"#utility.yul\":18364:18370   */\n      dup3\n        /* \"#utility.yul\":18360:18374   */\n      add\n        /* \"#utility.yul\":18353:18411   */\n      mstore\n        /* \"#utility.yul\":18445:18452   */\n      0x6472657373000000000000000000000000000000000000000000000000000000\n        /* \"#utility.yul\":18440:18442   */\n      0x20\n        /* \"#utility.yul\":18432:18438   */\n      dup3\n        /* \"#utility.yul\":18428:18443   */\n      add\n        /* \"#utility.yul\":18421:18453   */\n      mstore\n        /* \"#utility.yul\":18236:18460   */\n      pop\n      jump\t// out\n        /* \"#utility.yul\":18466:18689   */\n    tag_297:\n        /* \"#utility.yul\":18606:18640   */\n      0x45524332303a20617070726f76652066726f6d20746865207a65726f20616464\n        /* \"#utility.yul\":18602:18603   */\n      0x00\n        /* \"#utility.yul\":18594:18600   */\n      dup3\n        /* \"#utility.yul\":18590:18604   */\n      add\n        /* \"#utility.yul\":18583:18641   */\n      mstore\n        /* \"#utility.yul\":18675:18681   */\n      0x7265737300000000000000000000000000000000000000000000000000000000\n        /* \"#utility.yul\":18670:18672   */\n      0x20\n        /* \"#utility.yul\":18662:18668   */\n      dup3\n        /* \"#utility.yul\":18658:18673   */\n      add\n        /* \"#utility.yul\":18651:18682   */\n      mstore\n        /* \"#utility.yul\":18466:18689   */\n      pop\n      jump\t// out\n        /* \"#utility.yul\":18695:18919   */\n    tag_302:\n        /* \"#utility.yul\":18835:18869   */\n      0x45524332303a2064656372656173656420616c6c6f77616e63652062656c6f77\n        /* \"#utility.yul\":18831:18832   */\n      0x00\n        /* \"#utility.yul\":18823:18829   */\n      dup3\n        /* \"#utility.yul\":18819:18833   */\n      add\n        /* \"#utility.yul\":18812:18870   */\n      mstore\n        /* \"#utility.yul\":18904:18911   */\n      0x207a65726f000000000000000000000000000000000000000000000000000000\n        /* \"#utility.yul\":18899:18901   */\n      0x20\n        /* \"#utility.yul\":18891:18897   */\n      dup3\n        /* \"#utility.yul\":18887:18902   */\n      add\n        /* \"#utility.yul\":18880:18912   */\n      mstore\n        /* \"#utility.yul\":18695:18919   */\n      pop\n      jump\t// out\n        /* \"#utility.yul\":18925:19106   */\n    tag_307:\n        /* \"#utility.yul\":19065:19098   */\n      0x45524332303a206d696e7420746f20746865207a65726f206164647265737300\n        /* \"#utility.yul\":19061:19062   */\n      0x00\n        /* \"#utility.yul\":19053:19059   */\n      dup3\n        /* \"#utility.yul\":19049:19063   */\n      add\n        /* \"#utility.yul\":19042:19099   */\n      mstore\n        /* \"#utility.yul\":18925:19106   */\n      pop\n      jump\t// out\n        /* \"#utility.yul\":19112:19234   */\n    tag_198:\n        /* \"#utility.yul\":19185:19209   */\n      tag_398\n        /* \"#utility.yul\":19203:19208   */\n      dup2\n        /* \"#utility.yul\":19185:19209   */\n      tag_238\n      jump\t// in\n    tag_398:\n        /* \"#utility.yul\":19178:19183   */\n      dup2\n        /* \"#utility.yul\":19175:19210   */\n      eq\n        /* \"#utility.yul\":19165:19228   */\n      tag_399\n      jumpi\n        /* \"#utility.yul\":19224:19225   */\n      0x00\n        /* \"#utility.yul\":19221:19222   */\n      dup1\n        /* \"#utility.yul\":19214:19226   */\n      revert\n        /* \"#utility.yul\":19165:19228   */\n    tag_399:\n        /* \"#utility.yul\":19112:19234   */\n      pop\n      jump\t// out\n        /* \"#utility.yul\":19240:19362   */\n    tag_202:\n        /* \"#utility.yul\":19313:19337   */\n      tag_401\n        /* \"#utility.yul\":19331:19336   */\n      dup2\n        /* \"#utility.yul\":19313:19337   */\n      tag_311\n      jump\t// in\n    tag_401:\n        /* \"#utility.yul\":19306:19311   */\n      dup2\n        /* \"#utility.yul\":19303:19338   */\n      eq\n        /* \"#utility.yul\":19293:19356   */\n      tag_402\n      jumpi\n        /* \"#utility.yul\":19352:19353   */\n      0x00\n        /* \"#utility.yul\":19349:19350   */\n      dup1\n        /* \"#utility.yul\":19342:19354   */\n      revert\n        /* \"#utility.yul\":19293:19356   */\n    tag_402:\n        /* \"#utility.yul\":19240:19362   */\n      pop\n      jump\t// out\n\n    auxdata: 0xa264697066735822122039f3de8085988526d237690a62fb1052ca2f883f1501de50a7b1635c7980baf564736f6c63430008070033\n}\n",
				"bytecode": {
					"linkReferences": {},
					"object": "6080604052678ac7230489e8000060055569021e19e0c9bab24000006006553480156200002b57600080fd5b5060405162001c2c38038062001c2c833981810160405281019062000051919062000200565b6040518060400160405280600b81526020017f546f6d69776120436f696e0000000000000000000000000000000000000000008152506040518060400160405280600281526020017f54430000000000000000000000000000000000000000000000000000000000008152508160039080519060200190620000d592919062000139565b508060049080519060200190620000ee92919062000139565b50505080600760006101000a81548173ffffffffffffffffffffffffffffffffffffffff021916908373ffffffffffffffffffffffffffffffffffffffff16021790555050620002ea565b828054620001479062000266565b90600052602060002090601f0160209004810192826200016b5760008555620001b7565b82601f106200018657805160ff1916838001178555620001b7565b82800160010185558215620001b7579182015b82811115620001b657825182559160200191906001019062000199565b5b509050620001c69190620001ca565b5090565b5b80821115620001e5576000816000905550600101620001cb565b5090565b600081519050620001fa81620002d0565b92915050565b600060208284031215620002195762000218620002cb565b5b60006200022984828501620001e9565b91505092915050565b60006200023f8262000246565b9050919050565b600073ffffffffffffffffffffffffffffffffffffffff82169050919050565b600060028204905060018216806200027f57607f821691505b602082108114156200029657620002956200029c565b5b50919050565b7f4e487b7100000000000000000000000000000000000000000000000000000000600052602260045260246000fd5b600080fd5b620002db8162000232565b8114620002e757600080fd5b50565b61193280620002fa6000396000f3fe6080604052600436106100c25760003560e01c80634451d89f1161007f578063a0712d6811610059578063a0712d6814610271578063a457c2d71461028d578063a9059cbb146102ca578063dd62ed3e14610307576100c2565b80634451d89f146101ff57806370a082311461020957806395d89b4114610246576100c2565b806306fdde03146100c7578063095ea7b3146100f257806318160ddd1461012f57806323b872dd1461015a578063313ce5671461019757806339509351146101c2575b600080fd5b3480156100d357600080fd5b506100dc610344565b6040516100e9919061124f565b60405180910390f35b3480156100fe57600080fd5b5061011960048036038101906101149190610f89565b6103d6565b6040516101269190611234565b60405180910390f35b34801561013b57600080fd5b506101446103f9565b60405161015191906113d1565b60405180910390f35b34801561016657600080fd5b50610181600480360381019061017c9190610f36565b610403565b60405161018e9190611234565b60405180910390f35b3480156101a357600080fd5b506101ac610432565b6040516101b991906113ec565b60405180910390f35b3480156101ce57600080fd5b506101e960048036038101906101e49190610f89565b61043b565b6040516101f69190611234565b60405180910390f35b610207610472565b005b34801561021557600080fd5b50610230600480360381019061022b9190610ec9565b61056d565b60405161023d91906113d1565b60405180910390f35b34801561025257600080fd5b5061025b6105b5565b604051610268919061124f565b60405180910390f35b61028b60048036038101906102869190610fc9565b610647565b005b34801561029957600080fd5b506102b460048036038101906102af9190610f89565b61071f565b6040516102c19190611234565b60405180910390f35b3480156102d657600080fd5b506102f160048036038101906102ec9190610f89565b610796565b6040516102fe9190611234565b60405180910390f35b34801561031357600080fd5b5061032e60048036038101906103299190610ef6565b6107b9565b60405161033b91906113d1565b60405180910390f35b6060600380546103539061155b565b80601f016020809104026020016040519081016040528092919081815260200182805461037f9061155b565b80156103cc5780601f106103a1576101008083540402835291602001916103cc565b820191906000526020600020905b8154815290600101906020018083116103af57829003601f168201915b5050505050905090565b6000806103e1610840565b90506103ee818585610848565b600191505092915050565b6000600254905090565b60008061040e610840565b905061041b858285610a13565b610426858585610a9f565b60019150509392505050565b60006012905090565b600080610446610840565b905061046781858561045885896107b9565b6104629190611423565b610848565b600191505092915050565b60003390506000600760009054906101000a900473ffffffffffffffffffffffffffffffffffffffff1673ffffffffffffffffffffffffffffffffffffffff166370a08231836040518263ffffffff1660e01b81526004016104d49190611219565b60206040518083038186803b1580156104ec57600080fd5b505afa158015610500573d6000803e3d6000fd5b505050506040513d601f19601f820116820180604052508101906105249190610ff6565b905060008114610569576040517f08c379a000000000000000000000000000000000000000000000000000000000815260040161056090611331565b60405180910390fd5b5050565b60008060008373ffffffffffffffffffffffffffffffffffffffff1673ffffffffffffffffffffffffffffffffffffffff168152602001908152602001600020549050919050565b6060600480546105c49061155b565b80601f01602080910402602001604051908101604052809291908181526020018280546105f09061155b565b801561063d5780601f106106125761010080835404028352916020019161063d565b820191906000526020600020905b81548152906001019060200180831161062057829003601f168201915b5050505050905090565b600066038d7ea4c680008261065c9190611479565b9050803410156106a1576040517f08c379a000000000000000000000000000000000000000000000000000000000815260040161069890611271565b60405180910390fd5b6000670de0b6b3a7640000826106b79190611479565b9050600654816106c56103f9565b6106cf9190611423565b1115610710576040517f08c379a000000000000000000000000000000000000000000000000000000000815260040161070790611311565b60405180910390fd5b61071a3382610d20565b505050565b60008061072a610840565b9050600061073882866107b9565b90508381101561077d576040517f08c379a000000000000000000000000000000000000000000000000000000000815260040161077490611391565b60405180910390fd5b61078a8286868403610848565b60019250505092915050565b6000806107a1610840565b90506107ae818585610a9f565b600191505092915050565b6000600160008473ffffffffffffffffffffffffffffffffffffffff1673ffffffffffffffffffffffffffffffffffffffff16815260200190815260200160002060008373ffffffffffffffffffffffffffffffffffffffff1673ffffffffffffffffffffffffffffffffffffffff16815260200190815260200160002054905092915050565b600033905090565b600073ffffffffffffffffffffffffffffffffffffffff168373ffffffffffffffffffffffffffffffffffffffff1614156108b8576040517f08c379a00000000000000000000000000000000000000000000000000000000081526004016108af90611371565b60405180910390fd5b600073ffffffffffffffffffffffffffffffffffffffff168273ffffffffffffffffffffffffffffffffffffffff161415610928576040517f08c379a000000000000000000000000000000000000000000000000000000000815260040161091f906112b1565b60405180910390fd5b80600160008573ffffffffffffffffffffffffffffffffffffffff1673ffffffffffffffffffffffffffffffffffffffff16815260200190815260200160002060008473ffffffffffffffffffffffffffffffffffffffff1673ffffffffffffffffffffffffffffffffffffffff168152602001908152602001600020819055508173ffffffffffffffffffffffffffffffffffffffff168373ffffffffffffffffffffffffffffffffffffffff167f8c5be1e5ebec7d5bd14f71427d1e84f3dd0314c0f7b2291e5b200ac8c7c3b92583604051610a0691906113d1565b60405180910390a3505050565b6000610a1f84846107b9565b90507fffffffffffffffffffffffffffffffffffffffffffffffffffffffffffffffff8114610a995781811015610a8b576040517f08c379a0000000000000000000000000000000000000000000000000000000008152600401610a82906112d1565b60405180910390fd5b610a988484848403610848565b5b50505050565b600073ffffffffffffffffffffffffffffffffffffffff168373ffffffffffffffffffffffffffffffffffffffff161415610b0f576040517f08c379a0000000000000000000000000000000000000000000000000000000008152600401610b0690611351565b60405180910390fd5b600073ffffffffffffffffffffffffffffffffffffffff168273ffffffffffffffffffffffffffffffffffffffff161415610b7f576040517f08c379a0000000000000000000000000000000000000000000000000000000008152600401610b7690611291565b60405180910390fd5b610b8a838383610e80565b60008060008573ffffffffffffffffffffffffffffffffffffffff1673ffffffffffffffffffffffffffffffffffffffff16815260200190815260200160002054905081811015610c10576040517f08c379a0000000000000000000000000000000000000000000000000000000008152600401610c07906112f1565b60405180910390fd5b8181036000808673ffffffffffffffffffffffffffffffffffffffff1673ffffffffffffffffffffffffffffffffffffffff16815260200190815260200160002081905550816000808573ffffffffffffffffffffffffffffffffffffffff1673ffffffffffffffffffffffffffffffffffffffff1681526020019081526020016000206000828254610ca39190611423565b925050819055508273ffffffffffffffffffffffffffffffffffffffff168473ffffffffffffffffffffffffffffffffffffffff167fddf252ad1be2c89b69c2b068fc378daa952ba7f163c4a11628f55a4df523b3ef84604051610d0791906113d1565b60405180910390a3610d1a848484610e85565b50505050565b600073ffffffffffffffffffffffffffffffffffffffff168273ffffffffffffffffffffffffffffffffffffffff161415610d90576040517f08c379a0000000000000000000000000000000000000000000000000000000008152600401610d87906113b1565b60405180910390fd5b610d9c60008383610e80565b8060026000828254610dae9190611423565b92505081905550806000808473ffffffffffffffffffffffffffffffffffffffff1673ffffffffffffffffffffffffffffffffffffffff1681526020019081526020016000206000828254610e039190611423565b925050819055508173ffffffffffffffffffffffffffffffffffffffff16600073ffffffffffffffffffffffffffffffffffffffff167fddf252ad1be2c89b69c2b068fc378daa952ba7f163c4a11628f55a4df523b3ef83604051610e6891906113d1565b60405180910390a3610e7c60008383610e85565b5050565b505050565b505050565b600081359050610e99816118ce565b92915050565b600081359050610eae816118e5565b92915050565b600081519050610ec3816118e5565b92915050565b600060208284031215610edf57610ede6115eb565b5b6000610eed84828501610e8a565b91505092915050565b60008060408385031215610f0d57610f0c6115eb565b5b6000610f1b85828601610e8a565b9250506020610f2c85828601610e8a565b9150509250929050565b600080600060608486031215610f4f57610f4e6115eb565b5b6000610f5d86828701610e8a565b9350506020610f6e86828701610e8a565b9250506040610f7f86828701610e9f565b9150509250925092565b60008060408385031215610fa057610f9f6115eb565b5b6000610fae85828601610e8a565b9250506020610fbf85828601610e9f565b9150509250929050565b600060208284031215610fdf57610fde6115eb565b5b6000610fed84828501610e9f565b91505092915050565b60006020828403121561100c5761100b6115eb565b5b600061101a84828501610eb4565b91505092915050565b61102c816114d3565b82525050565b61103b816114e5565b82525050565b600061104c82611407565b6110568185611412565b9350611066818560208601611528565b61106f816115f0565b840191505092915050565b6000611087601483611412565b915061109282611601565b602082019050919050565b60006110aa602383611412565b91506110b58261162a565b604082019050919050565b60006110cd602283611412565b91506110d882611679565b604082019050919050565b60006110f0601d83611412565b91506110fb826116c8565b602082019050919050565b6000611113602683611412565b915061111e826116f1565b604082019050919050565b6000611136601683611412565b915061114182611740565b602082019050919050565b6000611159602383611412565b915061116482611769565b604082019050919050565b600061117c602583611412565b9150611187826117b8565b604082019050919050565b600061119f602483611412565b91506111aa82611807565b604082019050919050565b60006111c2602583611412565b91506111cd82611856565b604082019050919050565b60006111e5601f83611412565b91506111f0826118a5565b602082019050919050565b61120481611511565b82525050565b6112138161151b565b82525050565b600060208201905061122e6000830184611023565b92915050565b60006020820190506112496000830184611032565b92915050565b600060208201905081810360008301526112698184611041565b905092915050565b6000602082019050818103600083015261128a8161107a565b9050919050565b600060208201905081810360008301526112aa8161109d565b9050919050565b600060208201905081810360008301526112ca816110c0565b9050919050565b600060208201905081810360008301526112ea816110e3565b9050919050565b6000602082019050818103600083015261130a81611106565b9050919050565b6000602082019050818103600083015261132a81611129565b9050919050565b6000602082019050818103600083015261134a8161114c565b9050919050565b6000602082019050818103600083015261136a8161116f565b9050919050565b6000602082019050818103600083015261138a81611192565b9050919050565b600060208201905081810360008301526113aa816111b5565b9050919050565b600060208201905081810360008301526113ca816111d8565b9050919050565b60006020820190506113e660008301846111fb565b92915050565b6000602082019050611401600083018461120a565b92915050565b600081519050919050565b600082825260208201905092915050565b600061142e82611511565b915061143983611511565b9250827fffffffffffffffffffffffffffffffffffffffffffffffffffffffffffffffff0382111561146e5761146d61158d565b5b828201905092915050565b600061148482611511565b915061148f83611511565b9250817fffffffffffffffffffffffffffffffffffffffffffffffffffffffffffffffff04831182151516156114c8576114c761158d565b5b828202905092915050565b60006114de826114f1565b9050919050565b60008115159050919050565b600073ffffffffffffffffffffffffffffffffffffffff82169050919050565b6000819050919050565b600060ff82169050919050565b60005b8381101561154657808201518184015260208101905061152b565b83811115611555576000848401525b50505050565b6000600282049050600182168061157357607f821691505b60208210811415611587576115866115bc565b5b50919050565b7f4e487b7100000000000000000000000000000000000000000000000000000000600052601160045260246000fd5b7f4e487b7100000000000000000000000000000000000000000000000000000000600052602260045260246000fd5b600080fd5b6000601f19601f8301169050919050565b7f496e636f72726563742065746865722073656e74000000000000000000000000600082015250565b7f45524332303a207472616e7366657220746f20746865207a65726f206164647260008201527f6573730000000000000000000000000000000000000000000000000000000000602082015250565b7f45524332303a20617070726f766520746f20746865207a65726f20616464726560008201527f7373000000000000000000000000000000000000000000000000000000000000602082015250565b7f45524332303a20696e73756666696369656e7420616c6c6f77616e6365000000600082015250565b7f45524332303a207472616e7366657220616d6f756e742065786365656473206260008201527f616c616e63650000000000000000000000000000000000000000000000000000602082015250565b7f4d6178696d756d20737570706c79207265616368656400000000000000000000600082015250565b7f596f7520646f206e6f74206861766520616e79204d7574616e7420417065732060008201527f4e46540000000000000000000000000000000000000000000000000000000000602082015250565b7f45524332303a207472616e736665722066726f6d20746865207a65726f20616460008201527f6472657373000000000000000000000000000000000000000000000000000000602082015250565b7f45524332303a20617070726f76652066726f6d20746865207a65726f2061646460008201527f7265737300000000000000000000000000000000000000000000000000000000602082015250565b7f45524332303a2064656372656173656420616c6c6f77616e63652062656c6f7760008201527f207a65726f000000000000000000000000000000000000000000000000000000602082015250565b7f45524332303a206d696e7420746f20746865207a65726f206164647265737300600082015250565b6118d7816114d3565b81146118e257600080fd5b50565b6118ee81611511565b81146118f957600080fd5b5056fea264697066735822122039f3de8085988526d237690a62fb1052ca2f883f1501de50a7b1635c7980baf564736f6c63430008070033",
					"opcodes": "PUSH1 0x80 PUSH1 0x40 MSTORE PUSH8 0x8AC7230489E80000 PUSH1 0x5 SSTORE PUSH10 0x21E19E0C9BAB2400000 PUSH1 0x6 SSTORE CALLVALUE DUP1 ISZERO PUSH3 0x2B JUMPI PUSH1 0x0 DUP1 REVERT JUMPDEST POP PUSH1 0x40 MLOAD PUSH3 0x1C2C CODESIZE SUB DUP1 PUSH3 0x1C2C DUP4 CODECOPY DUP2 DUP2 ADD PUSH1 0x40 MSTORE DUP2 ADD SWAP1 PUSH3 0x51 SWAP2 SWAP1 PUSH3 0x200 JUMP JUMPDEST PUSH1 0x40 MLOAD DUP1 PUSH1 0x40 ADD PUSH1 0x40 MSTORE DUP1 PUSH1 0xB DUP2 MSTORE PUSH1 0x20 ADD PUSH32 0x546F6D69776120436F696E000000000000000000000000000000000000000000 DUP2 MSTORE POP PUSH1 0x40 MLOAD DUP1 PUSH1 0x40 ADD PUSH1 0x40 MSTORE DUP1 PUSH1 0x2 DUP2 MSTORE PUSH1 0x20 ADD PUSH32 0x5443000000000000000000000000000000000000000000000000000000000000 DUP2 MSTORE POP DUP2 PUSH1 0x3 SWAP1 DUP1 MLOAD SWAP1 PUSH1 0x20 ADD SWAP1 PUSH3 0xD5 SWAP3 SWAP2 SWAP1 PUSH3 0x139 JUMP JUMPDEST POP DUP1 PUSH1 0x4 SWAP1 DUP1 MLOAD SWAP1 PUSH1 0x20 ADD SWAP1 PUSH3 0xEE SWAP3 SWAP2 SWAP1 PUSH3 0x139 JUMP JUMPDEST POP POP POP DUP1 PUSH1 0x7 PUSH1 0x0 PUSH2 0x100 EXP DUP2 SLOAD DUP2 PUSH20 0xFFFFFFFFFFFFFFFFFFFFFFFFFFFFFFFFFFFFFFFF MUL NOT AND SWAP1 DUP4 PUSH20 0xFFFFFFFFFFFFFFFFFFFFFFFFFFFFFFFFFFFFFFFF AND MUL OR SWAP1 SSTORE POP POP PUSH3 0x2EA JUMP JUMPDEST DUP3 DUP1 SLOAD PUSH3 0x147 SWAP1 PUSH3 0x266 JUMP JUMPDEST SWAP1 PUSH1 0x0 MSTORE PUSH1 0x20 PUSH1 0x0 KECCAK256 SWAP1 PUSH1 0x1F ADD PUSH1 0x20 SWAP1 DIV DUP2 ADD SWAP3 DUP3 PUSH3 0x16B JUMPI PUSH1 0x0 DUP6 SSTORE PUSH3 0x1B7 JUMP JUMPDEST DUP3 PUSH1 0x1F LT PUSH3 0x186 JUMPI DUP1 MLOAD PUSH1 0xFF NOT AND DUP4 DUP1 ADD OR DUP6 SSTORE PUSH3 0x1B7 JUMP JUMPDEST DUP3 DUP1 ADD PUSH1 0x1 ADD DUP6 SSTORE DUP3 ISZERO PUSH3 0x1B7 JUMPI SWAP2 DUP3 ADD JUMPDEST DUP3 DUP2 GT ISZERO PUSH3 0x1B6 JUMPI DUP3 MLOAD DUP3 SSTORE SWAP2 PUSH1 0x20 ADD SWAP2 SWAP1 PUSH1 0x1 ADD SWAP1 PUSH3 0x199 JUMP JUMPDEST JUMPDEST POP SWAP1 POP PUSH3 0x1C6 SWAP2 SWAP1 PUSH3 0x1CA JUMP JUMPDEST POP SWAP1 JUMP JUMPDEST JUMPDEST DUP1 DUP3 GT ISZERO PUSH3 0x1E5 JUMPI PUSH1 0x0 DUP2 PUSH1 0x0 SWAP1 SSTORE POP PUSH1 0x1 ADD PUSH3 0x1CB JUMP JUMPDEST POP SWAP1 JUMP JUMPDEST PUSH1 0x0 DUP2 MLOAD SWAP1 POP PUSH3 0x1FA DUP2 PUSH3 0x2D0 JUMP JUMPDEST SWAP3 SWAP2 POP POP JUMP JUMPDEST PUSH1 0x0 PUSH1 0x20 DUP3 DUP5 SUB SLT ISZERO PUSH3 0x219 JUMPI PUSH3 0x218 PUSH3 0x2CB JUMP JUMPDEST JUMPDEST PUSH1 0x0 PUSH3 0x229 DUP5 DUP3 DUP6 ADD PUSH3 0x1E9 JUMP JUMPDEST SWAP2 POP POP SWAP3 SWAP2 POP POP JUMP JUMPDEST PUSH1 0x0 PUSH3 0x23F DUP3 PUSH3 0x246 JUMP JUMPDEST SWAP1 POP SWAP2 SWAP1 POP JUMP JUMPDEST PUSH1 0x0 PUSH20 0xFFFFFFFFFFFFFFFFFFFFFFFFFFFFFFFFFFFFFFFF DUP3 AND SWAP1 POP SWAP2 SWAP1 POP JUMP JUMPDEST PUSH1 0x0 PUSH1 0x2 DUP3 DIV SWAP1 POP PUSH1 0x1 DUP3 AND DUP1 PUSH3 0x27F JUMPI PUSH1 0x7F DUP3 AND SWAP2 POP JUMPDEST PUSH1 0x20 DUP3 LT DUP2 EQ ISZERO PUSH3 0x296 JUMPI PUSH3 0x295 PUSH3 0x29C JUMP JUMPDEST JUMPDEST POP SWAP2 SWAP1 POP JUMP JUMPDEST PUSH32 0x4E487B7100000000000000000000000000000000000000000000000000000000 PUSH1 0x0 MSTORE PUSH1 0x22 PUSH1 0x4 MSTORE PUSH1 0x24 PUSH1 0x0 REVERT JUMPDEST PUSH1 0x0 DUP1 REVERT JUMPDEST PUSH3 0x2DB DUP2 PUSH3 0x232 JUMP JUMPDEST DUP2 EQ PUSH3 0x2E7 JUMPI PUSH1 0x0 DUP1 REVERT JUMPDEST POP JUMP JUMPDEST PUSH2 0x1932 DUP1 PUSH3 0x2FA PUSH1 0x0 CODECOPY PUSH1 0x0 RETURN INVALID PUSH1 0x80 PUSH1 0x40 MSTORE PUSH1 0x4 CALLDATASIZE LT PUSH2 0xC2 JUMPI PUSH1 0x0 CALLDATALOAD PUSH1 0xE0 SHR DUP1 PUSH4 0x4451D89F GT PUSH2 0x7F JUMPI DUP1 PUSH4 0xA0712D68 GT PUSH2 0x59 JUMPI DUP1 PUSH4 0xA0712D68 EQ PUSH2 0x271 JUMPI DUP1 PUSH4 0xA457C2D7 EQ PUSH2 0x28D JUMPI DUP1 PUSH4 0xA9059CBB EQ PUSH2 0x2CA JUMPI DUP1 PUSH4 0xDD62ED3E EQ PUSH2 0x307 JUMPI PUSH2 0xC2 JUMP JUMPDEST DUP1 PUSH4 0x4451D89F EQ PUSH2 0x1FF JUMPI DUP1 PUSH4 0x70A08231 EQ PUSH2 0x209 JUMPI DUP1 PUSH4 0x95D89B41 EQ PUSH2 0x246 JUMPI PUSH2 0xC2 JUMP JUMPDEST DUP1 PUSH4 0x6FDDE03 EQ PUSH2 0xC7 JUMPI DUP1 PUSH4 0x95EA7B3 EQ PUSH2 0xF2 JUMPI DUP1 PUSH4 0x18160DDD EQ PUSH2 0x12F JUMPI DUP1 PUSH4 0x23B872DD EQ PUSH2 0x15A JUMPI DUP1 PUSH4 0x313CE567 EQ PUSH2 0x197 JUMPI DUP1 PUSH4 0x39509351 EQ PUSH2 0x1C2 JUMPI JUMPDEST PUSH1 0x0 DUP1 REVERT JUMPDEST CALLVALUE DUP1 ISZERO PUSH2 0xD3 JUMPI PUSH1 0x0 DUP1 REVERT JUMPDEST POP PUSH2 0xDC PUSH2 0x344 JUMP JUMPDEST PUSH1 0x40 MLOAD PUSH2 0xE9 SWAP2 SWAP1 PUSH2 0x124F JUMP JUMPDEST PUSH1 0x40 MLOAD DUP1 SWAP2 SUB SWAP1 RETURN JUMPDEST CALLVALUE DUP1 ISZERO PUSH2 0xFE JUMPI PUSH1 0x0 DUP1 REVERT JUMPDEST POP PUSH2 0x119 PUSH1 0x4 DUP1 CALLDATASIZE SUB DUP2 ADD SWAP1 PUSH2 0x114 SWAP2 SWAP1 PUSH2 0xF89 JUMP JUMPDEST PUSH2 0x3D6 JUMP JUMPDEST PUSH1 0x40 MLOAD PUSH2 0x126 SWAP2 SWAP1 PUSH2 0x1234 JUMP JUMPDEST PUSH1 0x40 MLOAD DUP1 SWAP2 SUB SWAP1 RETURN JUMPDEST CALLVALUE DUP1 ISZERO PUSH2 0x13B JUMPI PUSH1 0x0 DUP1 REVERT JUMPDEST POP PUSH2 0x144 PUSH2 0x3F9 JUMP JUMPDEST PUSH1 0x40 MLOAD PUSH2 0x151 SWAP2 SWAP1 PUSH2 0x13D1 JUMP JUMPDEST PUSH1 0x40 MLOAD DUP1 SWAP2 SUB SWAP1 RETURN JUMPDEST CALLVALUE DUP1 ISZERO PUSH2 0x166 JUMPI PUSH1 0x0 DUP1 REVERT JUMPDEST POP PUSH2 0x181 PUSH1 0x4 DUP1 CALLDATASIZE SUB DUP2 ADD SWAP1 PUSH2 0x17C SWAP2 SWAP1 PUSH2 0xF36 JUMP JUMPDEST PUSH2 0x403 JUMP JUMPDEST PUSH1 0x40 MLOAD PUSH2 0x18E SWAP2 SWAP1 PUSH2 0x1234 JUMP JUMPDEST PUSH1 0x40 MLOAD DUP1 SWAP2 SUB SWAP1 RETURN JUMPDEST CALLVALUE DUP1 ISZERO PUSH2 0x1A3 JUMPI PUSH1 0x0 DUP1 REVERT JUMPDEST POP PUSH2 0x1AC PUSH2 0x432 JUMP JUMPDEST PUSH1 0x40 MLOAD PUSH2 0x1B9 SWAP2 SWAP1 PUSH2 0x13EC JUMP JUMPDEST PUSH1 0x40 MLOAD DUP1 SWAP2 SUB SWAP1 RETURN JUMPDEST CALLVALUE DUP1 ISZERO PUSH2 0x1CE JUMPI PUSH1 0x0 DUP1 REVERT JUMPDEST POP PUSH2 0x1E9 PUSH1 0x4 DUP1 CALLDATASIZE SUB DUP2 ADD SWAP1 PUSH2 0x1E4 SWAP2 SWAP1 PUSH2 0xF89 JUMP JUMPDEST PUSH2 0x43B JUMP JUMPDEST PUSH1 0x40 MLOAD PUSH2 0x1F6 SWAP2 SWAP1 PUSH2 0x1234 JUMP JUMPDEST PUSH1 0x40 MLOAD DUP1 SWAP2 SUB SWAP1 RETURN JUMPDEST PUSH2 0x207 PUSH2 0x472 JUMP JUMPDEST STOP JUMPDEST CALLVALUE DUP1 ISZERO PUSH2 0x215 JUMPI PUSH1 0x0 DUP1 REVERT JUMPDEST POP PUSH2 0x230 PUSH1 0x4 DUP1 CALLDATASIZE SUB DUP2 ADD SWAP1 PUSH2 0x22B SWAP2 SWAP1 PUSH2 0xEC9 JUMP JUMPDEST PUSH2 0x56D JUMP JUMPDEST PUSH1 0x40 MLOAD PUSH2 0x23D SWAP2 SWAP1 PUSH2 0x13D1 JUMP JUMPDEST PUSH1 0x40 MLOAD DUP1 SWAP2 SUB SWAP1 RETURN JUMPDEST CALLVALUE DUP1 ISZERO PUSH2 0x252 JUMPI PUSH1 0x0 DUP1 REVERT JUMPDEST POP PUSH2 0x25B PUSH2 0x5B5 JUMP JUMPDEST PUSH1 0x40 MLOAD PUSH2 0x268 SWAP2 SWAP1 PUSH2 0x124F JUMP JUMPDEST PUSH1 0x40 MLOAD DUP1 SWAP2 SUB SWAP1 RETURN JUMPDEST PUSH2 0x28B PUSH1 0x4 DUP1 CALLDATASIZE SUB DUP2 ADD SWAP1 PUSH2 0x286 SWAP2 SWAP1 PUSH2 0xFC9 JUMP JUMPDEST PUSH2 0x647 JUMP JUMPDEST STOP JUMPDEST CALLVALUE DUP1 ISZERO PUSH2 0x299 JUMPI PUSH1 0x0 DUP1 REVERT JUMPDEST POP PUSH2 0x2B4 PUSH1 0x4 DUP1 CALLDATASIZE SUB DUP2 ADD SWAP1 PUSH2 0x2AF SWAP2 SWAP1 PUSH2 0xF89 JUMP JUMPDEST PUSH2 0x71F JUMP JUMPDEST PUSH1 0x40 MLOAD PUSH2 0x2C1 SWAP2 SWAP1 PUSH2 0x1234 JUMP JUMPDEST PUSH1 0x40 MLOAD DUP1 SWAP2 SUB SWAP1 RETURN JUMPDEST CALLVALUE DUP1 ISZERO PUSH2 0x2D6 JUMPI PUSH1 0x0 DUP1 REVERT JUMPDEST POP PUSH2 0x2F1 PUSH1 0x4 DUP1 CALLDATASIZE SUB DUP2 ADD SWAP1 PUSH2 0x2EC SWAP2 SWAP1 PUSH2 0xF89 JUMP JUMPDEST PUSH2 0x796 JUMP JUMPDEST PUSH1 0x40 MLOAD PUSH2 0x2FE SWAP2 SWAP1 PUSH2 0x1234 JUMP JUMPDEST PUSH1 0x40 MLOAD DUP1 SWAP2 SUB SWAP1 RETURN JUMPDEST CALLVALUE DUP1 ISZERO PUSH2 0x313 JUMPI PUSH1 0x0 DUP1 REVERT JUMPDEST POP PUSH2 0x32E PUSH1 0x4 DUP1 CALLDATASIZE SUB DUP2 ADD SWAP1 PUSH2 0x329 SWAP2 SWAP1 PUSH2 0xEF6 JUMP JUMPDEST PUSH2 0x7B9 JUMP JUMPDEST PUSH1 0x40 MLOAD PUSH2 0x33B SWAP2 SWAP1 PUSH2 0x13D1 JUMP JUMPDEST PUSH1 0x40 MLOAD DUP1 SWAP2 SUB SWAP1 RETURN JUMPDEST PUSH1 0x60 PUSH1 0x3 DUP1 SLOAD PUSH2 0x353 SWAP1 PUSH2 0x155B JUMP JUMPDEST DUP1 PUSH1 0x1F ADD PUSH1 0x20 DUP1 SWAP2 DIV MUL PUSH1 0x20 ADD PUSH1 0x40 MLOAD SWAP1 DUP2 ADD PUSH1 0x40 MSTORE DUP1 SWAP3 SWAP2 SWAP1 DUP2 DUP2 MSTORE PUSH1 0x20 ADD DUP3 DUP1 SLOAD PUSH2 0x37F SWAP1 PUSH2 0x155B JUMP JUMPDEST DUP1 ISZERO PUSH2 0x3CC JUMPI DUP1 PUSH1 0x1F LT PUSH2 0x3A1 JUMPI PUSH2 0x100 DUP1 DUP4 SLOAD DIV MUL DUP4 MSTORE SWAP2 PUSH1 0x20 ADD SWAP2 PUSH2 0x3CC JUMP JUMPDEST DUP3 ADD SWAP2 SWAP1 PUSH1 0x0 MSTORE PUSH1 0x20 PUSH1 0x0 KECCAK256 SWAP1 JUMPDEST DUP2 SLOAD DUP2 MSTORE SWAP1 PUSH1 0x1 ADD SWAP1 PUSH1 0x20 ADD DUP1 DUP4 GT PUSH2 0x3AF JUMPI DUP3 SWAP1 SUB PUSH1 0x1F AND DUP3 ADD SWAP2 JUMPDEST POP POP POP POP POP SWAP1 POP SWAP1 JUMP JUMPDEST PUSH1 0x0 DUP1 PUSH2 0x3E1 PUSH2 0x840 JUMP JUMPDEST SWAP1 POP PUSH2 0x3EE DUP2 DUP6 DUP6 PUSH2 0x848 JUMP JUMPDEST PUSH1 0x1 SWAP2 POP POP SWAP3 SWAP2 POP POP JUMP JUMPDEST PUSH1 0x0 PUSH1 0x2 SLOAD SWAP1 POP SWAP1 JUMP JUMPDEST PUSH1 0x0 DUP1 PUSH2 0x40E PUSH2 0x840 JUMP JUMPDEST SWAP1 POP PUSH2 0x41B DUP6 DUP3 DUP6 PUSH2 0xA13 JUMP JUMPDEST PUSH2 0x426 DUP6 DUP6 DUP6 PUSH2 0xA9F JUMP JUMPDEST PUSH1 0x1 SWAP2 POP POP SWAP4 SWAP3 POP POP POP JUMP JUMPDEST PUSH1 0x0 PUSH1 0x12 SWAP1 POP SWAP1 JUMP JUMPDEST PUSH1 0x0 DUP1 PUSH2 0x446 PUSH2 0x840 JUMP JUMPDEST SWAP1 POP PUSH2 0x467 DUP2 DUP6 DUP6 PUSH2 0x458 DUP6 DUP10 PUSH2 0x7B9 JUMP JUMPDEST PUSH2 0x462 SWAP2 SWAP1 PUSH2 0x1423 JUMP JUMPDEST PUSH2 0x848 JUMP JUMPDEST PUSH1 0x1 SWAP2 POP POP SWAP3 SWAP2 POP POP JUMP JUMPDEST PUSH1 0x0 CALLER SWAP1 POP PUSH1 0x0 PUSH1 0x7 PUSH1 0x0 SWAP1 SLOAD SWAP1 PUSH2 0x100 EXP SWAP1 DIV PUSH20 0xFFFFFFFFFFFFFFFFFFFFFFFFFFFFFFFFFFFFFFFF AND PUSH20 0xFFFFFFFFFFFFFFFFFFFFFFFFFFFFFFFFFFFFFFFF AND PUSH4 0x70A08231 DUP4 PUSH1 0x40 MLOAD DUP3 PUSH4 0xFFFFFFFF AND PUSH1 0xE0 SHL DUP2 MSTORE PUSH1 0x4 ADD PUSH2 0x4D4 SWAP2 SWAP1 PUSH2 0x1219 JUMP JUMPDEST PUSH1 0x20 PUSH1 0x40 MLOAD DUP1 DUP4 SUB DUP2 DUP7 DUP1 EXTCODESIZE ISZERO DUP1 ISZERO PUSH2 0x4EC JUMPI PUSH1 0x0 DUP1 REVERT JUMPDEST POP GAS STATICCALL ISZERO DUP1 ISZERO PUSH2 0x500 JUMPI RETURNDATASIZE PUSH1 0x0 DUP1 RETURNDATACOPY RETURNDATASIZE PUSH1 0x0 REVERT JUMPDEST POP POP POP POP PUSH1 0x40 MLOAD RETURNDATASIZE PUSH1 0x1F NOT PUSH1 0x1F DUP3 ADD AND DUP3 ADD DUP1 PUSH1 0x40 MSTORE POP DUP2 ADD SWAP1 PUSH2 0x524 SWAP2 SWAP1 PUSH2 0xFF6 JUMP JUMPDEST SWAP1 POP PUSH1 0x0 DUP2 EQ PUSH2 0x569 JUMPI PUSH1 0x40 MLOAD PUSH32 0x8C379A000000000000000000000000000000000000000000000000000000000 DUP2 MSTORE PUSH1 0x4 ADD PUSH2 0x560 SWAP1 PUSH2 0x1331 JUMP JUMPDEST PUSH1 0x40 MLOAD DUP1 SWAP2 SUB SWAP1 REVERT JUMPDEST POP POP JUMP JUMPDEST PUSH1 0x0 DUP1 PUSH1 0x0 DUP4 PUSH20 0xFFFFFFFFFFFFFFFFFFFFFFFFFFFFFFFFFFFFFFFF AND PUSH20 0xFFFFFFFFFFFFFFFFFFFFFFFFFFFFFFFFFFFFFFFF AND DUP2 MSTORE PUSH1 0x20 ADD SWAP1 DUP2 MSTORE PUSH1 0x20 ADD PUSH1 0x0 KECCAK256 SLOAD SWAP1 POP SWAP2 SWAP1 POP JUMP JUMPDEST PUSH1 0x60 PUSH1 0x4 DUP1 SLOAD PUSH2 0x5C4 SWAP1 PUSH2 0x155B JUMP JUMPDEST DUP1 PUSH1 0x1F ADD PUSH1 0x20 DUP1 SWAP2 DIV MUL PUSH1 0x20 ADD PUSH1 0x40 MLOAD SWAP1 DUP2 ADD PUSH1 0x40 MSTORE DUP1 SWAP3 SWAP2 SWAP1 DUP2 DUP2 MSTORE PUSH1 0x20 ADD DUP3 DUP1 SLOAD PUSH2 0x5F0 SWAP1 PUSH2 0x155B JUMP JUMPDEST DUP1 ISZERO PUSH2 0x63D JUMPI DUP1 PUSH1 0x1F LT PUSH2 0x612 JUMPI PUSH2 0x100 DUP1 DUP4 SLOAD DIV MUL DUP4 MSTORE SWAP2 PUSH1 0x20 ADD SWAP2 PUSH2 0x63D JUMP JUMPDEST DUP3 ADD SWAP2 SWAP1 PUSH1 0x0 MSTORE PUSH1 0x20 PUSH1 0x0 KECCAK256 SWAP1 JUMPDEST DUP2 SLOAD DUP2 MSTORE SWAP1 PUSH1 0x1 ADD SWAP1 PUSH1 0x20 ADD DUP1 DUP4 GT PUSH2 0x620 JUMPI DUP3 SWAP1 SUB PUSH1 0x1F AND DUP3 ADD SWAP2 JUMPDEST POP POP POP POP POP SWAP1 POP SWAP1 JUMP JUMPDEST PUSH1 0x0 PUSH7 0x38D7EA4C68000 DUP3 PUSH2 0x65C SWAP2 SWAP1 PUSH2 0x1479 JUMP JUMPDEST SWAP1 POP DUP1 CALLVALUE LT ISZERO PUSH2 0x6A1 JUMPI PUSH1 0x40 MLOAD PUSH32 0x8C379A000000000000000000000000000000000000000000000000000000000 DUP2 MSTORE PUSH1 0x4 ADD PUSH2 0x698 SWAP1 PUSH2 0x1271 JUMP JUMPDEST PUSH1 0x40 MLOAD DUP1 SWAP2 SUB SWAP1 REVERT JUMPDEST PUSH1 0x0 PUSH8 0xDE0B6B3A7640000 DUP3 PUSH2 0x6B7 SWAP2 SWAP1 PUSH2 0x1479 JUMP JUMPDEST SWAP1 POP PUSH1 0x6 SLOAD DUP2 PUSH2 0x6C5 PUSH2 0x3F9 JUMP JUMPDEST PUSH2 0x6CF SWAP2 SWAP1 PUSH2 0x1423 JUMP JUMPDEST GT ISZERO PUSH2 0x710 JUMPI PUSH1 0x40 MLOAD PUSH32 0x8C379A000000000000000000000000000000000000000000000000000000000 DUP2 MSTORE PUSH1 0x4 ADD PUSH2 0x707 SWAP1 PUSH2 0x1311 JUMP JUMPDEST PUSH1 0x40 MLOAD DUP1 SWAP2 SUB SWAP1 REVERT JUMPDEST PUSH2 0x71A CALLER DUP3 PUSH2 0xD20 JUMP JUMPDEST POP POP POP JUMP JUMPDEST PUSH1 0x0 DUP1 PUSH2 0x72A PUSH2 0x840 JUMP JUMPDEST SWAP1 POP PUSH1 0x0 PUSH2 0x738 DUP3 DUP7 PUSH2 0x7B9 JUMP JUMPDEST SWAP1 POP DUP4 DUP2 LT ISZERO PUSH2 0x77D JUMPI PUSH1 0x40 MLOAD PUSH32 0x8C379A000000000000000000000000000000000000000000000000000000000 DUP2 MSTORE PUSH1 0x4 ADD PUSH2 0x774 SWAP1 PUSH2 0x1391 JUMP JUMPDEST PUSH1 0x40 MLOAD DUP1 SWAP2 SUB SWAP1 REVERT JUMPDEST PUSH2 0x78A DUP3 DUP7 DUP7 DUP5 SUB PUSH2 0x848 JUMP JUMPDEST PUSH1 0x1 SWAP3 POP POP POP SWAP3 SWAP2 POP POP JUMP JUMPDEST PUSH1 0x0 DUP1 PUSH2 0x7A1 PUSH2 0x840 JUMP JUMPDEST SWAP1 POP PUSH2 0x7AE DUP2 DUP6 DUP6 PUSH2 0xA9F JUMP JUMPDEST PUSH1 0x1 SWAP2 POP POP SWAP3 SWAP2 POP POP JUMP JUMPDEST PUSH1 0x0 PUSH1 0x1 PUSH1 0x0 DUP5 PUSH20 0xFFFFFFFFFFFFFFFFFFFFFFFFFFFFFFFFFFFFFFFF AND PUSH20 0xFFFFFFFFFFFFFFFFFFFFFFFFFFFFFFFFFFFFFFFF AND DUP2 MSTORE PUSH1 0x20 ADD SWAP1 DUP2 MSTORE PUSH1 0x20 ADD PUSH1 0x0 KECCAK256 PUSH1 0x0 DUP4 PUSH20 0xFFFFFFFFFFFFFFFFFFFFFFFFFFFFFFFFFFFFFFFF AND PUSH20 0xFFFFFFFFFFFFFFFFFFFFFFFFFFFFFFFFFFFFFFFF AND DUP2 MSTORE PUSH1 0x20 ADD SWAP1 DUP2 MSTORE PUSH1 0x20 ADD PUSH1 0x0 KECCAK256 SLOAD SWAP1 POP SWAP3 SWAP2 POP POP JUMP JUMPDEST PUSH1 0x0 CALLER SWAP1 POP SWAP1 JUMP JUMPDEST PUSH1 0x0 PUSH20 0xFFFFFFFFFFFFFFFFFFFFFFFFFFFFFFFFFFFFFFFF AND DUP4 PUSH20 0xFFFFFFFFFFFFFFFFFFFFFFFFFFFFFFFFFFFFFFFF AND EQ ISZERO PUSH2 0x8B8 JUMPI PUSH1 0x40 MLOAD PUSH32 0x8C379A000000000000000000000000000000000000000000000000000000000 DUP2 MSTORE PUSH1 0x4 ADD PUSH2 0x8AF SWAP1 PUSH2 0x1371 JUMP JUMPDEST PUSH1 0x40 MLOAD DUP1 SWAP2 SUB SWAP1 REVERT JUMPDEST PUSH1 0x0 PUSH20 0xFFFFFFFFFFFFFFFFFFFFFFFFFFFFFFFFFFFFFFFF AND DUP3 PUSH20 0xFFFFFFFFFFFFFFFFFFFFFFFFFFFFFFFFFFFFFFFF AND EQ ISZERO PUSH2 0x928 JUMPI PUSH1 0x40 MLOAD PUSH32 0x8C379A000000000000000000000000000000000000000000000000000000000 DUP2 MSTORE PUSH1 0x4 ADD PUSH2 0x91F SWAP1 PUSH2 0x12B1 JUMP JUMPDEST PUSH1 0x40 MLOAD DUP1 SWAP2 SUB SWAP1 REVERT JUMPDEST DUP1 PUSH1 0x1 PUSH1 0x0 DUP6 PUSH20 0xFFFFFFFFFFFFFFFFFFFFFFFFFFFFFFFFFFFFFFFF AND PUSH20 0xFFFFFFFFFFFFFFFFFFFFFFFFFFFFFFFFFFFFFFFF AND DUP2 MSTORE PUSH1 0x20 ADD SWAP1 DUP2 MSTORE PUSH1 0x20 ADD PUSH1 0x0 KECCAK256 PUSH1 0x0 DUP5 PUSH20 0xFFFFFFFFFFFFFFFFFFFFFFFFFFFFFFFFFFFFFFFF AND PUSH20 0xFFFFFFFFFFFFFFFFFFFFFFFFFFFFFFFFFFFFFFFF AND DUP2 MSTORE PUSH1 0x20 ADD SWAP1 DUP2 MSTORE PUSH1 0x20 ADD PUSH1 0x0 KECCAK256 DUP2 SWAP1 SSTORE POP DUP2 PUSH20 0xFFFFFFFFFFFFFFFFFFFFFFFFFFFFFFFFFFFFFFFF AND DUP4 PUSH20 0xFFFFFFFFFFFFFFFFFFFFFFFFFFFFFFFFFFFFFFFF AND PUSH32 0x8C5BE1E5EBEC7D5BD14F71427D1E84F3DD0314C0F7B2291E5B200AC8C7C3B925 DUP4 PUSH1 0x40 MLOAD PUSH2 0xA06 SWAP2 SWAP1 PUSH2 0x13D1 JUMP JUMPDEST PUSH1 0x40 MLOAD DUP1 SWAP2 SUB SWAP1 LOG3 POP POP POP JUMP JUMPDEST PUSH1 0x0 PUSH2 0xA1F DUP5 DUP5 PUSH2 0x7B9 JUMP JUMPDEST SWAP1 POP PUSH32 0xFFFFFFFFFFFFFFFFFFFFFFFFFFFFFFFFFFFFFFFFFFFFFFFFFFFFFFFFFFFFFFFF DUP2 EQ PUSH2 0xA99 JUMPI DUP2 DUP2 LT ISZERO PUSH2 0xA8B JUMPI PUSH1 0x40 MLOAD PUSH32 0x8C379A000000000000000000000000000000000000000000000000000000000 DUP2 MSTORE PUSH1 0x4 ADD PUSH2 0xA82 SWAP1 PUSH2 0x12D1 JUMP JUMPDEST PUSH1 0x40 MLOAD DUP1 SWAP2 SUB SWAP1 REVERT JUMPDEST PUSH2 0xA98 DUP5 DUP5 DUP5 DUP5 SUB PUSH2 0x848 JUMP JUMPDEST JUMPDEST POP POP POP POP JUMP JUMPDEST PUSH1 0x0 PUSH20 0xFFFFFFFFFFFFFFFFFFFFFFFFFFFFFFFFFFFFFFFF AND DUP4 PUSH20 0xFFFFFFFFFFFFFFFFFFFFFFFFFFFFFFFFFFFFFFFF AND EQ ISZERO PUSH2 0xB0F JUMPI PUSH1 0x40 MLOAD PUSH32 0x8C379A000000000000000000000000000000000000000000000000000000000 DUP2 MSTORE PUSH1 0x4 ADD PUSH2 0xB06 SWAP1 PUSH2 0x1351 JUMP JUMPDEST PUSH1 0x40 MLOAD DUP1 SWAP2 SUB SWAP1 REVERT JUMPDEST PUSH1 0x0 PUSH20 0xFFFFFFFFFFFFFFFFFFFFFFFFFFFFFFFFFFFFFFFF AND DUP3 PUSH20 0xFFFFFFFFFFFFFFFFFFFFFFFFFFFFFFFFFFFFFFFF AND EQ ISZERO PUSH2 0xB7F JUMPI PUSH1 0x40 MLOAD PUSH32 0x8C379A000000000000000000000000000000000000000000000000000000000 DUP2 MSTORE PUSH1 0x4 ADD PUSH2 0xB76 SWAP1 PUSH2 0x1291 JUMP JUMPDEST PUSH1 0x40 MLOAD DUP1 SWAP2 SUB SWAP1 REVERT JUMPDEST PUSH2 0xB8A DUP4 DUP4 DUP4 PUSH2 0xE80 JUMP JUMPDEST PUSH1 0x0 DUP1 PUSH1 0x0 DUP6 PUSH20 0xFFFFFFFFFFFFFFFFFFFFFFFFFFFFFFFFFFFFFFFF AND PUSH20 0xFFFFFFFFFFFFFFFFFFFFFFFFFFFFFFFFFFFFFFFF AND DUP2 MSTORE PUSH1 0x20 ADD SWAP1 DUP2 MSTORE PUSH1 0x20 ADD PUSH1 0x0 KECCAK256 SLOAD SWAP1 POP DUP2 DUP2 LT ISZERO PUSH2 0xC10 JUMPI PUSH1 0x40 MLOAD PUSH32 0x8C379A000000000000000000000000000000000000000000000000000000000 DUP2 MSTORE PUSH1 0x4 ADD PUSH2 0xC07 SWAP1 PUSH2 0x12F1 JUMP JUMPDEST PUSH1 0x40 MLOAD DUP1 SWAP2 SUB SWAP1 REVERT JUMPDEST DUP2 DUP2 SUB PUSH1 0x0 DUP1 DUP7 PUSH20 0xFFFFFFFFFFFFFFFFFFFFFFFFFFFFFFFFFFFFFFFF AND PUSH20 0xFFFFFFFFFFFFFFFFFFFFFFFFFFFFFFFFFFFFFFFF AND DUP2 MSTORE PUSH1 0x20 ADD SWAP1 DUP2 MSTORE PUSH1 0x20 ADD PUSH1 0x0 KECCAK256 DUP2 SWAP1 SSTORE POP DUP2 PUSH1 0x0 DUP1 DUP6 PUSH20 0xFFFFFFFFFFFFFFFFFFFFFFFFFFFFFFFFFFFFFFFF AND PUSH20 0xFFFFFFFFFFFFFFFFFFFFFFFFFFFFFFFFFFFFFFFF AND DUP2 MSTORE PUSH1 0x20 ADD SWAP1 DUP2 MSTORE PUSH1 0x20 ADD PUSH1 0x0 KECCAK256 PUSH1 0x0 DUP3 DUP3 SLOAD PUSH2 0xCA3 SWAP2 SWAP1 PUSH2 0x1423 JUMP JUMPDEST SWAP3 POP POP DUP2 SWAP1 SSTORE POP DUP3 PUSH20 0xFFFFFFFFFFFFFFFFFFFFFFFFFFFFFFFFFFFFFFFF AND DUP5 PUSH20 0xFFFFFFFFFFFFFFFFFFFFFFFFFFFFFFFFFFFFFFFF AND PUSH32 0xDDF252AD1BE2C89B69C2B068FC378DAA952BA7F163C4A11628F55A4DF523B3EF DUP5 PUSH1 0x40 MLOAD PUSH2 0xD07 SWAP2 SWAP1 PUSH2 0x13D1 JUMP JUMPDEST PUSH1 0x40 MLOAD DUP1 SWAP2 SUB SWAP1 LOG3 PUSH2 0xD1A DUP5 DUP5 DUP5 PUSH2 0xE85 JUMP JUMPDEST POP POP POP POP JUMP JUMPDEST PUSH1 0x0 PUSH20 0xFFFFFFFFFFFFFFFFFFFFFFFFFFFFFFFFFFFFFFFF AND DUP3 PUSH20 0xFFFFFFFFFFFFFFFFFFFFFFFFFFFFFFFFFFFFFFFF AND EQ ISZERO PUSH2 0xD90 JUMPI PUSH1 0x40 MLOAD PUSH32 0x8C379A000000000000000000000000000000000000000000000000000000000 DUP2 MSTORE PUSH1 0x4 ADD PUSH2 0xD87 SWAP1 PUSH2 0x13B1 JUMP JUMPDEST PUSH1 0x40 MLOAD DUP1 SWAP2 SUB SWAP1 REVERT JUMPDEST PUSH2 0xD9C PUSH1 0x0 DUP4 DUP4 PUSH2 0xE80 JUMP JUMPDEST DUP1 PUSH1 0x2 PUSH1 0x0 DUP3 DUP3 SLOAD PUSH2 0xDAE SWAP2 SWAP1 PUSH2 0x1423 JUMP JUMPDEST SWAP3 POP POP DUP2 SWAP1 SSTORE POP DUP1 PUSH1 0x0 DUP1 DUP5 PUSH20 0xFFFFFFFFFFFFFFFFFFFFFFFFFFFFFFFFFFFFFFFF AND PUSH20 0xFFFFFFFFFFFFFFFFFFFFFFFFFFFFFFFFFFFFFFFF AND DUP2 MSTORE PUSH1 0x20 ADD SWAP1 DUP2 MSTORE PUSH1 0x20 ADD PUSH1 0x0 KECCAK256 PUSH1 0x0 DUP3 DUP3 SLOAD PUSH2 0xE03 SWAP2 SWAP1 PUSH2 0x1423 JUMP JUMPDEST SWAP3 POP POP DUP2 SWAP1 SSTORE POP DUP2 PUSH20 0xFFFFFFFFFFFFFFFFFFFFFFFFFFFFFFFFFFFFFFFF AND PUSH1 0x0 PUSH20 0xFFFFFFFFFFFFFFFFFFFFFFFFFFFFFFFFFFFFFFFF AND PUSH32 0xDDF252AD1BE2C89B69C2B068FC378DAA952BA7F163C4A11628F55A4DF523B3EF DUP4 PUSH1 0x40 MLOAD PUSH2 0xE68 SWAP2 SWAP1 PUSH2 0x13D1 JUMP JUMPDEST PUSH1 0x40 MLOAD DUP1 SWAP2 SUB SWAP1 LOG3 PUSH2 0xE7C PUSH1 0x0 DUP4 DUP4 PUSH2 0xE85 JUMP JUMPDEST POP POP JUMP JUMPDEST POP POP POP JUMP JUMPDEST POP POP POP JUMP JUMPDEST PUSH1 0x0 DUP2 CALLDATALOAD SWAP1 POP PUSH2 0xE99 DUP2 PUSH2 0x18CE JUMP JUMPDEST SWAP3 SWAP2 POP POP JUMP JUMPDEST PUSH1 0x0 DUP2 CALLDATALOAD SWAP1 POP PUSH2 0xEAE DUP2 PUSH2 0x18E5 JUMP JUMPDEST SWAP3 SWAP2 POP POP JUMP JUMPDEST PUSH1 0x0 DUP2 MLOAD SWAP1 POP PUSH2 0xEC3 DUP2 PUSH2 0x18E5 JUMP JUMPDEST SWAP3 SWAP2 POP POP JUMP JUMPDEST PUSH1 0x0 PUSH1 0x20 DUP3 DUP5 SUB SLT ISZERO PUSH2 0xEDF JUMPI PUSH2 0xEDE PUSH2 0x15EB JUMP JUMPDEST JUMPDEST PUSH1 0x0 PUSH2 0xEED DUP5 DUP3 DUP6 ADD PUSH2 0xE8A JUMP JUMPDEST SWAP2 POP POP SWAP3 SWAP2 POP POP JUMP JUMPDEST PUSH1 0x0 DUP1 PUSH1 0x40 DUP4 DUP6 SUB SLT ISZERO PUSH2 0xF0D JUMPI PUSH2 0xF0C PUSH2 0x15EB JUMP JUMPDEST JUMPDEST PUSH1 0x0 PUSH2 0xF1B DUP6 DUP3 DUP7 ADD PUSH2 0xE8A JUMP JUMPDEST SWAP3 POP POP PUSH1 0x20 PUSH2 0xF2C DUP6 DUP3 DUP7 ADD PUSH2 0xE8A JUMP JUMPDEST SWAP2 POP POP SWAP3 POP SWAP3 SWAP1 POP JUMP JUMPDEST PUSH1 0x0 DUP1 PUSH1 0x0 PUSH1 0x60 DUP5 DUP7 SUB SLT ISZERO PUSH2 0xF4F JUMPI PUSH2 0xF4E PUSH2 0x15EB JUMP JUMPDEST JUMPDEST PUSH1 0x0 PUSH2 0xF5D DUP7 DUP3 DUP8 ADD PUSH2 0xE8A JUMP JUMPDEST SWAP4 POP POP PUSH1 0x20 PUSH2 0xF6E DUP7 DUP3 DUP8 ADD PUSH2 0xE8A JUMP JUMPDEST SWAP3 POP POP PUSH1 0x40 PUSH2 0xF7F DUP7 DUP3 DUP8 ADD PUSH2 0xE9F JUMP JUMPDEST SWAP2 POP POP SWAP3 POP SWAP3 POP SWAP3 JUMP JUMPDEST PUSH1 0x0 DUP1 PUSH1 0x40 DUP4 DUP6 SUB SLT ISZERO PUSH2 0xFA0 JUMPI PUSH2 0xF9F PUSH2 0x15EB JUMP JUMPDEST JUMPDEST PUSH1 0x0 PUSH2 0xFAE DUP6 DUP3 DUP7 ADD PUSH2 0xE8A JUMP JUMPDEST SWAP3 POP POP PUSH1 0x20 PUSH2 0xFBF DUP6 DUP3 DUP7 ADD PUSH2 0xE9F JUMP JUMPDEST SWAP2 POP POP SWAP3 POP SWAP3 SWAP1 POP JUMP JUMPDEST PUSH1 0x0 PUSH1 0x20 DUP3 DUP5 SUB SLT ISZERO PUSH2 0xFDF JUMPI PUSH2 0xFDE PUSH2 0x15EB JUMP JUMPDEST JUMPDEST PUSH1 0x0 PUSH2 0xFED DUP5 DUP3 DUP6 ADD PUSH2 0xE9F JUMP JUMPDEST SWAP2 POP POP SWAP3 SWAP2 POP POP JUMP JUMPDEST PUSH1 0x0 PUSH1 0x20 DUP3 DUP5 SUB SLT ISZERO PUSH2 0x100C JUMPI PUSH2 0x100B PUSH2 0x15EB JUMP JUMPDEST JUMPDEST PUSH1 0x0 PUSH2 0x101A DUP5 DUP3 DUP6 ADD PUSH2 0xEB4 JUMP JUMPDEST SWAP2 POP POP SWAP3 SWAP2 POP POP JUMP JUMPDEST PUSH2 0x102C DUP2 PUSH2 0x14D3 JUMP JUMPDEST DUP3 MSTORE POP POP JUMP JUMPDEST PUSH2 0x103B DUP2 PUSH2 0x14E5 JUMP JUMPDEST DUP3 MSTORE POP POP JUMP JUMPDEST PUSH1 0x0 PUSH2 0x104C DUP3 PUSH2 0x1407 JUMP JUMPDEST PUSH2 0x1056 DUP2 DUP6 PUSH2 0x1412 JUMP JUMPDEST SWAP4 POP PUSH2 0x1066 DUP2 DUP6 PUSH1 0x20 DUP7 ADD PUSH2 0x1528 JUMP JUMPDEST PUSH2 0x106F DUP2 PUSH2 0x15F0 JUMP JUMPDEST DUP5 ADD SWAP2 POP POP SWAP3 SWAP2 POP POP JUMP JUMPDEST PUSH1 0x0 PUSH2 0x1087 PUSH1 0x14 DUP4 PUSH2 0x1412 JUMP JUMPDEST SWAP2 POP PUSH2 0x1092 DUP3 PUSH2 0x1601 JUMP JUMPDEST PUSH1 0x20 DUP3 ADD SWAP1 POP SWAP2 SWAP1 POP JUMP JUMPDEST PUSH1 0x0 PUSH2 0x10AA PUSH1 0x23 DUP4 PUSH2 0x1412 JUMP JUMPDEST SWAP2 POP PUSH2 0x10B5 DUP3 PUSH2 0x162A JUMP JUMPDEST PUSH1 0x40 DUP3 ADD SWAP1 POP SWAP2 SWAP1 POP JUMP JUMPDEST PUSH1 0x0 PUSH2 0x10CD PUSH1 0x22 DUP4 PUSH2 0x1412 JUMP JUMPDEST SWAP2 POP PUSH2 0x10D8 DUP3 PUSH2 0x1679 JUMP JUMPDEST PUSH1 0x40 DUP3 ADD SWAP1 POP SWAP2 SWAP1 POP JUMP JUMPDEST PUSH1 0x0 PUSH2 0x10F0 PUSH1 0x1D DUP4 PUSH2 0x1412 JUMP JUMPDEST SWAP2 POP PUSH2 0x10FB DUP3 PUSH2 0x16C8 JUMP JUMPDEST PUSH1 0x20 DUP3 ADD SWAP1 POP SWAP2 SWAP1 POP JUMP JUMPDEST PUSH1 0x0 PUSH2 0x1113 PUSH1 0x26 DUP4 PUSH2 0x1412 JUMP JUMPDEST SWAP2 POP PUSH2 0x111E DUP3 PUSH2 0x16F1 JUMP JUMPDEST PUSH1 0x40 DUP3 ADD SWAP1 POP SWAP2 SWAP1 POP JUMP JUMPDEST PUSH1 0x0 PUSH2 0x1136 PUSH1 0x16 DUP4 PUSH2 0x1412 JUMP JUMPDEST SWAP2 POP PUSH2 0x1141 DUP3 PUSH2 0x1740 JUMP JUMPDEST PUSH1 0x20 DUP3 ADD SWAP1 POP SWAP2 SWAP1 POP JUMP JUMPDEST PUSH1 0x0 PUSH2 0x1159 PUSH1 0x23 DUP4 PUSH2 0x1412 JUMP JUMPDEST SWAP2 POP PUSH2 0x1164 DUP3 PUSH2 0x1769 JUMP JUMPDEST PUSH1 0x40 DUP3 ADD SWAP1 POP SWAP2 SWAP1 POP JUMP JUMPDEST PUSH1 0x0 PUSH2 0x117C PUSH1 0x25 DUP4 PUSH2 0x1412 JUMP JUMPDEST SWAP2 POP PUSH2 0x1187 DUP3 PUSH2 0x17B8 JUMP JUMPDEST PUSH1 0x40 DUP3 ADD SWAP1 POP SWAP2 SWAP1 POP JUMP JUMPDEST PUSH1 0x0 PUSH2 0x119F PUSH1 0x24 DUP4 PUSH2 0x1412 JUMP JUMPDEST SWAP2 POP PUSH2 0x11AA DUP3 PUSH2 0x1807 JUMP JUMPDEST PUSH1 0x40 DUP3 ADD SWAP1 POP SWAP2 SWAP1 POP JUMP JUMPDEST PUSH1 0x0 PUSH2 0x11C2 PUSH1 0x25 DUP4 PUSH2 0x1412 JUMP JUMPDEST SWAP2 POP PUSH2 0x11CD DUP3 PUSH2 0x1856 JUMP JUMPDEST PUSH1 0x40 DUP3 ADD SWAP1 POP SWAP2 SWAP1 POP JUMP JUMPDEST PUSH1 0x0 PUSH2 0x11E5 PUSH1 0x1F DUP4 PUSH2 0x1412 JUMP JUMPDEST SWAP2 POP PUSH2 0x11F0 DUP3 PUSH2 0x18A5 JUMP JUMPDEST PUSH1 0x20 DUP3 ADD SWAP1 POP SWAP2 SWAP1 POP JUMP JUMPDEST PUSH2 0x1204 DUP2 PUSH2 0x1511 JUMP JUMPDEST DUP3 MSTORE POP POP JUMP JUMPDEST PUSH2 0x1213 DUP2 PUSH2 0x151B JUMP JUMPDEST DUP3 MSTORE POP POP JUMP JUMPDEST PUSH1 0x0 PUSH1 0x20 DUP3 ADD SWAP1 POP PUSH2 0x122E PUSH1 0x0 DUP4 ADD DUP5 PUSH2 0x1023 JUMP JUMPDEST SWAP3 SWAP2 POP POP JUMP JUMPDEST PUSH1 0x0 PUSH1 0x20 DUP3 ADD SWAP1 POP PUSH2 0x1249 PUSH1 0x0 DUP4 ADD DUP5 PUSH2 0x1032 JUMP JUMPDEST SWAP3 SWAP2 POP POP JUMP JUMPDEST PUSH1 0x0 PUSH1 0x20 DUP3 ADD SWAP1 POP DUP2 DUP2 SUB PUSH1 0x0 DUP4 ADD MSTORE PUSH2 0x1269 DUP2 DUP5 PUSH2 0x1041 JUMP JUMPDEST SWAP1 POP SWAP3 SWAP2 POP POP JUMP JUMPDEST PUSH1 0x0 PUSH1 0x20 DUP3 ADD SWAP1 POP DUP2 DUP2 SUB PUSH1 0x0 DUP4 ADD MSTORE PUSH2 0x128A DUP2 PUSH2 0x107A JUMP JUMPDEST SWAP1 POP SWAP2 SWAP1 POP JUMP JUMPDEST PUSH1 0x0 PUSH1 0x20 DUP3 ADD SWAP1 POP DUP2 DUP2 SUB PUSH1 0x0 DUP4 ADD MSTORE PUSH2 0x12AA DUP2 PUSH2 0x109D JUMP JUMPDEST SWAP1 POP SWAP2 SWAP1 POP JUMP JUMPDEST PUSH1 0x0 PUSH1 0x20 DUP3 ADD SWAP1 POP DUP2 DUP2 SUB PUSH1 0x0 DUP4 ADD MSTORE PUSH2 0x12CA DUP2 PUSH2 0x10C0 JUMP JUMPDEST SWAP1 POP SWAP2 SWAP1 POP JUMP JUMPDEST PUSH1 0x0 PUSH1 0x20 DUP3 ADD SWAP1 POP DUP2 DUP2 SUB PUSH1 0x0 DUP4 ADD MSTORE PUSH2 0x12EA DUP2 PUSH2 0x10E3 JUMP JUMPDEST SWAP1 POP SWAP2 SWAP1 POP JUMP JUMPDEST PUSH1 0x0 PUSH1 0x20 DUP3 ADD SWAP1 POP DUP2 DUP2 SUB PUSH1 0x0 DUP4 ADD MSTORE PUSH2 0x130A DUP2 PUSH2 0x1106 JUMP JUMPDEST SWAP1 POP SWAP2 SWAP1 POP JUMP JUMPDEST PUSH1 0x0 PUSH1 0x20 DUP3 ADD SWAP1 POP DUP2 DUP2 SUB PUSH1 0x0 DUP4 ADD MSTORE PUSH2 0x132A DUP2 PUSH2 0x1129 JUMP JUMPDEST SWAP1 POP SWAP2 SWAP1 POP JUMP JUMPDEST PUSH1 0x0 PUSH1 0x20 DUP3 ADD SWAP1 POP DUP2 DUP2 SUB PUSH1 0x0 DUP4 ADD MSTORE PUSH2 0x134A DUP2 PUSH2 0x114C JUMP JUMPDEST SWAP1 POP SWAP2 SWAP1 POP JUMP JUMPDEST PUSH1 0x0 PUSH1 0x20 DUP3 ADD SWAP1 POP DUP2 DUP2 SUB PUSH1 0x0 DUP4 ADD MSTORE PUSH2 0x136A DUP2 PUSH2 0x116F JUMP JUMPDEST SWAP1 POP SWAP2 SWAP1 POP JUMP JUMPDEST PUSH1 0x0 PUSH1 0x20 DUP3 ADD SWAP1 POP DUP2 DUP2 SUB PUSH1 0x0 DUP4 ADD MSTORE PUSH2 0x138A DUP2 PUSH2 0x1192 JUMP JUMPDEST SWAP1 POP SWAP2 SWAP1 POP JUMP JUMPDEST PUSH1 0x0 PUSH1 0x20 DUP3 ADD SWAP1 POP DUP2 DUP2 SUB PUSH1 0x0 DUP4 ADD MSTORE PUSH2 0x13AA DUP2 PUSH2 0x11B5 JUMP JUMPDEST SWAP1 POP SWAP2 SWAP1 POP JUMP JUMPDEST PUSH1 0x0 PUSH1 0x20 DUP3 ADD SWAP1 POP DUP2 DUP2 SUB PUSH1 0x0 DUP4 ADD MSTORE PUSH2 0x13CA DUP2 PUSH2 0x11D8 JUMP JUMPDEST SWAP1 POP SWAP2 SWAP1 POP JUMP JUMPDEST PUSH1 0x0 PUSH1 0x20 DUP3 ADD SWAP1 POP PUSH2 0x13E6 PUSH1 0x0 DUP4 ADD DUP5 PUSH2 0x11FB JUMP JUMPDEST SWAP3 SWAP2 POP POP JUMP JUMPDEST PUSH1 0x0 PUSH1 0x20 DUP3 ADD SWAP1 POP PUSH2 0x1401 PUSH1 0x0 DUP4 ADD DUP5 PUSH2 0x120A JUMP JUMPDEST SWAP3 SWAP2 POP POP JUMP JUMPDEST PUSH1 0x0 DUP2 MLOAD SWAP1 POP SWAP2 SWAP1 POP JUMP JUMPDEST PUSH1 0x0 DUP3 DUP3 MSTORE PUSH1 0x20 DUP3 ADD SWAP1 POP SWAP3 SWAP2 POP POP JUMP JUMPDEST PUSH1 0x0 PUSH2 0x142E DUP3 PUSH2 0x1511 JUMP JUMPDEST SWAP2 POP PUSH2 0x1439 DUP4 PUSH2 0x1511 JUMP JUMPDEST SWAP3 POP DUP3 PUSH32 0xFFFFFFFFFFFFFFFFFFFFFFFFFFFFFFFFFFFFFFFFFFFFFFFFFFFFFFFFFFFFFFFF SUB DUP3 GT ISZERO PUSH2 0x146E JUMPI PUSH2 0x146D PUSH2 0x158D JUMP JUMPDEST JUMPDEST DUP3 DUP3 ADD SWAP1 POP SWAP3 SWAP2 POP POP JUMP JUMPDEST PUSH1 0x0 PUSH2 0x1484 DUP3 PUSH2 0x1511 JUMP JUMPDEST SWAP2 POP PUSH2 0x148F DUP4 PUSH2 0x1511 JUMP JUMPDEST SWAP3 POP DUP2 PUSH32 0xFFFFFFFFFFFFFFFFFFFFFFFFFFFFFFFFFFFFFFFFFFFFFFFFFFFFFFFFFFFFFFFF DIV DUP4 GT DUP3 ISZERO ISZERO AND ISZERO PUSH2 0x14C8 JUMPI PUSH2 0x14C7 PUSH2 0x158D JUMP JUMPDEST JUMPDEST DUP3 DUP3 MUL SWAP1 POP SWAP3 SWAP2 POP POP JUMP JUMPDEST PUSH1 0x0 PUSH2 0x14DE DUP3 PUSH2 0x14F1 JUMP JUMPDEST SWAP1 POP SWAP2 SWAP1 POP JUMP JUMPDEST PUSH1 0x0 DUP2 ISZERO ISZERO SWAP1 POP SWAP2 SWAP1 POP JUMP JUMPDEST PUSH1 0x0 PUSH20 0xFFFFFFFFFFFFFFFFFFFFFFFFFFFFFFFFFFFFFFFF DUP3 AND SWAP1 POP SWAP2 SWAP1 POP JUMP JUMPDEST PUSH1 0x0 DUP2 SWAP1 POP SWAP2 SWAP1 POP JUMP JUMPDEST PUSH1 0x0 PUSH1 0xFF DUP3 AND SWAP1 POP SWAP2 SWAP1 POP JUMP JUMPDEST PUSH1 0x0 JUMPDEST DUP4 DUP2 LT ISZERO PUSH2 0x1546 JUMPI DUP1 DUP3 ADD MLOAD DUP2 DUP5 ADD MSTORE PUSH1 0x20 DUP2 ADD SWAP1 POP PUSH2 0x152B JUMP JUMPDEST DUP4 DUP2 GT ISZERO PUSH2 0x1555 JUMPI PUSH1 0x0 DUP5 DUP5 ADD MSTORE JUMPDEST POP POP POP POP JUMP JUMPDEST PUSH1 0x0 PUSH1 0x2 DUP3 DIV SWAP1 POP PUSH1 0x1 DUP3 AND DUP1 PUSH2 0x1573 JUMPI PUSH1 0x7F DUP3 AND SWAP2 POP JUMPDEST PUSH1 0x20 DUP3 LT DUP2 EQ ISZERO PUSH2 0x1587 JUMPI PUSH2 0x1586 PUSH2 0x15BC JUMP JUMPDEST JUMPDEST POP SWAP2 SWAP1 POP JUMP JUMPDEST PUSH32 0x4E487B7100000000000000000000000000000000000000000000000000000000 PUSH1 0x0 MSTORE PUSH1 0x11 PUSH1 0x4 MSTORE PUSH1 0x24 PUSH1 0x0 REVERT JUMPDEST PUSH32 0x4E487B7100000000000000000000000000000000000000000000000000000000 PUSH1 0x0 MSTORE PUSH1 0x22 PUSH1 0x4 MSTORE PUSH1 0x24 PUSH1 0x0 REVERT JUMPDEST PUSH1 0x0 DUP1 REVERT JUMPDEST PUSH1 0x0 PUSH1 0x1F NOT PUSH1 0x1F DUP4 ADD AND SWAP1 POP SWAP2 SWAP1 POP JUMP JUMPDEST PUSH32 0x496E636F72726563742065746865722073656E74000000000000000000000000 PUSH1 0x0 DUP3 ADD MSTORE POP JUMP JUMPDEST PUSH32 0x45524332303A207472616E7366657220746F20746865207A65726F2061646472 PUSH1 0x0 DUP3 ADD MSTORE PUSH32 0x6573730000000000000000000000000000000000000000000000000000000000 PUSH1 0x20 DUP3 ADD MSTORE POP JUMP JUMPDEST PUSH32 0x45524332303A20617070726F766520746F20746865207A65726F206164647265 PUSH1 0x0 DUP3 ADD MSTORE PUSH32 0x7373000000000000000000000000000000000000000000000000000000000000 PUSH1 0x20 DUP3 ADD MSTORE POP JUMP JUMPDEST PUSH32 0x45524332303A20696E73756666696369656E7420616C6C6F77616E6365000000 PUSH1 0x0 DUP3 ADD MSTORE POP JUMP JUMPDEST PUSH32 0x45524332303A207472616E7366657220616D6F756E7420657863656564732062 PUSH1 0x0 DUP3 ADD MSTORE PUSH32 0x616C616E63650000000000000000000000000000000000000000000000000000 PUSH1 0x20 DUP3 ADD MSTORE POP JUMP JUMPDEST PUSH32 0x4D6178696D756D20737570706C79207265616368656400000000000000000000 PUSH1 0x0 DUP3 ADD MSTORE POP JUMP JUMPDEST PUSH32 0x596F7520646F206E6F74206861766520616E79204D7574616E74204170657320 PUSH1 0x0 DUP3 ADD MSTORE PUSH32 0x4E46540000000000000000000000000000000000000000000000000000000000 PUSH1 0x20 DUP3 ADD MSTORE POP JUMP JUMPDEST PUSH32 0x45524332303A207472616E736665722066726F6D20746865207A65726F206164 PUSH1 0x0 DUP3 ADD MSTORE PUSH32 0x6472657373000000000000000000000000000000000000000000000000000000 PUSH1 0x20 DUP3 ADD MSTORE POP JUMP JUMPDEST PUSH32 0x45524332303A20617070726F76652066726F6D20746865207A65726F20616464 PUSH1 0x0 DUP3 ADD MSTORE PUSH32 0x7265737300000000000000000000000000000000000000000000000000000000 PUSH1 0x20 DUP3 ADD MSTORE POP JUMP JUMPDEST PUSH32 0x45524332303A2064656372656173656420616C6C6F77616E63652062656C6F77 PUSH1 0x0 DUP3 ADD MSTORE PUSH32 0x207A65726F000000000000000000000000000000000000000000000000000000 PUSH1 0x20 DUP3 ADD MSTORE POP JUMP JUMPDEST PUSH32 0x45524332303A206D696E7420746F20746865207A65726F206164647265737300 PUSH1 0x0 DUP3 ADD MSTORE POP JUMP JUMPDEST PUSH2 0x18D7 DUP2 PUSH2 0x14D3 JUMP JUMPDEST DUP2 EQ PUSH2 0x18E2 JUMPI PUSH1 0x0 DUP1 REVERT JUMPDEST POP JUMP JUMPDEST PUSH2 0x18EE DUP2 PUSH2 0x1511 JUMP JUMPDEST DUP2 EQ PUSH2 0x18F9 JUMPI PUSH1 0x0 DUP1 REVERT JUMPDEST POP JUMP INVALID LOG2 PUSH5 0x6970667358 0x22 SLT KECCAK256 CODECOPY RETURN 0xDE DUP1 DUP6 SWAP9 DUP6 0x26 0xD2 CALLDATACOPY PUSH10 0xA62FB1052CA2F883F15 ADD 0xDE POP 0xA7 0xB1 PUSH4 0x5C7980BA CREATE2 PUSH5 0x736F6C6343 STOP ADDMOD SMOD STOP CALLER "
				},
				"gasEstimates": {
					"creation": {
						"codeDepositCost": "1290000",
						"executionCost": "infinite",
						"totalCost": "infinite"
					},
					"external": {
						"allowance(address,address)": "infinite",
						"approve(address,uint256)": "infinite",
						"balanceOf(address)": "2886",
						"claimToken()": "infinite",
						"decimals()": "432",
						"decreaseAllowance(address,uint256)": "infinite",
						"increaseAllowance(address,uint256)": "infinite",
						"mint(uint256)": "infinite",
						"name()": "infinite",
						"symbol()": "infinite",
						"totalSupply()": "2482",
						"transfer(address,uint256)": "infinite",
						"transferFrom(address,address,uint256)": "infinite"
					}
				},
				"methodIdentifiers": {
					"allowance(address,address)": "dd62ed3e",
					"approve(address,uint256)": "095ea7b3",
					"balanceOf(address)": "70a08231",
					"claimToken()": "4451d89f",
					"decimals()": "313ce567",
					"decreaseAllowance(address,uint256)": "a457c2d7",
					"increaseAllowance(address,uint256)": "39509351",
					"mint(uint256)": "a0712d68",
					"name()": "06fdde03",
					"symbol()": "95d89b41",
					"totalSupply()": "18160ddd",
					"transfer(address,uint256)": "a9059cbb",
					"transferFrom(address,address,uint256)": "23b872dd"
				}
			},
			"userdoc": {
				"kind": "user",
				"methods": {},
				"version": 1
			}
		}
	}
}