{
	"contracts/whitelist.sol": {
		"Whitelist": {
			"abi": [
				{
					"anonymous": false,
					"inputs": [
						{
							"indexed": false,
							"internalType": "address",
							"name": "",
							"type": "address"
						},
						{
							"indexed": false,
							"internalType": "string",
							"name": "",
							"type": "string"
						}
					],
					"name": "whitelistLog",
					"type": "event"
				},
				{
					"inputs": [],
					"name": "addToWhitelist",
					"outputs": [],
					"stateMutability": "nonpayable",
					"type": "function"
				},
				{
					"inputs": [],
					"name": "currentlyWhitelisted",
					"outputs": [
						{
							"internalType": "uint256",
							"name": "",
							"type": "uint256"
						}
					],
					"stateMutability": "view",
					"type": "function"
				}
			],
			"devdoc": {
				"kind": "dev",
				"methods": {},
				"version": 1
			},
			"evm": {
				"assembly": "    /* \"contracts/whitelist.sol\":60:577  contract Whitelist {\r... */\n  mstore(0x40, 0x80)\n    /* \"contracts/whitelist.sol\":155:156  3 */\n  0x03\n    /* \"contracts/whitelist.sol\":128:156  uint maxWhitelistAddress = 3 */\n  0x00\n  sstore\n    /* \"contracts/whitelist.sol\":60:577  contract Whitelist {\r... */\n  callvalue\n  dup1\n  iszero\n  tag_1\n  jumpi\n  0x00\n  dup1\n  revert\ntag_1:\n  pop\n  dataSize(sub_0)\n  dup1\n  dataOffset(sub_0)\n  0x00\n  codecopy\n  0x00\n  return\nstop\n\nsub_0: assembly {\n        /* \"contracts/whitelist.sol\":60:577  contract Whitelist {\r... */\n      mstore(0x40, 0x80)\n      callvalue\n      dup1\n      iszero\n      tag_1\n      jumpi\n      0x00\n      dup1\n      revert\n    tag_1:\n      pop\n      jumpi(tag_2, lt(calldatasize, 0x04))\n      shr(0xe0, calldataload(0x00))\n      dup1\n      0x59896366\n      eq\n      tag_3\n      jumpi\n      dup1\n      0xd6730f35\n      eq\n      tag_4\n      jumpi\n    tag_2:\n      0x00\n      dup1\n      revert\n        /* \"contracts/whitelist.sol\":252:566  function addToWhitelist() public {\r... */\n    tag_3:\n      tag_5\n      tag_6\n      jump\t// in\n    tag_5:\n      stop\n        /* \"contracts/whitelist.sol\":163:195  uint public currentlyWhitelisted */\n    tag_4:\n      tag_7\n      tag_8\n      jump\t// in\n    tag_7:\n      mload(0x40)\n      tag_9\n      swap2\n      swap1\n      tag_10\n      jump\t// in\n    tag_9:\n      mload(0x40)\n      dup1\n      swap2\n      sub\n      swap1\n      return\n        /* \"contracts/whitelist.sol\":252:566  function addToWhitelist() public {\r... */\n    tag_6:\n        /* \"contracts/whitelist.sol\":322:341  maxWhitelistAddress */\n      sload(0x00)\n        /* \"contracts/whitelist.sol\":299:319  currentlyWhitelisted */\n      sload(0x01)\n        /* \"contracts/whitelist.sol\":299:341  currentlyWhitelisted < maxWhitelistAddress */\n      lt\n        /* \"contracts/whitelist.sol\":291:360  require(currentlyWhitelisted < maxWhitelistAddress, \"Whitelist full\") */\n      tag_12\n      jumpi\n      mload(0x40)\n      0x08c379a000000000000000000000000000000000000000000000000000000000\n      dup2\n      mstore\n      0x04\n      add\n      tag_13\n      swap1\n      tag_14\n      jump\t// in\n    tag_13:\n      mload(0x40)\n      dup1\n      swap2\n      sub\n      swap1\n      revert\n    tag_12:\n        /* \"contracts/whitelist.sol\":375:391  whitelistAddress */\n      0x02\n        /* \"contracts/whitelist.sol\":375:403  whitelistAddress[msg.sender] */\n      0x00\n        /* \"contracts/whitelist.sol\":392:402  msg.sender */\n      caller\n        /* \"contracts/whitelist.sol\":375:403  whitelistAddress[msg.sender] */\n      0xffffffffffffffffffffffffffffffffffffffff\n      and\n      0xffffffffffffffffffffffffffffffffffffffff\n      and\n      dup2\n      mstore\n      0x20\n      add\n      swap1\n      dup2\n      mstore\n      0x20\n      add\n      0x00\n      keccak256\n      0x00\n      swap1\n      sload\n      swap1\n      0x0100\n      exp\n      swap1\n      div\n      0xff\n      and\n        /* \"contracts/whitelist.sol\":374:403  !whitelistAddress[msg.sender] */\n      iszero\n        /* \"contracts/whitelist.sol\":366:435  require(!whitelistAddress[msg.sender], \"Address already whitelisted\") */\n      tag_15\n      jumpi\n      mload(0x40)\n      0x08c379a000000000000000000000000000000000000000000000000000000000\n      dup2\n      mstore\n      0x04\n      add\n      tag_16\n      swap1\n      tag_17\n      jump\t// in\n    tag_16:\n      mload(0x40)\n      dup1\n      swap2\n      sub\n      swap1\n      revert\n    tag_15:\n        /* \"contracts/whitelist.sol\":472:476  true */\n      0x01\n        /* \"contracts/whitelist.sol\":441:457  whitelistAddress */\n      0x02\n        /* \"contracts/whitelist.sol\":441:469  whitelistAddress[msg.sender] */\n      0x00\n        /* \"contracts/whitelist.sol\":458:468  msg.sender */\n      caller\n        /* \"contracts/whitelist.sol\":441:469  whitelistAddress[msg.sender] */\n      0xffffffffffffffffffffffffffffffffffffffff\n      and\n      0xffffffffffffffffffffffffffffffffffffffff\n      and\n      dup2\n      mstore\n      0x20\n      add\n      swap1\n      dup2\n      mstore\n      0x20\n      add\n      0x00\n      keccak256\n      0x00\n        /* \"contracts/whitelist.sol\":441:476  whitelistAddress[msg.sender] = true */\n      0x0100\n      exp\n      dup2\n      sload\n      dup2\n      0xff\n      mul\n      not\n      and\n      swap1\n      dup4\n      iszero\n      iszero\n      mul\n      or\n      swap1\n      sstore\n      pop\n        /* \"contracts/whitelist.sol\":482:502  currentlyWhitelisted */\n      0x01\n      0x00\n        /* \"contracts/whitelist.sol\":482:504  currentlyWhitelisted++ */\n      dup2\n      sload\n      dup1\n      swap3\n      swap2\n      swap1\n      tag_18\n      swap1\n      tag_19\n      jump\t// in\n    tag_18:\n      swap2\n      swap1\n      pop\n      sstore\n      pop\n        /* \"contracts/whitelist.sol\":515:561  whitelistLog(msg.sender, \"Added to whitelist\") */\n      0x067988fa01e6014de6062ac5892f64cc8ac86c38cc1052e9328b5419f068fa1c\n        /* \"contracts/whitelist.sol\":528:538  msg.sender */\n      caller\n        /* \"contracts/whitelist.sol\":515:561  whitelistLog(msg.sender, \"Added to whitelist\") */\n      mload(0x40)\n      tag_20\n      swap2\n      swap1\n      tag_21\n      jump\t// in\n    tag_20:\n      mload(0x40)\n      dup1\n      swap2\n      sub\n      swap1\n      log1\n        /* \"contracts/whitelist.sol\":252:566  function addToWhitelist() public {\r... */\n      jump\t// out\n        /* \"contracts/whitelist.sol\":163:195  uint public currentlyWhitelisted */\n    tag_8:\n      sload(0x01)\n      dup2\n      jump\t// out\n        /* \"#utility.yul\":7:125   */\n    tag_23:\n        /* \"#utility.yul\":94:118   */\n      tag_25\n        /* \"#utility.yul\":112:117   */\n      dup2\n        /* \"#utility.yul\":94:118   */\n      tag_26\n      jump\t// in\n    tag_25:\n        /* \"#utility.yul\":89:92   */\n      dup3\n        /* \"#utility.yul\":82:119   */\n      mstore\n        /* \"#utility.yul\":7:125   */\n      pop\n      pop\n      jump\t// out\n        /* \"#utility.yul\":131:497   */\n    tag_27:\n        /* \"#utility.yul\":273:276   */\n      0x00\n        /* \"#utility.yul\":294:361   */\n      tag_29\n        /* \"#utility.yul\":358:360   */\n      0x12\n        /* \"#utility.yul\":353:356   */\n      dup4\n        /* \"#utility.yul\":294:361   */\n      tag_30\n      jump\t// in\n    tag_29:\n        /* \"#utility.yul\":287:361   */\n      swap2\n      pop\n        /* \"#utility.yul\":370:463   */\n      tag_31\n        /* \"#utility.yul\":459:462   */\n      dup3\n        /* \"#utility.yul\":370:463   */\n      tag_32\n      jump\t// in\n    tag_31:\n        /* \"#utility.yul\":488:490   */\n      0x20\n        /* \"#utility.yul\":483:486   */\n      dup3\n        /* \"#utility.yul\":479:491   */\n      add\n        /* \"#utility.yul\":472:491   */\n      swap1\n      pop\n        /* \"#utility.yul\":131:497   */\n      swap2\n      swap1\n      pop\n      jump\t// out\n        /* \"#utility.yul\":503:869   */\n    tag_33:\n        /* \"#utility.yul\":645:648   */\n      0x00\n        /* \"#utility.yul\":666:733   */\n      tag_35\n        /* \"#utility.yul\":730:732   */\n      0x0e\n        /* \"#utility.yul\":725:728   */\n      dup4\n        /* \"#utility.yul\":666:733   */\n      tag_30\n      jump\t// in\n    tag_35:\n        /* \"#utility.yul\":659:733   */\n      swap2\n      pop\n        /* \"#utility.yul\":742:835   */\n      tag_36\n        /* \"#utility.yul\":831:834   */\n      dup3\n        /* \"#utility.yul\":742:835   */\n      tag_37\n      jump\t// in\n    tag_36:\n        /* \"#utility.yul\":860:862   */\n      0x20\n        /* \"#utility.yul\":855:858   */\n      dup3\n        /* \"#utility.yul\":851:863   */\n      add\n        /* \"#utility.yul\":844:863   */\n      swap1\n      pop\n        /* \"#utility.yul\":503:869   */\n      swap2\n      swap1\n      pop\n      jump\t// out\n        /* \"#utility.yul\":875:1241   */\n    tag_38:\n        /* \"#utility.yul\":1017:1020   */\n      0x00\n        /* \"#utility.yul\":1038:1105   */\n      tag_40\n        /* \"#utility.yul\":1102:1104   */\n      0x1b\n        /* \"#utility.yul\":1097:1100   */\n      dup4\n        /* \"#utility.yul\":1038:1105   */\n      tag_30\n      jump\t// in\n    tag_40:\n        /* \"#utility.yul\":1031:1105   */\n      swap2\n      pop\n        /* \"#utility.yul\":1114:1207   */\n      tag_41\n        /* \"#utility.yul\":1203:1206   */\n      dup3\n        /* \"#utility.yul\":1114:1207   */\n      tag_42\n      jump\t// in\n    tag_41:\n        /* \"#utility.yul\":1232:1234   */\n      0x20\n        /* \"#utility.yul\":1227:1230   */\n      dup3\n        /* \"#utility.yul\":1223:1235   */\n      add\n        /* \"#utility.yul\":1216:1235   */\n      swap1\n      pop\n        /* \"#utility.yul\":875:1241   */\n      swap2\n      swap1\n      pop\n      jump\t// out\n        /* \"#utility.yul\":1247:1365   */\n    tag_43:\n        /* \"#utility.yul\":1334:1358   */\n      tag_45\n        /* \"#utility.yul\":1352:1357   */\n      dup2\n        /* \"#utility.yul\":1334:1358   */\n      tag_46\n      jump\t// in\n    tag_45:\n        /* \"#utility.yul\":1329:1332   */\n      dup3\n        /* \"#utility.yul\":1322:1359   */\n      mstore\n        /* \"#utility.yul\":1247:1365   */\n      pop\n      pop\n      jump\t// out\n        /* \"#utility.yul\":1371:1900   */\n    tag_21:\n        /* \"#utility.yul\":1565:1569   */\n      0x00\n        /* \"#utility.yul\":1603:1605   */\n      0x40\n        /* \"#utility.yul\":1592:1601   */\n      dup3\n        /* \"#utility.yul\":1588:1606   */\n      add\n        /* \"#utility.yul\":1580:1606   */\n      swap1\n      pop\n        /* \"#utility.yul\":1616:1687   */\n      tag_48\n        /* \"#utility.yul\":1684:1685   */\n      0x00\n        /* \"#utility.yul\":1673:1682   */\n      dup4\n        /* \"#utility.yul\":1669:1686   */\n      add\n        /* \"#utility.yul\":1660:1666   */\n      dup5\n        /* \"#utility.yul\":1616:1687   */\n      tag_23\n      jump\t// in\n    tag_48:\n        /* \"#utility.yul\":1734:1743   */\n      dup2\n        /* \"#utility.yul\":1728:1732   */\n      dup2\n        /* \"#utility.yul\":1724:1744   */\n      sub\n        /* \"#utility.yul\":1719:1721   */\n      0x20\n        /* \"#utility.yul\":1708:1717   */\n      dup4\n        /* \"#utility.yul\":1704:1722   */\n      add\n        /* \"#utility.yul\":1697:1745   */\n      mstore\n        /* \"#utility.yul\":1762:1893   */\n      tag_49\n        /* \"#utility.yul\":1888:1892   */\n      dup2\n        /* \"#utility.yul\":1762:1893   */\n      tag_27\n      jump\t// in\n    tag_49:\n        /* \"#utility.yul\":1754:1893   */\n      swap1\n      pop\n        /* \"#utility.yul\":1371:1900   */\n      swap3\n      swap2\n      pop\n      pop\n      jump\t// out\n        /* \"#utility.yul\":1906:2325   */\n    tag_14:\n        /* \"#utility.yul\":2072:2076   */\n      0x00\n        /* \"#utility.yul\":2110:2112   */\n      0x20\n        /* \"#utility.yul\":2099:2108   */\n      dup3\n        /* \"#utility.yul\":2095:2113   */\n      add\n        /* \"#utility.yul\":2087:2113   */\n      swap1\n      pop\n        /* \"#utility.yul\":2159:2168   */\n      dup2\n        /* \"#utility.yul\":2153:2157   */\n      dup2\n        /* \"#utility.yul\":2149:2169   */\n      sub\n        /* \"#utility.yul\":2145:2146   */\n      0x00\n        /* \"#utility.yul\":2134:2143   */\n      dup4\n        /* \"#utility.yul\":2130:2147   */\n      add\n        /* \"#utility.yul\":2123:2170   */\n      mstore\n        /* \"#utility.yul\":2187:2318   */\n      tag_51\n        /* \"#utility.yul\":2313:2317   */\n      dup2\n        /* \"#utility.yul\":2187:2318   */\n      tag_33\n      jump\t// in\n    tag_51:\n        /* \"#utility.yul\":2179:2318   */\n      swap1\n      pop\n        /* \"#utility.yul\":1906:2325   */\n      swap2\n      swap1\n      pop\n      jump\t// out\n        /* \"#utility.yul\":2331:2750   */\n    tag_17:\n        /* \"#utility.yul\":2497:2501   */\n      0x00\n        /* \"#utility.yul\":2535:2537   */\n      0x20\n        /* \"#utility.yul\":2524:2533   */\n      dup3\n        /* \"#utility.yul\":2520:2538   */\n      add\n        /* \"#utility.yul\":2512:2538   */\n      swap1\n      pop\n        /* \"#utility.yul\":2584:2593   */\n      dup2\n        /* \"#utility.yul\":2578:2582   */\n      dup2\n        /* \"#utility.yul\":2574:2594   */\n      sub\n        /* \"#utility.yul\":2570:2571   */\n      0x00\n        /* \"#utility.yul\":2559:2568   */\n      dup4\n        /* \"#utility.yul\":2555:2572   */\n      add\n        /* \"#utility.yul\":2548:2595   */\n      mstore\n        /* \"#utility.yul\":2612:2743   */\n      tag_53\n        /* \"#utility.yul\":2738:2742   */\n      dup2\n        /* \"#utility.yul\":2612:2743   */\n      tag_38\n      jump\t// in\n    tag_53:\n        /* \"#utility.yul\":2604:2743   */\n      swap1\n      pop\n        /* \"#utility.yul\":2331:2750   */\n      swap2\n      swap1\n      pop\n      jump\t// out\n        /* \"#utility.yul\":2756:2978   */\n    tag_10:\n        /* \"#utility.yul\":2849:2853   */\n      0x00\n        /* \"#utility.yul\":2887:2889   */\n      0x20\n        /* \"#utility.yul\":2876:2885   */\n      dup3\n        /* \"#utility.yul\":2872:2890   */\n      add\n        /* \"#utility.yul\":2864:2890   */\n      swap1\n      pop\n        /* \"#utility.yul\":2900:2971   */\n      tag_55\n        /* \"#utility.yul\":2968:2969   */\n      0x00\n        /* \"#utility.yul\":2957:2966   */\n      dup4\n        /* \"#utility.yul\":2953:2970   */\n      add\n        /* \"#utility.yul\":2944:2950   */\n      dup5\n        /* \"#utility.yul\":2900:2971   */\n      tag_43\n      jump\t// in\n    tag_55:\n        /* \"#utility.yul\":2756:2978   */\n      swap3\n      swap2\n      pop\n      pop\n      jump\t// out\n        /* \"#utility.yul\":2984:3153   */\n    tag_30:\n        /* \"#utility.yul\":3068:3079   */\n      0x00\n        /* \"#utility.yul\":3102:3108   */\n      dup3\n        /* \"#utility.yul\":3097:3100   */\n      dup3\n        /* \"#utility.yul\":3090:3109   */\n      mstore\n        /* \"#utility.yul\":3142:3146   */\n      0x20\n        /* \"#utility.yul\":3137:3140   */\n      dup3\n        /* \"#utility.yul\":3133:3147   */\n      add\n        /* \"#utility.yul\":3118:3147   */\n      swap1\n      pop\n        /* \"#utility.yul\":2984:3153   */\n      swap3\n      swap2\n      pop\n      pop\n      jump\t// out\n        /* \"#utility.yul\":3159:3255   */\n    tag_26:\n        /* \"#utility.yul\":3196:3203   */\n      0x00\n        /* \"#utility.yul\":3225:3249   */\n      tag_58\n        /* \"#utility.yul\":3243:3248   */\n      dup3\n        /* \"#utility.yul\":3225:3249   */\n      tag_59\n      jump\t// in\n    tag_58:\n        /* \"#utility.yul\":3214:3249   */\n      swap1\n      pop\n        /* \"#utility.yul\":3159:3255   */\n      swap2\n      swap1\n      pop\n      jump\t// out\n        /* \"#utility.yul\":3261:3387   */\n    tag_59:\n        /* \"#utility.yul\":3298:3305   */\n      0x00\n        /* \"#utility.yul\":3338:3380   */\n      0xffffffffffffffffffffffffffffffffffffffff\n        /* \"#utility.yul\":3331:3336   */\n      dup3\n        /* \"#utility.yul\":3327:3381   */\n      and\n        /* \"#utility.yul\":3316:3381   */\n      swap1\n      pop\n        /* \"#utility.yul\":3261:3387   */\n      swap2\n      swap1\n      pop\n      jump\t// out\n        /* \"#utility.yul\":3393:3470   */\n    tag_46:\n        /* \"#utility.yul\":3430:3437   */\n      0x00\n        /* \"#utility.yul\":3459:3464   */\n      dup2\n        /* \"#utility.yul\":3448:3464   */\n      swap1\n      pop\n        /* \"#utility.yul\":3393:3470   */\n      swap2\n      swap1\n      pop\n      jump\t// out\n        /* \"#utility.yul\":3476:3709   */\n    tag_19:\n        /* \"#utility.yul\":3515:3518   */\n      0x00\n        /* \"#utility.yul\":3538:3562   */\n      tag_63\n        /* \"#utility.yul\":3556:3561   */\n      dup3\n        /* \"#utility.yul\":3538:3562   */\n      tag_46\n      jump\t// in\n    tag_63:\n        /* \"#utility.yul\":3529:3562   */\n      swap2\n      pop\n        /* \"#utility.yul\":3584:3650   */\n      0xffffffffffffffffffffffffffffffffffffffffffffffffffffffffffffffff\n        /* \"#utility.yul\":3577:3582   */\n      dup3\n        /* \"#utility.yul\":3574:3651   */\n      eq\n        /* \"#utility.yul\":3571:3674   */\n      iszero\n      tag_64\n      jumpi\n        /* \"#utility.yul\":3654:3672   */\n      tag_65\n      tag_66\n      jump\t// in\n    tag_65:\n        /* \"#utility.yul\":3571:3674   */\n    tag_64:\n        /* \"#utility.yul\":3701:3702   */\n      0x01\n        /* \"#utility.yul\":3694:3699   */\n      dup3\n        /* \"#utility.yul\":3690:3703   */\n      add\n        /* \"#utility.yul\":3683:3703   */\n      swap1\n      pop\n        /* \"#utility.yul\":3476:3709   */\n      swap2\n      swap1\n      pop\n      jump\t// out\n        /* \"#utility.yul\":3715:3895   */\n    tag_66:\n        /* \"#utility.yul\":3763:3840   */\n      0x4e487b7100000000000000000000000000000000000000000000000000000000\n        /* \"#utility.yul\":3760:3761   */\n      0x00\n        /* \"#utility.yul\":3753:3841   */\n      mstore\n        /* \"#utility.yul\":3860:3864   */\n      0x11\n        /* \"#utility.yul\":3857:3858   */\n      0x04\n        /* \"#utility.yul\":3850:3865   */\n      mstore\n        /* \"#utility.yul\":3884:3888   */\n      0x24\n        /* \"#utility.yul\":3881:3882   */\n      0x00\n        /* \"#utility.yul\":3874:3889   */\n      revert\n        /* \"#utility.yul\":3901:4069   */\n    tag_32:\n        /* \"#utility.yul\":4041:4061   */\n      0x416464656420746f2077686974656c6973740000000000000000000000000000\n        /* \"#utility.yul\":4037:4038   */\n      0x00\n        /* \"#utility.yul\":4029:4035   */\n      dup3\n        /* \"#utility.yul\":4025:4039   */\n      add\n        /* \"#utility.yul\":4018:4062   */\n      mstore\n        /* \"#utility.yul\":3901:4069   */\n      pop\n      jump\t// out\n        /* \"#utility.yul\":4075:4239   */\n    tag_37:\n        /* \"#utility.yul\":4215:4231   */\n      0x57686974656c6973742066756c6c000000000000000000000000000000000000\n        /* \"#utility.yul\":4211:4212   */\n      0x00\n        /* \"#utility.yul\":4203:4209   */\n      dup3\n        /* \"#utility.yul\":4199:4213   */\n      add\n        /* \"#utility.yul\":4192:4232   */\n      mstore\n        /* \"#utility.yul\":4075:4239   */\n      pop\n      jump\t// out\n        /* \"#utility.yul\":4245:4422   */\n    tag_42:\n        /* \"#utility.yul\":4385:4414   */\n      0x4164647265737320616c72656164792077686974656c69737465640000000000\n        /* \"#utility.yul\":4381:4382   */\n      0x00\n        /* \"#utility.yul\":4373:4379   */\n      dup3\n        /* \"#utility.yul\":4369:4383   */\n      add\n        /* \"#utility.yul\":4362:4415   */\n      mstore\n        /* \"#utility.yul\":4245:4422   */\n      pop\n      jump\t// out\n\n    auxdata: 0xa26469706673582212205ef7e8586d588e8d0965268a697d9d4617067bef0252c71b80584d2fb303339f64736f6c63430008070033\n}\n",
				"bytecode": {
					"linkReferences": {},
					"object": "6080604052600360005534801561001557600080fd5b5061046b806100256000396000f3fe608060405234801561001057600080fd5b50600436106100365760003560e01c8063598963661461003b578063d6730f3514610045575b600080fd5b610043610063565b005b61004d6101df565b60405161005a91906102da565b60405180910390f35b600054600154106100a9576040517f08c379a00000000000000000000000000000000000000000000000000000000081526004016100a09061029a565b60405180910390fd5b600260003373ffffffffffffffffffffffffffffffffffffffff1673ffffffffffffffffffffffffffffffffffffffff16815260200190815260200160002060009054906101000a900460ff1615610136576040517f08c379a000000000000000000000000000000000000000000000000000000000815260040161012d906102ba565b60405180910390fd5b6001600260003373ffffffffffffffffffffffffffffffffffffffff1673ffffffffffffffffffffffffffffffffffffffff16815260200190815260200160002060006101000a81548160ff021916908315150217905550600160008154809291906101a190610342565b91905055507f067988fa01e6014de6062ac5892f64cc8ac86c38cc1052e9328b5419f068fa1c336040516101d5919061026c565b60405180910390a1565b60015481565b6101ee81610306565b82525050565b60006102016012836102f5565b915061020c826103ba565b602082019050919050565b6000610224600e836102f5565b915061022f826103e3565b602082019050919050565b6000610247601b836102f5565b91506102528261040c565b602082019050919050565b61026681610338565b82525050565b600060408201905061028160008301846101e5565b8181036020830152610292816101f4565b905092915050565b600060208201905081810360008301526102b381610217565b9050919050565b600060208201905081810360008301526102d38161023a565b9050919050565b60006020820190506102ef600083018461025d565b92915050565b600082825260208201905092915050565b600061031182610318565b9050919050565b600073ffffffffffffffffffffffffffffffffffffffff82169050919050565b6000819050919050565b600061034d82610338565b91507fffffffffffffffffffffffffffffffffffffffffffffffffffffffffffffffff8214156103805761037f61038b565b5b600182019050919050565b7f4e487b7100000000000000000000000000000000000000000000000000000000600052601160045260246000fd5b7f416464656420746f2077686974656c6973740000000000000000000000000000600082015250565b7f57686974656c6973742066756c6c000000000000000000000000000000000000600082015250565b7f4164647265737320616c72656164792077686974656c6973746564000000000060008201525056fea26469706673582212205ef7e8586d588e8d0965268a697d9d4617067bef0252c71b80584d2fb303339f64736f6c63430008070033",
					"opcodes": "PUSH1 0x80 PUSH1 0x40 MSTORE PUSH1 0x3 PUSH1 0x0 SSTORE CALLVALUE DUP1 ISZERO PUSH2 0x15 JUMPI PUSH1 0x0 DUP1 REVERT JUMPDEST POP PUSH2 0x46B DUP1 PUSH2 0x25 PUSH1 0x0 CODECOPY PUSH1 0x0 RETURN INVALID PUSH1 0x80 PUSH1 0x40 MSTORE CALLVALUE DUP1 ISZERO PUSH2 0x10 JUMPI PUSH1 0x0 DUP1 REVERT JUMPDEST POP PUSH1 0x4 CALLDATASIZE LT PUSH2 0x36 JUMPI PUSH1 0x0 CALLDATALOAD PUSH1 0xE0 SHR DUP1 PUSH4 0x59896366 EQ PUSH2 0x3B JUMPI DUP1 PUSH4 0xD6730F35 EQ PUSH2 0x45 JUMPI JUMPDEST PUSH1 0x0 DUP1 REVERT JUMPDEST PUSH2 0x43 PUSH2 0x63 JUMP JUMPDEST STOP JUMPDEST PUSH2 0x4D PUSH2 0x1DF JUMP JUMPDEST PUSH1 0x40 MLOAD PUSH2 0x5A SWAP2 SWAP1 PUSH2 0x2DA JUMP JUMPDEST PUSH1 0x40 MLOAD DUP1 SWAP2 SUB SWAP1 RETURN JUMPDEST PUSH1 0x0 SLOAD PUSH1 0x1 SLOAD LT PUSH2 0xA9 JUMPI PUSH1 0x40 MLOAD PUSH32 0x8C379A000000000000000000000000000000000000000000000000000000000 DUP2 MSTORE PUSH1 0x4 ADD PUSH2 0xA0 SWAP1 PUSH2 0x29A JUMP JUMPDEST PUSH1 0x40 MLOAD DUP1 SWAP2 SUB SWAP1 REVERT JUMPDEST PUSH1 0x2 PUSH1 0x0 CALLER PUSH20 0xFFFFFFFFFFFFFFFFFFFFFFFFFFFFFFFFFFFFFFFF AND PUSH20 0xFFFFFFFFFFFFFFFFFFFFFFFFFFFFFFFFFFFFFFFF AND DUP2 MSTORE PUSH1 0x20 ADD SWAP1 DUP2 MSTORE PUSH1 0x20 ADD PUSH1 0x0 KECCAK256 PUSH1 0x0 SWAP1 SLOAD SWAP1 PUSH2 0x100 EXP SWAP1 DIV PUSH1 0xFF AND ISZERO PUSH2 0x136 JUMPI PUSH1 0x40 MLOAD PUSH32 0x8C379A000000000000000000000000000000000000000000000000000000000 DUP2 MSTORE PUSH1 0x4 ADD PUSH2 0x12D SWAP1 PUSH2 0x2BA JUMP JUMPDEST PUSH1 0x40 MLOAD DUP1 SWAP2 SUB SWAP1 REVERT JUMPDEST PUSH1 0x1 PUSH1 0x2 PUSH1 0x0 CALLER PUSH20 0xFFFFFFFFFFFFFFFFFFFFFFFFFFFFFFFFFFFFFFFF AND PUSH20 0xFFFFFFFFFFFFFFFFFFFFFFFFFFFFFFFFFFFFFFFF AND DUP2 MSTORE PUSH1 0x20 ADD SWAP1 DUP2 MSTORE PUSH1 0x20 ADD PUSH1 0x0 KECCAK256 PUSH1 0x0 PUSH2 0x100 EXP DUP2 SLOAD DUP2 PUSH1 0xFF MUL NOT AND SWAP1 DUP4 ISZERO ISZERO MUL OR SWAP1 SSTORE POP PUSH1 0x1 PUSH1 0x0 DUP2 SLOAD DUP1 SWAP3 SWAP2 SWAP1 PUSH2 0x1A1 SWAP1 PUSH2 0x342 JUMP JUMPDEST SWAP2 SWAP1 POP SSTORE POP PUSH32 0x67988FA01E6014DE6062AC5892F64CC8AC86C38CC1052E9328B5419F068FA1C CALLER PUSH1 0x40 MLOAD PUSH2 0x1D5 SWAP2 SWAP1 PUSH2 0x26C JUMP JUMPDEST PUSH1 0x40 MLOAD DUP1 SWAP2 SUB SWAP1 LOG1 JUMP JUMPDEST PUSH1 0x1 SLOAD DUP2 JUMP JUMPDEST PUSH2 0x1EE DUP2 PUSH2 0x306 JUMP JUMPDEST DUP3 MSTORE POP POP JUMP JUMPDEST PUSH1 0x0 PUSH2 0x201 PUSH1 0x12 DUP4 PUSH2 0x2F5 JUMP JUMPDEST SWAP2 POP PUSH2 0x20C DUP3 PUSH2 0x3BA JUMP JUMPDEST PUSH1 0x20 DUP3 ADD SWAP1 POP SWAP2 SWAP1 POP JUMP JUMPDEST PUSH1 0x0 PUSH2 0x224 PUSH1 0xE DUP4 PUSH2 0x2F5 JUMP JUMPDEST SWAP2 POP PUSH2 0x22F DUP3 PUSH2 0x3E3 JUMP JUMPDEST PUSH1 0x20 DUP3 ADD SWAP1 POP SWAP2 SWAP1 POP JUMP JUMPDEST PUSH1 0x0 PUSH2 0x247 PUSH1 0x1B DUP4 PUSH2 0x2F5 JUMP JUMPDEST SWAP2 POP PUSH2 0x252 DUP3 PUSH2 0x40C JUMP JUMPDEST PUSH1 0x20 DUP3 ADD SWAP1 POP SWAP2 SWAP1 POP JUMP JUMPDEST PUSH2 0x266 DUP2 PUSH2 0x338 JUMP JUMPDEST DUP3 MSTORE POP POP JUMP JUMPDEST PUSH1 0x0 PUSH1 0x40 DUP3 ADD SWAP1 POP PUSH2 0x281 PUSH1 0x0 DUP4 ADD DUP5 PUSH2 0x1E5 JUMP JUMPDEST DUP2 DUP2 SUB PUSH1 0x20 DUP4 ADD MSTORE PUSH2 0x292 DUP2 PUSH2 0x1F4 JUMP JUMPDEST SWAP1 POP SWAP3 SWAP2 POP POP JUMP JUMPDEST PUSH1 0x0 PUSH1 0x20 DUP3 ADD SWAP1 POP DUP2 DUP2 SUB PUSH1 0x0 DUP4 ADD MSTORE PUSH2 0x2B3 DUP2 PUSH2 0x217 JUMP JUMPDEST SWAP1 POP SWAP2 SWAP1 POP JUMP JUMPDEST PUSH1 0x0 PUSH1 0x20 DUP3 ADD SWAP1 POP DUP2 DUP2 SUB PUSH1 0x0 DUP4 ADD MSTORE PUSH2 0x2D3 DUP2 PUSH2 0x23A JUMP JUMPDEST SWAP1 POP SWAP2 SWAP1 POP JUMP JUMPDEST PUSH1 0x0 PUSH1 0x20 DUP3 ADD SWAP1 POP PUSH2 0x2EF PUSH1 0x0 DUP4 ADD DUP5 PUSH2 0x25D JUMP JUMPDEST SWAP3 SWAP2 POP POP JUMP JUMPDEST PUSH1 0x0 DUP3 DUP3 MSTORE PUSH1 0x20 DUP3 ADD SWAP1 POP SWAP3 SWAP2 POP POP JUMP JUMPDEST PUSH1 0x0 PUSH2 0x311 DUP3 PUSH2 0x318 JUMP JUMPDEST SWAP1 POP SWAP2 SWAP1 POP JUMP JUMPDEST PUSH1 0x0 PUSH20 0xFFFFFFFFFFFFFFFFFFFFFFFFFFFFFFFFFFFFFFFF DUP3 AND SWAP1 POP SWAP2 SWAP1 POP JUMP JUMPDEST PUSH1 0x0 DUP2 SWAP1 POP SWAP2 SWAP1 POP JUMP JUMPDEST PUSH1 0x0 PUSH2 0x34D DUP3 PUSH2 0x338 JUMP JUMPDEST SWAP2 POP PUSH32 0xFFFFFFFFFFFFFFFFFFFFFFFFFFFFFFFFFFFFFFFFFFFFFFFFFFFFFFFFFFFFFFFF DUP3 EQ ISZERO PUSH2 0x380 JUMPI PUSH2 0x37F PUSH2 0x38B JUMP JUMPDEST JUMPDEST PUSH1 0x1 DUP3 ADD SWAP1 POP SWAP2 SWAP1 POP JUMP JUMPDEST PUSH32 0x4E487B7100000000000000000000000000000000000000000000000000000000 PUSH1 0x0 MSTORE PUSH1 0x11 PUSH1 0x4 MSTORE PUSH1 0x24 PUSH1 0x0 REVERT JUMPDEST PUSH32 0x416464656420746F2077686974656C6973740000000000000000000000000000 PUSH1 0x0 DUP3 ADD MSTORE POP JUMP JUMPDEST PUSH32 0x57686974656C6973742066756C6C000000000000000000000000000000000000 PUSH1 0x0 DUP3 ADD MSTORE POP JUMP JUMPDEST PUSH32 0x4164647265737320616C72656164792077686974656C69737465640000000000 PUSH1 0x0 DUP3 ADD MSTORE POP JUMP INVALID LOG2 PUSH5 0x6970667358 0x22 SLT KECCAK256 0x5E 0xF7 0xE8 PC PUSH14 0x588E8D0965268A697D9D4617067B 0xEF MUL MSTORE 0xC7 SHL DUP1 PC 0x4D 0x2F 0xB3 SUB CALLER SWAP16 PUSH5 0x736F6C6343 STOP ADDMOD SMOD STOP CALLER "
				},
				"gasEstimates": {
					"creation": {
						"codeDepositCost": "226200",
						"executionCost": "22375",
						"totalCost": "248575"
					},
					"external": {
						"addToWhitelist()": "57515",
						"currentlyWhitelisted()": "2429"
					}
				},
				"methodIdentifiers": {
					"addToWhitelist()": "59896366",
					"currentlyWhitelisted()": "d6730f35"
				}
			},
			"userdoc": {
				"kind": "user",
				"methods": {},
				"version": 1
			}
		}
	}
}