{
	"contracts/whitelist.sol": {
		"Whitelist": {
			"abi": [
				{
					"anonymous": false,
					"inputs": [
						{
							"indexed": false,
							"internalType": "address",
							"name": "",
							"type": "address"
						},
						{
							"indexed": false,
							"internalType": "string",
							"name": "",
							"type": "string"
						}
					],
					"name": "whitelistLog",
					"type": "event"
				},
				{
					"inputs": [],
					"name": "addToWhitelist",
					"outputs": [],
					"stateMutability": "nonpayable",
					"type": "function"
				},
				{
					"inputs": [],
					"name": "currentlyWhitelisted",
					"outputs": [
						{
							"internalType": "uint256",
							"name": "",
							"type": "uint256"
						}
					],
					"stateMutability": "view",
					"type": "function"
				},
				{
					"inputs": [],
					"name": "getAddressStatus",
					"outputs": [
						{
							"internalType": "bool",
							"name": "",
							"type": "bool"
						}
					],
					"stateMutability": "view",
					"type": "function"
				},
				{
					"inputs": [
						{
							"internalType": "address",
							"name": "",
							"type": "address"
						}
					],
					"name": "whitelistAddress",
					"outputs": [
						{
							"internalType": "bool",
							"name": "",
							"type": "bool"
						}
					],
					"stateMutability": "view",
					"type": "function"
				}
			],
			"devdoc": {
				"kind": "dev",
				"methods": {},
				"version": 1
			},
			"evm": {
				"assembly": "    /* \"contracts/whitelist.sol\":60:681  contract Whitelist {\r... */\n  mstore(0x40, 0x80)\n    /* \"contracts/whitelist.sol\":155:156  3 */\n  0x03\n    /* \"contracts/whitelist.sol\":128:156  uint maxWhitelistAddress = 3 */\n  0x00\n  sstore\n    /* \"contracts/whitelist.sol\":60:681  contract Whitelist {\r... */\n  callvalue\n  dup1\n  iszero\n  tag_1\n  jumpi\n  0x00\n  dup1\n  revert\ntag_1:\n  pop\n  dataSize(sub_0)\n  dup1\n  dataOffset(sub_0)\n  0x00\n  codecopy\n  0x00\n  return\nstop\n\nsub_0: assembly {\n        /* \"contracts/whitelist.sol\":60:681  contract Whitelist {\r... */\n      mstore(0x40, 0x80)\n      callvalue\n      dup1\n      iszero\n      tag_1\n      jumpi\n      0x00\n      dup1\n      revert\n    tag_1:\n      pop\n      jumpi(tag_2, lt(calldatasize, 0x04))\n      shr(0xe0, calldataload(0x00))\n      dup1\n      0x41566585\n      eq\n      tag_3\n      jumpi\n      dup1\n      0x59896366\n      eq\n      tag_4\n      jumpi\n      dup1\n      0x95076334\n      eq\n      tag_5\n      jumpi\n      dup1\n      0xd6730f35\n      eq\n      tag_6\n      jumpi\n    tag_2:\n      0x00\n      dup1\n      revert\n        /* \"contracts/whitelist.sol\":202:251  mapping(address => bool) public  whitelistAddress */\n    tag_3:\n      tag_7\n      0x04\n      dup1\n      calldatasize\n      sub\n      dup2\n      add\n      swap1\n      tag_8\n      swap2\n      swap1\n      tag_9\n      jump\t// in\n    tag_8:\n      tag_10\n      jump\t// in\n    tag_7:\n      mload(0x40)\n      tag_11\n      swap2\n      swap1\n      tag_12\n      jump\t// in\n    tag_11:\n      mload(0x40)\n      dup1\n      swap2\n      sub\n      swap1\n      return\n        /* \"contracts/whitelist.sol\":260:574  function addToWhitelist() public {\r... */\n    tag_4:\n      tag_13\n      tag_14\n      jump\t// in\n    tag_13:\n      stop\n        /* \"contracts/whitelist.sol\":579:678  function getAddressStatus() public view returns(bool){\r... */\n    tag_5:\n      tag_15\n      tag_16\n      jump\t// in\n    tag_15:\n      mload(0x40)\n      tag_17\n      swap2\n      swap1\n      tag_12\n      jump\t// in\n    tag_17:\n      mload(0x40)\n      dup1\n      swap2\n      sub\n      swap1\n      return\n        /* \"contracts/whitelist.sol\":163:195  uint public currentlyWhitelisted */\n    tag_6:\n      tag_18\n      tag_19\n      jump\t// in\n    tag_18:\n      mload(0x40)\n      tag_20\n      swap2\n      swap1\n      tag_21\n      jump\t// in\n    tag_20:\n      mload(0x40)\n      dup1\n      swap2\n      sub\n      swap1\n      return\n        /* \"contracts/whitelist.sol\":202:251  mapping(address => bool) public  whitelistAddress */\n    tag_10:\n      mstore(0x20, 0x02)\n      dup1\n      0x00\n      mstore\n      keccak256(0x00, 0x40)\n      0x00\n      swap2\n      pop\n      sload\n      swap1\n      0x0100\n      exp\n      swap1\n      div\n      0xff\n      and\n      dup2\n      jump\t// out\n        /* \"contracts/whitelist.sol\":260:574  function addToWhitelist() public {\r... */\n    tag_14:\n        /* \"contracts/whitelist.sol\":308:324  whitelistAddress */\n      0x02\n        /* \"contracts/whitelist.sol\":308:336  whitelistAddress[msg.sender] */\n      0x00\n        /* \"contracts/whitelist.sol\":325:335  msg.sender */\n      caller\n        /* \"contracts/whitelist.sol\":308:336  whitelistAddress[msg.sender] */\n      0xffffffffffffffffffffffffffffffffffffffff\n      and\n      0xffffffffffffffffffffffffffffffffffffffff\n      and\n      dup2\n      mstore\n      0x20\n      add\n      swap1\n      dup2\n      mstore\n      0x20\n      add\n      0x00\n      keccak256\n      0x00\n      swap1\n      sload\n      swap1\n      0x0100\n      exp\n      swap1\n      div\n      0xff\n      and\n        /* \"contracts/whitelist.sol\":307:336  !whitelistAddress[msg.sender] */\n      iszero\n        /* \"contracts/whitelist.sol\":299:368  require(!whitelistAddress[msg.sender], \"Address already whitelisted\") */\n      tag_23\n      jumpi\n      mload(0x40)\n      0x08c379a000000000000000000000000000000000000000000000000000000000\n      dup2\n      mstore\n      0x04\n      add\n      tag_24\n      swap1\n      tag_25\n      jump\t// in\n    tag_24:\n      mload(0x40)\n      dup1\n      swap2\n      sub\n      swap1\n      revert\n    tag_23:\n        /* \"contracts/whitelist.sol\":405:424  maxWhitelistAddress */\n      sload(0x00)\n        /* \"contracts/whitelist.sol\":382:402  currentlyWhitelisted */\n      sload(0x01)\n        /* \"contracts/whitelist.sol\":382:424  currentlyWhitelisted < maxWhitelistAddress */\n      lt\n        /* \"contracts/whitelist.sol\":374:443  require(currentlyWhitelisted < maxWhitelistAddress, \"Whitelist full\") */\n      tag_26\n      jumpi\n      mload(0x40)\n      0x08c379a000000000000000000000000000000000000000000000000000000000\n      dup2\n      mstore\n      0x04\n      add\n      tag_27\n      swap1\n      tag_28\n      jump\t// in\n    tag_27:\n      mload(0x40)\n      dup1\n      swap2\n      sub\n      swap1\n      revert\n    tag_26:\n        /* \"contracts/whitelist.sol\":480:484  true */\n      0x01\n        /* \"contracts/whitelist.sol\":449:465  whitelistAddress */\n      0x02\n        /* \"contracts/whitelist.sol\":449:477  whitelistAddress[msg.sender] */\n      0x00\n        /* \"contracts/whitelist.sol\":466:476  msg.sender */\n      caller\n        /* \"contracts/whitelist.sol\":449:477  whitelistAddress[msg.sender] */\n      0xffffffffffffffffffffffffffffffffffffffff\n      and\n      0xffffffffffffffffffffffffffffffffffffffff\n      and\n      dup2\n      mstore\n      0x20\n      add\n      swap1\n      dup2\n      mstore\n      0x20\n      add\n      0x00\n      keccak256\n      0x00\n        /* \"contracts/whitelist.sol\":449:484  whitelistAddress[msg.sender] = true */\n      0x0100\n      exp\n      dup2\n      sload\n      dup2\n      0xff\n      mul\n      not\n      and\n      swap1\n      dup4\n      iszero\n      iszero\n      mul\n      or\n      swap1\n      sstore\n      pop\n        /* \"contracts/whitelist.sol\":490:510  currentlyWhitelisted */\n      0x01\n      0x00\n        /* \"contracts/whitelist.sol\":490:512  currentlyWhitelisted++ */\n      dup2\n      sload\n      dup1\n      swap3\n      swap2\n      swap1\n      tag_29\n      swap1\n      tag_30\n      jump\t// in\n    tag_29:\n      swap2\n      swap1\n      pop\n      sstore\n      pop\n        /* \"contracts/whitelist.sol\":523:569  whitelistLog(msg.sender, \"Added to whitelist\") */\n      0x067988fa01e6014de6062ac5892f64cc8ac86c38cc1052e9328b5419f068fa1c\n        /* \"contracts/whitelist.sol\":536:546  msg.sender */\n      caller\n        /* \"contracts/whitelist.sol\":523:569  whitelistLog(msg.sender, \"Added to whitelist\") */\n      mload(0x40)\n      tag_31\n      swap2\n      swap1\n      tag_32\n      jump\t// in\n    tag_31:\n      mload(0x40)\n      dup1\n      swap2\n      sub\n      swap1\n      log1\n        /* \"contracts/whitelist.sol\":260:574  function addToWhitelist() public {\r... */\n      jump\t// out\n        /* \"contracts/whitelist.sol\":579:678  function getAddressStatus() public view returns(bool){\r... */\n    tag_16:\n        /* \"contracts/whitelist.sol\":627:631  bool */\n      0x00\n        /* \"contracts/whitelist.sol\":645:661  whitelistAddress */\n      0x02\n        /* \"contracts/whitelist.sol\":645:673  whitelistAddress[msg.sender] */\n      0x00\n        /* \"contracts/whitelist.sol\":662:672  msg.sender */\n      caller\n        /* \"contracts/whitelist.sol\":645:673  whitelistAddress[msg.sender] */\n      0xffffffffffffffffffffffffffffffffffffffff\n      and\n      0xffffffffffffffffffffffffffffffffffffffff\n      and\n      dup2\n      mstore\n      0x20\n      add\n      swap1\n      dup2\n      mstore\n      0x20\n      add\n      0x00\n      keccak256\n      0x00\n      swap1\n      sload\n      swap1\n      0x0100\n      exp\n      swap1\n      div\n      0xff\n      and\n        /* \"contracts/whitelist.sol\":638:673  return whitelistAddress[msg.sender] */\n      swap1\n      pop\n        /* \"contracts/whitelist.sol\":579:678  function getAddressStatus() public view returns(bool){\r... */\n      swap1\n      jump\t// out\n        /* \"contracts/whitelist.sol\":163:195  uint public currentlyWhitelisted */\n    tag_19:\n      sload(0x01)\n      dup2\n      jump\t// out\n        /* \"#utility.yul\":7:146   */\n    tag_35:\n        /* \"#utility.yul\":53:58   */\n      0x00\n        /* \"#utility.yul\":91:97   */\n      dup2\n        /* \"#utility.yul\":78:98   */\n      calldataload\n        /* \"#utility.yul\":69:98   */\n      swap1\n      pop\n        /* \"#utility.yul\":107:140   */\n      tag_37\n        /* \"#utility.yul\":134:139   */\n      dup2\n        /* \"#utility.yul\":107:140   */\n      tag_38\n      jump\t// in\n    tag_37:\n        /* \"#utility.yul\":7:146   */\n      swap3\n      swap2\n      pop\n      pop\n      jump\t// out\n        /* \"#utility.yul\":152:481   */\n    tag_9:\n        /* \"#utility.yul\":211:217   */\n      0x00\n        /* \"#utility.yul\":260:262   */\n      0x20\n        /* \"#utility.yul\":248:257   */\n      dup3\n        /* \"#utility.yul\":239:246   */\n      dup5\n        /* \"#utility.yul\":235:258   */\n      sub\n        /* \"#utility.yul\":231:263   */\n      slt\n        /* \"#utility.yul\":228:347   */\n      iszero\n      tag_40\n      jumpi\n        /* \"#utility.yul\":266:345   */\n      tag_41\n      tag_42\n      jump\t// in\n    tag_41:\n        /* \"#utility.yul\":228:347   */\n    tag_40:\n        /* \"#utility.yul\":386:387   */\n      0x00\n        /* \"#utility.yul\":411:464   */\n      tag_43\n        /* \"#utility.yul\":456:463   */\n      dup5\n        /* \"#utility.yul\":447:453   */\n      dup3\n        /* \"#utility.yul\":436:445   */\n      dup6\n        /* \"#utility.yul\":432:454   */\n      add\n        /* \"#utility.yul\":411:464   */\n      tag_35\n      jump\t// in\n    tag_43:\n        /* \"#utility.yul\":401:464   */\n      swap2\n      pop\n        /* \"#utility.yul\":357:474   */\n      pop\n        /* \"#utility.yul\":152:481   */\n      swap3\n      swap2\n      pop\n      pop\n      jump\t// out\n        /* \"#utility.yul\":487:605   */\n    tag_44:\n        /* \"#utility.yul\":574:598   */\n      tag_46\n        /* \"#utility.yul\":592:597   */\n      dup2\n        /* \"#utility.yul\":574:598   */\n      tag_47\n      jump\t// in\n    tag_46:\n        /* \"#utility.yul\":569:572   */\n      dup3\n        /* \"#utility.yul\":562:599   */\n      mstore\n        /* \"#utility.yul\":487:605   */\n      pop\n      pop\n      jump\t// out\n        /* \"#utility.yul\":611:720   */\n    tag_48:\n        /* \"#utility.yul\":692:713   */\n      tag_50\n        /* \"#utility.yul\":707:712   */\n      dup2\n        /* \"#utility.yul\":692:713   */\n      tag_51\n      jump\t// in\n    tag_50:\n        /* \"#utility.yul\":687:690   */\n      dup3\n        /* \"#utility.yul\":680:714   */\n      mstore\n        /* \"#utility.yul\":611:720   */\n      pop\n      pop\n      jump\t// out\n        /* \"#utility.yul\":726:1092   */\n    tag_52:\n        /* \"#utility.yul\":868:871   */\n      0x00\n        /* \"#utility.yul\":889:956   */\n      tag_54\n        /* \"#utility.yul\":953:955   */\n      0x12\n        /* \"#utility.yul\":948:951   */\n      dup4\n        /* \"#utility.yul\":889:956   */\n      tag_55\n      jump\t// in\n    tag_54:\n        /* \"#utility.yul\":882:956   */\n      swap2\n      pop\n        /* \"#utility.yul\":965:1058   */\n      tag_56\n        /* \"#utility.yul\":1054:1057   */\n      dup3\n        /* \"#utility.yul\":965:1058   */\n      tag_57\n      jump\t// in\n    tag_56:\n        /* \"#utility.yul\":1083:1085   */\n      0x20\n        /* \"#utility.yul\":1078:1081   */\n      dup3\n        /* \"#utility.yul\":1074:1086   */\n      add\n        /* \"#utility.yul\":1067:1086   */\n      swap1\n      pop\n        /* \"#utility.yul\":726:1092   */\n      swap2\n      swap1\n      pop\n      jump\t// out\n        /* \"#utility.yul\":1098:1464   */\n    tag_58:\n        /* \"#utility.yul\":1240:1243   */\n      0x00\n        /* \"#utility.yul\":1261:1328   */\n      tag_60\n        /* \"#utility.yul\":1325:1327   */\n      0x0e\n        /* \"#utility.yul\":1320:1323   */\n      dup4\n        /* \"#utility.yul\":1261:1328   */\n      tag_55\n      jump\t// in\n    tag_60:\n        /* \"#utility.yul\":1254:1328   */\n      swap2\n      pop\n        /* \"#utility.yul\":1337:1430   */\n      tag_61\n        /* \"#utility.yul\":1426:1429   */\n      dup3\n        /* \"#utility.yul\":1337:1430   */\n      tag_62\n      jump\t// in\n    tag_61:\n        /* \"#utility.yul\":1455:1457   */\n      0x20\n        /* \"#utility.yul\":1450:1453   */\n      dup3\n        /* \"#utility.yul\":1446:1458   */\n      add\n        /* \"#utility.yul\":1439:1458   */\n      swap1\n      pop\n        /* \"#utility.yul\":1098:1464   */\n      swap2\n      swap1\n      pop\n      jump\t// out\n        /* \"#utility.yul\":1470:1836   */\n    tag_63:\n        /* \"#utility.yul\":1612:1615   */\n      0x00\n        /* \"#utility.yul\":1633:1700   */\n      tag_65\n        /* \"#utility.yul\":1697:1699   */\n      0x1b\n        /* \"#utility.yul\":1692:1695   */\n      dup4\n        /* \"#utility.yul\":1633:1700   */\n      tag_55\n      jump\t// in\n    tag_65:\n        /* \"#utility.yul\":1626:1700   */\n      swap2\n      pop\n        /* \"#utility.yul\":1709:1802   */\n      tag_66\n        /* \"#utility.yul\":1798:1801   */\n      dup3\n        /* \"#utility.yul\":1709:1802   */\n      tag_67\n      jump\t// in\n    tag_66:\n        /* \"#utility.yul\":1827:1829   */\n      0x20\n        /* \"#utility.yul\":1822:1825   */\n      dup3\n        /* \"#utility.yul\":1818:1830   */\n      add\n        /* \"#utility.yul\":1811:1830   */\n      swap1\n      pop\n        /* \"#utility.yul\":1470:1836   */\n      swap2\n      swap1\n      pop\n      jump\t// out\n        /* \"#utility.yul\":1842:1960   */\n    tag_68:\n        /* \"#utility.yul\":1929:1953   */\n      tag_70\n        /* \"#utility.yul\":1947:1952   */\n      dup2\n        /* \"#utility.yul\":1929:1953   */\n      tag_71\n      jump\t// in\n    tag_70:\n        /* \"#utility.yul\":1924:1927   */\n      dup3\n        /* \"#utility.yul\":1917:1954   */\n      mstore\n        /* \"#utility.yul\":1842:1960   */\n      pop\n      pop\n      jump\t// out\n        /* \"#utility.yul\":1966:2495   */\n    tag_32:\n        /* \"#utility.yul\":2160:2164   */\n      0x00\n        /* \"#utility.yul\":2198:2200   */\n      0x40\n        /* \"#utility.yul\":2187:2196   */\n      dup3\n        /* \"#utility.yul\":2183:2201   */\n      add\n        /* \"#utility.yul\":2175:2201   */\n      swap1\n      pop\n        /* \"#utility.yul\":2211:2282   */\n      tag_73\n        /* \"#utility.yul\":2279:2280   */\n      0x00\n        /* \"#utility.yul\":2268:2277   */\n      dup4\n        /* \"#utility.yul\":2264:2281   */\n      add\n        /* \"#utility.yul\":2255:2261   */\n      dup5\n        /* \"#utility.yul\":2211:2282   */\n      tag_44\n      jump\t// in\n    tag_73:\n        /* \"#utility.yul\":2329:2338   */\n      dup2\n        /* \"#utility.yul\":2323:2327   */\n      dup2\n        /* \"#utility.yul\":2319:2339   */\n      sub\n        /* \"#utility.yul\":2314:2316   */\n      0x20\n        /* \"#utility.yul\":2303:2312   */\n      dup4\n        /* \"#utility.yul\":2299:2317   */\n      add\n        /* \"#utility.yul\":2292:2340   */\n      mstore\n        /* \"#utility.yul\":2357:2488   */\n      tag_74\n        /* \"#utility.yul\":2483:2487   */\n      dup2\n        /* \"#utility.yul\":2357:2488   */\n      tag_52\n      jump\t// in\n    tag_74:\n        /* \"#utility.yul\":2349:2488   */\n      swap1\n      pop\n        /* \"#utility.yul\":1966:2495   */\n      swap3\n      swap2\n      pop\n      pop\n      jump\t// out\n        /* \"#utility.yul\":2501:2711   */\n    tag_12:\n        /* \"#utility.yul\":2588:2592   */\n      0x00\n        /* \"#utility.yul\":2626:2628   */\n      0x20\n        /* \"#utility.yul\":2615:2624   */\n      dup3\n        /* \"#utility.yul\":2611:2629   */\n      add\n        /* \"#utility.yul\":2603:2629   */\n      swap1\n      pop\n        /* \"#utility.yul\":2639:2704   */\n      tag_76\n        /* \"#utility.yul\":2701:2702   */\n      0x00\n        /* \"#utility.yul\":2690:2699   */\n      dup4\n        /* \"#utility.yul\":2686:2703   */\n      add\n        /* \"#utility.yul\":2677:2683   */\n      dup5\n        /* \"#utility.yul\":2639:2704   */\n      tag_48\n      jump\t// in\n    tag_76:\n        /* \"#utility.yul\":2501:2711   */\n      swap3\n      swap2\n      pop\n      pop\n      jump\t// out\n        /* \"#utility.yul\":2717:3136   */\n    tag_28:\n        /* \"#utility.yul\":2883:2887   */\n      0x00\n        /* \"#utility.yul\":2921:2923   */\n      0x20\n        /* \"#utility.yul\":2910:2919   */\n      dup3\n        /* \"#utility.yul\":2906:2924   */\n      add\n        /* \"#utility.yul\":2898:2924   */\n      swap1\n      pop\n        /* \"#utility.yul\":2970:2979   */\n      dup2\n        /* \"#utility.yul\":2964:2968   */\n      dup2\n        /* \"#utility.yul\":2960:2980   */\n      sub\n        /* \"#utility.yul\":2956:2957   */\n      0x00\n        /* \"#utility.yul\":2945:2954   */\n      dup4\n        /* \"#utility.yul\":2941:2958   */\n      add\n        /* \"#utility.yul\":2934:2981   */\n      mstore\n        /* \"#utility.yul\":2998:3129   */\n      tag_78\n        /* \"#utility.yul\":3124:3128   */\n      dup2\n        /* \"#utility.yul\":2998:3129   */\n      tag_58\n      jump\t// in\n    tag_78:\n        /* \"#utility.yul\":2990:3129   */\n      swap1\n      pop\n        /* \"#utility.yul\":2717:3136   */\n      swap2\n      swap1\n      pop\n      jump\t// out\n        /* \"#utility.yul\":3142:3561   */\n    tag_25:\n        /* \"#utility.yul\":3308:3312   */\n      0x00\n        /* \"#utility.yul\":3346:3348   */\n      0x20\n        /* \"#utility.yul\":3335:3344   */\n      dup3\n        /* \"#utility.yul\":3331:3349   */\n      add\n        /* \"#utility.yul\":3323:3349   */\n      swap1\n      pop\n        /* \"#utility.yul\":3395:3404   */\n      dup2\n        /* \"#utility.yul\":3389:3393   */\n      dup2\n        /* \"#utility.yul\":3385:3405   */\n      sub\n        /* \"#utility.yul\":3381:3382   */\n      0x00\n        /* \"#utility.yul\":3370:3379   */\n      dup4\n        /* \"#utility.yul\":3366:3383   */\n      add\n        /* \"#utility.yul\":3359:3406   */\n      mstore\n        /* \"#utility.yul\":3423:3554   */\n      tag_80\n        /* \"#utility.yul\":3549:3553   */\n      dup2\n        /* \"#utility.yul\":3423:3554   */\n      tag_63\n      jump\t// in\n    tag_80:\n        /* \"#utility.yul\":3415:3554   */\n      swap1\n      pop\n        /* \"#utility.yul\":3142:3561   */\n      swap2\n      swap1\n      pop\n      jump\t// out\n        /* \"#utility.yul\":3567:3789   */\n    tag_21:\n        /* \"#utility.yul\":3660:3664   */\n      0x00\n        /* \"#utility.yul\":3698:3700   */\n      0x20\n        /* \"#utility.yul\":3687:3696   */\n      dup3\n        /* \"#utility.yul\":3683:3701   */\n      add\n        /* \"#utility.yul\":3675:3701   */\n      swap1\n      pop\n        /* \"#utility.yul\":3711:3782   */\n      tag_82\n        /* \"#utility.yul\":3779:3780   */\n      0x00\n        /* \"#utility.yul\":3768:3777   */\n      dup4\n        /* \"#utility.yul\":3764:3781   */\n      add\n        /* \"#utility.yul\":3755:3761   */\n      dup5\n        /* \"#utility.yul\":3711:3782   */\n      tag_68\n      jump\t// in\n    tag_82:\n        /* \"#utility.yul\":3567:3789   */\n      swap3\n      swap2\n      pop\n      pop\n      jump\t// out\n        /* \"#utility.yul\":3876:4045   */\n    tag_55:\n        /* \"#utility.yul\":3960:3971   */\n      0x00\n        /* \"#utility.yul\":3994:4000   */\n      dup3\n        /* \"#utility.yul\":3989:3992   */\n      dup3\n        /* \"#utility.yul\":3982:4001   */\n      mstore\n        /* \"#utility.yul\":4034:4038   */\n      0x20\n        /* \"#utility.yul\":4029:4032   */\n      dup3\n        /* \"#utility.yul\":4025:4039   */\n      add\n        /* \"#utility.yul\":4010:4039   */\n      swap1\n      pop\n        /* \"#utility.yul\":3876:4045   */\n      swap3\n      swap2\n      pop\n      pop\n      jump\t// out\n        /* \"#utility.yul\":4051:4147   */\n    tag_47:\n        /* \"#utility.yul\":4088:4095   */\n      0x00\n        /* \"#utility.yul\":4117:4141   */\n      tag_87\n        /* \"#utility.yul\":4135:4140   */\n      dup3\n        /* \"#utility.yul\":4117:4141   */\n      tag_88\n      jump\t// in\n    tag_87:\n        /* \"#utility.yul\":4106:4141   */\n      swap1\n      pop\n        /* \"#utility.yul\":4051:4147   */\n      swap2\n      swap1\n      pop\n      jump\t// out\n        /* \"#utility.yul\":4153:4243   */\n    tag_51:\n        /* \"#utility.yul\":4187:4194   */\n      0x00\n        /* \"#utility.yul\":4230:4235   */\n      dup2\n        /* \"#utility.yul\":4223:4236   */\n      iszero\n        /* \"#utility.yul\":4216:4237   */\n      iszero\n        /* \"#utility.yul\":4205:4237   */\n      swap1\n      pop\n        /* \"#utility.yul\":4153:4243   */\n      swap2\n      swap1\n      pop\n      jump\t// out\n        /* \"#utility.yul\":4249:4375   */\n    tag_88:\n        /* \"#utility.yul\":4286:4293   */\n      0x00\n        /* \"#utility.yul\":4326:4368   */\n      0xffffffffffffffffffffffffffffffffffffffff\n        /* \"#utility.yul\":4319:4324   */\n      dup3\n        /* \"#utility.yul\":4315:4369   */\n      and\n        /* \"#utility.yul\":4304:4369   */\n      swap1\n      pop\n        /* \"#utility.yul\":4249:4375   */\n      swap2\n      swap1\n      pop\n      jump\t// out\n        /* \"#utility.yul\":4381:4458   */\n    tag_71:\n        /* \"#utility.yul\":4418:4425   */\n      0x00\n        /* \"#utility.yul\":4447:4452   */\n      dup2\n        /* \"#utility.yul\":4436:4452   */\n      swap1\n      pop\n        /* \"#utility.yul\":4381:4458   */\n      swap2\n      swap1\n      pop\n      jump\t// out\n        /* \"#utility.yul\":4464:4697   */\n    tag_30:\n        /* \"#utility.yul\":4503:4506   */\n      0x00\n        /* \"#utility.yul\":4526:4550   */\n      tag_93\n        /* \"#utility.yul\":4544:4549   */\n      dup3\n        /* \"#utility.yul\":4526:4550   */\n      tag_71\n      jump\t// in\n    tag_93:\n        /* \"#utility.yul\":4517:4550   */\n      swap2\n      pop\n        /* \"#utility.yul\":4572:4638   */\n      0xffffffffffffffffffffffffffffffffffffffffffffffffffffffffffffffff\n        /* \"#utility.yul\":4565:4570   */\n      dup3\n        /* \"#utility.yul\":4562:4639   */\n      eq\n        /* \"#utility.yul\":4559:4662   */\n      iszero\n      tag_94\n      jumpi\n        /* \"#utility.yul\":4642:4660   */\n      tag_95\n      tag_96\n      jump\t// in\n    tag_95:\n        /* \"#utility.yul\":4559:4662   */\n    tag_94:\n        /* \"#utility.yul\":4689:4690   */\n      0x01\n        /* \"#utility.yul\":4682:4687   */\n      dup3\n        /* \"#utility.yul\":4678:4691   */\n      add\n        /* \"#utility.yul\":4671:4691   */\n      swap1\n      pop\n        /* \"#utility.yul\":4464:4697   */\n      swap2\n      swap1\n      pop\n      jump\t// out\n        /* \"#utility.yul\":4703:4883   */\n    tag_96:\n        /* \"#utility.yul\":4751:4828   */\n      0x4e487b7100000000000000000000000000000000000000000000000000000000\n        /* \"#utility.yul\":4748:4749   */\n      0x00\n        /* \"#utility.yul\":4741:4829   */\n      mstore\n        /* \"#utility.yul\":4848:4852   */\n      0x11\n        /* \"#utility.yul\":4845:4846   */\n      0x04\n        /* \"#utility.yul\":4838:4853   */\n      mstore\n        /* \"#utility.yul\":4872:4876   */\n      0x24\n        /* \"#utility.yul\":4869:4870   */\n      0x00\n        /* \"#utility.yul\":4862:4877   */\n      revert\n        /* \"#utility.yul\":5012:5129   */\n    tag_42:\n        /* \"#utility.yul\":5121:5122   */\n      0x00\n        /* \"#utility.yul\":5118:5119   */\n      dup1\n        /* \"#utility.yul\":5111:5123   */\n      revert\n        /* \"#utility.yul\":5135:5303   */\n    tag_57:\n        /* \"#utility.yul\":5275:5295   */\n      0x416464656420746f2077686974656c6973740000000000000000000000000000\n        /* \"#utility.yul\":5271:5272   */\n      0x00\n        /* \"#utility.yul\":5263:5269   */\n      dup3\n        /* \"#utility.yul\":5259:5273   */\n      add\n        /* \"#utility.yul\":5252:5296   */\n      mstore\n        /* \"#utility.yul\":5135:5303   */\n      pop\n      jump\t// out\n        /* \"#utility.yul\":5309:5473   */\n    tag_62:\n        /* \"#utility.yul\":5449:5465   */\n      0x57686974656c6973742066756c6c000000000000000000000000000000000000\n        /* \"#utility.yul\":5445:5446   */\n      0x00\n        /* \"#utility.yul\":5437:5443   */\n      dup3\n        /* \"#utility.yul\":5433:5447   */\n      add\n        /* \"#utility.yul\":5426:5466   */\n      mstore\n        /* \"#utility.yul\":5309:5473   */\n      pop\n      jump\t// out\n        /* \"#utility.yul\":5479:5656   */\n    tag_67:\n        /* \"#utility.yul\":5619:5648   */\n      0x4164647265737320616c72656164792077686974656c69737465640000000000\n        /* \"#utility.yul\":5615:5616   */\n      0x00\n        /* \"#utility.yul\":5607:5613   */\n      dup3\n        /* \"#utility.yul\":5603:5617   */\n      add\n        /* \"#utility.yul\":5596:5649   */\n      mstore\n        /* \"#utility.yul\":5479:5656   */\n      pop\n      jump\t// out\n        /* \"#utility.yul\":5662:5784   */\n    tag_38:\n        /* \"#utility.yul\":5735:5759   */\n      tag_105\n        /* \"#utility.yul\":5753:5758   */\n      dup2\n        /* \"#utility.yul\":5735:5759   */\n      tag_47\n      jump\t// in\n    tag_105:\n        /* \"#utility.yul\":5728:5733   */\n      dup2\n        /* \"#utility.yul\":5725:5760   */\n      eq\n        /* \"#utility.yul\":5715:5778   */\n      tag_106\n      jumpi\n        /* \"#utility.yul\":5774:5775   */\n      0x00\n        /* \"#utility.yul\":5771:5772   */\n      dup1\n        /* \"#utility.yul\":5764:5776   */\n      revert\n        /* \"#utility.yul\":5715:5778   */\n    tag_106:\n        /* \"#utility.yul\":5662:5784   */\n      pop\n      jump\t// out\n\n    auxdata: 0xa26469706673582212202304807f87694998c4b289cefb1d4e01af97709385c6d2a1796901bfe3034bf564736f6c63430008070033\n}\n",
				"bytecode": {
					"linkReferences": {},
					"object": "6080604052600360005534801561001557600080fd5b506105d7806100256000396000f3fe608060405234801561001057600080fd5b506004361061004c5760003560e01c806341566585146100515780635989636614610081578063950763341461008b578063d6730f35146100a9575b600080fd5b61006b600480360381019061006691906102d2565b6100c7565b60405161007891906103c3565b60405180910390f35b6100896100e7565b005b610093610263565b6040516100a091906103c3565b60405180910390f35b6100b16102b7565b6040516100be919061041e565b60405180910390f35b60026020528060005260406000206000915054906101000a900460ff1681565b600260003373ffffffffffffffffffffffffffffffffffffffff1673ffffffffffffffffffffffffffffffffffffffff16815260200190815260200160002060009054906101000a900460ff1615610174576040517f08c379a000000000000000000000000000000000000000000000000000000000815260040161016b906103fe565b60405180910390fd5b600054600154106101ba576040517f08c379a00000000000000000000000000000000000000000000000000000000081526004016101b1906103de565b60405180910390fd5b6001600260003373ffffffffffffffffffffffffffffffffffffffff1673ffffffffffffffffffffffffffffffffffffffff16815260200190815260200160002060006101000a81548160ff0219169083151502179055506001600081548092919061022590610492565b91905055507f067988fa01e6014de6062ac5892f64cc8ac86c38cc1052e9328b5419f068fa1c336040516102599190610395565b60405180910390a1565b6000600260003373ffffffffffffffffffffffffffffffffffffffff1673ffffffffffffffffffffffffffffffffffffffff16815260200190815260200160002060009054906101000a900460ff16905090565b60015481565b6000813590506102cc8161058a565b92915050565b6000602082840312156102e8576102e761050a565b5b60006102f6848285016102bd565b91505092915050565b6103088161044a565b82525050565b6103178161045c565b82525050565b600061032a601283610439565b91506103358261050f565b602082019050919050565b600061034d600e83610439565b915061035882610538565b602082019050919050565b6000610370601b83610439565b915061037b82610561565b602082019050919050565b61038f81610488565b82525050565b60006040820190506103aa60008301846102ff565b81810360208301526103bb8161031d565b905092915050565b60006020820190506103d8600083018461030e565b92915050565b600060208201905081810360008301526103f781610340565b9050919050565b6000602082019050818103600083015261041781610363565b9050919050565b60006020820190506104336000830184610386565b92915050565b600082825260208201905092915050565b600061045582610468565b9050919050565b60008115159050919050565b600073ffffffffffffffffffffffffffffffffffffffff82169050919050565b6000819050919050565b600061049d82610488565b91507fffffffffffffffffffffffffffffffffffffffffffffffffffffffffffffffff8214156104d0576104cf6104db565b5b600182019050919050565b7f4e487b7100000000000000000000000000000000000000000000000000000000600052601160045260246000fd5b600080fd5b7f416464656420746f2077686974656c6973740000000000000000000000000000600082015250565b7f57686974656c6973742066756c6c000000000000000000000000000000000000600082015250565b7f4164647265737320616c72656164792077686974656c69737465640000000000600082015250565b6105938161044a565b811461059e57600080fd5b5056fea26469706673582212202304807f87694998c4b289cefb1d4e01af97709385c6d2a1796901bfe3034bf564736f6c63430008070033",
					"opcodes": "PUSH1 0x80 PUSH1 0x40 MSTORE PUSH1 0x3 PUSH1 0x0 SSTORE CALLVALUE DUP1 ISZERO PUSH2 0x15 JUMPI PUSH1 0x0 DUP1 REVERT JUMPDEST POP PUSH2 0x5D7 DUP1 PUSH2 0x25 PUSH1 0x0 CODECOPY PUSH1 0x0 RETURN INVALID PUSH1 0x80 PUSH1 0x40 MSTORE CALLVALUE DUP1 ISZERO PUSH2 0x10 JUMPI PUSH1 0x0 DUP1 REVERT JUMPDEST POP PUSH1 0x4 CALLDATASIZE LT PUSH2 0x4C JUMPI PUSH1 0x0 CALLDATALOAD PUSH1 0xE0 SHR DUP1 PUSH4 0x41566585 EQ PUSH2 0x51 JUMPI DUP1 PUSH4 0x59896366 EQ PUSH2 0x81 JUMPI DUP1 PUSH4 0x95076334 EQ PUSH2 0x8B JUMPI DUP1 PUSH4 0xD6730F35 EQ PUSH2 0xA9 JUMPI JUMPDEST PUSH1 0x0 DUP1 REVERT JUMPDEST PUSH2 0x6B PUSH1 0x4 DUP1 CALLDATASIZE SUB DUP2 ADD SWAP1 PUSH2 0x66 SWAP2 SWAP1 PUSH2 0x2D2 JUMP JUMPDEST PUSH2 0xC7 JUMP JUMPDEST PUSH1 0x40 MLOAD PUSH2 0x78 SWAP2 SWAP1 PUSH2 0x3C3 JUMP JUMPDEST PUSH1 0x40 MLOAD DUP1 SWAP2 SUB SWAP1 RETURN JUMPDEST PUSH2 0x89 PUSH2 0xE7 JUMP JUMPDEST STOP JUMPDEST PUSH2 0x93 PUSH2 0x263 JUMP JUMPDEST PUSH1 0x40 MLOAD PUSH2 0xA0 SWAP2 SWAP1 PUSH2 0x3C3 JUMP JUMPDEST PUSH1 0x40 MLOAD DUP1 SWAP2 SUB SWAP1 RETURN JUMPDEST PUSH2 0xB1 PUSH2 0x2B7 JUMP JUMPDEST PUSH1 0x40 MLOAD PUSH2 0xBE SWAP2 SWAP1 PUSH2 0x41E JUMP JUMPDEST PUSH1 0x40 MLOAD DUP1 SWAP2 SUB SWAP1 RETURN JUMPDEST PUSH1 0x2 PUSH1 0x20 MSTORE DUP1 PUSH1 0x0 MSTORE PUSH1 0x40 PUSH1 0x0 KECCAK256 PUSH1 0x0 SWAP2 POP SLOAD SWAP1 PUSH2 0x100 EXP SWAP1 DIV PUSH1 0xFF AND DUP2 JUMP JUMPDEST PUSH1 0x2 PUSH1 0x0 CALLER PUSH20 0xFFFFFFFFFFFFFFFFFFFFFFFFFFFFFFFFFFFFFFFF AND PUSH20 0xFFFFFFFFFFFFFFFFFFFFFFFFFFFFFFFFFFFFFFFF AND DUP2 MSTORE PUSH1 0x20 ADD SWAP1 DUP2 MSTORE PUSH1 0x20 ADD PUSH1 0x0 KECCAK256 PUSH1 0x0 SWAP1 SLOAD SWAP1 PUSH2 0x100 EXP SWAP1 DIV PUSH1 0xFF AND ISZERO PUSH2 0x174 JUMPI PUSH1 0x40 MLOAD PUSH32 0x8C379A000000000000000000000000000000000000000000000000000000000 DUP2 MSTORE PUSH1 0x4 ADD PUSH2 0x16B SWAP1 PUSH2 0x3FE JUMP JUMPDEST PUSH1 0x40 MLOAD DUP1 SWAP2 SUB SWAP1 REVERT JUMPDEST PUSH1 0x0 SLOAD PUSH1 0x1 SLOAD LT PUSH2 0x1BA JUMPI PUSH1 0x40 MLOAD PUSH32 0x8C379A000000000000000000000000000000000000000000000000000000000 DUP2 MSTORE PUSH1 0x4 ADD PUSH2 0x1B1 SWAP1 PUSH2 0x3DE JUMP JUMPDEST PUSH1 0x40 MLOAD DUP1 SWAP2 SUB SWAP1 REVERT JUMPDEST PUSH1 0x1 PUSH1 0x2 PUSH1 0x0 CALLER PUSH20 0xFFFFFFFFFFFFFFFFFFFFFFFFFFFFFFFFFFFFFFFF AND PUSH20 0xFFFFFFFFFFFFFFFFFFFFFFFFFFFFFFFFFFFFFFFF AND DUP2 MSTORE PUSH1 0x20 ADD SWAP1 DUP2 MSTORE PUSH1 0x20 ADD PUSH1 0x0 KECCAK256 PUSH1 0x0 PUSH2 0x100 EXP DUP2 SLOAD DUP2 PUSH1 0xFF MUL NOT AND SWAP1 DUP4 ISZERO ISZERO MUL OR SWAP1 SSTORE POP PUSH1 0x1 PUSH1 0x0 DUP2 SLOAD DUP1 SWAP3 SWAP2 SWAP1 PUSH2 0x225 SWAP1 PUSH2 0x492 JUMP JUMPDEST SWAP2 SWAP1 POP SSTORE POP PUSH32 0x67988FA01E6014DE6062AC5892F64CC8AC86C38CC1052E9328B5419F068FA1C CALLER PUSH1 0x40 MLOAD PUSH2 0x259 SWAP2 SWAP1 PUSH2 0x395 JUMP JUMPDEST PUSH1 0x40 MLOAD DUP1 SWAP2 SUB SWAP1 LOG1 JUMP JUMPDEST PUSH1 0x0 PUSH1 0x2 PUSH1 0x0 CALLER PUSH20 0xFFFFFFFFFFFFFFFFFFFFFFFFFFFFFFFFFFFFFFFF AND PUSH20 0xFFFFFFFFFFFFFFFFFFFFFFFFFFFFFFFFFFFFFFFF AND DUP2 MSTORE PUSH1 0x20 ADD SWAP1 DUP2 MSTORE PUSH1 0x20 ADD PUSH1 0x0 KECCAK256 PUSH1 0x0 SWAP1 SLOAD SWAP1 PUSH2 0x100 EXP SWAP1 DIV PUSH1 0xFF AND SWAP1 POP SWAP1 JUMP JUMPDEST PUSH1 0x1 SLOAD DUP2 JUMP JUMPDEST PUSH1 0x0 DUP2 CALLDATALOAD SWAP1 POP PUSH2 0x2CC DUP2 PUSH2 0x58A JUMP JUMPDEST SWAP3 SWAP2 POP POP JUMP JUMPDEST PUSH1 0x0 PUSH1 0x20 DUP3 DUP5 SUB SLT ISZERO PUSH2 0x2E8 JUMPI PUSH2 0x2E7 PUSH2 0x50A JUMP JUMPDEST JUMPDEST PUSH1 0x0 PUSH2 0x2F6 DUP5 DUP3 DUP6 ADD PUSH2 0x2BD JUMP JUMPDEST SWAP2 POP POP SWAP3 SWAP2 POP POP JUMP JUMPDEST PUSH2 0x308 DUP2 PUSH2 0x44A JUMP JUMPDEST DUP3 MSTORE POP POP JUMP JUMPDEST PUSH2 0x317 DUP2 PUSH2 0x45C JUMP JUMPDEST DUP3 MSTORE POP POP JUMP JUMPDEST PUSH1 0x0 PUSH2 0x32A PUSH1 0x12 DUP4 PUSH2 0x439 JUMP JUMPDEST SWAP2 POP PUSH2 0x335 DUP3 PUSH2 0x50F JUMP JUMPDEST PUSH1 0x20 DUP3 ADD SWAP1 POP SWAP2 SWAP1 POP JUMP JUMPDEST PUSH1 0x0 PUSH2 0x34D PUSH1 0xE DUP4 PUSH2 0x439 JUMP JUMPDEST SWAP2 POP PUSH2 0x358 DUP3 PUSH2 0x538 JUMP JUMPDEST PUSH1 0x20 DUP3 ADD SWAP1 POP SWAP2 SWAP1 POP JUMP JUMPDEST PUSH1 0x0 PUSH2 0x370 PUSH1 0x1B DUP4 PUSH2 0x439 JUMP JUMPDEST SWAP2 POP PUSH2 0x37B DUP3 PUSH2 0x561 JUMP JUMPDEST PUSH1 0x20 DUP3 ADD SWAP1 POP SWAP2 SWAP1 POP JUMP JUMPDEST PUSH2 0x38F DUP2 PUSH2 0x488 JUMP JUMPDEST DUP3 MSTORE POP POP JUMP JUMPDEST PUSH1 0x0 PUSH1 0x40 DUP3 ADD SWAP1 POP PUSH2 0x3AA PUSH1 0x0 DUP4 ADD DUP5 PUSH2 0x2FF JUMP JUMPDEST DUP2 DUP2 SUB PUSH1 0x20 DUP4 ADD MSTORE PUSH2 0x3BB DUP2 PUSH2 0x31D JUMP JUMPDEST SWAP1 POP SWAP3 SWAP2 POP POP JUMP JUMPDEST PUSH1 0x0 PUSH1 0x20 DUP3 ADD SWAP1 POP PUSH2 0x3D8 PUSH1 0x0 DUP4 ADD DUP5 PUSH2 0x30E JUMP JUMPDEST SWAP3 SWAP2 POP POP JUMP JUMPDEST PUSH1 0x0 PUSH1 0x20 DUP3 ADD SWAP1 POP DUP2 DUP2 SUB PUSH1 0x0 DUP4 ADD MSTORE PUSH2 0x3F7 DUP2 PUSH2 0x340 JUMP JUMPDEST SWAP1 POP SWAP2 SWAP1 POP JUMP JUMPDEST PUSH1 0x0 PUSH1 0x20 DUP3 ADD SWAP1 POP DUP2 DUP2 SUB PUSH1 0x0 DUP4 ADD MSTORE PUSH2 0x417 DUP2 PUSH2 0x363 JUMP JUMPDEST SWAP1 POP SWAP2 SWAP1 POP JUMP JUMPDEST PUSH1 0x0 PUSH1 0x20 DUP3 ADD SWAP1 POP PUSH2 0x433 PUSH1 0x0 DUP4 ADD DUP5 PUSH2 0x386 JUMP JUMPDEST SWAP3 SWAP2 POP POP JUMP JUMPDEST PUSH1 0x0 DUP3 DUP3 MSTORE PUSH1 0x20 DUP3 ADD SWAP1 POP SWAP3 SWAP2 POP POP JUMP JUMPDEST PUSH1 0x0 PUSH2 0x455 DUP3 PUSH2 0x468 JUMP JUMPDEST SWAP1 POP SWAP2 SWAP1 POP JUMP JUMPDEST PUSH1 0x0 DUP2 ISZERO ISZERO SWAP1 POP SWAP2 SWAP1 POP JUMP JUMPDEST PUSH1 0x0 PUSH20 0xFFFFFFFFFFFFFFFFFFFFFFFFFFFFFFFFFFFFFFFF DUP3 AND SWAP1 POP SWAP2 SWAP1 POP JUMP JUMPDEST PUSH1 0x0 DUP2 SWAP1 POP SWAP2 SWAP1 POP JUMP JUMPDEST PUSH1 0x0 PUSH2 0x49D DUP3 PUSH2 0x488 JUMP JUMPDEST SWAP2 POP PUSH32 0xFFFFFFFFFFFFFFFFFFFFFFFFFFFFFFFFFFFFFFFFFFFFFFFFFFFFFFFFFFFFFFFF DUP3 EQ ISZERO PUSH2 0x4D0 JUMPI PUSH2 0x4CF PUSH2 0x4DB JUMP JUMPDEST JUMPDEST PUSH1 0x1 DUP3 ADD SWAP1 POP SWAP2 SWAP1 POP JUMP JUMPDEST PUSH32 0x4E487B7100000000000000000000000000000000000000000000000000000000 PUSH1 0x0 MSTORE PUSH1 0x11 PUSH1 0x4 MSTORE PUSH1 0x24 PUSH1 0x0 REVERT JUMPDEST PUSH1 0x0 DUP1 REVERT JUMPDEST PUSH32 0x416464656420746F2077686974656C6973740000000000000000000000000000 PUSH1 0x0 DUP3 ADD MSTORE POP JUMP JUMPDEST PUSH32 0x57686974656C6973742066756C6C000000000000000000000000000000000000 PUSH1 0x0 DUP3 ADD MSTORE POP JUMP JUMPDEST PUSH32 0x4164647265737320616C72656164792077686974656C69737465640000000000 PUSH1 0x0 DUP3 ADD MSTORE POP JUMP JUMPDEST PUSH2 0x593 DUP2 PUSH2 0x44A JUMP JUMPDEST DUP2 EQ PUSH2 0x59E JUMPI PUSH1 0x0 DUP1 REVERT JUMPDEST POP JUMP INVALID LOG2 PUSH5 0x6970667358 0x22 SLT KECCAK256 0x23 DIV DUP1 PUSH32 0x87694998C4B289CEFB1D4E01AF97709385C6D2A1796901BFE3034BF564736F6C PUSH4 0x43000807 STOP CALLER "
				},
				"gasEstimates": {
					"creation": {
						"codeDepositCost": "299000",
						"executionCost": "22443",
						"totalCost": "321443"
					},
					"external": {
						"addToWhitelist()": "57537",
						"currentlyWhitelisted()": "2473",
						"getAddressStatus()": "2590",
						"whitelistAddress(address)": "2823"
					}
				},
				"methodIdentifiers": {
					"addToWhitelist()": "59896366",
					"currentlyWhitelisted()": "d6730f35",
					"getAddressStatus()": "95076334",
					"whitelistAddress(address)": "41566585"
				}
			},
			"userdoc": {
				"kind": "user",
				"methods": {},
				"version": 1
			}
		}
	}
}